{
	"contracts/ERC20.sol": {
		"ERC20": {
			"abi": [
				{
					"inputs": [
						{
							"internalType": "string",
							"name": "_name",
							"type": "string"
						},
						{
							"internalType": "string",
							"name": "_symbol",
							"type": "string"
						},
						{
							"internalType": "uint256",
							"name": "_totalSupply",
							"type": "uint256"
						},
						{
							"internalType": "uint8",
							"name": "_decimals",
							"type": "uint8"
						},
						{
							"internalType": "uint256",
							"name": "_price",
							"type": "uint256"
						}
					],
					"stateMutability": "nonpayable",
					"type": "constructor"
				},
				{
					"anonymous": false,
					"inputs": [
						{
							"indexed": true,
							"internalType": "address",
							"name": "_owner",
							"type": "address"
						},
						{
							"indexed": true,
							"internalType": "address",
							"name": "_spender",
							"type": "address"
						},
						{
							"indexed": false,
							"internalType": "uint256",
							"name": "_amount",
							"type": "uint256"
						}
					],
					"name": "Approval",
					"type": "event"
				},
				{
					"anonymous": false,
					"inputs": [
						{
							"indexed": true,
							"internalType": "address",
							"name": "_from",
							"type": "address"
						},
						{
							"indexed": true,
							"internalType": "address",
							"name": "_to",
							"type": "address"
						},
						{
							"indexed": false,
							"internalType": "uint256",
							"name": "_amount",
							"type": "uint256"
						}
					],
					"name": "Transfer",
					"type": "event"
				},
				{
					"inputs": [
						{
							"internalType": "address",
							"name": "",
							"type": "address"
						},
						{
							"internalType": "address",
							"name": "",
							"type": "address"
						}
					],
					"name": "allowance",
					"outputs": [
						{
							"internalType": "uint256",
							"name": "",
							"type": "uint256"
						}
					],
					"stateMutability": "view",
					"type": "function"
				},
				{
					"inputs": [
						{
							"internalType": "address",
							"name": "_spender",
							"type": "address"
						},
						{
							"internalType": "uint256",
							"name": "_amount",
							"type": "uint256"
						}
					],
					"name": "approve",
					"outputs": [
						{
							"internalType": "bool",
							"name": "",
							"type": "bool"
						}
					],
					"stateMutability": "nonpayable",
					"type": "function"
				},
				{
					"inputs": [
						{
							"internalType": "address",
							"name": "",
							"type": "address"
						}
					],
					"name": "balanceOf",
					"outputs": [
						{
							"internalType": "uint256",
							"name": "",
							"type": "uint256"
						}
					],
					"stateMutability": "view",
					"type": "function"
				},
				{
					"inputs": [],
					"name": "buy",
					"outputs": [
						{
							"internalType": "uint256",
							"name": "",
							"type": "uint256"
						}
					],
					"stateMutability": "payable",
					"type": "function"
				},
				{
					"inputs": [],
					"name": "decimals",
					"outputs": [
						{
							"internalType": "uint8",
							"name": "",
							"type": "uint8"
						}
					],
					"stateMutability": "view",
					"type": "function"
				},
				{
					"inputs": [
						{
							"internalType": "address",
							"name": "_to",
							"type": "address"
						},
						{
							"internalType": "uint256",
							"name": "_amount",
							"type": "uint256"
						}
					],
					"name": "mint",
					"outputs": [],
					"stateMutability": "nonpayable",
					"type": "function"
				},
				{
					"inputs": [],
					"name": "name",
					"outputs": [
						{
							"internalType": "string",
							"name": "",
							"type": "string"
						}
					],
					"stateMutability": "view",
					"type": "function"
				},
				{
					"inputs": [],
					"name": "price",
					"outputs": [
						{
							"internalType": "uint256",
							"name": "",
							"type": "uint256"
						}
					],
					"stateMutability": "view",
					"type": "function"
				},
				{
					"inputs": [],
					"name": "symbol",
					"outputs": [
						{
							"internalType": "string",
							"name": "",
							"type": "string"
						}
					],
					"stateMutability": "view",
					"type": "function"
				},
				{
					"inputs": [],
					"name": "totalSupply",
					"outputs": [
						{
							"internalType": "uint256",
							"name": "",
							"type": "uint256"
						}
					],
					"stateMutability": "view",
					"type": "function"
				},
				{
					"inputs": [
						{
							"internalType": "address",
							"name": "_to",
							"type": "address"
						},
						{
							"internalType": "uint256",
							"name": "_amount",
							"type": "uint256"
						}
					],
					"name": "transfer",
					"outputs": [
						{
							"internalType": "bool",
							"name": "",
							"type": "bool"
						}
					],
					"stateMutability": "nonpayable",
					"type": "function"
				},
				{
					"inputs": [
						{
							"internalType": "address",
							"name": "_from",
							"type": "address"
						},
						{
							"internalType": "address",
							"name": "_to",
							"type": "address"
						},
						{
							"internalType": "uint256",
							"name": "_amount",
							"type": "uint256"
						}
					],
					"name": "transferFrom",
					"outputs": [
						{
							"internalType": "bool",
							"name": "",
							"type": "bool"
						}
					],
					"stateMutability": "nonpayable",
					"type": "function"
				}
			],
			"devdoc": {
				"kind": "dev",
				"methods": {},
				"version": 1
			},
			"evm": {
				"assembly": "    /* \"contracts/ERC20.sol\":59:2648  contract ERC20 {... */\n  mstore(0x40, 0x80)\n    /* \"contracts/ERC20.sol\":536:842  constructor(... */\n  callvalue\n  dup1\n  iszero\n  tag_1\n  jumpi\n  revert(0x00, 0x00)\ntag_1:\n  pop\n  mload(0x40)\n  sub(codesize, bytecodeSize)\n  dup1\n  bytecodeSize\n  dup4\n  codecopy\n  dup2\n  dup2\n  add\n  0x40\n  mstore\n  dup2\n  add\n  swap1\n  tag_2\n  swap2\n  swap1\n  tag_3\n  jump\t// in\ntag_2:\n    /* \"contracts/ERC20.sol\":710:715  _name */\n  dup5\n    /* \"contracts/ERC20.sol\":703:707  name */\n  0x00\n    /* \"contracts/ERC20.sol\":703:715  name = _name */\n  swap1\n  dup2\n  tag_6\n  swap2\n  swap1\n  tag_7\n  jump\t// in\ntag_6:\n  pop\n    /* \"contracts/ERC20.sol\":734:741  _symbol */\n  dup4\n    /* \"contracts/ERC20.sol\":725:731  symbol */\n  0x01\n    /* \"contracts/ERC20.sol\":725:741  symbol = _symbol */\n  swap1\n  dup2\n  tag_8\n  swap2\n  swap1\n  tag_7\n  jump\t// in\ntag_8:\n  pop\n    /* \"contracts/ERC20.sol\":751:781  mint(msg.sender, _totalSupply) */\n  tag_9\n    /* \"contracts/ERC20.sol\":756:766  msg.sender */\n  caller\n    /* \"contracts/ERC20.sol\":768:780  _totalSupply */\n  dup5\n    /* \"contracts/ERC20.sol\":751:755  mint */\n  shl(0x20, tag_10)\n    /* \"contracts/ERC20.sol\":751:781  mint(msg.sender, _totalSupply) */\n  0x20\n  shr\n  jump\t// in\ntag_9:\n    /* \"contracts/ERC20.sol\":802:811  _decimals */\n  dup2\n    /* \"contracts/ERC20.sol\":791:799  decimals */\n  0x03\n  0x00\n    /* \"contracts/ERC20.sol\":791:811  decimals = _decimals */\n  0x0100\n  exp\n  dup2\n  sload\n  dup2\n  0xff\n  mul\n  not\n  and\n  swap1\n  dup4\n  0xff\n  and\n  mul\n  or\n  swap1\n  sstore\n  pop\n    /* \"contracts/ERC20.sol\":829:835  _price */\n  dup1\n    /* \"contracts/ERC20.sol\":821:826  price */\n  0x04\n    /* \"contracts/ERC20.sol\":821:835  price = _price */\n  dup2\n  swap1\n  sstore\n  pop\n    /* \"contracts/ERC20.sol\":536:842  constructor(... */\n  pop\n  pop\n  pop\n  pop\n  pop\n    /* \"contracts/ERC20.sol\":59:2648  contract ERC20 {... */\n  jump(tag_11)\n    /* \"contracts/ERC20.sol\":2361:2504  function mint(address _to, uint256 _amount) public validAddress(_to) {... */\ntag_10:\n    /* \"contracts/ERC20.sol\":2425:2428  _to */\n  dup2\n    /* \"contracts/ERC20.sol\":926:927  0 */\n  0x00\n    /* \"contracts/ERC20.sol\":906:928  _address != address(0) */\n  0xffffffffffffffffffffffffffffffffffffffff\n  and\n    /* \"contracts/ERC20.sol\":906:914  _address */\n  dup2\n    /* \"contracts/ERC20.sol\":906:928  _address != address(0) */\n  0xffffffffffffffffffffffffffffffffffffffff\n  and\n  sub\n    /* \"contracts/ERC20.sol\":898:929  require(_address != address(0)) */\n  tag_13\n  jumpi\n  revert(0x00, 0x00)\ntag_13:\n    /* \"contracts/ERC20.sol\":2455:2462  _amount */\n  dup2\n    /* \"contracts/ERC20.sol\":2440:2451  totalSupply */\n  0x02\n  0x00\n    /* \"contracts/ERC20.sol\":2440:2462  totalSupply += _amount */\n  dup3\n  dup3\n  sload\n  tag_15\n  swap2\n  swap1\n  tag_16\n  jump\t// in\ntag_15:\n  swap3\n  pop\n  pop\n  dup2\n  swap1\n  sstore\n  pop\n    /* \"contracts/ERC20.sol\":2490:2497  _amount */\n  dup2\n    /* \"contracts/ERC20.sol\":2472:2481  balanceOf */\n  0x05\n    /* \"contracts/ERC20.sol\":2472:2486  balanceOf[_to] */\n  0x00\n    /* \"contracts/ERC20.sol\":2482:2485  _to */\n  dup6\n    /* \"contracts/ERC20.sol\":2472:2486  balanceOf[_to] */\n  0xffffffffffffffffffffffffffffffffffffffff\n  and\n  0xffffffffffffffffffffffffffffffffffffffff\n  and\n  dup2\n  mstore\n  0x20\n  add\n  swap1\n  dup2\n  mstore\n  0x20\n  add\n  0x00\n  keccak256\n  0x00\n    /* \"contracts/ERC20.sol\":2472:2497  balanceOf[_to] += _amount */\n  dup3\n  dup3\n  sload\n  tag_17\n  swap2\n  swap1\n  tag_16\n  jump\t// in\ntag_17:\n  swap3\n  pop\n  pop\n  dup2\n  swap1\n  sstore\n  pop\n    /* \"contracts/ERC20.sol\":2361:2504  function mint(address _to, uint256 _amount) public validAddress(_to) {... */\n  pop\n  pop\n  pop\n  jump\t// out\n    /* \"#utility.yul\":7:82   */\ntag_18:\n    /* \"#utility.yul\":40:46   */\n  0x00\n    /* \"#utility.yul\":73:75   */\n  0x40\n    /* \"#utility.yul\":67:76   */\n  mload\n    /* \"#utility.yul\":57:76   */\n  swap1\n  pop\n    /* \"#utility.yul\":7:82   */\n  swap1\n  jump\t// out\n    /* \"#utility.yul\":88:205   */\ntag_19:\n    /* \"#utility.yul\":197:198   */\n  0x00\n    /* \"#utility.yul\":194:195   */\n  0x00\n    /* \"#utility.yul\":187:199   */\n  revert\n    /* \"#utility.yul\":211:328   */\ntag_20:\n    /* \"#utility.yul\":320:321   */\n  0x00\n    /* \"#utility.yul\":317:318   */\n  0x00\n    /* \"#utility.yul\":310:322   */\n  revert\n    /* \"#utility.yul\":334:451   */\ntag_21:\n    /* \"#utility.yul\":443:444   */\n  0x00\n    /* \"#utility.yul\":440:441   */\n  0x00\n    /* \"#utility.yul\":433:445   */\n  revert\n    /* \"#utility.yul\":457:574   */\ntag_22:\n    /* \"#utility.yul\":566:567   */\n  0x00\n    /* \"#utility.yul\":563:564   */\n  0x00\n    /* \"#utility.yul\":556:568   */\n  revert\n    /* \"#utility.yul\":580:682   */\ntag_23:\n    /* \"#utility.yul\":621:627   */\n  0x00\n    /* \"#utility.yul\":672:674   */\n  0x1f\n    /* \"#utility.yul\":668:675   */\n  not\n    /* \"#utility.yul\":663:665   */\n  0x1f\n    /* \"#utility.yul\":656:661   */\n  dup4\n    /* \"#utility.yul\":652:666   */\n  add\n    /* \"#utility.yul\":648:676   */\n  and\n    /* \"#utility.yul\":638:676   */\n  swap1\n  pop\n    /* \"#utility.yul\":580:682   */\n  swap2\n  swap1\n  pop\n  jump\t// out\n    /* \"#utility.yul\":688:868   */\ntag_24:\n    /* \"#utility.yul\":736:813   */\n  0x4e487b7100000000000000000000000000000000000000000000000000000000\n    /* \"#utility.yul\":733:734   */\n  0x00\n    /* \"#utility.yul\":726:814   */\n  mstore\n    /* \"#utility.yul\":833:837   */\n  0x41\n    /* \"#utility.yul\":830:831   */\n  0x04\n    /* \"#utility.yul\":823:838   */\n  mstore\n    /* \"#utility.yul\":857:861   */\n  0x24\n    /* \"#utility.yul\":854:855   */\n  0x00\n    /* \"#utility.yul\":847:862   */\n  revert\n    /* \"#utility.yul\":874:1155   */\ntag_25:\n    /* \"#utility.yul\":957:984   */\n  tag_65\n    /* \"#utility.yul\":979:983   */\n  dup3\n    /* \"#utility.yul\":957:984   */\n  tag_23\n  jump\t// in\ntag_65:\n    /* \"#utility.yul\":949:955   */\n  dup2\n    /* \"#utility.yul\":945:985   */\n  add\n    /* \"#utility.yul\":1087:1093   */\n  dup2\n    /* \"#utility.yul\":1075:1085   */\n  dup2\n    /* \"#utility.yul\":1072:1094   */\n  lt\n    /* \"#utility.yul\":1051:1069   */\n  0xffffffffffffffff\n    /* \"#utility.yul\":1039:1049   */\n  dup3\n    /* \"#utility.yul\":1036:1070   */\n  gt\n    /* \"#utility.yul\":1033:1095   */\n  or\n    /* \"#utility.yul\":1030:1118   */\n  iszero\n  tag_66\n  jumpi\n    /* \"#utility.yul\":1098:1116   */\n  tag_67\n  tag_24\n  jump\t// in\ntag_67:\n    /* \"#utility.yul\":1030:1118   */\ntag_66:\n    /* \"#utility.yul\":1138:1148   */\n  dup1\n    /* \"#utility.yul\":1134:1136   */\n  0x40\n    /* \"#utility.yul\":1127:1149   */\n  mstore\n    /* \"#utility.yul\":917:1155   */\n  pop\n    /* \"#utility.yul\":874:1155   */\n  pop\n  pop\n  jump\t// out\n    /* \"#utility.yul\":1161:1290   */\ntag_26:\n    /* \"#utility.yul\":1195:1201   */\n  0x00\n    /* \"#utility.yul\":1222:1242   */\n  tag_69\n  tag_18\n  jump\t// in\ntag_69:\n    /* \"#utility.yul\":1212:1242   */\n  swap1\n  pop\n    /* \"#utility.yul\":1251:1284   */\n  tag_70\n    /* \"#utility.yul\":1279:1283   */\n  dup3\n    /* \"#utility.yul\":1271:1277   */\n  dup3\n    /* \"#utility.yul\":1251:1284   */\n  tag_25\n  jump\t// in\ntag_70:\n    /* \"#utility.yul\":1161:1290   */\n  swap2\n  swap1\n  pop\n  jump\t// out\n    /* \"#utility.yul\":1296:1604   */\ntag_27:\n    /* \"#utility.yul\":1358:1362   */\n  0x00\n    /* \"#utility.yul\":1448:1466   */\n  0xffffffffffffffff\n    /* \"#utility.yul\":1440:1446   */\n  dup3\n    /* \"#utility.yul\":1437:1467   */\n  gt\n    /* \"#utility.yul\":1434:1490   */\n  iszero\n  tag_72\n  jumpi\n    /* \"#utility.yul\":1470:1488   */\n  tag_73\n  tag_24\n  jump\t// in\ntag_73:\n    /* \"#utility.yul\":1434:1490   */\ntag_72:\n    /* \"#utility.yul\":1508:1537   */\n  tag_74\n    /* \"#utility.yul\":1530:1536   */\n  dup3\n    /* \"#utility.yul\":1508:1537   */\n  tag_23\n  jump\t// in\ntag_74:\n    /* \"#utility.yul\":1500:1537   */\n  swap1\n  pop\n    /* \"#utility.yul\":1592:1596   */\n  0x20\n    /* \"#utility.yul\":1586:1590   */\n  dup2\n    /* \"#utility.yul\":1582:1597   */\n  add\n    /* \"#utility.yul\":1574:1597   */\n  swap1\n  pop\n    /* \"#utility.yul\":1296:1604   */\n  swap2\n  swap1\n  pop\n  jump\t// out\n    /* \"#utility.yul\":1610:1749   */\ntag_28:\n    /* \"#utility.yul\":1699:1705   */\n  dup3\n    /* \"#utility.yul\":1694:1697   */\n  dup2\n    /* \"#utility.yul\":1689:1692   */\n  dup4\n    /* \"#utility.yul\":1683:1706   */\n  mcopy\n    /* \"#utility.yul\":1740:1741   */\n  0x00\n    /* \"#utility.yul\":1731:1737   */\n  dup4\n    /* \"#utility.yul\":1726:1729   */\n  dup4\n    /* \"#utility.yul\":1722:1738   */\n  add\n    /* \"#utility.yul\":1715:1742   */\n  mstore\n    /* \"#utility.yul\":1610:1749   */\n  pop\n  pop\n  pop\n  jump\t// out\n    /* \"#utility.yul\":1755:2189   */\ntag_29:\n    /* \"#utility.yul\":1844:1849   */\n  0x00\n    /* \"#utility.yul\":1869:1935   */\n  tag_77\n    /* \"#utility.yul\":1885:1934   */\n  tag_78\n    /* \"#utility.yul\":1927:1933   */\n  dup5\n    /* \"#utility.yul\":1885:1934   */\n  tag_27\n  jump\t// in\ntag_78:\n    /* \"#utility.yul\":1869:1935   */\n  tag_26\n  jump\t// in\ntag_77:\n    /* \"#utility.yul\":1860:1935   */\n  swap1\n  pop\n    /* \"#utility.yul\":1958:1964   */\n  dup3\n    /* \"#utility.yul\":1951:1956   */\n  dup2\n    /* \"#utility.yul\":1944:1965   */\n  mstore\n    /* \"#utility.yul\":1996:2000   */\n  0x20\n    /* \"#utility.yul\":1989:1994   */\n  dup2\n    /* \"#utility.yul\":1985:2001   */\n  add\n    /* \"#utility.yul\":2034:2037   */\n  dup5\n    /* \"#utility.yul\":2025:2031   */\n  dup5\n    /* \"#utility.yul\":2020:2023   */\n  dup5\n    /* \"#utility.yul\":2016:2032   */\n  add\n    /* \"#utility.yul\":2013:2038   */\n  gt\n    /* \"#utility.yul\":2010:2122   */\n  iszero\n  tag_79\n  jumpi\n    /* \"#utility.yul\":2041:2120   */\n  tag_80\n  tag_22\n  jump\t// in\ntag_80:\n    /* \"#utility.yul\":2010:2122   */\ntag_79:\n    /* \"#utility.yul\":2131:2183   */\n  tag_81\n    /* \"#utility.yul\":2176:2182   */\n  dup5\n    /* \"#utility.yul\":2171:2174   */\n  dup3\n    /* \"#utility.yul\":2166:2169   */\n  dup6\n    /* \"#utility.yul\":2131:2183   */\n  tag_28\n  jump\t// in\ntag_81:\n    /* \"#utility.yul\":1850:2189   */\n  pop\n    /* \"#utility.yul\":1755:2189   */\n  swap4\n  swap3\n  pop\n  pop\n  pop\n  jump\t// out\n    /* \"#utility.yul\":2209:2564   */\ntag_30:\n    /* \"#utility.yul\":2276:2281   */\n  0x00\n    /* \"#utility.yul\":2325:2328   */\n  dup3\n    /* \"#utility.yul\":2318:2322   */\n  0x1f\n    /* \"#utility.yul\":2310:2316   */\n  dup4\n    /* \"#utility.yul\":2306:2323   */\n  add\n    /* \"#utility.yul\":2302:2329   */\n  slt\n    /* \"#utility.yul\":2292:2414   */\n  tag_83\n  jumpi\n    /* \"#utility.yul\":2333:2412   */\n  tag_84\n  tag_21\n  jump\t// in\ntag_84:\n    /* \"#utility.yul\":2292:2414   */\ntag_83:\n    /* \"#utility.yul\":2443:2449   */\n  dup2\n    /* \"#utility.yul\":2437:2450   */\n  mload\n    /* \"#utility.yul\":2468:2558   */\n  tag_85\n    /* \"#utility.yul\":2554:2557   */\n  dup5\n    /* \"#utility.yul\":2546:2552   */\n  dup3\n    /* \"#utility.yul\":2539:2543   */\n  0x20\n    /* \"#utility.yul\":2531:2537   */\n  dup7\n    /* \"#utility.yul\":2527:2544   */\n  add\n    /* \"#utility.yul\":2468:2558   */\n  tag_29\n  jump\t// in\ntag_85:\n    /* \"#utility.yul\":2459:2558   */\n  swap2\n  pop\n    /* \"#utility.yul\":2282:2564   */\n  pop\n    /* \"#utility.yul\":2209:2564   */\n  swap3\n  swap2\n  pop\n  pop\n  jump\t// out\n    /* \"#utility.yul\":2570:2647   */\ntag_31:\n    /* \"#utility.yul\":2607:2614   */\n  0x00\n    /* \"#utility.yul\":2636:2641   */\n  dup2\n    /* \"#utility.yul\":2625:2641   */\n  swap1\n  pop\n    /* \"#utility.yul\":2570:2647   */\n  swap2\n  swap1\n  pop\n  jump\t// out\n    /* \"#utility.yul\":2653:2775   */\ntag_32:\n    /* \"#utility.yul\":2726:2750   */\n  tag_88\n    /* \"#utility.yul\":2744:2749   */\n  dup2\n    /* \"#utility.yul\":2726:2750   */\n  tag_31\n  jump\t// in\ntag_88:\n    /* \"#utility.yul\":2719:2724   */\n  dup2\n    /* \"#utility.yul\":2716:2751   */\n  eq\n    /* \"#utility.yul\":2706:2769   */\n  tag_89\n  jumpi\n    /* \"#utility.yul\":2765:2766   */\n  0x00\n    /* \"#utility.yul\":2762:2763   */\n  0x00\n    /* \"#utility.yul\":2755:2767   */\n  revert\n    /* \"#utility.yul\":2706:2769   */\ntag_89:\n    /* \"#utility.yul\":2653:2775   */\n  pop\n  jump\t// out\n    /* \"#utility.yul\":2781:2924   */\ntag_33:\n    /* \"#utility.yul\":2838:2843   */\n  0x00\n    /* \"#utility.yul\":2869:2875   */\n  dup2\n    /* \"#utility.yul\":2863:2876   */\n  mload\n    /* \"#utility.yul\":2854:2876   */\n  swap1\n  pop\n    /* \"#utility.yul\":2885:2918   */\n  tag_91\n    /* \"#utility.yul\":2912:2917   */\n  dup2\n    /* \"#utility.yul\":2885:2918   */\n  tag_32\n  jump\t// in\ntag_91:\n    /* \"#utility.yul\":2781:2924   */\n  swap3\n  swap2\n  pop\n  pop\n  jump\t// out\n    /* \"#utility.yul\":2930:3016   */\ntag_34:\n    /* \"#utility.yul\":2965:2972   */\n  0x00\n    /* \"#utility.yul\":3005:3009   */\n  0xff\n    /* \"#utility.yul\":2998:3003   */\n  dup3\n    /* \"#utility.yul\":2994:3010   */\n  and\n    /* \"#utility.yul\":2983:3010   */\n  swap1\n  pop\n    /* \"#utility.yul\":2930:3016   */\n  swap2\n  swap1\n  pop\n  jump\t// out\n    /* \"#utility.yul\":3022:3140   */\ntag_35:\n    /* \"#utility.yul\":3093:3115   */\n  tag_94\n    /* \"#utility.yul\":3109:3114   */\n  dup2\n    /* \"#utility.yul\":3093:3115   */\n  tag_34\n  jump\t// in\ntag_94:\n    /* \"#utility.yul\":3086:3091   */\n  dup2\n    /* \"#utility.yul\":3083:3116   */\n  eq\n    /* \"#utility.yul\":3073:3134   */\n  tag_95\n  jumpi\n    /* \"#utility.yul\":3130:3131   */\n  0x00\n    /* \"#utility.yul\":3127:3128   */\n  0x00\n    /* \"#utility.yul\":3120:3132   */\n  revert\n    /* \"#utility.yul\":3073:3134   */\ntag_95:\n    /* \"#utility.yul\":3022:3140   */\n  pop\n  jump\t// out\n    /* \"#utility.yul\":3146:3285   */\ntag_36:\n    /* \"#utility.yul\":3201:3206   */\n  0x00\n    /* \"#utility.yul\":3232:3238   */\n  dup2\n    /* \"#utility.yul\":3226:3239   */\n  mload\n    /* \"#utility.yul\":3217:3239   */\n  swap1\n  pop\n    /* \"#utility.yul\":3248:3279   */\n  tag_97\n    /* \"#utility.yul\":3273:3278   */\n  dup2\n    /* \"#utility.yul\":3248:3279   */\n  tag_35\n  jump\t// in\ntag_97:\n    /* \"#utility.yul\":3146:3285   */\n  swap3\n  swap2\n  pop\n  pop\n  jump\t// out\n    /* \"#utility.yul\":3291:4610   */\ntag_3:\n    /* \"#utility.yul\":3415:3421   */\n  0x00\n    /* \"#utility.yul\":3423:3429   */\n  0x00\n    /* \"#utility.yul\":3431:3437   */\n  0x00\n    /* \"#utility.yul\":3439:3445   */\n  0x00\n    /* \"#utility.yul\":3447:3453   */\n  0x00\n    /* \"#utility.yul\":3496:3499   */\n  0xa0\n    /* \"#utility.yul\":3484:3493   */\n  dup7\n    /* \"#utility.yul\":3475:3482   */\n  dup9\n    /* \"#utility.yul\":3471:3494   */\n  sub\n    /* \"#utility.yul\":3467:3500   */\n  slt\n    /* \"#utility.yul\":3464:3584   */\n  iszero\n  tag_99\n  jumpi\n    /* \"#utility.yul\":3503:3582   */\n  tag_100\n  tag_19\n  jump\t// in\ntag_100:\n    /* \"#utility.yul\":3464:3584   */\ntag_99:\n    /* \"#utility.yul\":3644:3645   */\n  0x00\n    /* \"#utility.yul\":3633:3642   */\n  dup7\n    /* \"#utility.yul\":3629:3646   */\n  add\n    /* \"#utility.yul\":3623:3647   */\n  mload\n    /* \"#utility.yul\":3674:3692   */\n  0xffffffffffffffff\n    /* \"#utility.yul\":3666:3672   */\n  dup2\n    /* \"#utility.yul\":3663:3693   */\n  gt\n    /* \"#utility.yul\":3660:3777   */\n  iszero\n  tag_101\n  jumpi\n    /* \"#utility.yul\":3696:3775   */\n  tag_102\n  tag_20\n  jump\t// in\ntag_102:\n    /* \"#utility.yul\":3660:3777   */\ntag_101:\n    /* \"#utility.yul\":3801:3875   */\n  tag_103\n    /* \"#utility.yul\":3867:3874   */\n  dup9\n    /* \"#utility.yul\":3858:3864   */\n  dup3\n    /* \"#utility.yul\":3847:3856   */\n  dup10\n    /* \"#utility.yul\":3843:3865   */\n  add\n    /* \"#utility.yul\":3801:3875   */\n  tag_30\n  jump\t// in\ntag_103:\n    /* \"#utility.yul\":3791:3875   */\n  swap6\n  pop\n    /* \"#utility.yul\":3594:3885   */\n  pop\n    /* \"#utility.yul\":3945:3947   */\n  0x20\n    /* \"#utility.yul\":3934:3943   */\n  dup7\n    /* \"#utility.yul\":3930:3948   */\n  add\n    /* \"#utility.yul\":3924:3949   */\n  mload\n    /* \"#utility.yul\":3976:3994   */\n  0xffffffffffffffff\n    /* \"#utility.yul\":3968:3974   */\n  dup2\n    /* \"#utility.yul\":3965:3995   */\n  gt\n    /* \"#utility.yul\":3962:4079   */\n  iszero\n  tag_104\n  jumpi\n    /* \"#utility.yul\":3998:4077   */\n  tag_105\n  tag_20\n  jump\t// in\ntag_105:\n    /* \"#utility.yul\":3962:4079   */\ntag_104:\n    /* \"#utility.yul\":4103:4177   */\n  tag_106\n    /* \"#utility.yul\":4169:4176   */\n  dup9\n    /* \"#utility.yul\":4160:4166   */\n  dup3\n    /* \"#utility.yul\":4149:4158   */\n  dup10\n    /* \"#utility.yul\":4145:4167   */\n  add\n    /* \"#utility.yul\":4103:4177   */\n  tag_30\n  jump\t// in\ntag_106:\n    /* \"#utility.yul\":4093:4177   */\n  swap5\n  pop\n    /* \"#utility.yul\":3895:4187   */\n  pop\n    /* \"#utility.yul\":4226:4228   */\n  0x40\n    /* \"#utility.yul\":4252:4316   */\n  tag_107\n    /* \"#utility.yul\":4308:4315   */\n  dup9\n    /* \"#utility.yul\":4299:4305   */\n  dup3\n    /* \"#utility.yul\":4288:4297   */\n  dup10\n    /* \"#utility.yul\":4284:4306   */\n  add\n    /* \"#utility.yul\":4252:4316   */\n  tag_33\n  jump\t// in\ntag_107:\n    /* \"#utility.yul\":4242:4316   */\n  swap4\n  pop\n    /* \"#utility.yul\":4197:4326   */\n  pop\n    /* \"#utility.yul\":4365:4367   */\n  0x60\n    /* \"#utility.yul\":4391:4453   */\n  tag_108\n    /* \"#utility.yul\":4445:4452   */\n  dup9\n    /* \"#utility.yul\":4436:4442   */\n  dup3\n    /* \"#utility.yul\":4425:4434   */\n  dup10\n    /* \"#utility.yul\":4421:4443   */\n  add\n    /* \"#utility.yul\":4391:4453   */\n  tag_36\n  jump\t// in\ntag_108:\n    /* \"#utility.yul\":4381:4453   */\n  swap3\n  pop\n    /* \"#utility.yul\":4336:4463   */\n  pop\n    /* \"#utility.yul\":4502:4505   */\n  0x80\n    /* \"#utility.yul\":4529:4593   */\n  tag_109\n    /* \"#utility.yul\":4585:4592   */\n  dup9\n    /* \"#utility.yul\":4576:4582   */\n  dup3\n    /* \"#utility.yul\":4565:4574   */\n  dup10\n    /* \"#utility.yul\":4561:4583   */\n  add\n    /* \"#utility.yul\":4529:4593   */\n  tag_33\n  jump\t// in\ntag_109:\n    /* \"#utility.yul\":4519:4593   */\n  swap2\n  pop\n    /* \"#utility.yul\":4473:4603   */\n  pop\n    /* \"#utility.yul\":3291:4610   */\n  swap3\n  swap6\n  pop\n  swap3\n  swap6\n  swap1\n  swap4\n  pop\n  jump\t// out\n    /* \"#utility.yul\":4616:4715   */\ntag_37:\n    /* \"#utility.yul\":4668:4674   */\n  0x00\n    /* \"#utility.yul\":4702:4707   */\n  dup2\n    /* \"#utility.yul\":4696:4708   */\n  mload\n    /* \"#utility.yul\":4686:4708   */\n  swap1\n  pop\n    /* \"#utility.yul\":4616:4715   */\n  swap2\n  swap1\n  pop\n  jump\t// out\n    /* \"#utility.yul\":4721:4901   */\ntag_38:\n    /* \"#utility.yul\":4769:4846   */\n  0x4e487b7100000000000000000000000000000000000000000000000000000000\n    /* \"#utility.yul\":4766:4767   */\n  0x00\n    /* \"#utility.yul\":4759:4847   */\n  mstore\n    /* \"#utility.yul\":4866:4870   */\n  0x22\n    /* \"#utility.yul\":4863:4864   */\n  0x04\n    /* \"#utility.yul\":4856:4871   */\n  mstore\n    /* \"#utility.yul\":4890:4894   */\n  0x24\n    /* \"#utility.yul\":4887:4888   */\n  0x00\n    /* \"#utility.yul\":4880:4895   */\n  revert\n    /* \"#utility.yul\":4907:5227   */\ntag_39:\n    /* \"#utility.yul\":4951:4957   */\n  0x00\n    /* \"#utility.yul\":4988:4989   */\n  0x02\n    /* \"#utility.yul\":4982:4986   */\n  dup3\n    /* \"#utility.yul\":4978:4990   */\n  div\n    /* \"#utility.yul\":4968:4990   */\n  swap1\n  pop\n    /* \"#utility.yul\":5035:5036   */\n  0x01\n    /* \"#utility.yul\":5029:5033   */\n  dup3\n    /* \"#utility.yul\":5025:5037   */\n  and\n    /* \"#utility.yul\":5056:5074   */\n  dup1\n    /* \"#utility.yul\":5046:5127   */\n  tag_113\n  jumpi\n    /* \"#utility.yul\":5112:5116   */\n  0x7f\n    /* \"#utility.yul\":5104:5110   */\n  dup3\n    /* \"#utility.yul\":5100:5117   */\n  and\n    /* \"#utility.yul\":5090:5117   */\n  swap2\n  pop\n    /* \"#utility.yul\":5046:5127   */\ntag_113:\n    /* \"#utility.yul\":5174:5176   */\n  0x20\n    /* \"#utility.yul\":5166:5172   */\n  dup3\n    /* \"#utility.yul\":5163:5177   */\n  lt\n    /* \"#utility.yul\":5143:5161   */\n  dup2\n    /* \"#utility.yul\":5140:5178   */\n  sub\n    /* \"#utility.yul\":5137:5221   */\n  tag_114\n  jumpi\n    /* \"#utility.yul\":5193:5211   */\n  tag_115\n  tag_38\n  jump\t// in\ntag_115:\n    /* \"#utility.yul\":5137:5221   */\ntag_114:\n    /* \"#utility.yul\":4958:5227   */\n  pop\n    /* \"#utility.yul\":4907:5227   */\n  swap2\n  swap1\n  pop\n  jump\t// out\n    /* \"#utility.yul\":5233:5374   */\ntag_40:\n    /* \"#utility.yul\":5282:5286   */\n  0x00\n    /* \"#utility.yul\":5305:5308   */\n  dup2\n    /* \"#utility.yul\":5297:5308   */\n  swap1\n  pop\n    /* \"#utility.yul\":5328:5331   */\n  dup2\n    /* \"#utility.yul\":5325:5326   */\n  0x00\n    /* \"#utility.yul\":5318:5332   */\n  mstore\n    /* \"#utility.yul\":5362:5366   */\n  0x20\n    /* \"#utility.yul\":5359:5360   */\n  0x00\n    /* \"#utility.yul\":5349:5367   */\n  keccak256\n    /* \"#utility.yul\":5341:5367   */\n  swap1\n  pop\n    /* \"#utility.yul\":5233:5374   */\n  swap2\n  swap1\n  pop\n  jump\t// out\n    /* \"#utility.yul\":5380:5473   */\ntag_41:\n    /* \"#utility.yul\":5417:5423   */\n  0x00\n    /* \"#utility.yul\":5464:5466   */\n  0x20\n    /* \"#utility.yul\":5459:5461   */\n  0x1f\n    /* \"#utility.yul\":5452:5457   */\n  dup4\n    /* \"#utility.yul\":5448:5462   */\n  add\n    /* \"#utility.yul\":5444:5467   */\n  div\n    /* \"#utility.yul\":5434:5467   */\n  swap1\n  pop\n    /* \"#utility.yul\":5380:5473   */\n  swap2\n  swap1\n  pop\n  jump\t// out\n    /* \"#utility.yul\":5479:5586   */\ntag_42:\n    /* \"#utility.yul\":5523:5531   */\n  0x00\n    /* \"#utility.yul\":5573:5578   */\n  dup3\n    /* \"#utility.yul\":5567:5571   */\n  dup3\n    /* \"#utility.yul\":5563:5579   */\n  shl\n    /* \"#utility.yul\":5542:5579   */\n  swap1\n  pop\n    /* \"#utility.yul\":5479:5586   */\n  swap3\n  swap2\n  pop\n  pop\n  jump\t// out\n    /* \"#utility.yul\":5592:5985   */\ntag_43:\n    /* \"#utility.yul\":5661:5667   */\n  0x00\n    /* \"#utility.yul\":5711:5712   */\n  0x08\n    /* \"#utility.yul\":5699:5709   */\n  dup4\n    /* \"#utility.yul\":5695:5713   */\n  mul\n    /* \"#utility.yul\":5734:5831   */\n  tag_120\n    /* \"#utility.yul\":5764:5830   */\n  0xffffffffffffffffffffffffffffffffffffffffffffffffffffffffffffffff\n    /* \"#utility.yul\":5753:5762   */\n  dup3\n    /* \"#utility.yul\":5734:5831   */\n  tag_42\n  jump\t// in\ntag_120:\n    /* \"#utility.yul\":5852:5891   */\n  tag_121\n    /* \"#utility.yul\":5882:5890   */\n  dup7\n    /* \"#utility.yul\":5871:5880   */\n  dup4\n    /* \"#utility.yul\":5852:5891   */\n  tag_42\n  jump\t// in\ntag_121:\n    /* \"#utility.yul\":5840:5891   */\n  swap6\n  pop\n    /* \"#utility.yul\":5924:5928   */\n  dup1\n    /* \"#utility.yul\":5920:5929   */\n  not\n    /* \"#utility.yul\":5913:5918   */\n  dup5\n    /* \"#utility.yul\":5909:5930   */\n  and\n    /* \"#utility.yul\":5900:5930   */\n  swap4\n  pop\n    /* \"#utility.yul\":5973:5977   */\n  dup1\n    /* \"#utility.yul\":5963:5971   */\n  dup7\n    /* \"#utility.yul\":5959:5978   */\n  and\n    /* \"#utility.yul\":5952:5957   */\n  dup5\n    /* \"#utility.yul\":5949:5979   */\n  or\n    /* \"#utility.yul\":5939:5979   */\n  swap3\n  pop\n    /* \"#utility.yul\":5668:5985   */\n  pop\n  pop\n    /* \"#utility.yul\":5592:5985   */\n  swap4\n  swap3\n  pop\n  pop\n  pop\n  jump\t// out\n    /* \"#utility.yul\":5991:6051   */\ntag_44:\n    /* \"#utility.yul\":6019:6022   */\n  0x00\n    /* \"#utility.yul\":6040:6045   */\n  dup2\n    /* \"#utility.yul\":6033:6045   */\n  swap1\n  pop\n    /* \"#utility.yul\":5991:6051   */\n  swap2\n  swap1\n  pop\n  jump\t// out\n    /* \"#utility.yul\":6057:6199   */\ntag_45:\n    /* \"#utility.yul\":6107:6116   */\n  0x00\n    /* \"#utility.yul\":6140:6193   */\n  tag_124\n    /* \"#utility.yul\":6158:6192   */\n  tag_125\n    /* \"#utility.yul\":6167:6191   */\n  tag_126\n    /* \"#utility.yul\":6185:6190   */\n  dup5\n    /* \"#utility.yul\":6167:6191   */\n  tag_31\n  jump\t// in\ntag_126:\n    /* \"#utility.yul\":6158:6192   */\n  tag_44\n  jump\t// in\ntag_125:\n    /* \"#utility.yul\":6140:6193   */\n  tag_31\n  jump\t// in\ntag_124:\n    /* \"#utility.yul\":6127:6193   */\n  swap1\n  pop\n    /* \"#utility.yul\":6057:6199   */\n  swap2\n  swap1\n  pop\n  jump\t// out\n    /* \"#utility.yul\":6205:6280   */\ntag_46:\n    /* \"#utility.yul\":6248:6251   */\n  0x00\n    /* \"#utility.yul\":6269:6274   */\n  dup2\n    /* \"#utility.yul\":6262:6274   */\n  swap1\n  pop\n    /* \"#utility.yul\":6205:6280   */\n  swap2\n  swap1\n  pop\n  jump\t// out\n    /* \"#utility.yul\":6286:6555   */\ntag_47:\n    /* \"#utility.yul\":6396:6435   */\n  tag_129\n    /* \"#utility.yul\":6427:6434   */\n  dup4\n    /* \"#utility.yul\":6396:6435   */\n  tag_45\n  jump\t// in\ntag_129:\n    /* \"#utility.yul\":6457:6548   */\n  tag_130\n    /* \"#utility.yul\":6506:6547   */\n  tag_131\n    /* \"#utility.yul\":6530:6546   */\n  dup3\n    /* \"#utility.yul\":6506:6547   */\n  tag_46\n  jump\t// in\ntag_131:\n    /* \"#utility.yul\":6498:6504   */\n  dup5\n    /* \"#utility.yul\":6491:6495   */\n  dup5\n    /* \"#utility.yul\":6485:6496   */\n  sload\n    /* \"#utility.yul\":6457:6548   */\n  tag_43\n  jump\t// in\ntag_130:\n    /* \"#utility.yul\":6451:6455   */\n  dup3\n    /* \"#utility.yul\":6444:6549   */\n  sstore\n    /* \"#utility.yul\":6362:6555   */\n  pop\n    /* \"#utility.yul\":6286:6555   */\n  pop\n  pop\n  pop\n  jump\t// out\n    /* \"#utility.yul\":6561:6634   */\ntag_48:\n    /* \"#utility.yul\":6606:6609   */\n  0x00\n    /* \"#utility.yul\":6627:6628   */\n  0x00\n    /* \"#utility.yul\":6620:6628   */\n  swap1\n  pop\n    /* \"#utility.yul\":6561:6634   */\n  swap1\n  jump\t// out\n    /* \"#utility.yul\":6640:6829   */\ntag_49:\n    /* \"#utility.yul\":6717:6749   */\n  tag_134\n  tag_48\n  jump\t// in\ntag_134:\n    /* \"#utility.yul\":6758:6823   */\n  tag_135\n    /* \"#utility.yul\":6816:6822   */\n  dup2\n    /* \"#utility.yul\":6808:6814   */\n  dup5\n    /* \"#utility.yul\":6802:6806   */\n  dup5\n    /* \"#utility.yul\":6758:6823   */\n  tag_47\n  jump\t// in\ntag_135:\n    /* \"#utility.yul\":6693:6829   */\n  pop\n    /* \"#utility.yul\":6640:6829   */\n  pop\n  pop\n  jump\t// out\n    /* \"#utility.yul\":6835:7021   */\ntag_50:\n    /* \"#utility.yul\":6895:7015   */\ntag_137:\n    /* \"#utility.yul\":6912:6915   */\n  dup2\n    /* \"#utility.yul\":6905:6910   */\n  dup2\n    /* \"#utility.yul\":6902:6916   */\n  lt\n    /* \"#utility.yul\":6895:7015   */\n  iszero\n  tag_139\n  jumpi\n    /* \"#utility.yul\":6966:7005   */\n  tag_140\n    /* \"#utility.yul\":7003:7004   */\n  0x00\n    /* \"#utility.yul\":6996:7001   */\n  dup3\n    /* \"#utility.yul\":6966:7005   */\n  tag_49\n  jump\t// in\ntag_140:\n    /* \"#utility.yul\":6939:6940   */\n  0x01\n    /* \"#utility.yul\":6932:6937   */\n  dup2\n    /* \"#utility.yul\":6928:6941   */\n  add\n    /* \"#utility.yul\":6919:6941   */\n  swap1\n  pop\n    /* \"#utility.yul\":6895:7015   */\n  jump(tag_137)\ntag_139:\n    /* \"#utility.yul\":6835:7021   */\n  pop\n  pop\n  jump\t// out\n    /* \"#utility.yul\":7027:7570   */\ntag_51:\n    /* \"#utility.yul\":7128:7130   */\n  0x1f\n    /* \"#utility.yul\":7123:7126   */\n  dup3\n    /* \"#utility.yul\":7120:7131   */\n  gt\n    /* \"#utility.yul\":7117:7563   */\n  iszero\n  tag_142\n  jumpi\n    /* \"#utility.yul\":7162:7200   */\n  tag_143\n    /* \"#utility.yul\":7194:7199   */\n  dup2\n    /* \"#utility.yul\":7162:7200   */\n  tag_40\n  jump\t// in\ntag_143:\n    /* \"#utility.yul\":7246:7275   */\n  tag_144\n    /* \"#utility.yul\":7264:7274   */\n  dup5\n    /* \"#utility.yul\":7246:7275   */\n  tag_41\n  jump\t// in\ntag_144:\n    /* \"#utility.yul\":7236:7244   */\n  dup2\n    /* \"#utility.yul\":7232:7276   */\n  add\n    /* \"#utility.yul\":7429:7431   */\n  0x20\n    /* \"#utility.yul\":7417:7427   */\n  dup6\n    /* \"#utility.yul\":7414:7432   */\n  lt\n    /* \"#utility.yul\":7411:7460   */\n  iszero\n  tag_145\n  jumpi\n    /* \"#utility.yul\":7450:7458   */\n  dup2\n    /* \"#utility.yul\":7435:7458   */\n  swap1\n  pop\n    /* \"#utility.yul\":7411:7460   */\ntag_145:\n    /* \"#utility.yul\":7473:7553   */\n  tag_146\n    /* \"#utility.yul\":7529:7551   */\n  tag_147\n    /* \"#utility.yul\":7547:7550   */\n  dup6\n    /* \"#utility.yul\":7529:7551   */\n  tag_41\n  jump\t// in\ntag_147:\n    /* \"#utility.yul\":7519:7527   */\n  dup4\n    /* \"#utility.yul\":7515:7552   */\n  add\n    /* \"#utility.yul\":7502:7513   */\n  dup3\n    /* \"#utility.yul\":7473:7553   */\n  tag_50\n  jump\t// in\ntag_146:\n    /* \"#utility.yul\":7132:7563   */\n  pop\n  pop\n    /* \"#utility.yul\":7117:7563   */\ntag_142:\n    /* \"#utility.yul\":7027:7570   */\n  pop\n  pop\n  pop\n  jump\t// out\n    /* \"#utility.yul\":7576:7693   */\ntag_52:\n    /* \"#utility.yul\":7630:7638   */\n  0x00\n    /* \"#utility.yul\":7680:7685   */\n  dup3\n    /* \"#utility.yul\":7674:7678   */\n  dup3\n    /* \"#utility.yul\":7670:7686   */\n  shr\n    /* \"#utility.yul\":7649:7686   */\n  swap1\n  pop\n    /* \"#utility.yul\":7576:7693   */\n  swap3\n  swap2\n  pop\n  pop\n  jump\t// out\n    /* \"#utility.yul\":7699:7868   */\ntag_53:\n    /* \"#utility.yul\":7743:7749   */\n  0x00\n    /* \"#utility.yul\":7776:7827   */\n  tag_150\n    /* \"#utility.yul\":7824:7825   */\n  0x00\n    /* \"#utility.yul\":7820:7826   */\n  not\n    /* \"#utility.yul\":7812:7817   */\n  dup5\n    /* \"#utility.yul\":7809:7810   */\n  0x08\n    /* \"#utility.yul\":7805:7818   */\n  mul\n    /* \"#utility.yul\":7776:7827   */\n  tag_52\n  jump\t// in\ntag_150:\n    /* \"#utility.yul\":7772:7828   */\n  not\n    /* \"#utility.yul\":7857:7861   */\n  dup1\n    /* \"#utility.yul\":7851:7855   */\n  dup4\n    /* \"#utility.yul\":7847:7862   */\n  and\n    /* \"#utility.yul\":7837:7862   */\n  swap2\n  pop\n    /* \"#utility.yul\":7750:7868   */\n  pop\n    /* \"#utility.yul\":7699:7868   */\n  swap3\n  swap2\n  pop\n  pop\n  jump\t// out\n    /* \"#utility.yul\":7873:8168   */\ntag_54:\n    /* \"#utility.yul\":7949:7953   */\n  0x00\n    /* \"#utility.yul\":8095:8124   */\n  tag_152\n    /* \"#utility.yul\":8120:8123   */\n  dup4\n    /* \"#utility.yul\":8114:8118   */\n  dup4\n    /* \"#utility.yul\":8095:8124   */\n  tag_53\n  jump\t// in\ntag_152:\n    /* \"#utility.yul\":8087:8124   */\n  swap2\n  pop\n    /* \"#utility.yul\":8157:8160   */\n  dup3\n    /* \"#utility.yul\":8154:8155   */\n  0x02\n    /* \"#utility.yul\":8150:8161   */\n  mul\n    /* \"#utility.yul\":8144:8148   */\n  dup3\n    /* \"#utility.yul\":8141:8162   */\n  or\n    /* \"#utility.yul\":8133:8162   */\n  swap1\n  pop\n    /* \"#utility.yul\":7873:8168   */\n  swap3\n  swap2\n  pop\n  pop\n  jump\t// out\n    /* \"#utility.yul\":8173:9568   */\ntag_7:\n    /* \"#utility.yul\":8290:8327   */\n  tag_154\n    /* \"#utility.yul\":8323:8326   */\n  dup3\n    /* \"#utility.yul\":8290:8327   */\n  tag_37\n  jump\t// in\ntag_154:\n    /* \"#utility.yul\":8392:8410   */\n  0xffffffffffffffff\n    /* \"#utility.yul\":8384:8390   */\n  dup2\n    /* \"#utility.yul\":8381:8411   */\n  gt\n    /* \"#utility.yul\":8378:8434   */\n  iszero\n  tag_155\n  jumpi\n    /* \"#utility.yul\":8414:8432   */\n  tag_156\n  tag_24\n  jump\t// in\ntag_156:\n    /* \"#utility.yul\":8378:8434   */\ntag_155:\n    /* \"#utility.yul\":8458:8496   */\n  tag_157\n    /* \"#utility.yul\":8490:8494   */\n  dup3\n    /* \"#utility.yul\":8484:8495   */\n  sload\n    /* \"#utility.yul\":8458:8496   */\n  tag_39\n  jump\t// in\ntag_157:\n    /* \"#utility.yul\":8543:8610   */\n  tag_158\n    /* \"#utility.yul\":8603:8609   */\n  dup3\n    /* \"#utility.yul\":8595:8601   */\n  dup3\n    /* \"#utility.yul\":8589:8593   */\n  dup6\n    /* \"#utility.yul\":8543:8610   */\n  tag_51\n  jump\t// in\ntag_158:\n    /* \"#utility.yul\":8637:8638   */\n  0x00\n    /* \"#utility.yul\":8661:8665   */\n  0x20\n    /* \"#utility.yul\":8648:8665   */\n  swap1\n  pop\n    /* \"#utility.yul\":8693:8695   */\n  0x1f\n    /* \"#utility.yul\":8685:8691   */\n  dup4\n    /* \"#utility.yul\":8682:8696   */\n  gt\n    /* \"#utility.yul\":8710:8711   */\n  0x01\n    /* \"#utility.yul\":8705:9323   */\n  dup2\n  eq\n  tag_160\n  jumpi\n    /* \"#utility.yul\":9367:9368   */\n  0x00\n    /* \"#utility.yul\":9384:9390   */\n  dup5\n    /* \"#utility.yul\":9381:9458   */\n  iszero\n  tag_161\n  jumpi\n    /* \"#utility.yul\":9433:9442   */\n  dup3\n    /* \"#utility.yul\":9428:9431   */\n  dup8\n    /* \"#utility.yul\":9424:9443   */\n  add\n    /* \"#utility.yul\":9418:9444   */\n  mload\n    /* \"#utility.yul\":9409:9444   */\n  swap1\n  pop\n    /* \"#utility.yul\":9381:9458   */\ntag_161:\n    /* \"#utility.yul\":9484:9551   */\n  tag_162\n    /* \"#utility.yul\":9544:9550   */\n  dup6\n    /* \"#utility.yul\":9537:9542   */\n  dup3\n    /* \"#utility.yul\":9484:9551   */\n  tag_54\n  jump\t// in\ntag_162:\n    /* \"#utility.yul\":9478:9482   */\n  dup7\n    /* \"#utility.yul\":9471:9552   */\n  sstore\n    /* \"#utility.yul\":9340:9562   */\n  pop\n    /* \"#utility.yul\":8675:9562   */\n  jump(tag_159)\n    /* \"#utility.yul\":8705:9323   */\ntag_160:\n    /* \"#utility.yul\":8757:8761   */\n  0x1f\n    /* \"#utility.yul\":8753:8762   */\n  not\n    /* \"#utility.yul\":8745:8751   */\n  dup5\n    /* \"#utility.yul\":8741:8763   */\n  and\n    /* \"#utility.yul\":8791:8828   */\n  tag_163\n    /* \"#utility.yul\":8823:8827   */\n  dup7\n    /* \"#utility.yul\":8791:8828   */\n  tag_40\n  jump\t// in\ntag_163:\n    /* \"#utility.yul\":8850:8851   */\n  0x00\n    /* \"#utility.yul\":8864:9072   */\ntag_164:\n    /* \"#utility.yul\":8878:8885   */\n  dup3\n    /* \"#utility.yul\":8875:8876   */\n  dup2\n    /* \"#utility.yul\":8872:8886   */\n  lt\n    /* \"#utility.yul\":8864:9072   */\n  iszero\n  tag_166\n  jumpi\n    /* \"#utility.yul\":8957:8966   */\n  dup5\n    /* \"#utility.yul\":8952:8955   */\n  dup10\n    /* \"#utility.yul\":8948:8967   */\n  add\n    /* \"#utility.yul\":8942:8968   */\n  mload\n    /* \"#utility.yul\":8934:8940   */\n  dup3\n    /* \"#utility.yul\":8927:8969   */\n  sstore\n    /* \"#utility.yul\":9008:9009   */\n  0x01\n    /* \"#utility.yul\":9000:9006   */\n  dup3\n    /* \"#utility.yul\":8996:9010   */\n  add\n    /* \"#utility.yul\":8986:9010   */\n  swap2\n  pop\n    /* \"#utility.yul\":9055:9057   */\n  0x20\n    /* \"#utility.yul\":9044:9053   */\n  dup6\n    /* \"#utility.yul\":9040:9058   */\n  add\n    /* \"#utility.yul\":9027:9058   */\n  swap5\n  pop\n    /* \"#utility.yul\":8901:8905   */\n  0x20\n    /* \"#utility.yul\":8898:8899   */\n  dup2\n    /* \"#utility.yul\":8894:8906   */\n  add\n    /* \"#utility.yul\":8889:8906   */\n  swap1\n  pop\n    /* \"#utility.yul\":8864:9072   */\n  jump(tag_164)\ntag_166:\n    /* \"#utility.yul\":9100:9106   */\n  dup7\n    /* \"#utility.yul\":9091:9098   */\n  dup4\n    /* \"#utility.yul\":9088:9107   */\n  lt\n    /* \"#utility.yul\":9085:9264   */\n  iszero\n  tag_167\n  jumpi\n    /* \"#utility.yul\":9158:9167   */\n  dup5\n    /* \"#utility.yul\":9153:9156   */\n  dup10\n    /* \"#utility.yul\":9149:9168   */\n  add\n    /* \"#utility.yul\":9143:9169   */\n  mload\n    /* \"#utility.yul\":9201:9249   */\n  tag_168\n    /* \"#utility.yul\":9243:9247   */\n  0x1f\n    /* \"#utility.yul\":9235:9241   */\n  dup10\n    /* \"#utility.yul\":9231:9248   */\n  and\n    /* \"#utility.yul\":9220:9229   */\n  dup3\n    /* \"#utility.yul\":9201:9249   */\n  tag_53\n  jump\t// in\ntag_168:\n    /* \"#utility.yul\":9193:9199   */\n  dup4\n    /* \"#utility.yul\":9186:9250   */\n  sstore\n    /* \"#utility.yul\":9108:9264   */\n  pop\n    /* \"#utility.yul\":9085:9264   */\ntag_167:\n    /* \"#utility.yul\":9310:9311   */\n  0x01\n    /* \"#utility.yul\":9306:9307   */\n  0x02\n    /* \"#utility.yul\":9298:9304   */\n  dup9\n    /* \"#utility.yul\":9294:9308   */\n  mul\n    /* \"#utility.yul\":9290:9312   */\n  add\n    /* \"#utility.yul\":9284:9288   */\n  dup9\n    /* \"#utility.yul\":9277:9313   */\n  sstore\n    /* \"#utility.yul\":8712:9323   */\n  pop\n  pop\n  pop\n    /* \"#utility.yul\":8675:9562   */\ntag_159:\n  pop\n    /* \"#utility.yul\":8265:9568   */\n  pop\n  pop\n  pop\n    /* \"#utility.yul\":8173:9568   */\n  pop\n  pop\n  jump\t// out\n    /* \"#utility.yul\":9574:9754   */\ntag_55:\n    /* \"#utility.yul\":9622:9699   */\n  0x4e487b7100000000000000000000000000000000000000000000000000000000\n    /* \"#utility.yul\":9619:9620   */\n  0x00\n    /* \"#utility.yul\":9612:9700   */\n  mstore\n    /* \"#utility.yul\":9719:9723   */\n  0x11\n    /* \"#utility.yul\":9716:9717   */\n  0x04\n    /* \"#utility.yul\":9709:9724   */\n  mstore\n    /* \"#utility.yul\":9743:9747   */\n  0x24\n    /* \"#utility.yul\":9740:9741   */\n  0x00\n    /* \"#utility.yul\":9733:9748   */\n  revert\n    /* \"#utility.yul\":9760:9951   */\ntag_16:\n    /* \"#utility.yul\":9800:9803   */\n  0x00\n    /* \"#utility.yul\":9819:9839   */\n  tag_171\n    /* \"#utility.yul\":9837:9838   */\n  dup3\n    /* \"#utility.yul\":9819:9839   */\n  tag_31\n  jump\t// in\ntag_171:\n    /* \"#utility.yul\":9814:9839   */\n  swap2\n  pop\n    /* \"#utility.yul\":9853:9873   */\n  tag_172\n    /* \"#utility.yul\":9871:9872   */\n  dup4\n    /* \"#utility.yul\":9853:9873   */\n  tag_31\n  jump\t// in\ntag_172:\n    /* \"#utility.yul\":9848:9873   */\n  swap3\n  pop\n    /* \"#utility.yul\":9896:9897   */\n  dup3\n    /* \"#utility.yul\":9893:9894   */\n  dup3\n    /* \"#utility.yul\":9889:9898   */\n  add\n    /* \"#utility.yul\":9882:9898   */\n  swap1\n  pop\n    /* \"#utility.yul\":9917:9920   */\n  dup1\n    /* \"#utility.yul\":9914:9915   */\n  dup3\n    /* \"#utility.yul\":9911:9921   */\n  gt\n    /* \"#utility.yul\":9908:9944   */\n  iszero\n  tag_173\n  jumpi\n    /* \"#utility.yul\":9924:9942   */\n  tag_174\n  tag_55\n  jump\t// in\ntag_174:\n    /* \"#utility.yul\":9908:9944   */\ntag_173:\n    /* \"#utility.yul\":9760:9951   */\n  swap3\n  swap2\n  pop\n  pop\n  jump\t// out\n    /* \"contracts/ERC20.sol\":59:2648  contract ERC20 {... */\ntag_11:\n  dataSize(sub_0)\n  dup1\n  dataOffset(sub_0)\n  0x00\n  codecopy\n  0x00\n  return\nstop\n\nsub_0: assembly {\n        /* \"contracts/ERC20.sol\":59:2648  contract ERC20 {... */\n      mstore(0x40, 0x80)\n      jumpi(tag_1, lt(calldatasize, 0x04))\n      shr(0xe0, calldataload(0x00))\n      dup1\n      0x70a08231\n      gt\n      tag_14\n      jumpi\n      dup1\n      0x70a08231\n      eq\n      tag_8\n      jumpi\n      dup1\n      0x95d89b41\n      eq\n      tag_9\n      jumpi\n      dup1\n      0xa035b1fe\n      eq\n      tag_10\n      jumpi\n      dup1\n      0xa6f2ae3a\n      eq\n      tag_11\n      jumpi\n      dup1\n      0xa9059cbb\n      eq\n      tag_12\n      jumpi\n      dup1\n      0xdd62ed3e\n      eq\n      tag_13\n      jumpi\n      jump(tag_1)\n    tag_14:\n      dup1\n      0x06fdde03\n      eq\n      tag_2\n      jumpi\n      dup1\n      0x095ea7b3\n      eq\n      tag_3\n      jumpi\n      dup1\n      0x18160ddd\n      eq\n      tag_4\n      jumpi\n      dup1\n      0x23b872dd\n      eq\n      tag_5\n      jumpi\n      dup1\n      0x313ce567\n      eq\n      tag_6\n      jumpi\n      dup1\n      0x40c10f19\n      eq\n      tag_7\n      jumpi\n    tag_1:\n      revert(0x00, 0x00)\n        /* \"contracts/ERC20.sol\":80:98  string public name */\n    tag_2:\n      callvalue\n      dup1\n      iszero\n      tag_15\n      jumpi\n      revert(0x00, 0x00)\n    tag_15:\n      pop\n      tag_16\n      tag_17\n      jump\t// in\n    tag_16:\n      mload(0x40)\n      tag_18\n      swap2\n      swap1\n      tag_19\n      jump\t// in\n    tag_18:\n      mload(0x40)\n      dup1\n      swap2\n      sub\n      swap1\n      return\n        /* \"contracts/ERC20.sol\":2094:2355  function approve(address _spender, uint256 _amount)... */\n    tag_3:\n      callvalue\n      dup1\n      iszero\n      tag_20\n      jumpi\n      revert(0x00, 0x00)\n    tag_20:\n      pop\n      tag_21\n      0x04\n      dup1\n      calldatasize\n      sub\n      dup2\n      add\n      swap1\n      tag_22\n      swap2\n      swap1\n      tag_23\n      jump\t// in\n    tag_22:\n      tag_24\n      jump\t// in\n    tag_21:\n      mload(0x40)\n      tag_25\n      swap2\n      swap1\n      tag_26\n      jump\t// in\n    tag_25:\n      mload(0x40)\n      dup1\n      swap2\n      sub\n      swap1\n      return\n        /* \"contracts/ERC20.sol\":130:156  uint256 public totalSupply */\n    tag_4:\n      callvalue\n      dup1\n      iszero\n      tag_27\n      jumpi\n      revert(0x00, 0x00)\n    tag_27:\n      pop\n      tag_28\n      tag_29\n      jump\t// in\n    tag_28:\n      mload(0x40)\n      tag_30\n      swap2\n      swap1\n      tag_31\n      jump\t// in\n    tag_30:\n      mload(0x40)\n      dup1\n      swap2\n      sub\n      swap1\n      return\n        /* \"contracts/ERC20.sol\":1619:2088  function transferFrom(... */\n    tag_5:\n      callvalue\n      dup1\n      iszero\n      tag_32\n      jumpi\n      revert(0x00, 0x00)\n    tag_32:\n      pop\n      tag_33\n      0x04\n      dup1\n      calldatasize\n      sub\n      dup2\n      add\n      swap1\n      tag_34\n      swap2\n      swap1\n      tag_35\n      jump\t// in\n    tag_34:\n      tag_36\n      jump\t// in\n    tag_33:\n      mload(0x40)\n      tag_37\n      swap2\n      swap1\n      tag_26\n      jump\t// in\n    tag_37:\n      mload(0x40)\n      dup1\n      swap2\n      sub\n      swap1\n      return\n        /* \"contracts/ERC20.sol\":162:183  uint8 public decimals */\n    tag_6:\n      callvalue\n      dup1\n      iszero\n      tag_38\n      jumpi\n      revert(0x00, 0x00)\n    tag_38:\n      pop\n      tag_39\n      tag_40\n      jump\t// in\n    tag_39:\n      mload(0x40)\n      tag_41\n      swap2\n      swap1\n      tag_42\n      jump\t// in\n    tag_41:\n      mload(0x40)\n      dup1\n      swap2\n      sub\n      swap1\n      return\n        /* \"contracts/ERC20.sol\":2361:2504  function mint(address _to, uint256 _amount) public validAddress(_to) {... */\n    tag_7:\n      callvalue\n      dup1\n      iszero\n      tag_43\n      jumpi\n      revert(0x00, 0x00)\n    tag_43:\n      pop\n      tag_44\n      0x04\n      dup1\n      calldatasize\n      sub\n      dup2\n      add\n      swap1\n      tag_45\n      swap2\n      swap1\n      tag_23\n      jump\t// in\n    tag_45:\n      tag_46\n      jump\t// in\n    tag_44:\n      stop\n        /* \"contracts/ERC20.sol\":216:260  mapping(address => uint256) public balanceOf */\n    tag_8:\n      callvalue\n      dup1\n      iszero\n      tag_47\n      jumpi\n      revert(0x00, 0x00)\n    tag_47:\n      pop\n      tag_48\n      0x04\n      dup1\n      calldatasize\n      sub\n      dup2\n      add\n      swap1\n      tag_49\n      swap2\n      swap1\n      tag_50\n      jump\t// in\n    tag_49:\n      tag_51\n      jump\t// in\n    tag_48:\n      mload(0x40)\n      tag_52\n      swap2\n      swap1\n      tag_31\n      jump\t// in\n    tag_52:\n      mload(0x40)\n      dup1\n      swap2\n      sub\n      swap1\n      return\n        /* \"contracts/ERC20.sol\":104:124  string public symbol */\n    tag_9:\n      callvalue\n      dup1\n      iszero\n      tag_53\n      jumpi\n      revert(0x00, 0x00)\n    tag_53:\n      pop\n      tag_54\n      tag_55\n      jump\t// in\n    tag_54:\n      mload(0x40)\n      tag_56\n      swap2\n      swap1\n      tag_19\n      jump\t// in\n    tag_56:\n      mload(0x40)\n      dup1\n      swap2\n      sub\n      swap1\n      return\n        /* \"contracts/ERC20.sol\":189:209  uint256 public price */\n    tag_10:\n      callvalue\n      dup1\n      iszero\n      tag_57\n      jumpi\n      revert(0x00, 0x00)\n    tag_57:\n      pop\n      tag_58\n      tag_59\n      jump\t// in\n    tag_58:\n      mload(0x40)\n      tag_60\n      swap2\n      swap1\n      tag_31\n      jump\t// in\n    tag_60:\n      mload(0x40)\n      dup1\n      swap2\n      sub\n      swap1\n      return\n        /* \"contracts/ERC20.sol\":2510:2646  function buy() external payable returns (uint256) {... */\n    tag_11:\n      tag_61\n      tag_62\n      jump\t// in\n    tag_61:\n      mload(0x40)\n      tag_63\n      swap2\n      swap1\n      tag_31\n      jump\t// in\n    tag_63:\n      mload(0x40)\n      dup1\n      swap2\n      sub\n      swap1\n      return\n        /* \"contracts/ERC20.sol\":1298:1613  function transfer(address _to, uint256 _amount)... */\n    tag_12:\n      callvalue\n      dup1\n      iszero\n      tag_64\n      jumpi\n      revert(0x00, 0x00)\n    tag_64:\n      pop\n      tag_65\n      0x04\n      dup1\n      calldatasize\n      sub\n      dup2\n      add\n      swap1\n      tag_66\n      swap2\n      swap1\n      tag_23\n      jump\t// in\n    tag_66:\n      tag_67\n      jump\t// in\n    tag_65:\n      mload(0x40)\n      tag_68\n      swap2\n      swap1\n      tag_26\n      jump\t// in\n    tag_68:\n      mload(0x40)\n      dup1\n      swap2\n      sub\n      swap1\n      return\n        /* \"contracts/ERC20.sol\":266:330  mapping(address => mapping(address => uint256)) public allowance */\n    tag_13:\n      callvalue\n      dup1\n      iszero\n      tag_69\n      jumpi\n      revert(0x00, 0x00)\n    tag_69:\n      pop\n      tag_70\n      0x04\n      dup1\n      calldatasize\n      sub\n      dup2\n      add\n      swap1\n      tag_71\n      swap2\n      swap1\n      tag_72\n      jump\t// in\n    tag_71:\n      tag_73\n      jump\t// in\n    tag_70:\n      mload(0x40)\n      tag_74\n      swap2\n      swap1\n      tag_31\n      jump\t// in\n    tag_74:\n      mload(0x40)\n      dup1\n      swap2\n      sub\n      swap1\n      return\n        /* \"contracts/ERC20.sol\":80:98  string public name */\n    tag_17:\n      0x00\n      dup1\n      sload\n      tag_75\n      swap1\n      tag_76\n      jump\t// in\n    tag_75:\n      dup1\n      0x1f\n      add\n      0x20\n      dup1\n      swap2\n      div\n      mul\n      0x20\n      add\n      mload(0x40)\n      swap1\n      dup2\n      add\n      0x40\n      mstore\n      dup1\n      swap3\n      swap2\n      swap1\n      dup2\n      dup2\n      mstore\n      0x20\n      add\n      dup3\n      dup1\n      sload\n      tag_77\n      swap1\n      tag_76\n      jump\t// in\n    tag_77:\n      dup1\n      iszero\n      tag_78\n      jumpi\n      dup1\n      0x1f\n      lt\n      tag_79\n      jumpi\n      0x0100\n      dup1\n      dup4\n      sload\n      div\n      mul\n      dup4\n      mstore\n      swap2\n      0x20\n      add\n      swap2\n      jump(tag_78)\n    tag_79:\n      dup3\n      add\n      swap2\n      swap1\n      0x00\n      mstore\n      keccak256(0x00, 0x20)\n      swap1\n    tag_80:\n      dup2\n      sload\n      dup2\n      mstore\n      swap1\n      0x01\n      add\n      swap1\n      0x20\n      add\n      dup1\n      dup4\n      gt\n      tag_80\n      jumpi\n      dup3\n      swap1\n      sub\n      0x1f\n      and\n      dup3\n      add\n      swap2\n    tag_78:\n      pop\n      pop\n      pop\n      pop\n      pop\n      dup2\n      jump\t// out\n        /* \"contracts/ERC20.sol\":2094:2355  function approve(address _spender, uint256 _amount)... */\n    tag_24:\n        /* \"contracts/ERC20.sol\":2211:2215  bool */\n      0x00\n        /* \"contracts/ERC20.sol\":2184:2192  _spender */\n      dup3\n        /* \"contracts/ERC20.sol\":926:927  0 */\n      0x00\n        /* \"contracts/ERC20.sol\":906:928  _address != address(0) */\n      0xffffffffffffffffffffffffffffffffffffffff\n      and\n        /* \"contracts/ERC20.sol\":906:914  _address */\n      dup2\n        /* \"contracts/ERC20.sol\":906:928  _address != address(0) */\n      0xffffffffffffffffffffffffffffffffffffffff\n      and\n      sub\n        /* \"contracts/ERC20.sol\":898:929  require(_address != address(0)) */\n      tag_82\n      jumpi\n      revert(0x00, 0x00)\n    tag_82:\n        /* \"contracts/ERC20.sol\":2265:2272  _amount */\n      dup3\n        /* \"contracts/ERC20.sol\":2231:2240  allowance */\n      0x06\n        /* \"contracts/ERC20.sol\":2231:2252  allowance[msg.sender] */\n      0x00\n        /* \"contracts/ERC20.sol\":2241:2251  msg.sender */\n      caller\n        /* \"contracts/ERC20.sol\":2231:2252  allowance[msg.sender] */\n      0xffffffffffffffffffffffffffffffffffffffff\n      and\n      0xffffffffffffffffffffffffffffffffffffffff\n      and\n      dup2\n      mstore\n      0x20\n      add\n      swap1\n      dup2\n      mstore\n      0x20\n      add\n      0x00\n      keccak256\n        /* \"contracts/ERC20.sol\":2231:2262  allowance[msg.sender][_spender] */\n      0x00\n        /* \"contracts/ERC20.sol\":2253:2261  _spender */\n      dup7\n        /* \"contracts/ERC20.sol\":2231:2262  allowance[msg.sender][_spender] */\n      0xffffffffffffffffffffffffffffffffffffffff\n      and\n      0xffffffffffffffffffffffffffffffffffffffff\n      and\n      dup2\n      mstore\n      0x20\n      add\n      swap1\n      dup2\n      mstore\n      0x20\n      add\n      0x00\n      keccak256\n        /* \"contracts/ERC20.sol\":2231:2272  allowance[msg.sender][_spender] = _amount */\n      dup2\n      swap1\n      sstore\n      pop\n        /* \"contracts/ERC20.sol\":2309:2317  _spender */\n      dup4\n        /* \"contracts/ERC20.sol\":2288:2327  Approval(msg.sender, _spender, _amount) */\n      0xffffffffffffffffffffffffffffffffffffffff\n      and\n        /* \"contracts/ERC20.sol\":2297:2307  msg.sender */\n      caller\n        /* \"contracts/ERC20.sol\":2288:2327  Approval(msg.sender, _spender, _amount) */\n      0xffffffffffffffffffffffffffffffffffffffff\n      and\n      0x8c5be1e5ebec7d5bd14f71427d1e84f3dd0314c0f7b2291e5b200ac8c7c3b925\n        /* \"contracts/ERC20.sol\":2319:2326  _amount */\n      dup6\n        /* \"contracts/ERC20.sol\":2288:2327  Approval(msg.sender, _spender, _amount) */\n      mload(0x40)\n      tag_84\n      swap2\n      swap1\n      tag_31\n      jump\t// in\n    tag_84:\n      mload(0x40)\n      dup1\n      swap2\n      sub\n      swap1\n      log3\n        /* \"contracts/ERC20.sol\":2344:2348  true */\n      0x01\n        /* \"contracts/ERC20.sol\":2337:2348  return true */\n      swap2\n      pop\n        /* \"contracts/ERC20.sol\":2094:2355  function approve(address _spender, uint256 _amount)... */\n      pop\n      swap3\n      swap2\n      pop\n      pop\n      jump\t// out\n        /* \"contracts/ERC20.sol\":130:156  uint256 public totalSupply */\n    tag_29:\n      sload(0x02)\n      dup2\n      jump\t// out\n        /* \"contracts/ERC20.sol\":1619:2088  function transferFrom(... */\n    tag_36:\n        /* \"contracts/ERC20.sol\":1881:1885  bool */\n      0x00\n        /* \"contracts/ERC20.sol\":1754:1759  _from */\n      dup4\n        /* \"contracts/ERC20.sol\":926:927  0 */\n      0x00\n        /* \"contracts/ERC20.sol\":906:928  _address != address(0) */\n      0xffffffffffffffffffffffffffffffffffffffff\n      and\n        /* \"contracts/ERC20.sol\":906:914  _address */\n      dup2\n        /* \"contracts/ERC20.sol\":906:928  _address != address(0) */\n      0xffffffffffffffffffffffffffffffffffffffff\n      and\n      sub\n        /* \"contracts/ERC20.sol\":898:929  require(_address != address(0)) */\n      tag_86\n      jumpi\n      revert(0x00, 0x00)\n    tag_86:\n        /* \"contracts/ERC20.sol\":1782:1785  _to */\n      dup4\n        /* \"contracts/ERC20.sol\":926:927  0 */\n      0x00\n        /* \"contracts/ERC20.sol\":906:928  _address != address(0) */\n      0xffffffffffffffffffffffffffffffffffffffff\n      and\n        /* \"contracts/ERC20.sol\":906:914  _address */\n      dup2\n        /* \"contracts/ERC20.sol\":906:928  _address != address(0) */\n      0xffffffffffffffffffffffffffffffffffffffff\n      and\n      sub\n        /* \"contracts/ERC20.sol\":898:929  require(_address != address(0)) */\n      tag_88\n      jumpi\n      revert(0x00, 0x00)\n    tag_88:\n        /* \"contracts/ERC20.sol\":1848:1853  _from */\n      dup6\n        /* \"contracts/ERC20.sol\":1855:1862  _amount */\n      dup5\n        /* \"contracts/ERC20.sol\":1051:1058  _amount */\n      dup1\n        /* \"contracts/ERC20.sol\":1028:1037  balanceOf */\n      0x05\n        /* \"contracts/ERC20.sol\":1028:1047  balanceOf[_account] */\n      0x00\n        /* \"contracts/ERC20.sol\":1038:1046  _account */\n      dup5\n        /* \"contracts/ERC20.sol\":1028:1047  balanceOf[_account] */\n      0xffffffffffffffffffffffffffffffffffffffff\n      and\n      0xffffffffffffffffffffffffffffffffffffffff\n      and\n      dup2\n      mstore\n      0x20\n      add\n      swap1\n      dup2\n      mstore\n      0x20\n      add\n      0x00\n      keccak256\n      sload\n        /* \"contracts/ERC20.sol\":1028:1058  balanceOf[_account] >= _amount */\n      lt\n      iszero\n        /* \"contracts/ERC20.sol\":1020:1080  require(balanceOf[_account] >= _amount, \"Not enough tokens\") */\n      tag_90\n      jumpi\n      mload(0x40)\n      0x08c379a000000000000000000000000000000000000000000000000000000000\n      dup2\n      mstore\n      0x04\n      add\n      tag_91\n      swap1\n      tag_92\n      jump\t// in\n    tag_91:\n      mload(0x40)\n      dup1\n      swap2\n      sub\n      swap1\n      revert\n    tag_90:\n        /* \"contracts/ERC20.sol\":1973:1980  _amount */\n      dup6\n        /* \"contracts/ERC20.sol\":1953:1962  balanceOf */\n      0x05\n        /* \"contracts/ERC20.sol\":1953:1969  balanceOf[_from] */\n      0x00\n        /* \"contracts/ERC20.sol\":1963:1968  _from */\n      dup11\n        /* \"contracts/ERC20.sol\":1953:1969  balanceOf[_from] */\n      0xffffffffffffffffffffffffffffffffffffffff\n      and\n      0xffffffffffffffffffffffffffffffffffffffff\n      and\n      dup2\n      mstore\n      0x20\n      add\n      swap1\n      dup2\n      mstore\n      0x20\n      add\n      0x00\n      keccak256\n      0x00\n        /* \"contracts/ERC20.sol\":1953:1980  balanceOf[_from] -= _amount */\n      dup3\n      dup3\n      sload\n      tag_94\n      swap2\n      swap1\n      tag_95\n      jump\t// in\n    tag_94:\n      swap3\n      pop\n      pop\n      dup2\n      swap1\n      sstore\n      pop\n        /* \"contracts/ERC20.sol\":2008:2015  _amount */\n      dup6\n        /* \"contracts/ERC20.sol\":1990:1999  balanceOf */\n      0x05\n        /* \"contracts/ERC20.sol\":1990:2004  balanceOf[_to] */\n      0x00\n        /* \"contracts/ERC20.sol\":2000:2003  _to */\n      dup10\n        /* \"contracts/ERC20.sol\":1990:2004  balanceOf[_to] */\n      0xffffffffffffffffffffffffffffffffffffffff\n      and\n      0xffffffffffffffffffffffffffffffffffffffff\n      and\n      dup2\n      mstore\n      0x20\n      add\n      swap1\n      dup2\n      mstore\n      0x20\n      add\n      0x00\n      keccak256\n      0x00\n        /* \"contracts/ERC20.sol\":1990:2015  balanceOf[_to] += _amount */\n      dup3\n      dup3\n      sload\n      tag_96\n      swap2\n      swap1\n      tag_97\n      jump\t// in\n    tag_96:\n      swap3\n      pop\n      pop\n      dup2\n      swap1\n      sstore\n      pop\n        /* \"contracts/ERC20.sol\":2047:2050  _to */\n      dup7\n        /* \"contracts/ERC20.sol\":2031:2060  Transfer(_from, _to, _amount) */\n      0xffffffffffffffffffffffffffffffffffffffff\n      and\n        /* \"contracts/ERC20.sol\":2040:2045  _from */\n      dup9\n        /* \"contracts/ERC20.sol\":2031:2060  Transfer(_from, _to, _amount) */\n      0xffffffffffffffffffffffffffffffffffffffff\n      and\n      0xddf252ad1be2c89b69c2b068fc378daa952ba7f163c4a11628f55a4df523b3ef\n        /* \"contracts/ERC20.sol\":2052:2059  _amount */\n      dup9\n        /* \"contracts/ERC20.sol\":2031:2060  Transfer(_from, _to, _amount) */\n      mload(0x40)\n      tag_98\n      swap2\n      swap1\n      tag_31\n      jump\t// in\n    tag_98:\n      mload(0x40)\n      dup1\n      swap2\n      sub\n      swap1\n      log3\n        /* \"contracts/ERC20.sol\":2077:2081  true */\n      0x01\n        /* \"contracts/ERC20.sol\":2070:2081  return true */\n      swap5\n      pop\n        /* \"contracts/ERC20.sol\":939:940  _ */\n      pop\n      pop\n      pop\n        /* \"contracts/ERC20.sol\":1619:2088  function transferFrom(... */\n      pop\n      swap4\n      swap3\n      pop\n      pop\n      pop\n      jump\t// out\n        /* \"contracts/ERC20.sol\":162:183  uint8 public decimals */\n    tag_40:\n      0x03\n      0x00\n      swap1\n      sload\n      swap1\n      0x0100\n      exp\n      swap1\n      div\n      0xff\n      and\n      dup2\n      jump\t// out\n        /* \"contracts/ERC20.sol\":2361:2504  function mint(address _to, uint256 _amount) public validAddress(_to) {... */\n    tag_46:\n        /* \"contracts/ERC20.sol\":2425:2428  _to */\n      dup2\n        /* \"contracts/ERC20.sol\":926:927  0 */\n      0x00\n        /* \"contracts/ERC20.sol\":906:928  _address != address(0) */\n      0xffffffffffffffffffffffffffffffffffffffff\n      and\n        /* \"contracts/ERC20.sol\":906:914  _address */\n      dup2\n        /* \"contracts/ERC20.sol\":906:928  _address != address(0) */\n      0xffffffffffffffffffffffffffffffffffffffff\n      and\n      sub\n        /* \"contracts/ERC20.sol\":898:929  require(_address != address(0)) */\n      tag_100\n      jumpi\n      revert(0x00, 0x00)\n    tag_100:\n        /* \"contracts/ERC20.sol\":2455:2462  _amount */\n      dup2\n        /* \"contracts/ERC20.sol\":2440:2451  totalSupply */\n      0x02\n      0x00\n        /* \"contracts/ERC20.sol\":2440:2462  totalSupply += _amount */\n      dup3\n      dup3\n      sload\n      tag_102\n      swap2\n      swap1\n      tag_97\n      jump\t// in\n    tag_102:\n      swap3\n      pop\n      pop\n      dup2\n      swap1\n      sstore\n      pop\n        /* \"contracts/ERC20.sol\":2490:2497  _amount */\n      dup2\n        /* \"contracts/ERC20.sol\":2472:2481  balanceOf */\n      0x05\n        /* \"contracts/ERC20.sol\":2472:2486  balanceOf[_to] */\n      0x00\n        /* \"contracts/ERC20.sol\":2482:2485  _to */\n      dup6\n        /* \"contracts/ERC20.sol\":2472:2486  balanceOf[_to] */\n      0xffffffffffffffffffffffffffffffffffffffff\n      and\n      0xffffffffffffffffffffffffffffffffffffffff\n      and\n      dup2\n      mstore\n      0x20\n      add\n      swap1\n      dup2\n      mstore\n      0x20\n      add\n      0x00\n      keccak256\n      0x00\n        /* \"contracts/ERC20.sol\":2472:2497  balanceOf[_to] += _amount */\n      dup3\n      dup3\n      sload\n      tag_103\n      swap2\n      swap1\n      tag_97\n      jump\t// in\n    tag_103:\n      swap3\n      pop\n      pop\n      dup2\n      swap1\n      sstore\n      pop\n        /* \"contracts/ERC20.sol\":2361:2504  function mint(address _to, uint256 _amount) public validAddress(_to) {... */\n      pop\n      pop\n      pop\n      jump\t// out\n        /* \"contracts/ERC20.sol\":216:260  mapping(address => uint256) public balanceOf */\n    tag_51:\n      mstore(0x20, 0x05)\n      dup1\n      0x00\n      mstore\n      keccak256(0x00, 0x40)\n      0x00\n      swap2\n      pop\n      swap1\n      pop\n      sload\n      dup2\n      jump\t// out\n        /* \"contracts/ERC20.sol\":104:124  string public symbol */\n    tag_55:\n      0x01\n      dup1\n      sload\n      tag_104\n      swap1\n      tag_76\n      jump\t// in\n    tag_104:\n      dup1\n      0x1f\n      add\n      0x20\n      dup1\n      swap2\n      div\n      mul\n      0x20\n      add\n      mload(0x40)\n      swap1\n      dup2\n      add\n      0x40\n      mstore\n      dup1\n      swap3\n      swap2\n      swap1\n      dup2\n      dup2\n      mstore\n      0x20\n      add\n      dup3\n      dup1\n      sload\n      tag_105\n      swap1\n      tag_76\n      jump\t// in\n    tag_105:\n      dup1\n      iszero\n      tag_106\n      jumpi\n      dup1\n      0x1f\n      lt\n      tag_107\n      jumpi\n      0x0100\n      dup1\n      dup4\n      sload\n      div\n      mul\n      dup4\n      mstore\n      swap2\n      0x20\n      add\n      swap2\n      jump(tag_106)\n    tag_107:\n      dup3\n      add\n      swap2\n      swap1\n      0x00\n      mstore\n      keccak256(0x00, 0x20)\n      swap1\n    tag_108:\n      dup2\n      sload\n      dup2\n      mstore\n      swap1\n      0x01\n      add\n      swap1\n      0x20\n      add\n      dup1\n      dup4\n      gt\n      tag_108\n      jumpi\n      dup3\n      swap1\n      sub\n      0x1f\n      and\n      dup3\n      add\n      swap2\n    tag_106:\n      pop\n      pop\n      pop\n      pop\n      pop\n      dup2\n      jump\t// out\n        /* \"contracts/ERC20.sol\":189:209  uint256 public price */\n    tag_59:\n      sload(0x04)\n      dup2\n      jump\t// out\n        /* \"contracts/ERC20.sol\":2510:2646  function buy() external payable returns (uint256) {... */\n    tag_62:\n        /* \"contracts/ERC20.sol\":2551:2558  uint256 */\n      0x00\n        /* \"contracts/ERC20.sol\":2570:2605  mint(msg.sender, msg.value / price) */\n      tag_110\n        /* \"contracts/ERC20.sol\":2575:2585  msg.sender */\n      caller\n        /* \"contracts/ERC20.sol\":2599:2604  price */\n      sload(0x04)\n        /* \"contracts/ERC20.sol\":2587:2596  msg.value */\n      callvalue\n        /* \"contracts/ERC20.sol\":2587:2604  msg.value / price */\n      tag_111\n      swap2\n      swap1\n      tag_112\n      jump\t// in\n    tag_111:\n        /* \"contracts/ERC20.sol\":2570:2574  mint */\n      tag_46\n        /* \"contracts/ERC20.sol\":2570:2605  mint(msg.sender, msg.value / price) */\n      jump\t// in\n    tag_110:\n        /* \"contracts/ERC20.sol\":2634:2639  price */\n      sload(0x04)\n        /* \"contracts/ERC20.sol\":2622:2631  msg.value */\n      callvalue\n        /* \"contracts/ERC20.sol\":2622:2639  msg.value / price */\n      tag_113\n      swap2\n      swap1\n      tag_112\n      jump\t// in\n    tag_113:\n        /* \"contracts/ERC20.sol\":2615:2639  return msg.value / price */\n      swap1\n      pop\n        /* \"contracts/ERC20.sol\":2510:2646  function buy() external payable returns (uint256) {... */\n      swap1\n      jump\t// out\n        /* \"contracts/ERC20.sol\":1298:1613  function transfer(address _to, uint256 _amount)... */\n    tag_67:\n        /* \"contracts/ERC20.sol\":1448:1452  bool */\n      0x00\n        /* \"contracts/ERC20.sol\":1384:1394  msg.sender */\n      caller\n        /* \"contracts/ERC20.sol\":1396:1403  _amount */\n      dup3\n        /* \"contracts/ERC20.sol\":1051:1058  _amount */\n      dup1\n        /* \"contracts/ERC20.sol\":1028:1037  balanceOf */\n      0x05\n        /* \"contracts/ERC20.sol\":1028:1047  balanceOf[_account] */\n      0x00\n        /* \"contracts/ERC20.sol\":1038:1046  _account */\n      dup5\n        /* \"contracts/ERC20.sol\":1028:1047  balanceOf[_account] */\n      0xffffffffffffffffffffffffffffffffffffffff\n      and\n      0xffffffffffffffffffffffffffffffffffffffff\n      and\n      dup2\n      mstore\n      0x20\n      add\n      swap1\n      dup2\n      mstore\n      0x20\n      add\n      0x00\n      keccak256\n      sload\n        /* \"contracts/ERC20.sol\":1028:1058  balanceOf[_account] >= _amount */\n      lt\n      iszero\n        /* \"contracts/ERC20.sol\":1020:1080  require(balanceOf[_account] >= _amount, \"Not enough tokens\") */\n      tag_115\n      jumpi\n      mload(0x40)\n      0x08c379a000000000000000000000000000000000000000000000000000000000\n      dup2\n      mstore\n      0x04\n      add\n      tag_116\n      swap1\n      tag_92\n      jump\t// in\n    tag_116:\n      mload(0x40)\n      dup1\n      swap2\n      sub\n      swap1\n      revert\n    tag_115:\n        /* \"contracts/ERC20.sol\":1426:1429  _to */\n      dup5\n        /* \"contracts/ERC20.sol\":926:927  0 */\n      0x00\n        /* \"contracts/ERC20.sol\":906:928  _address != address(0) */\n      0xffffffffffffffffffffffffffffffffffffffff\n      and\n        /* \"contracts/ERC20.sol\":906:914  _address */\n      dup2\n        /* \"contracts/ERC20.sol\":906:928  _address != address(0) */\n      0xffffffffffffffffffffffffffffffffffffffff\n      and\n      sub\n        /* \"contracts/ERC20.sol\":898:929  require(_address != address(0)) */\n      tag_118\n      jumpi\n      revert(0x00, 0x00)\n    tag_118:\n        /* \"contracts/ERC20.sol\":1493:1500  _amount */\n      dup5\n        /* \"contracts/ERC20.sol\":1468:1477  balanceOf */\n      0x05\n        /* \"contracts/ERC20.sol\":1468:1489  balanceOf[msg.sender] */\n      0x00\n        /* \"contracts/ERC20.sol\":1478:1488  msg.sender */\n      caller\n        /* \"contracts/ERC20.sol\":1468:1489  balanceOf[msg.sender] */\n      0xffffffffffffffffffffffffffffffffffffffff\n      and\n      0xffffffffffffffffffffffffffffffffffffffff\n      and\n      dup2\n      mstore\n      0x20\n      add\n      swap1\n      dup2\n      mstore\n      0x20\n      add\n      0x00\n      keccak256\n      0x00\n        /* \"contracts/ERC20.sol\":1468:1500  balanceOf[msg.sender] -= _amount */\n      dup3\n      dup3\n      sload\n      tag_120\n      swap2\n      swap1\n      tag_95\n      jump\t// in\n    tag_120:\n      swap3\n      pop\n      pop\n      dup2\n      swap1\n      sstore\n      pop\n        /* \"contracts/ERC20.sol\":1528:1535  _amount */\n      dup5\n        /* \"contracts/ERC20.sol\":1510:1519  balanceOf */\n      0x05\n        /* \"contracts/ERC20.sol\":1510:1524  balanceOf[_to] */\n      0x00\n        /* \"contracts/ERC20.sol\":1520:1523  _to */\n      dup9\n        /* \"contracts/ERC20.sol\":1510:1524  balanceOf[_to] */\n      0xffffffffffffffffffffffffffffffffffffffff\n      and\n      0xffffffffffffffffffffffffffffffffffffffff\n      and\n      dup2\n      mstore\n      0x20\n      add\n      swap1\n      dup2\n      mstore\n      0x20\n      add\n      0x00\n      keccak256\n      0x00\n        /* \"contracts/ERC20.sol\":1510:1535  balanceOf[_to] += _amount */\n      dup3\n      dup3\n      sload\n      tag_121\n      swap2\n      swap1\n      tag_97\n      jump\t// in\n    tag_121:\n      swap3\n      pop\n      pop\n      dup2\n      swap1\n      sstore\n      pop\n        /* \"contracts/ERC20.sol\":1572:1575  _to */\n      dup6\n        /* \"contracts/ERC20.sol\":1551:1585  Transfer(msg.sender, _to, _amount) */\n      0xffffffffffffffffffffffffffffffffffffffff\n      and\n        /* \"contracts/ERC20.sol\":1560:1570  msg.sender */\n      caller\n        /* \"contracts/ERC20.sol\":1551:1585  Transfer(msg.sender, _to, _amount) */\n      0xffffffffffffffffffffffffffffffffffffffff\n      and\n      0xddf252ad1be2c89b69c2b068fc378daa952ba7f163c4a11628f55a4df523b3ef\n        /* \"contracts/ERC20.sol\":1577:1584  _amount */\n      dup8\n        /* \"contracts/ERC20.sol\":1551:1585  Transfer(msg.sender, _to, _amount) */\n      mload(0x40)\n      tag_122\n      swap2\n      swap1\n      tag_31\n      jump\t// in\n    tag_122:\n      mload(0x40)\n      dup1\n      swap2\n      sub\n      swap1\n      log3\n        /* \"contracts/ERC20.sol\":1602:1606  true */\n      0x01\n        /* \"contracts/ERC20.sol\":1595:1606  return true */\n      swap4\n      pop\n        /* \"contracts/ERC20.sol\":1090:1091  _ */\n      pop\n        /* \"contracts/ERC20.sol\":1298:1613  function transfer(address _to, uint256 _amount)... */\n      pop\n      pop\n      swap3\n      swap2\n      pop\n      pop\n      jump\t// out\n        /* \"contracts/ERC20.sol\":266:330  mapping(address => mapping(address => uint256)) public allowance */\n    tag_73:\n      mstore(0x20, 0x06)\n      dup2\n      0x00\n      mstore\n      mstore(0x20, keccak256(0x00, 0x40))\n      dup1\n      0x00\n      mstore\n      keccak256(0x00, 0x40)\n      0x00\n      swap2\n      pop\n      swap2\n      pop\n      pop\n      sload\n      dup2\n      jump\t// out\n        /* \"#utility.yul\":7:106   */\n    tag_123:\n        /* \"#utility.yul\":59:65   */\n      0x00\n        /* \"#utility.yul\":93:98   */\n      dup2\n        /* \"#utility.yul\":87:99   */\n      mload\n        /* \"#utility.yul\":77:99   */\n      swap1\n      pop\n        /* \"#utility.yul\":7:106   */\n      swap2\n      swap1\n      pop\n      jump\t// out\n        /* \"#utility.yul\":112:281   */\n    tag_124:\n        /* \"#utility.yul\":196:207   */\n      0x00\n        /* \"#utility.yul\":230:236   */\n      dup3\n        /* \"#utility.yul\":225:228   */\n      dup3\n        /* \"#utility.yul\":218:237   */\n      mstore\n        /* \"#utility.yul\":270:274   */\n      0x20\n        /* \"#utility.yul\":265:268   */\n      dup3\n        /* \"#utility.yul\":261:275   */\n      add\n        /* \"#utility.yul\":246:275   */\n      swap1\n      pop\n        /* \"#utility.yul\":112:281   */\n      swap3\n      swap2\n      pop\n      pop\n      jump\t// out\n        /* \"#utility.yul\":287:426   */\n    tag_125:\n        /* \"#utility.yul\":376:382   */\n      dup3\n        /* \"#utility.yul\":371:374   */\n      dup2\n        /* \"#utility.yul\":366:369   */\n      dup4\n        /* \"#utility.yul\":360:383   */\n      mcopy\n        /* \"#utility.yul\":417:418   */\n      0x00\n        /* \"#utility.yul\":408:414   */\n      dup4\n        /* \"#utility.yul\":403:406   */\n      dup4\n        /* \"#utility.yul\":399:415   */\n      add\n        /* \"#utility.yul\":392:419   */\n      mstore\n        /* \"#utility.yul\":287:426   */\n      pop\n      pop\n      pop\n      jump\t// out\n        /* \"#utility.yul\":432:534   */\n    tag_126:\n        /* \"#utility.yul\":473:479   */\n      0x00\n        /* \"#utility.yul\":524:526   */\n      0x1f\n        /* \"#utility.yul\":520:527   */\n      not\n        /* \"#utility.yul\":515:517   */\n      0x1f\n        /* \"#utility.yul\":508:513   */\n      dup4\n        /* \"#utility.yul\":504:518   */\n      add\n        /* \"#utility.yul\":500:528   */\n      and\n        /* \"#utility.yul\":490:528   */\n      swap1\n      pop\n        /* \"#utility.yul\":432:534   */\n      swap2\n      swap1\n      pop\n      jump\t// out\n        /* \"#utility.yul\":540:917   */\n    tag_127:\n        /* \"#utility.yul\":628:631   */\n      0x00\n        /* \"#utility.yul\":656:695   */\n      tag_154\n        /* \"#utility.yul\":689:694   */\n      dup3\n        /* \"#utility.yul\":656:695   */\n      tag_123\n      jump\t// in\n    tag_154:\n        /* \"#utility.yul\":711:782   */\n      tag_155\n        /* \"#utility.yul\":775:781   */\n      dup2\n        /* \"#utility.yul\":770:773   */\n      dup6\n        /* \"#utility.yul\":711:782   */\n      tag_124\n      jump\t// in\n    tag_155:\n        /* \"#utility.yul\":704:782   */\n      swap4\n      pop\n        /* \"#utility.yul\":791:856   */\n      tag_156\n        /* \"#utility.yul\":849:855   */\n      dup2\n        /* \"#utility.yul\":844:847   */\n      dup6\n        /* \"#utility.yul\":837:841   */\n      0x20\n        /* \"#utility.yul\":830:835   */\n      dup7\n        /* \"#utility.yul\":826:842   */\n      add\n        /* \"#utility.yul\":791:856   */\n      tag_125\n      jump\t// in\n    tag_156:\n        /* \"#utility.yul\":881:910   */\n      tag_157\n        /* \"#utility.yul\":903:909   */\n      dup2\n        /* \"#utility.yul\":881:910   */\n      tag_126\n      jump\t// in\n    tag_157:\n        /* \"#utility.yul\":876:879   */\n      dup5\n        /* \"#utility.yul\":872:911   */\n      add\n        /* \"#utility.yul\":865:911   */\n      swap2\n      pop\n        /* \"#utility.yul\":632:917   */\n      pop\n        /* \"#utility.yul\":540:917   */\n      swap3\n      swap2\n      pop\n      pop\n      jump\t// out\n        /* \"#utility.yul\":923:1236   */\n    tag_19:\n        /* \"#utility.yul\":1036:1040   */\n      0x00\n        /* \"#utility.yul\":1074:1076   */\n      0x20\n        /* \"#utility.yul\":1063:1072   */\n      dup3\n        /* \"#utility.yul\":1059:1077   */\n      add\n        /* \"#utility.yul\":1051:1077   */\n      swap1\n      pop\n        /* \"#utility.yul\":1123:1132   */\n      dup2\n        /* \"#utility.yul\":1117:1121   */\n      dup2\n        /* \"#utility.yul\":1113:1133   */\n      sub\n        /* \"#utility.yul\":1109:1110   */\n      0x00\n        /* \"#utility.yul\":1098:1107   */\n      dup4\n        /* \"#utility.yul\":1094:1111   */\n      add\n        /* \"#utility.yul\":1087:1134   */\n      mstore\n        /* \"#utility.yul\":1151:1229   */\n      tag_159\n        /* \"#utility.yul\":1224:1228   */\n      dup2\n        /* \"#utility.yul\":1215:1221   */\n      dup5\n        /* \"#utility.yul\":1151:1229   */\n      tag_127\n      jump\t// in\n    tag_159:\n        /* \"#utility.yul\":1143:1229   */\n      swap1\n      pop\n        /* \"#utility.yul\":923:1236   */\n      swap3\n      swap2\n      pop\n      pop\n      jump\t// out\n        /* \"#utility.yul\":1323:1440   */\n    tag_129:\n        /* \"#utility.yul\":1432:1433   */\n      0x00\n        /* \"#utility.yul\":1429:1430   */\n      0x00\n        /* \"#utility.yul\":1422:1434   */\n      revert\n        /* \"#utility.yul\":1569:1695   */\n    tag_131:\n        /* \"#utility.yul\":1606:1613   */\n      0x00\n        /* \"#utility.yul\":1646:1688   */\n      0xffffffffffffffffffffffffffffffffffffffff\n        /* \"#utility.yul\":1639:1644   */\n      dup3\n        /* \"#utility.yul\":1635:1689   */\n      and\n        /* \"#utility.yul\":1624:1689   */\n      swap1\n      pop\n        /* \"#utility.yul\":1569:1695   */\n      swap2\n      swap1\n      pop\n      jump\t// out\n        /* \"#utility.yul\":1701:1797   */\n    tag_132:\n        /* \"#utility.yul\":1738:1745   */\n      0x00\n        /* \"#utility.yul\":1767:1791   */\n      tag_165\n        /* \"#utility.yul\":1785:1790   */\n      dup3\n        /* \"#utility.yul\":1767:1791   */\n      tag_131\n      jump\t// in\n    tag_165:\n        /* \"#utility.yul\":1756:1791   */\n      swap1\n      pop\n        /* \"#utility.yul\":1701:1797   */\n      swap2\n      swap1\n      pop\n      jump\t// out\n        /* \"#utility.yul\":1803:1925   */\n    tag_133:\n        /* \"#utility.yul\":1876:1900   */\n      tag_167\n        /* \"#utility.yul\":1894:1899   */\n      dup2\n        /* \"#utility.yul\":1876:1900   */\n      tag_132\n      jump\t// in\n    tag_167:\n        /* \"#utility.yul\":1869:1874   */\n      dup2\n        /* \"#utility.yul\":1866:1901   */\n      eq\n        /* \"#utility.yul\":1856:1919   */\n      tag_168\n      jumpi\n        /* \"#utility.yul\":1915:1916   */\n      0x00\n        /* \"#utility.yul\":1912:1913   */\n      0x00\n        /* \"#utility.yul\":1905:1917   */\n      revert\n        /* \"#utility.yul\":1856:1919   */\n    tag_168:\n        /* \"#utility.yul\":1803:1925   */\n      pop\n      jump\t// out\n        /* \"#utility.yul\":1931:2070   */\n    tag_134:\n        /* \"#utility.yul\":1977:1982   */\n      0x00\n        /* \"#utility.yul\":2015:2021   */\n      dup2\n        /* \"#utility.yul\":2002:2022   */\n      calldataload\n        /* \"#utility.yul\":1993:2022   */\n      swap1\n      pop\n        /* \"#utility.yul\":2031:2064   */\n      tag_170\n        /* \"#utility.yul\":2058:2063   */\n      dup2\n        /* \"#utility.yul\":2031:2064   */\n      tag_133\n      jump\t// in\n    tag_170:\n        /* \"#utility.yul\":1931:2070   */\n      swap3\n      swap2\n      pop\n      pop\n      jump\t// out\n        /* \"#utility.yul\":2076:2153   */\n    tag_135:\n        /* \"#utility.yul\":2113:2120   */\n      0x00\n        /* \"#utility.yul\":2142:2147   */\n      dup2\n        /* \"#utility.yul\":2131:2147   */\n      swap1\n      pop\n        /* \"#utility.yul\":2076:2153   */\n      swap2\n      swap1\n      pop\n      jump\t// out\n        /* \"#utility.yul\":2159:2281   */\n    tag_136:\n        /* \"#utility.yul\":2232:2256   */\n      tag_173\n        /* \"#utility.yul\":2250:2255   */\n      dup2\n        /* \"#utility.yul\":2232:2256   */\n      tag_135\n      jump\t// in\n    tag_173:\n        /* \"#utility.yul\":2225:2230   */\n      dup2\n        /* \"#utility.yul\":2222:2257   */\n      eq\n        /* \"#utility.yul\":2212:2275   */\n      tag_174\n      jumpi\n        /* \"#utility.yul\":2271:2272   */\n      0x00\n        /* \"#utility.yul\":2268:2269   */\n      0x00\n        /* \"#utility.yul\":2261:2273   */\n      revert\n        /* \"#utility.yul\":2212:2275   */\n    tag_174:\n        /* \"#utility.yul\":2159:2281   */\n      pop\n      jump\t// out\n        /* \"#utility.yul\":2287:2426   */\n    tag_137:\n        /* \"#utility.yul\":2333:2338   */\n      0x00\n        /* \"#utility.yul\":2371:2377   */\n      dup2\n        /* \"#utility.yul\":2358:2378   */\n      calldataload\n        /* \"#utility.yul\":2349:2378   */\n      swap1\n      pop\n        /* \"#utility.yul\":2387:2420   */\n      tag_176\n        /* \"#utility.yul\":2414:2419   */\n      dup2\n        /* \"#utility.yul\":2387:2420   */\n      tag_136\n      jump\t// in\n    tag_176:\n        /* \"#utility.yul\":2287:2426   */\n      swap3\n      swap2\n      pop\n      pop\n      jump\t// out\n        /* \"#utility.yul\":2432:2906   */\n    tag_23:\n        /* \"#utility.yul\":2500:2506   */\n      0x00\n        /* \"#utility.yul\":2508:2514   */\n      0x00\n        /* \"#utility.yul\":2557:2559   */\n      0x40\n        /* \"#utility.yul\":2545:2554   */\n      dup4\n        /* \"#utility.yul\":2536:2543   */\n      dup6\n        /* \"#utility.yul\":2532:2555   */\n      sub\n        /* \"#utility.yul\":2528:2560   */\n      slt\n        /* \"#utility.yul\":2525:2644   */\n      iszero\n      tag_178\n      jumpi\n        /* \"#utility.yul\":2563:2642   */\n      tag_179\n      tag_129\n      jump\t// in\n    tag_179:\n        /* \"#utility.yul\":2525:2644   */\n    tag_178:\n        /* \"#utility.yul\":2683:2684   */\n      0x00\n        /* \"#utility.yul\":2708:2761   */\n      tag_180\n        /* \"#utility.yul\":2753:2760   */\n      dup6\n        /* \"#utility.yul\":2744:2750   */\n      dup3\n        /* \"#utility.yul\":2733:2742   */\n      dup7\n        /* \"#utility.yul\":2729:2751   */\n      add\n        /* \"#utility.yul\":2708:2761   */\n      tag_134\n      jump\t// in\n    tag_180:\n        /* \"#utility.yul\":2698:2761   */\n      swap3\n      pop\n        /* \"#utility.yul\":2654:2771   */\n      pop\n        /* \"#utility.yul\":2810:2812   */\n      0x20\n        /* \"#utility.yul\":2836:2889   */\n      tag_181\n        /* \"#utility.yul\":2881:2888   */\n      dup6\n        /* \"#utility.yul\":2872:2878   */\n      dup3\n        /* \"#utility.yul\":2861:2870   */\n      dup7\n        /* \"#utility.yul\":2857:2879   */\n      add\n        /* \"#utility.yul\":2836:2889   */\n      tag_137\n      jump\t// in\n    tag_181:\n        /* \"#utility.yul\":2826:2889   */\n      swap2\n      pop\n        /* \"#utility.yul\":2781:2899   */\n      pop\n        /* \"#utility.yul\":2432:2906   */\n      swap3\n      pop\n      swap3\n      swap1\n      pop\n      jump\t// out\n        /* \"#utility.yul\":2912:3002   */\n    tag_138:\n        /* \"#utility.yul\":2946:2953   */\n      0x00\n        /* \"#utility.yul\":2989:2994   */\n      dup2\n        /* \"#utility.yul\":2982:2995   */\n      iszero\n        /* \"#utility.yul\":2975:2996   */\n      iszero\n        /* \"#utility.yul\":2964:2996   */\n      swap1\n      pop\n        /* \"#utility.yul\":2912:3002   */\n      swap2\n      swap1\n      pop\n      jump\t// out\n        /* \"#utility.yul\":3008:3117   */\n    tag_139:\n        /* \"#utility.yul\":3089:3110   */\n      tag_184\n        /* \"#utility.yul\":3104:3109   */\n      dup2\n        /* \"#utility.yul\":3089:3110   */\n      tag_138\n      jump\t// in\n    tag_184:\n        /* \"#utility.yul\":3084:3087   */\n      dup3\n        /* \"#utility.yul\":3077:3111   */\n      mstore\n        /* \"#utility.yul\":3008:3117   */\n      pop\n      pop\n      jump\t// out\n        /* \"#utility.yul\":3123:3333   */\n    tag_26:\n        /* \"#utility.yul\":3210:3214   */\n      0x00\n        /* \"#utility.yul\":3248:3250   */\n      0x20\n        /* \"#utility.yul\":3237:3246   */\n      dup3\n        /* \"#utility.yul\":3233:3251   */\n      add\n        /* \"#utility.yul\":3225:3251   */\n      swap1\n      pop\n        /* \"#utility.yul\":3261:3326   */\n      tag_186\n        /* \"#utility.yul\":3323:3324   */\n      0x00\n        /* \"#utility.yul\":3312:3321   */\n      dup4\n        /* \"#utility.yul\":3308:3325   */\n      add\n        /* \"#utility.yul\":3299:3305   */\n      dup5\n        /* \"#utility.yul\":3261:3326   */\n      tag_139\n      jump\t// in\n    tag_186:\n        /* \"#utility.yul\":3123:3333   */\n      swap3\n      swap2\n      pop\n      pop\n      jump\t// out\n        /* \"#utility.yul\":3339:3457   */\n    tag_140:\n        /* \"#utility.yul\":3426:3450   */\n      tag_188\n        /* \"#utility.yul\":3444:3449   */\n      dup2\n        /* \"#utility.yul\":3426:3450   */\n      tag_135\n      jump\t// in\n    tag_188:\n        /* \"#utility.yul\":3421:3424   */\n      dup3\n        /* \"#utility.yul\":3414:3451   */\n      mstore\n        /* \"#utility.yul\":3339:3457   */\n      pop\n      pop\n      jump\t// out\n        /* \"#utility.yul\":3463:3685   */\n    tag_31:\n        /* \"#utility.yul\":3556:3560   */\n      0x00\n        /* \"#utility.yul\":3594:3596   */\n      0x20\n        /* \"#utility.yul\":3583:3592   */\n      dup3\n        /* \"#utility.yul\":3579:3597   */\n      add\n        /* \"#utility.yul\":3571:3597   */\n      swap1\n      pop\n        /* \"#utility.yul\":3607:3678   */\n      tag_190\n        /* \"#utility.yul\":3675:3676   */\n      0x00\n        /* \"#utility.yul\":3664:3673   */\n      dup4\n        /* \"#utility.yul\":3660:3677   */\n      add\n        /* \"#utility.yul\":3651:3657   */\n      dup5\n        /* \"#utility.yul\":3607:3678   */\n      tag_140\n      jump\t// in\n    tag_190:\n        /* \"#utility.yul\":3463:3685   */\n      swap3\n      swap2\n      pop\n      pop\n      jump\t// out\n        /* \"#utility.yul\":3691:4310   */\n    tag_35:\n        /* \"#utility.yul\":3768:3774   */\n      0x00\n        /* \"#utility.yul\":3776:3782   */\n      0x00\n        /* \"#utility.yul\":3784:3790   */\n      0x00\n        /* \"#utility.yul\":3833:3835   */\n      0x60\n        /* \"#utility.yul\":3821:3830   */\n      dup5\n        /* \"#utility.yul\":3812:3819   */\n      dup7\n        /* \"#utility.yul\":3808:3831   */\n      sub\n        /* \"#utility.yul\":3804:3836   */\n      slt\n        /* \"#utility.yul\":3801:3920   */\n      iszero\n      tag_192\n      jumpi\n        /* \"#utility.yul\":3839:3918   */\n      tag_193\n      tag_129\n      jump\t// in\n    tag_193:\n        /* \"#utility.yul\":3801:3920   */\n    tag_192:\n        /* \"#utility.yul\":3959:3960   */\n      0x00\n        /* \"#utility.yul\":3984:4037   */\n      tag_194\n        /* \"#utility.yul\":4029:4036   */\n      dup7\n        /* \"#utility.yul\":4020:4026   */\n      dup3\n        /* \"#utility.yul\":4009:4018   */\n      dup8\n        /* \"#utility.yul\":4005:4027   */\n      add\n        /* \"#utility.yul\":3984:4037   */\n      tag_134\n      jump\t// in\n    tag_194:\n        /* \"#utility.yul\":3974:4037   */\n      swap4\n      pop\n        /* \"#utility.yul\":3930:4047   */\n      pop\n        /* \"#utility.yul\":4086:4088   */\n      0x20\n        /* \"#utility.yul\":4112:4165   */\n      tag_195\n        /* \"#utility.yul\":4157:4164   */\n      dup7\n        /* \"#utility.yul\":4148:4154   */\n      dup3\n        /* \"#utility.yul\":4137:4146   */\n      dup8\n        /* \"#utility.yul\":4133:4155   */\n      add\n        /* \"#utility.yul\":4112:4165   */\n      tag_134\n      jump\t// in\n    tag_195:\n        /* \"#utility.yul\":4102:4165   */\n      swap3\n      pop\n        /* \"#utility.yul\":4057:4175   */\n      pop\n        /* \"#utility.yul\":4214:4216   */\n      0x40\n        /* \"#utility.yul\":4240:4293   */\n      tag_196\n        /* \"#utility.yul\":4285:4292   */\n      dup7\n        /* \"#utility.yul\":4276:4282   */\n      dup3\n        /* \"#utility.yul\":4265:4274   */\n      dup8\n        /* \"#utility.yul\":4261:4283   */\n      add\n        /* \"#utility.yul\":4240:4293   */\n      tag_137\n      jump\t// in\n    tag_196:\n        /* \"#utility.yul\":4230:4293   */\n      swap2\n      pop\n        /* \"#utility.yul\":4185:4303   */\n      pop\n        /* \"#utility.yul\":3691:4310   */\n      swap3\n      pop\n      swap3\n      pop\n      swap3\n      jump\t// out\n        /* \"#utility.yul\":4316:4402   */\n    tag_141:\n        /* \"#utility.yul\":4351:4358   */\n      0x00\n        /* \"#utility.yul\":4391:4395   */\n      0xff\n        /* \"#utility.yul\":4384:4389   */\n      dup3\n        /* \"#utility.yul\":4380:4396   */\n      and\n        /* \"#utility.yul\":4369:4396   */\n      swap1\n      pop\n        /* \"#utility.yul\":4316:4402   */\n      swap2\n      swap1\n      pop\n      jump\t// out\n        /* \"#utility.yul\":4408:4520   */\n    tag_142:\n        /* \"#utility.yul\":4491:4513   */\n      tag_199\n        /* \"#utility.yul\":4507:4512   */\n      dup2\n        /* \"#utility.yul\":4491:4513   */\n      tag_141\n      jump\t// in\n    tag_199:\n        /* \"#utility.yul\":4486:4489   */\n      dup3\n        /* \"#utility.yul\":4479:4514   */\n      mstore\n        /* \"#utility.yul\":4408:4520   */\n      pop\n      pop\n      jump\t// out\n        /* \"#utility.yul\":4526:4740   */\n    tag_42:\n        /* \"#utility.yul\":4615:4619   */\n      0x00\n        /* \"#utility.yul\":4653:4655   */\n      0x20\n        /* \"#utility.yul\":4642:4651   */\n      dup3\n        /* \"#utility.yul\":4638:4656   */\n      add\n        /* \"#utility.yul\":4630:4656   */\n      swap1\n      pop\n        /* \"#utility.yul\":4666:4733   */\n      tag_201\n        /* \"#utility.yul\":4730:4731   */\n      0x00\n        /* \"#utility.yul\":4719:4728   */\n      dup4\n        /* \"#utility.yul\":4715:4732   */\n      add\n        /* \"#utility.yul\":4706:4712   */\n      dup5\n        /* \"#utility.yul\":4666:4733   */\n      tag_142\n      jump\t// in\n    tag_201:\n        /* \"#utility.yul\":4526:4740   */\n      swap3\n      swap2\n      pop\n      pop\n      jump\t// out\n        /* \"#utility.yul\":4746:5075   */\n    tag_50:\n        /* \"#utility.yul\":4805:4811   */\n      0x00\n        /* \"#utility.yul\":4854:4856   */\n      0x20\n        /* \"#utility.yul\":4842:4851   */\n      dup3\n        /* \"#utility.yul\":4833:4840   */\n      dup5\n        /* \"#utility.yul\":4829:4852   */\n      sub\n        /* \"#utility.yul\":4825:4857   */\n      slt\n        /* \"#utility.yul\":4822:4941   */\n      iszero\n      tag_203\n      jumpi\n        /* \"#utility.yul\":4860:4939   */\n      tag_204\n      tag_129\n      jump\t// in\n    tag_204:\n        /* \"#utility.yul\":4822:4941   */\n    tag_203:\n        /* \"#utility.yul\":4980:4981   */\n      0x00\n        /* \"#utility.yul\":5005:5058   */\n      tag_205\n        /* \"#utility.yul\":5050:5057   */\n      dup5\n        /* \"#utility.yul\":5041:5047   */\n      dup3\n        /* \"#utility.yul\":5030:5039   */\n      dup6\n        /* \"#utility.yul\":5026:5048   */\n      add\n        /* \"#utility.yul\":5005:5058   */\n      tag_134\n      jump\t// in\n    tag_205:\n        /* \"#utility.yul\":4995:5058   */\n      swap2\n      pop\n        /* \"#utility.yul\":4951:5068   */\n      pop\n        /* \"#utility.yul\":4746:5075   */\n      swap3\n      swap2\n      pop\n      pop\n      jump\t// out\n        /* \"#utility.yul\":5081:5555   */\n    tag_72:\n        /* \"#utility.yul\":5149:5155   */\n      0x00\n        /* \"#utility.yul\":5157:5163   */\n      0x00\n        /* \"#utility.yul\":5206:5208   */\n      0x40\n        /* \"#utility.yul\":5194:5203   */\n      dup4\n        /* \"#utility.yul\":5185:5192   */\n      dup6\n        /* \"#utility.yul\":5181:5204   */\n      sub\n        /* \"#utility.yul\":5177:5209   */\n      slt\n        /* \"#utility.yul\":5174:5293   */\n      iszero\n      tag_207\n      jumpi\n        /* \"#utility.yul\":5212:5291   */\n      tag_208\n      tag_129\n      jump\t// in\n    tag_208:\n        /* \"#utility.yul\":5174:5293   */\n    tag_207:\n        /* \"#utility.yul\":5332:5333   */\n      0x00\n        /* \"#utility.yul\":5357:5410   */\n      tag_209\n        /* \"#utility.yul\":5402:5409   */\n      dup6\n        /* \"#utility.yul\":5393:5399   */\n      dup3\n        /* \"#utility.yul\":5382:5391   */\n      dup7\n        /* \"#utility.yul\":5378:5400   */\n      add\n        /* \"#utility.yul\":5357:5410   */\n      tag_134\n      jump\t// in\n    tag_209:\n        /* \"#utility.yul\":5347:5410   */\n      swap3\n      pop\n        /* \"#utility.yul\":5303:5420   */\n      pop\n        /* \"#utility.yul\":5459:5461   */\n      0x20\n        /* \"#utility.yul\":5485:5538   */\n      tag_210\n        /* \"#utility.yul\":5530:5537   */\n      dup6\n        /* \"#utility.yul\":5521:5527   */\n      dup3\n        /* \"#utility.yul\":5510:5519   */\n      dup7\n        /* \"#utility.yul\":5506:5528   */\n      add\n        /* \"#utility.yul\":5485:5538   */\n      tag_134\n      jump\t// in\n    tag_210:\n        /* \"#utility.yul\":5475:5538   */\n      swap2\n      pop\n        /* \"#utility.yul\":5430:5548   */\n      pop\n        /* \"#utility.yul\":5081:5555   */\n      swap3\n      pop\n      swap3\n      swap1\n      pop\n      jump\t// out\n        /* \"#utility.yul\":5561:5741   */\n    tag_143:\n        /* \"#utility.yul\":5609:5686   */\n      0x4e487b7100000000000000000000000000000000000000000000000000000000\n        /* \"#utility.yul\":5606:5607   */\n      0x00\n        /* \"#utility.yul\":5599:5687   */\n      mstore\n        /* \"#utility.yul\":5706:5710   */\n      0x22\n        /* \"#utility.yul\":5703:5704   */\n      0x04\n        /* \"#utility.yul\":5696:5711   */\n      mstore\n        /* \"#utility.yul\":5730:5734   */\n      0x24\n        /* \"#utility.yul\":5727:5728   */\n      0x00\n        /* \"#utility.yul\":5720:5735   */\n      revert\n        /* \"#utility.yul\":5747:6067   */\n    tag_76:\n        /* \"#utility.yul\":5791:5797   */\n      0x00\n        /* \"#utility.yul\":5828:5829   */\n      0x02\n        /* \"#utility.yul\":5822:5826   */\n      dup3\n        /* \"#utility.yul\":5818:5830   */\n      div\n        /* \"#utility.yul\":5808:5830   */\n      swap1\n      pop\n        /* \"#utility.yul\":5875:5876   */\n      0x01\n        /* \"#utility.yul\":5869:5873   */\n      dup3\n        /* \"#utility.yul\":5865:5877   */\n      and\n        /* \"#utility.yul\":5896:5914   */\n      dup1\n        /* \"#utility.yul\":5886:5967   */\n      tag_213\n      jumpi\n        /* \"#utility.yul\":5952:5956   */\n      0x7f\n        /* \"#utility.yul\":5944:5950   */\n      dup3\n        /* \"#utility.yul\":5940:5957   */\n      and\n        /* \"#utility.yul\":5930:5957   */\n      swap2\n      pop\n        /* \"#utility.yul\":5886:5967   */\n    tag_213:\n        /* \"#utility.yul\":6014:6016   */\n      0x20\n        /* \"#utility.yul\":6006:6012   */\n      dup3\n        /* \"#utility.yul\":6003:6017   */\n      lt\n        /* \"#utility.yul\":5983:6001   */\n      dup2\n        /* \"#utility.yul\":5980:6018   */\n      sub\n        /* \"#utility.yul\":5977:6061   */\n      tag_214\n      jumpi\n        /* \"#utility.yul\":6033:6051   */\n      tag_215\n      tag_143\n      jump\t// in\n    tag_215:\n        /* \"#utility.yul\":5977:6061   */\n    tag_214:\n        /* \"#utility.yul\":5798:6067   */\n      pop\n        /* \"#utility.yul\":5747:6067   */\n      swap2\n      swap1\n      pop\n      jump\t// out\n        /* \"#utility.yul\":6073:6240   */\n    tag_144:\n        /* \"#utility.yul\":6213:6232   */\n      0x4e6f7420656e6f75676820746f6b656e73000000000000000000000000000000\n        /* \"#utility.yul\":6209:6210   */\n      0x00\n        /* \"#utility.yul\":6201:6207   */\n      dup3\n        /* \"#utility.yul\":6197:6211   */\n      add\n        /* \"#utility.yul\":6190:6233   */\n      mstore\n        /* \"#utility.yul\":6073:6240   */\n      pop\n      jump\t// out\n        /* \"#utility.yul\":6246:6612   */\n    tag_145:\n        /* \"#utility.yul\":6388:6391   */\n      0x00\n        /* \"#utility.yul\":6409:6476   */\n      tag_218\n        /* \"#utility.yul\":6473:6475   */\n      0x11\n        /* \"#utility.yul\":6468:6471   */\n      dup4\n        /* \"#utility.yul\":6409:6476   */\n      tag_124\n      jump\t// in\n    tag_218:\n        /* \"#utility.yul\":6402:6476   */\n      swap2\n      pop\n        /* \"#utility.yul\":6485:6578   */\n      tag_219\n        /* \"#utility.yul\":6574:6577   */\n      dup3\n        /* \"#utility.yul\":6485:6578   */\n      tag_144\n      jump\t// in\n    tag_219:\n        /* \"#utility.yul\":6603:6605   */\n      0x20\n        /* \"#utility.yul\":6598:6601   */\n      dup3\n        /* \"#utility.yul\":6594:6606   */\n      add\n        /* \"#utility.yul\":6587:6606   */\n      swap1\n      pop\n        /* \"#utility.yul\":6246:6612   */\n      swap2\n      swap1\n      pop\n      jump\t// out\n        /* \"#utility.yul\":6618:7037   */\n    tag_92:\n        /* \"#utility.yul\":6784:6788   */\n      0x00\n        /* \"#utility.yul\":6822:6824   */\n      0x20\n        /* \"#utility.yul\":6811:6820   */\n      dup3\n        /* \"#utility.yul\":6807:6825   */\n      add\n        /* \"#utility.yul\":6799:6825   */\n      swap1\n      pop\n        /* \"#utility.yul\":6871:6880   */\n      dup2\n        /* \"#utility.yul\":6865:6869   */\n      dup2\n        /* \"#utility.yul\":6861:6881   */\n      sub\n        /* \"#utility.yul\":6857:6858   */\n      0x00\n        /* \"#utility.yul\":6846:6855   */\n      dup4\n        /* \"#utility.yul\":6842:6859   */\n      add\n        /* \"#utility.yul\":6835:6882   */\n      mstore\n        /* \"#utility.yul\":6899:7030   */\n      tag_221\n        /* \"#utility.yul\":7025:7029   */\n      dup2\n        /* \"#utility.yul\":6899:7030   */\n      tag_145\n      jump\t// in\n    tag_221:\n        /* \"#utility.yul\":6891:7030   */\n      swap1\n      pop\n        /* \"#utility.yul\":6618:7037   */\n      swap2\n      swap1\n      pop\n      jump\t// out\n        /* \"#utility.yul\":7043:7223   */\n    tag_146:\n        /* \"#utility.yul\":7091:7168   */\n      0x4e487b7100000000000000000000000000000000000000000000000000000000\n        /* \"#utility.yul\":7088:7089   */\n      0x00\n        /* \"#utility.yul\":7081:7169   */\n      mstore\n        /* \"#utility.yul\":7188:7192   */\n      0x11\n        /* \"#utility.yul\":7185:7186   */\n      0x04\n        /* \"#utility.yul\":7178:7193   */\n      mstore\n        /* \"#utility.yul\":7212:7216   */\n      0x24\n        /* \"#utility.yul\":7209:7210   */\n      0x00\n        /* \"#utility.yul\":7202:7217   */\n      revert\n        /* \"#utility.yul\":7229:7423   */\n    tag_95:\n        /* \"#utility.yul\":7269:7273   */\n      0x00\n        /* \"#utility.yul\":7289:7309   */\n      tag_224\n        /* \"#utility.yul\":7307:7308   */\n      dup3\n        /* \"#utility.yul\":7289:7309   */\n      tag_135\n      jump\t// in\n    tag_224:\n        /* \"#utility.yul\":7284:7309   */\n      swap2\n      pop\n        /* \"#utility.yul\":7323:7343   */\n      tag_225\n        /* \"#utility.yul\":7341:7342   */\n      dup4\n        /* \"#utility.yul\":7323:7343   */\n      tag_135\n      jump\t// in\n    tag_225:\n        /* \"#utility.yul\":7318:7343   */\n      swap3\n      pop\n        /* \"#utility.yul\":7367:7368   */\n      dup3\n        /* \"#utility.yul\":7364:7365   */\n      dup3\n        /* \"#utility.yul\":7360:7369   */\n      sub\n        /* \"#utility.yul\":7352:7369   */\n      swap1\n      pop\n        /* \"#utility.yul\":7391:7392   */\n      dup2\n        /* \"#utility.yul\":7385:7389   */\n      dup2\n        /* \"#utility.yul\":7382:7393   */\n      gt\n        /* \"#utility.yul\":7379:7416   */\n      iszero\n      tag_226\n      jumpi\n        /* \"#utility.yul\":7396:7414   */\n      tag_227\n      tag_146\n      jump\t// in\n    tag_227:\n        /* \"#utility.yul\":7379:7416   */\n    tag_226:\n        /* \"#utility.yul\":7229:7423   */\n      swap3\n      swap2\n      pop\n      pop\n      jump\t// out\n        /* \"#utility.yul\":7429:7620   */\n    tag_97:\n        /* \"#utility.yul\":7469:7472   */\n      0x00\n        /* \"#utility.yul\":7488:7508   */\n      tag_229\n        /* \"#utility.yul\":7506:7507   */\n      dup3\n        /* \"#utility.yul\":7488:7508   */\n      tag_135\n      jump\t// in\n    tag_229:\n        /* \"#utility.yul\":7483:7508   */\n      swap2\n      pop\n        /* \"#utility.yul\":7522:7542   */\n      tag_230\n        /* \"#utility.yul\":7540:7541   */\n      dup4\n        /* \"#utility.yul\":7522:7542   */\n      tag_135\n      jump\t// in\n    tag_230:\n        /* \"#utility.yul\":7517:7542   */\n      swap3\n      pop\n        /* \"#utility.yul\":7565:7566   */\n      dup3\n        /* \"#utility.yul\":7562:7563   */\n      dup3\n        /* \"#utility.yul\":7558:7567   */\n      add\n        /* \"#utility.yul\":7551:7567   */\n      swap1\n      pop\n        /* \"#utility.yul\":7586:7589   */\n      dup1\n        /* \"#utility.yul\":7583:7584   */\n      dup3\n        /* \"#utility.yul\":7580:7590   */\n      gt\n        /* \"#utility.yul\":7577:7613   */\n      iszero\n      tag_231\n      jumpi\n        /* \"#utility.yul\":7593:7611   */\n      tag_232\n      tag_146\n      jump\t// in\n    tag_232:\n        /* \"#utility.yul\":7577:7613   */\n    tag_231:\n        /* \"#utility.yul\":7429:7620   */\n      swap3\n      swap2\n      pop\n      pop\n      jump\t// out\n        /* \"#utility.yul\":7626:7806   */\n    tag_147:\n        /* \"#utility.yul\":7674:7751   */\n      0x4e487b7100000000000000000000000000000000000000000000000000000000\n        /* \"#utility.yul\":7671:7672   */\n      0x00\n        /* \"#utility.yul\":7664:7752   */\n      mstore\n        /* \"#utility.yul\":7771:7775   */\n      0x12\n        /* \"#utility.yul\":7768:7769   */\n      0x04\n        /* \"#utility.yul\":7761:7776   */\n      mstore\n        /* \"#utility.yul\":7795:7799   */\n      0x24\n        /* \"#utility.yul\":7792:7793   */\n      0x00\n        /* \"#utility.yul\":7785:7800   */\n      revert\n        /* \"#utility.yul\":7812:7997   */\n    tag_112:\n        /* \"#utility.yul\":7852:7853   */\n      0x00\n        /* \"#utility.yul\":7869:7889   */\n      tag_235\n        /* \"#utility.yul\":7887:7888   */\n      dup3\n        /* \"#utility.yul\":7869:7889   */\n      tag_135\n      jump\t// in\n    tag_235:\n        /* \"#utility.yul\":7864:7889   */\n      swap2\n      pop\n        /* \"#utility.yul\":7903:7923   */\n      tag_236\n        /* \"#utility.yul\":7921:7922   */\n      dup4\n        /* \"#utility.yul\":7903:7923   */\n      tag_135\n      jump\t// in\n    tag_236:\n        /* \"#utility.yul\":7898:7923   */\n      swap3\n      pop\n        /* \"#utility.yul\":7942:7943   */\n      dup3\n        /* \"#utility.yul\":7932:7967   */\n      tag_237\n      jumpi\n        /* \"#utility.yul\":7947:7965   */\n      tag_238\n      tag_147\n      jump\t// in\n    tag_238:\n        /* \"#utility.yul\":7932:7967   */\n    tag_237:\n        /* \"#utility.yul\":7989:7990   */\n      dup3\n        /* \"#utility.yul\":7986:7987   */\n      dup3\n        /* \"#utility.yul\":7982:7991   */\n      div\n        /* \"#utility.yul\":7977:7991   */\n      swap1\n      pop\n        /* \"#utility.yul\":7812:7997   */\n      swap3\n      swap2\n      pop\n      pop\n      jump\t// out\n\n    auxdata: 0xa264697066735822122072c9f02f33e8d3a56480d7ff85f58ba8ce293a857b0a4f0bc347e09542ba5b4e64736f6c634300081c0033\n}\n",
				"bytecode": {
					"linkReferences": {},
					"object": "608060405234801561000f575f5ffd5b5060405161159e38038061159e833981810160405281019061003191906102e9565b845f908161003f919061059f565b50836001908161004f919061059f565b50610060338461008b60201b60201c565b8160035f6101000a81548160ff021916908360ff1602179055508060048190555050505050506106ce565b815f73ffffffffffffffffffffffffffffffffffffffff168173ffffffffffffffffffffffffffffffffffffffff16036100c3575f5ffd5b8160025f8282546100d4919061069b565b925050819055508160055f8573ffffffffffffffffffffffffffffffffffffffff1673ffffffffffffffffffffffffffffffffffffffff1681526020019081526020015f205f828254610127919061069b565b92505081905550505050565b5f604051905090565b5f5ffd5b5f5ffd5b5f5ffd5b5f5ffd5b5f601f19601f8301169050919050565b7f4e487b71000000000000000000000000000000000000000000000000000000005f52604160045260245ffd5b6101928261014c565b810181811067ffffffffffffffff821117156101b1576101b061015c565b5b80604052505050565b5f6101c3610133565b90506101cf8282610189565b919050565b5f67ffffffffffffffff8211156101ee576101ed61015c565b5b6101f78261014c565b9050602081019050919050565b8281835e5f83830152505050565b5f61022461021f846101d4565b6101ba565b9050828152602081018484840111156102405761023f610148565b5b61024b848285610204565b509392505050565b5f82601f83011261026757610266610144565b5b8151610277848260208601610212565b91505092915050565b5f819050919050565b61029281610280565b811461029c575f5ffd5b50565b5f815190506102ad81610289565b92915050565b5f60ff82169050919050565b6102c8816102b3565b81146102d2575f5ffd5b50565b5f815190506102e3816102bf565b92915050565b5f5f5f5f5f60a086880312156103025761030161013c565b5b5f86015167ffffffffffffffff81111561031f5761031e610140565b5b61032b88828901610253565b955050602086015167ffffffffffffffff81111561034c5761034b610140565b5b61035888828901610253565b94505060406103698882890161029f565b935050606061037a888289016102d5565b925050608061038b8882890161029f565b9150509295509295909350565b5f81519050919050565b7f4e487b71000000000000000000000000000000000000000000000000000000005f52602260045260245ffd5b5f60028204905060018216806103e657607f821691505b6020821081036103f9576103f86103a2565b5b50919050565b5f819050815f5260205f209050919050565b5f6020601f8301049050919050565b5f82821b905092915050565b5f6008830261045b7fffffffffffffffffffffffffffffffffffffffffffffffffffffffffffffffff82610420565b6104658683610420565b95508019841693508086168417925050509392505050565b5f819050919050565b5f6104a061049b61049684610280565b61047d565b610280565b9050919050565b5f819050919050565b6104b983610486565b6104cd6104c5826104a7565b84845461042c565b825550505050565b5f5f905090565b6104e46104d5565b6104ef8184846104b0565b505050565b5b81811015610512576105075f826104dc565b6001810190506104f5565b5050565b601f82111561055757610528816103ff565b61053184610411565b81016020851015610540578190505b61055461054c85610411565b8301826104f4565b50505b505050565b5f82821c905092915050565b5f6105775f198460080261055c565b1980831691505092915050565b5f61058f8383610568565b9150826002028217905092915050565b6105a882610398565b67ffffffffffffffff8111156105c1576105c061015c565b5b6105cb82546103cf565b6105d6828285610516565b5f60209050601f831160018114610607575f84156105f5578287015190505b6105ff8582610584565b865550610666565b601f198416610615866103ff565b5f5b8281101561063c57848901518255600182019150602085019450602081019050610617565b868310156106595784890151610655601f891682610568565b8355505b6001600288020188555050505b505050505050565b7f4e487b71000000000000000000000000000000000000000000000000000000005f52601160045260245ffd5b5f6106a582610280565b91506106b083610280565b92508282019050808211156106c8576106c761066e565b5b92915050565b610ec3806106db5f395ff3fe6080604052600436106100a6575f3560e01c806370a082311161006357806370a08231146101c857806395d89b4114610204578063a035b1fe1461022e578063a6f2ae3a14610258578063a9059cbb14610276578063dd62ed3e146102b2576100a6565b806306fdde03146100aa578063095ea7b3146100d457806318160ddd1461011057806323b872dd1461013a578063313ce5671461017657806340c10f19146101a0575b5f5ffd5b3480156100b5575f5ffd5b506100be6102ee565b6040516100cb9190610aa1565b60405180910390f35b3480156100df575f5ffd5b506100fa60048036038101906100f59190610b52565b610379565b6040516101079190610baa565b60405180910390f35b34801561011b575f5ffd5b5061012461049f565b6040516101319190610bd2565b60405180910390f35b348015610145575f5ffd5b50610160600480360381019061015b9190610beb565b6104a5565b60405161016d9190610baa565b60405180910390f35b348015610181575f5ffd5b5061018a6106b2565b6040516101979190610c56565b60405180910390f35b3480156101ab575f5ffd5b506101c660048036038101906101c19190610b52565b6106c4565b005b3480156101d3575f5ffd5b506101ee60048036038101906101e99190610c6f565b61076c565b6040516101fb9190610bd2565b60405180910390f35b34801561020f575f5ffd5b50610218610781565b6040516102259190610aa1565b60405180910390f35b348015610239575f5ffd5b5061024261080d565b60405161024f9190610bd2565b60405180910390f35b610260610813565b60405161026d9190610bd2565b60405180910390f35b348015610281575f5ffd5b5061029c60048036038101906102979190610b52565b61083e565b6040516102a99190610baa565b60405180910390f35b3480156102bd575f5ffd5b506102d860048036038101906102d39190610c9a565b610a11565b6040516102e59190610bd2565b60405180910390f35b5f80546102fa90610d05565b80601f016020809104026020016040519081016040528092919081815260200182805461032690610d05565b80156103715780601f1061034857610100808354040283529160200191610371565b820191905f5260205f20905b81548152906001019060200180831161035457829003601f168201915b505050505081565b5f825f73ffffffffffffffffffffffffffffffffffffffff168173ffffffffffffffffffffffffffffffffffffffff16036103b2575f5ffd5b8260065f3373ffffffffffffffffffffffffffffffffffffffff1673ffffffffffffffffffffffffffffffffffffffff1681526020019081526020015f205f8673ffffffffffffffffffffffffffffffffffffffff1673ffffffffffffffffffffffffffffffffffffffff1681526020019081526020015f20819055508373ffffffffffffffffffffffffffffffffffffffff163373ffffffffffffffffffffffffffffffffffffffff167f8c5be1e5ebec7d5bd14f71427d1e84f3dd0314c0f7b2291e5b200ac8c7c3b9258560405161048c9190610bd2565b60405180910390a3600191505092915050565b60025481565b5f835f73ffffffffffffffffffffffffffffffffffffffff168173ffffffffffffffffffffffffffffffffffffffff16036104de575f5ffd5b835f73ffffffffffffffffffffffffffffffffffffffff168173ffffffffffffffffffffffffffffffffffffffff1603610516575f5ffd5b85848060055f8473ffffffffffffffffffffffffffffffffffffffff1673ffffffffffffffffffffffffffffffffffffffff1681526020019081526020015f20541015610598576040517f08c379a000000000000000000000000000000000000000000000000000000000815260040161058f90610d7f565b60405180910390fd5b8560055f8a73ffffffffffffffffffffffffffffffffffffffff1673ffffffffffffffffffffffffffffffffffffffff1681526020019081526020015f205f8282546105e49190610dca565b925050819055508560055f8973ffffffffffffffffffffffffffffffffffffffff1673ffffffffffffffffffffffffffffffffffffffff1681526020019081526020015f205f8282546106379190610dfd565b925050819055508673ffffffffffffffffffffffffffffffffffffffff168873ffffffffffffffffffffffffffffffffffffffff167fddf252ad1be2c89b69c2b068fc378daa952ba7f163c4a11628f55a4df523b3ef8860405161069b9190610bd2565b60405180910390a360019450505050509392505050565b60035f9054906101000a900460ff1681565b815f73ffffffffffffffffffffffffffffffffffffffff168173ffffffffffffffffffffffffffffffffffffffff16036106fc575f5ffd5b8160025f82825461070d9190610dfd565b925050819055508160055f8573ffffffffffffffffffffffffffffffffffffffff1673ffffffffffffffffffffffffffffffffffffffff1681526020019081526020015f205f8282546107609190610dfd565b92505081905550505050565b6005602052805f5260405f205f915090505481565b6001805461078e90610d05565b80601f01602080910402602001604051908101604052809291908181526020018280546107ba90610d05565b80156108055780601f106107dc57610100808354040283529160200191610805565b820191905f5260205f20905b8154815290600101906020018083116107e857829003601f168201915b505050505081565b60045481565b5f61082b33600454346108269190610e5d565b6106c4565b600454346108399190610e5d565b905090565b5f33828060055f8473ffffffffffffffffffffffffffffffffffffffff1673ffffffffffffffffffffffffffffffffffffffff1681526020019081526020015f205410156108c1576040517f08c379a00000000000000000000000000000000000000000000000000000000081526004016108b890610d7f565b60405180910390fd5b845f73ffffffffffffffffffffffffffffffffffffffff168173ffffffffffffffffffffffffffffffffffffffff16036108f9575f5ffd5b8460055f3373ffffffffffffffffffffffffffffffffffffffff1673ffffffffffffffffffffffffffffffffffffffff1681526020019081526020015f205f8282546109459190610dca565b925050819055508460055f8873ffffffffffffffffffffffffffffffffffffffff1673ffffffffffffffffffffffffffffffffffffffff1681526020019081526020015f205f8282546109989190610dfd565b925050819055508573ffffffffffffffffffffffffffffffffffffffff163373ffffffffffffffffffffffffffffffffffffffff167fddf252ad1be2c89b69c2b068fc378daa952ba7f163c4a11628f55a4df523b3ef876040516109fc9190610bd2565b60405180910390a36001935050505092915050565b6006602052815f5260405f20602052805f5260405f205f91509150505481565b5f81519050919050565b5f82825260208201905092915050565b8281835e5f83830152505050565b5f601f19601f8301169050919050565b5f610a7382610a31565b610a7d8185610a3b565b9350610a8d818560208601610a4b565b610a9681610a59565b840191505092915050565b5f6020820190508181035f830152610ab98184610a69565b905092915050565b5f5ffd5b5f73ffffffffffffffffffffffffffffffffffffffff82169050919050565b5f610aee82610ac5565b9050919050565b610afe81610ae4565b8114610b08575f5ffd5b50565b5f81359050610b1981610af5565b92915050565b5f819050919050565b610b3181610b1f565b8114610b3b575f5ffd5b50565b5f81359050610b4c81610b28565b92915050565b5f5f60408385031215610b6857610b67610ac1565b5b5f610b7585828601610b0b565b9250506020610b8685828601610b3e565b9150509250929050565b5f8115159050919050565b610ba481610b90565b82525050565b5f602082019050610bbd5f830184610b9b565b92915050565b610bcc81610b1f565b82525050565b5f602082019050610be55f830184610bc3565b92915050565b5f5f5f60608486031215610c0257610c01610ac1565b5b5f610c0f86828701610b0b565b9350506020610c2086828701610b0b565b9250506040610c3186828701610b3e565b9150509250925092565b5f60ff82169050919050565b610c5081610c3b565b82525050565b5f602082019050610c695f830184610c47565b92915050565b5f60208284031215610c8457610c83610ac1565b5b5f610c9184828501610b0b565b91505092915050565b5f5f60408385031215610cb057610caf610ac1565b5b5f610cbd85828601610b0b565b9250506020610cce85828601610b0b565b9150509250929050565b7f4e487b71000000000000000000000000000000000000000000000000000000005f52602260045260245ffd5b5f6002820490506001821680610d1c57607f821691505b602082108103610d2f57610d2e610cd8565b5b50919050565b7f4e6f7420656e6f75676820746f6b656e730000000000000000000000000000005f82015250565b5f610d69601183610a3b565b9150610d7482610d35565b602082019050919050565b5f6020820190508181035f830152610d9681610d5d565b9050919050565b7f4e487b71000000000000000000000000000000000000000000000000000000005f52601160045260245ffd5b5f610dd482610b1f565b9150610ddf83610b1f565b9250828203905081811115610df757610df6610d9d565b5b92915050565b5f610e0782610b1f565b9150610e1283610b1f565b9250828201905080821115610e2a57610e29610d9d565b5b92915050565b7f4e487b71000000000000000000000000000000000000000000000000000000005f52601260045260245ffd5b5f610e6782610b1f565b9150610e7283610b1f565b925082610e8257610e81610e30565b5b82820490509291505056fea264697066735822122072c9f02f33e8d3a56480d7ff85f58ba8ce293a857b0a4f0bc347e09542ba5b4e64736f6c634300081c0033",
					"opcodes": "PUSH1 0x80 PUSH1 0x40 MSTORE CALLVALUE DUP1 ISZERO PUSH2 0xF JUMPI PUSH0 PUSH0 REVERT JUMPDEST POP PUSH1 0x40 MLOAD PUSH2 0x159E CODESIZE SUB DUP1 PUSH2 0x159E DUP4 CODECOPY DUP2 DUP2 ADD PUSH1 0x40 MSTORE DUP2 ADD SWAP1 PUSH2 0x31 SWAP2 SWAP1 PUSH2 0x2E9 JUMP JUMPDEST DUP5 PUSH0 SWAP1 DUP2 PUSH2 0x3F SWAP2 SWAP1 PUSH2 0x59F JUMP JUMPDEST POP DUP4 PUSH1 0x1 SWAP1 DUP2 PUSH2 0x4F SWAP2 SWAP1 PUSH2 0x59F JUMP JUMPDEST POP PUSH2 0x60 CALLER DUP5 PUSH2 0x8B PUSH1 0x20 SHL PUSH1 0x20 SHR JUMP JUMPDEST DUP2 PUSH1 0x3 PUSH0 PUSH2 0x100 EXP DUP2 SLOAD DUP2 PUSH1 0xFF MUL NOT AND SWAP1 DUP4 PUSH1 0xFF AND MUL OR SWAP1 SSTORE POP DUP1 PUSH1 0x4 DUP2 SWAP1 SSTORE POP POP POP POP POP POP PUSH2 0x6CE JUMP JUMPDEST DUP2 PUSH0 PUSH20 0xFFFFFFFFFFFFFFFFFFFFFFFFFFFFFFFFFFFFFFFF AND DUP2 PUSH20 0xFFFFFFFFFFFFFFFFFFFFFFFFFFFFFFFFFFFFFFFF AND SUB PUSH2 0xC3 JUMPI PUSH0 PUSH0 REVERT JUMPDEST DUP2 PUSH1 0x2 PUSH0 DUP3 DUP3 SLOAD PUSH2 0xD4 SWAP2 SWAP1 PUSH2 0x69B JUMP JUMPDEST SWAP3 POP POP DUP2 SWAP1 SSTORE POP DUP2 PUSH1 0x5 PUSH0 DUP6 PUSH20 0xFFFFFFFFFFFFFFFFFFFFFFFFFFFFFFFFFFFFFFFF AND PUSH20 0xFFFFFFFFFFFFFFFFFFFFFFFFFFFFFFFFFFFFFFFF AND DUP2 MSTORE PUSH1 0x20 ADD SWAP1 DUP2 MSTORE PUSH1 0x20 ADD PUSH0 KECCAK256 PUSH0 DUP3 DUP3 SLOAD PUSH2 0x127 SWAP2 SWAP1 PUSH2 0x69B JUMP JUMPDEST SWAP3 POP POP DUP2 SWAP1 SSTORE POP POP POP POP JUMP JUMPDEST PUSH0 PUSH1 0x40 MLOAD SWAP1 POP SWAP1 JUMP JUMPDEST PUSH0 PUSH0 REVERT JUMPDEST PUSH0 PUSH0 REVERT JUMPDEST PUSH0 PUSH0 REVERT JUMPDEST PUSH0 PUSH0 REVERT JUMPDEST PUSH0 PUSH1 0x1F NOT PUSH1 0x1F DUP4 ADD AND SWAP1 POP SWAP2 SWAP1 POP JUMP JUMPDEST PUSH32 0x4E487B7100000000000000000000000000000000000000000000000000000000 PUSH0 MSTORE PUSH1 0x41 PUSH1 0x4 MSTORE PUSH1 0x24 PUSH0 REVERT JUMPDEST PUSH2 0x192 DUP3 PUSH2 0x14C JUMP JUMPDEST DUP2 ADD DUP2 DUP2 LT PUSH8 0xFFFFFFFFFFFFFFFF DUP3 GT OR ISZERO PUSH2 0x1B1 JUMPI PUSH2 0x1B0 PUSH2 0x15C JUMP JUMPDEST JUMPDEST DUP1 PUSH1 0x40 MSTORE POP POP POP JUMP JUMPDEST PUSH0 PUSH2 0x1C3 PUSH2 0x133 JUMP JUMPDEST SWAP1 POP PUSH2 0x1CF DUP3 DUP3 PUSH2 0x189 JUMP JUMPDEST SWAP2 SWAP1 POP JUMP JUMPDEST PUSH0 PUSH8 0xFFFFFFFFFFFFFFFF DUP3 GT ISZERO PUSH2 0x1EE JUMPI PUSH2 0x1ED PUSH2 0x15C JUMP JUMPDEST JUMPDEST PUSH2 0x1F7 DUP3 PUSH2 0x14C JUMP JUMPDEST SWAP1 POP PUSH1 0x20 DUP2 ADD SWAP1 POP SWAP2 SWAP1 POP JUMP JUMPDEST DUP3 DUP2 DUP4 MCOPY PUSH0 DUP4 DUP4 ADD MSTORE POP POP POP JUMP JUMPDEST PUSH0 PUSH2 0x224 PUSH2 0x21F DUP5 PUSH2 0x1D4 JUMP JUMPDEST PUSH2 0x1BA JUMP JUMPDEST SWAP1 POP DUP3 DUP2 MSTORE PUSH1 0x20 DUP2 ADD DUP5 DUP5 DUP5 ADD GT ISZERO PUSH2 0x240 JUMPI PUSH2 0x23F PUSH2 0x148 JUMP JUMPDEST JUMPDEST PUSH2 0x24B DUP5 DUP3 DUP6 PUSH2 0x204 JUMP JUMPDEST POP SWAP4 SWAP3 POP POP POP JUMP JUMPDEST PUSH0 DUP3 PUSH1 0x1F DUP4 ADD SLT PUSH2 0x267 JUMPI PUSH2 0x266 PUSH2 0x144 JUMP JUMPDEST JUMPDEST DUP2 MLOAD PUSH2 0x277 DUP5 DUP3 PUSH1 0x20 DUP7 ADD PUSH2 0x212 JUMP JUMPDEST SWAP2 POP POP SWAP3 SWAP2 POP POP JUMP JUMPDEST PUSH0 DUP2 SWAP1 POP SWAP2 SWAP1 POP JUMP JUMPDEST PUSH2 0x292 DUP2 PUSH2 0x280 JUMP JUMPDEST DUP2 EQ PUSH2 0x29C JUMPI PUSH0 PUSH0 REVERT JUMPDEST POP JUMP JUMPDEST PUSH0 DUP2 MLOAD SWAP1 POP PUSH2 0x2AD DUP2 PUSH2 0x289 JUMP JUMPDEST SWAP3 SWAP2 POP POP JUMP JUMPDEST PUSH0 PUSH1 0xFF DUP3 AND SWAP1 POP SWAP2 SWAP1 POP JUMP JUMPDEST PUSH2 0x2C8 DUP2 PUSH2 0x2B3 JUMP JUMPDEST DUP2 EQ PUSH2 0x2D2 JUMPI PUSH0 PUSH0 REVERT JUMPDEST POP JUMP JUMPDEST PUSH0 DUP2 MLOAD SWAP1 POP PUSH2 0x2E3 DUP2 PUSH2 0x2BF JUMP JUMPDEST SWAP3 SWAP2 POP POP JUMP JUMPDEST PUSH0 PUSH0 PUSH0 PUSH0 PUSH0 PUSH1 0xA0 DUP7 DUP9 SUB SLT ISZERO PUSH2 0x302 JUMPI PUSH2 0x301 PUSH2 0x13C JUMP JUMPDEST JUMPDEST PUSH0 DUP7 ADD MLOAD PUSH8 0xFFFFFFFFFFFFFFFF DUP2 GT ISZERO PUSH2 0x31F JUMPI PUSH2 0x31E PUSH2 0x140 JUMP JUMPDEST JUMPDEST PUSH2 0x32B DUP9 DUP3 DUP10 ADD PUSH2 0x253 JUMP JUMPDEST SWAP6 POP POP PUSH1 0x20 DUP7 ADD MLOAD PUSH8 0xFFFFFFFFFFFFFFFF DUP2 GT ISZERO PUSH2 0x34C JUMPI PUSH2 0x34B PUSH2 0x140 JUMP JUMPDEST JUMPDEST PUSH2 0x358 DUP9 DUP3 DUP10 ADD PUSH2 0x253 JUMP JUMPDEST SWAP5 POP POP PUSH1 0x40 PUSH2 0x369 DUP9 DUP3 DUP10 ADD PUSH2 0x29F JUMP JUMPDEST SWAP4 POP POP PUSH1 0x60 PUSH2 0x37A DUP9 DUP3 DUP10 ADD PUSH2 0x2D5 JUMP JUMPDEST SWAP3 POP POP PUSH1 0x80 PUSH2 0x38B DUP9 DUP3 DUP10 ADD PUSH2 0x29F JUMP JUMPDEST SWAP2 POP POP SWAP3 SWAP6 POP SWAP3 SWAP6 SWAP1 SWAP4 POP JUMP JUMPDEST PUSH0 DUP2 MLOAD SWAP1 POP SWAP2 SWAP1 POP JUMP JUMPDEST PUSH32 0x4E487B7100000000000000000000000000000000000000000000000000000000 PUSH0 MSTORE PUSH1 0x22 PUSH1 0x4 MSTORE PUSH1 0x24 PUSH0 REVERT JUMPDEST PUSH0 PUSH1 0x2 DUP3 DIV SWAP1 POP PUSH1 0x1 DUP3 AND DUP1 PUSH2 0x3E6 JUMPI PUSH1 0x7F DUP3 AND SWAP2 POP JUMPDEST PUSH1 0x20 DUP3 LT DUP2 SUB PUSH2 0x3F9 JUMPI PUSH2 0x3F8 PUSH2 0x3A2 JUMP JUMPDEST JUMPDEST POP SWAP2 SWAP1 POP JUMP JUMPDEST PUSH0 DUP2 SWAP1 POP DUP2 PUSH0 MSTORE PUSH1 0x20 PUSH0 KECCAK256 SWAP1 POP SWAP2 SWAP1 POP JUMP JUMPDEST PUSH0 PUSH1 0x20 PUSH1 0x1F DUP4 ADD DIV SWAP1 POP SWAP2 SWAP1 POP JUMP JUMPDEST PUSH0 DUP3 DUP3 SHL SWAP1 POP SWAP3 SWAP2 POP POP JUMP JUMPDEST PUSH0 PUSH1 0x8 DUP4 MUL PUSH2 0x45B PUSH32 0xFFFFFFFFFFFFFFFFFFFFFFFFFFFFFFFFFFFFFFFFFFFFFFFFFFFFFFFFFFFFFFFF DUP3 PUSH2 0x420 JUMP JUMPDEST PUSH2 0x465 DUP7 DUP4 PUSH2 0x420 JUMP JUMPDEST SWAP6 POP DUP1 NOT DUP5 AND SWAP4 POP DUP1 DUP7 AND DUP5 OR SWAP3 POP POP POP SWAP4 SWAP3 POP POP POP JUMP JUMPDEST PUSH0 DUP2 SWAP1 POP SWAP2 SWAP1 POP JUMP JUMPDEST PUSH0 PUSH2 0x4A0 PUSH2 0x49B PUSH2 0x496 DUP5 PUSH2 0x280 JUMP JUMPDEST PUSH2 0x47D JUMP JUMPDEST PUSH2 0x280 JUMP JUMPDEST SWAP1 POP SWAP2 SWAP1 POP JUMP JUMPDEST PUSH0 DUP2 SWAP1 POP SWAP2 SWAP1 POP JUMP JUMPDEST PUSH2 0x4B9 DUP4 PUSH2 0x486 JUMP JUMPDEST PUSH2 0x4CD PUSH2 0x4C5 DUP3 PUSH2 0x4A7 JUMP JUMPDEST DUP5 DUP5 SLOAD PUSH2 0x42C JUMP JUMPDEST DUP3 SSTORE POP POP POP POP JUMP JUMPDEST PUSH0 PUSH0 SWAP1 POP SWAP1 JUMP JUMPDEST PUSH2 0x4E4 PUSH2 0x4D5 JUMP JUMPDEST PUSH2 0x4EF DUP2 DUP5 DUP5 PUSH2 0x4B0 JUMP JUMPDEST POP POP POP JUMP JUMPDEST JUMPDEST DUP2 DUP2 LT ISZERO PUSH2 0x512 JUMPI PUSH2 0x507 PUSH0 DUP3 PUSH2 0x4DC JUMP JUMPDEST PUSH1 0x1 DUP2 ADD SWAP1 POP PUSH2 0x4F5 JUMP JUMPDEST POP POP JUMP JUMPDEST PUSH1 0x1F DUP3 GT ISZERO PUSH2 0x557 JUMPI PUSH2 0x528 DUP2 PUSH2 0x3FF JUMP JUMPDEST PUSH2 0x531 DUP5 PUSH2 0x411 JUMP JUMPDEST DUP2 ADD PUSH1 0x20 DUP6 LT ISZERO PUSH2 0x540 JUMPI DUP2 SWAP1 POP JUMPDEST PUSH2 0x554 PUSH2 0x54C DUP6 PUSH2 0x411 JUMP JUMPDEST DUP4 ADD DUP3 PUSH2 0x4F4 JUMP JUMPDEST POP POP JUMPDEST POP POP POP JUMP JUMPDEST PUSH0 DUP3 DUP3 SHR SWAP1 POP SWAP3 SWAP2 POP POP JUMP JUMPDEST PUSH0 PUSH2 0x577 PUSH0 NOT DUP5 PUSH1 0x8 MUL PUSH2 0x55C JUMP JUMPDEST NOT DUP1 DUP4 AND SWAP2 POP POP SWAP3 SWAP2 POP POP JUMP JUMPDEST PUSH0 PUSH2 0x58F DUP4 DUP4 PUSH2 0x568 JUMP JUMPDEST SWAP2 POP DUP3 PUSH1 0x2 MUL DUP3 OR SWAP1 POP SWAP3 SWAP2 POP POP JUMP JUMPDEST PUSH2 0x5A8 DUP3 PUSH2 0x398 JUMP JUMPDEST PUSH8 0xFFFFFFFFFFFFFFFF DUP2 GT ISZERO PUSH2 0x5C1 JUMPI PUSH2 0x5C0 PUSH2 0x15C JUMP JUMPDEST JUMPDEST PUSH2 0x5CB DUP3 SLOAD PUSH2 0x3CF JUMP JUMPDEST PUSH2 0x5D6 DUP3 DUP3 DUP6 PUSH2 0x516 JUMP JUMPDEST PUSH0 PUSH1 0x20 SWAP1 POP PUSH1 0x1F DUP4 GT PUSH1 0x1 DUP2 EQ PUSH2 0x607 JUMPI PUSH0 DUP5 ISZERO PUSH2 0x5F5 JUMPI DUP3 DUP8 ADD MLOAD SWAP1 POP JUMPDEST PUSH2 0x5FF DUP6 DUP3 PUSH2 0x584 JUMP JUMPDEST DUP7 SSTORE POP PUSH2 0x666 JUMP JUMPDEST PUSH1 0x1F NOT DUP5 AND PUSH2 0x615 DUP7 PUSH2 0x3FF JUMP JUMPDEST PUSH0 JUMPDEST DUP3 DUP2 LT ISZERO PUSH2 0x63C JUMPI DUP5 DUP10 ADD MLOAD DUP3 SSTORE PUSH1 0x1 DUP3 ADD SWAP2 POP PUSH1 0x20 DUP6 ADD SWAP5 POP PUSH1 0x20 DUP2 ADD SWAP1 POP PUSH2 0x617 JUMP JUMPDEST DUP7 DUP4 LT ISZERO PUSH2 0x659 JUMPI DUP5 DUP10 ADD MLOAD PUSH2 0x655 PUSH1 0x1F DUP10 AND DUP3 PUSH2 0x568 JUMP JUMPDEST DUP4 SSTORE POP JUMPDEST PUSH1 0x1 PUSH1 0x2 DUP9 MUL ADD DUP9 SSTORE POP POP POP JUMPDEST POP POP POP POP POP POP JUMP JUMPDEST PUSH32 0x4E487B7100000000000000000000000000000000000000000000000000000000 PUSH0 MSTORE PUSH1 0x11 PUSH1 0x4 MSTORE PUSH1 0x24 PUSH0 REVERT JUMPDEST PUSH0 PUSH2 0x6A5 DUP3 PUSH2 0x280 JUMP JUMPDEST SWAP2 POP PUSH2 0x6B0 DUP4 PUSH2 0x280 JUMP JUMPDEST SWAP3 POP DUP3 DUP3 ADD SWAP1 POP DUP1 DUP3 GT ISZERO PUSH2 0x6C8 JUMPI PUSH2 0x6C7 PUSH2 0x66E JUMP JUMPDEST JUMPDEST SWAP3 SWAP2 POP POP JUMP JUMPDEST PUSH2 0xEC3 DUP1 PUSH2 0x6DB PUSH0 CODECOPY PUSH0 RETURN INVALID PUSH1 0x80 PUSH1 0x40 MSTORE PUSH1 0x4 CALLDATASIZE LT PUSH2 0xA6 JUMPI PUSH0 CALLDATALOAD PUSH1 0xE0 SHR DUP1 PUSH4 0x70A08231 GT PUSH2 0x63 JUMPI DUP1 PUSH4 0x70A08231 EQ PUSH2 0x1C8 JUMPI DUP1 PUSH4 0x95D89B41 EQ PUSH2 0x204 JUMPI DUP1 PUSH4 0xA035B1FE EQ PUSH2 0x22E JUMPI DUP1 PUSH4 0xA6F2AE3A EQ PUSH2 0x258 JUMPI DUP1 PUSH4 0xA9059CBB EQ PUSH2 0x276 JUMPI DUP1 PUSH4 0xDD62ED3E EQ PUSH2 0x2B2 JUMPI PUSH2 0xA6 JUMP JUMPDEST DUP1 PUSH4 0x6FDDE03 EQ PUSH2 0xAA JUMPI DUP1 PUSH4 0x95EA7B3 EQ PUSH2 0xD4 JUMPI DUP1 PUSH4 0x18160DDD EQ PUSH2 0x110 JUMPI DUP1 PUSH4 0x23B872DD EQ PUSH2 0x13A JUMPI DUP1 PUSH4 0x313CE567 EQ PUSH2 0x176 JUMPI DUP1 PUSH4 0x40C10F19 EQ PUSH2 0x1A0 JUMPI JUMPDEST PUSH0 PUSH0 REVERT JUMPDEST CALLVALUE DUP1 ISZERO PUSH2 0xB5 JUMPI PUSH0 PUSH0 REVERT JUMPDEST POP PUSH2 0xBE PUSH2 0x2EE JUMP JUMPDEST PUSH1 0x40 MLOAD PUSH2 0xCB SWAP2 SWAP1 PUSH2 0xAA1 JUMP JUMPDEST PUSH1 0x40 MLOAD DUP1 SWAP2 SUB SWAP1 RETURN JUMPDEST CALLVALUE DUP1 ISZERO PUSH2 0xDF JUMPI PUSH0 PUSH0 REVERT JUMPDEST POP PUSH2 0xFA PUSH1 0x4 DUP1 CALLDATASIZE SUB DUP2 ADD SWAP1 PUSH2 0xF5 SWAP2 SWAP1 PUSH2 0xB52 JUMP JUMPDEST PUSH2 0x379 JUMP JUMPDEST PUSH1 0x40 MLOAD PUSH2 0x107 SWAP2 SWAP1 PUSH2 0xBAA JUMP JUMPDEST PUSH1 0x40 MLOAD DUP1 SWAP2 SUB SWAP1 RETURN JUMPDEST CALLVALUE DUP1 ISZERO PUSH2 0x11B JUMPI PUSH0 PUSH0 REVERT JUMPDEST POP PUSH2 0x124 PUSH2 0x49F JUMP JUMPDEST PUSH1 0x40 MLOAD PUSH2 0x131 SWAP2 SWAP1 PUSH2 0xBD2 JUMP JUMPDEST PUSH1 0x40 MLOAD DUP1 SWAP2 SUB SWAP1 RETURN JUMPDEST CALLVALUE DUP1 ISZERO PUSH2 0x145 JUMPI PUSH0 PUSH0 REVERT JUMPDEST POP PUSH2 0x160 PUSH1 0x4 DUP1 CALLDATASIZE SUB DUP2 ADD SWAP1 PUSH2 0x15B SWAP2 SWAP1 PUSH2 0xBEB JUMP JUMPDEST PUSH2 0x4A5 JUMP JUMPDEST PUSH1 0x40 MLOAD PUSH2 0x16D SWAP2 SWAP1 PUSH2 0xBAA JUMP JUMPDEST PUSH1 0x40 MLOAD DUP1 SWAP2 SUB SWAP1 RETURN JUMPDEST CALLVALUE DUP1 ISZERO PUSH2 0x181 JUMPI PUSH0 PUSH0 REVERT JUMPDEST POP PUSH2 0x18A PUSH2 0x6B2 JUMP JUMPDEST PUSH1 0x40 MLOAD PUSH2 0x197 SWAP2 SWAP1 PUSH2 0xC56 JUMP JUMPDEST PUSH1 0x40 MLOAD DUP1 SWAP2 SUB SWAP1 RETURN JUMPDEST CALLVALUE DUP1 ISZERO PUSH2 0x1AB JUMPI PUSH0 PUSH0 REVERT JUMPDEST POP PUSH2 0x1C6 PUSH1 0x4 DUP1 CALLDATASIZE SUB DUP2 ADD SWAP1 PUSH2 0x1C1 SWAP2 SWAP1 PUSH2 0xB52 JUMP JUMPDEST PUSH2 0x6C4 JUMP JUMPDEST STOP JUMPDEST CALLVALUE DUP1 ISZERO PUSH2 0x1D3 JUMPI PUSH0 PUSH0 REVERT JUMPDEST POP PUSH2 0x1EE PUSH1 0x4 DUP1 CALLDATASIZE SUB DUP2 ADD SWAP1 PUSH2 0x1E9 SWAP2 SWAP1 PUSH2 0xC6F JUMP JUMPDEST PUSH2 0x76C JUMP JUMPDEST PUSH1 0x40 MLOAD PUSH2 0x1FB SWAP2 SWAP1 PUSH2 0xBD2 JUMP JUMPDEST PUSH1 0x40 MLOAD DUP1 SWAP2 SUB SWAP1 RETURN JUMPDEST CALLVALUE DUP1 ISZERO PUSH2 0x20F JUMPI PUSH0 PUSH0 REVERT JUMPDEST POP PUSH2 0x218 PUSH2 0x781 JUMP JUMPDEST PUSH1 0x40 MLOAD PUSH2 0x225 SWAP2 SWAP1 PUSH2 0xAA1 JUMP JUMPDEST PUSH1 0x40 MLOAD DUP1 SWAP2 SUB SWAP1 RETURN JUMPDEST CALLVALUE DUP1 ISZERO PUSH2 0x239 JUMPI PUSH0 PUSH0 REVERT JUMPDEST POP PUSH2 0x242 PUSH2 0x80D JUMP JUMPDEST PUSH1 0x40 MLOAD PUSH2 0x24F SWAP2 SWAP1 PUSH2 0xBD2 JUMP JUMPDEST PUSH1 0x40 MLOAD DUP1 SWAP2 SUB SWAP1 RETURN JUMPDEST PUSH2 0x260 PUSH2 0x813 JUMP JUMPDEST PUSH1 0x40 MLOAD PUSH2 0x26D SWAP2 SWAP1 PUSH2 0xBD2 JUMP JUMPDEST PUSH1 0x40 MLOAD DUP1 SWAP2 SUB SWAP1 RETURN JUMPDEST CALLVALUE DUP1 ISZERO PUSH2 0x281 JUMPI PUSH0 PUSH0 REVERT JUMPDEST POP PUSH2 0x29C PUSH1 0x4 DUP1 CALLDATASIZE SUB DUP2 ADD SWAP1 PUSH2 0x297 SWAP2 SWAP1 PUSH2 0xB52 JUMP JUMPDEST PUSH2 0x83E JUMP JUMPDEST PUSH1 0x40 MLOAD PUSH2 0x2A9 SWAP2 SWAP1 PUSH2 0xBAA JUMP JUMPDEST PUSH1 0x40 MLOAD DUP1 SWAP2 SUB SWAP1 RETURN JUMPDEST CALLVALUE DUP1 ISZERO PUSH2 0x2BD JUMPI PUSH0 PUSH0 REVERT JUMPDEST POP PUSH2 0x2D8 PUSH1 0x4 DUP1 CALLDATASIZE SUB DUP2 ADD SWAP1 PUSH2 0x2D3 SWAP2 SWAP1 PUSH2 0xC9A JUMP JUMPDEST PUSH2 0xA11 JUMP JUMPDEST PUSH1 0x40 MLOAD PUSH2 0x2E5 SWAP2 SWAP1 PUSH2 0xBD2 JUMP JUMPDEST PUSH1 0x40 MLOAD DUP1 SWAP2 SUB SWAP1 RETURN JUMPDEST PUSH0 DUP1 SLOAD PUSH2 0x2FA SWAP1 PUSH2 0xD05 JUMP JUMPDEST DUP1 PUSH1 0x1F ADD PUSH1 0x20 DUP1 SWAP2 DIV MUL PUSH1 0x20 ADD PUSH1 0x40 MLOAD SWAP1 DUP2 ADD PUSH1 0x40 MSTORE DUP1 SWAP3 SWAP2 SWAP1 DUP2 DUP2 MSTORE PUSH1 0x20 ADD DUP3 DUP1 SLOAD PUSH2 0x326 SWAP1 PUSH2 0xD05 JUMP JUMPDEST DUP1 ISZERO PUSH2 0x371 JUMPI DUP1 PUSH1 0x1F LT PUSH2 0x348 JUMPI PUSH2 0x100 DUP1 DUP4 SLOAD DIV MUL DUP4 MSTORE SWAP2 PUSH1 0x20 ADD SWAP2 PUSH2 0x371 JUMP JUMPDEST DUP3 ADD SWAP2 SWAP1 PUSH0 MSTORE PUSH1 0x20 PUSH0 KECCAK256 SWAP1 JUMPDEST DUP2 SLOAD DUP2 MSTORE SWAP1 PUSH1 0x1 ADD SWAP1 PUSH1 0x20 ADD DUP1 DUP4 GT PUSH2 0x354 JUMPI DUP3 SWAP1 SUB PUSH1 0x1F AND DUP3 ADD SWAP2 JUMPDEST POP POP POP POP POP DUP2 JUMP JUMPDEST PUSH0 DUP3 PUSH0 PUSH20 0xFFFFFFFFFFFFFFFFFFFFFFFFFFFFFFFFFFFFFFFF AND DUP2 PUSH20 0xFFFFFFFFFFFFFFFFFFFFFFFFFFFFFFFFFFFFFFFF AND SUB PUSH2 0x3B2 JUMPI PUSH0 PUSH0 REVERT JUMPDEST DUP3 PUSH1 0x6 PUSH0 CALLER PUSH20 0xFFFFFFFFFFFFFFFFFFFFFFFFFFFFFFFFFFFFFFFF AND PUSH20 0xFFFFFFFFFFFFFFFFFFFFFFFFFFFFFFFFFFFFFFFF AND DUP2 MSTORE PUSH1 0x20 ADD SWAP1 DUP2 MSTORE PUSH1 0x20 ADD PUSH0 KECCAK256 PUSH0 DUP7 PUSH20 0xFFFFFFFFFFFFFFFFFFFFFFFFFFFFFFFFFFFFFFFF AND PUSH20 0xFFFFFFFFFFFFFFFFFFFFFFFFFFFFFFFFFFFFFFFF AND DUP2 MSTORE PUSH1 0x20 ADD SWAP1 DUP2 MSTORE PUSH1 0x20 ADD PUSH0 KECCAK256 DUP2 SWAP1 SSTORE POP DUP4 PUSH20 0xFFFFFFFFFFFFFFFFFFFFFFFFFFFFFFFFFFFFFFFF AND CALLER PUSH20 0xFFFFFFFFFFFFFFFFFFFFFFFFFFFFFFFFFFFFFFFF AND PUSH32 0x8C5BE1E5EBEC7D5BD14F71427D1E84F3DD0314C0F7B2291E5B200AC8C7C3B925 DUP6 PUSH1 0x40 MLOAD PUSH2 0x48C SWAP2 SWAP1 PUSH2 0xBD2 JUMP JUMPDEST PUSH1 0x40 MLOAD DUP1 SWAP2 SUB SWAP1 LOG3 PUSH1 0x1 SWAP2 POP POP SWAP3 SWAP2 POP POP JUMP JUMPDEST PUSH1 0x2 SLOAD DUP2 JUMP JUMPDEST PUSH0 DUP4 PUSH0 PUSH20 0xFFFFFFFFFFFFFFFFFFFFFFFFFFFFFFFFFFFFFFFF AND DUP2 PUSH20 0xFFFFFFFFFFFFFFFFFFFFFFFFFFFFFFFFFFFFFFFF AND SUB PUSH2 0x4DE JUMPI PUSH0 PUSH0 REVERT JUMPDEST DUP4 PUSH0 PUSH20 0xFFFFFFFFFFFFFFFFFFFFFFFFFFFFFFFFFFFFFFFF AND DUP2 PUSH20 0xFFFFFFFFFFFFFFFFFFFFFFFFFFFFFFFFFFFFFFFF AND SUB PUSH2 0x516 JUMPI PUSH0 PUSH0 REVERT JUMPDEST DUP6 DUP5 DUP1 PUSH1 0x5 PUSH0 DUP5 PUSH20 0xFFFFFFFFFFFFFFFFFFFFFFFFFFFFFFFFFFFFFFFF AND PUSH20 0xFFFFFFFFFFFFFFFFFFFFFFFFFFFFFFFFFFFFFFFF AND DUP2 MSTORE PUSH1 0x20 ADD SWAP1 DUP2 MSTORE PUSH1 0x20 ADD PUSH0 KECCAK256 SLOAD LT ISZERO PUSH2 0x598 JUMPI PUSH1 0x40 MLOAD PUSH32 0x8C379A000000000000000000000000000000000000000000000000000000000 DUP2 MSTORE PUSH1 0x4 ADD PUSH2 0x58F SWAP1 PUSH2 0xD7F JUMP JUMPDEST PUSH1 0x40 MLOAD DUP1 SWAP2 SUB SWAP1 REVERT JUMPDEST DUP6 PUSH1 0x5 PUSH0 DUP11 PUSH20 0xFFFFFFFFFFFFFFFFFFFFFFFFFFFFFFFFFFFFFFFF AND PUSH20 0xFFFFFFFFFFFFFFFFFFFFFFFFFFFFFFFFFFFFFFFF AND DUP2 MSTORE PUSH1 0x20 ADD SWAP1 DUP2 MSTORE PUSH1 0x20 ADD PUSH0 KECCAK256 PUSH0 DUP3 DUP3 SLOAD PUSH2 0x5E4 SWAP2 SWAP1 PUSH2 0xDCA JUMP JUMPDEST SWAP3 POP POP DUP2 SWAP1 SSTORE POP DUP6 PUSH1 0x5 PUSH0 DUP10 PUSH20 0xFFFFFFFFFFFFFFFFFFFFFFFFFFFFFFFFFFFFFFFF AND PUSH20 0xFFFFFFFFFFFFFFFFFFFFFFFFFFFFFFFFFFFFFFFF AND DUP2 MSTORE PUSH1 0x20 ADD SWAP1 DUP2 MSTORE PUSH1 0x20 ADD PUSH0 KECCAK256 PUSH0 DUP3 DUP3 SLOAD PUSH2 0x637 SWAP2 SWAP1 PUSH2 0xDFD JUMP JUMPDEST SWAP3 POP POP DUP2 SWAP1 SSTORE POP DUP7 PUSH20 0xFFFFFFFFFFFFFFFFFFFFFFFFFFFFFFFFFFFFFFFF AND DUP9 PUSH20 0xFFFFFFFFFFFFFFFFFFFFFFFFFFFFFFFFFFFFFFFF AND PUSH32 0xDDF252AD1BE2C89B69C2B068FC378DAA952BA7F163C4A11628F55A4DF523B3EF DUP9 PUSH1 0x40 MLOAD PUSH2 0x69B SWAP2 SWAP1 PUSH2 0xBD2 JUMP JUMPDEST PUSH1 0x40 MLOAD DUP1 SWAP2 SUB SWAP1 LOG3 PUSH1 0x1 SWAP5 POP POP POP POP POP SWAP4 SWAP3 POP POP POP JUMP JUMPDEST PUSH1 0x3 PUSH0 SWAP1 SLOAD SWAP1 PUSH2 0x100 EXP SWAP1 DIV PUSH1 0xFF AND DUP2 JUMP JUMPDEST DUP2 PUSH0 PUSH20 0xFFFFFFFFFFFFFFFFFFFFFFFFFFFFFFFFFFFFFFFF AND DUP2 PUSH20 0xFFFFFFFFFFFFFFFFFFFFFFFFFFFFFFFFFFFFFFFF AND SUB PUSH2 0x6FC JUMPI PUSH0 PUSH0 REVERT JUMPDEST DUP2 PUSH1 0x2 PUSH0 DUP3 DUP3 SLOAD PUSH2 0x70D SWAP2 SWAP1 PUSH2 0xDFD JUMP JUMPDEST SWAP3 POP POP DUP2 SWAP1 SSTORE POP DUP2 PUSH1 0x5 PUSH0 DUP6 PUSH20 0xFFFFFFFFFFFFFFFFFFFFFFFFFFFFFFFFFFFFFFFF AND PUSH20 0xFFFFFFFFFFFFFFFFFFFFFFFFFFFFFFFFFFFFFFFF AND DUP2 MSTORE PUSH1 0x20 ADD SWAP1 DUP2 MSTORE PUSH1 0x20 ADD PUSH0 KECCAK256 PUSH0 DUP3 DUP3 SLOAD PUSH2 0x760 SWAP2 SWAP1 PUSH2 0xDFD JUMP JUMPDEST SWAP3 POP POP DUP2 SWAP1 SSTORE POP POP POP POP JUMP JUMPDEST PUSH1 0x5 PUSH1 0x20 MSTORE DUP1 PUSH0 MSTORE PUSH1 0x40 PUSH0 KECCAK256 PUSH0 SWAP2 POP SWAP1 POP SLOAD DUP2 JUMP JUMPDEST PUSH1 0x1 DUP1 SLOAD PUSH2 0x78E SWAP1 PUSH2 0xD05 JUMP JUMPDEST DUP1 PUSH1 0x1F ADD PUSH1 0x20 DUP1 SWAP2 DIV MUL PUSH1 0x20 ADD PUSH1 0x40 MLOAD SWAP1 DUP2 ADD PUSH1 0x40 MSTORE DUP1 SWAP3 SWAP2 SWAP1 DUP2 DUP2 MSTORE PUSH1 0x20 ADD DUP3 DUP1 SLOAD PUSH2 0x7BA SWAP1 PUSH2 0xD05 JUMP JUMPDEST DUP1 ISZERO PUSH2 0x805 JUMPI DUP1 PUSH1 0x1F LT PUSH2 0x7DC JUMPI PUSH2 0x100 DUP1 DUP4 SLOAD DIV MUL DUP4 MSTORE SWAP2 PUSH1 0x20 ADD SWAP2 PUSH2 0x805 JUMP JUMPDEST DUP3 ADD SWAP2 SWAP1 PUSH0 MSTORE PUSH1 0x20 PUSH0 KECCAK256 SWAP1 JUMPDEST DUP2 SLOAD DUP2 MSTORE SWAP1 PUSH1 0x1 ADD SWAP1 PUSH1 0x20 ADD DUP1 DUP4 GT PUSH2 0x7E8 JUMPI DUP3 SWAP1 SUB PUSH1 0x1F AND DUP3 ADD SWAP2 JUMPDEST POP POP POP POP POP DUP2 JUMP JUMPDEST PUSH1 0x4 SLOAD DUP2 JUMP JUMPDEST PUSH0 PUSH2 0x82B CALLER PUSH1 0x4 SLOAD CALLVALUE PUSH2 0x826 SWAP2 SWAP1 PUSH2 0xE5D JUMP JUMPDEST PUSH2 0x6C4 JUMP JUMPDEST PUSH1 0x4 SLOAD CALLVALUE PUSH2 0x839 SWAP2 SWAP1 PUSH2 0xE5D JUMP JUMPDEST SWAP1 POP SWAP1 JUMP JUMPDEST PUSH0 CALLER DUP3 DUP1 PUSH1 0x5 PUSH0 DUP5 PUSH20 0xFFFFFFFFFFFFFFFFFFFFFFFFFFFFFFFFFFFFFFFF AND PUSH20 0xFFFFFFFFFFFFFFFFFFFFFFFFFFFFFFFFFFFFFFFF AND DUP2 MSTORE PUSH1 0x20 ADD SWAP1 DUP2 MSTORE PUSH1 0x20 ADD PUSH0 KECCAK256 SLOAD LT ISZERO PUSH2 0x8C1 JUMPI PUSH1 0x40 MLOAD PUSH32 0x8C379A000000000000000000000000000000000000000000000000000000000 DUP2 MSTORE PUSH1 0x4 ADD PUSH2 0x8B8 SWAP1 PUSH2 0xD7F JUMP JUMPDEST PUSH1 0x40 MLOAD DUP1 SWAP2 SUB SWAP1 REVERT JUMPDEST DUP5 PUSH0 PUSH20 0xFFFFFFFFFFFFFFFFFFFFFFFFFFFFFFFFFFFFFFFF AND DUP2 PUSH20 0xFFFFFFFFFFFFFFFFFFFFFFFFFFFFFFFFFFFFFFFF AND SUB PUSH2 0x8F9 JUMPI PUSH0 PUSH0 REVERT JUMPDEST DUP5 PUSH1 0x5 PUSH0 CALLER PUSH20 0xFFFFFFFFFFFFFFFFFFFFFFFFFFFFFFFFFFFFFFFF AND PUSH20 0xFFFFFFFFFFFFFFFFFFFFFFFFFFFFFFFFFFFFFFFF AND DUP2 MSTORE PUSH1 0x20 ADD SWAP1 DUP2 MSTORE PUSH1 0x20 ADD PUSH0 KECCAK256 PUSH0 DUP3 DUP3 SLOAD PUSH2 0x945 SWAP2 SWAP1 PUSH2 0xDCA JUMP JUMPDEST SWAP3 POP POP DUP2 SWAP1 SSTORE POP DUP5 PUSH1 0x5 PUSH0 DUP9 PUSH20 0xFFFFFFFFFFFFFFFFFFFFFFFFFFFFFFFFFFFFFFFF AND PUSH20 0xFFFFFFFFFFFFFFFFFFFFFFFFFFFFFFFFFFFFFFFF AND DUP2 MSTORE PUSH1 0x20 ADD SWAP1 DUP2 MSTORE PUSH1 0x20 ADD PUSH0 KECCAK256 PUSH0 DUP3 DUP3 SLOAD PUSH2 0x998 SWAP2 SWAP1 PUSH2 0xDFD JUMP JUMPDEST SWAP3 POP POP DUP2 SWAP1 SSTORE POP DUP6 PUSH20 0xFFFFFFFFFFFFFFFFFFFFFFFFFFFFFFFFFFFFFFFF AND CALLER PUSH20 0xFFFFFFFFFFFFFFFFFFFFFFFFFFFFFFFFFFFFFFFF AND PUSH32 0xDDF252AD1BE2C89B69C2B068FC378DAA952BA7F163C4A11628F55A4DF523B3EF DUP8 PUSH1 0x40 MLOAD PUSH2 0x9FC SWAP2 SWAP1 PUSH2 0xBD2 JUMP JUMPDEST PUSH1 0x40 MLOAD DUP1 SWAP2 SUB SWAP1 LOG3 PUSH1 0x1 SWAP4 POP POP POP POP SWAP3 SWAP2 POP POP JUMP JUMPDEST PUSH1 0x6 PUSH1 0x20 MSTORE DUP2 PUSH0 MSTORE PUSH1 0x40 PUSH0 KECCAK256 PUSH1 0x20 MSTORE DUP1 PUSH0 MSTORE PUSH1 0x40 PUSH0 KECCAK256 PUSH0 SWAP2 POP SWAP2 POP POP SLOAD DUP2 JUMP JUMPDEST PUSH0 DUP2 MLOAD SWAP1 POP SWAP2 SWAP1 POP JUMP JUMPDEST PUSH0 DUP3 DUP3 MSTORE PUSH1 0x20 DUP3 ADD SWAP1 POP SWAP3 SWAP2 POP POP JUMP JUMPDEST DUP3 DUP2 DUP4 MCOPY PUSH0 DUP4 DUP4 ADD MSTORE POP POP POP JUMP JUMPDEST PUSH0 PUSH1 0x1F NOT PUSH1 0x1F DUP4 ADD AND SWAP1 POP SWAP2 SWAP1 POP JUMP JUMPDEST PUSH0 PUSH2 0xA73 DUP3 PUSH2 0xA31 JUMP JUMPDEST PUSH2 0xA7D DUP2 DUP6 PUSH2 0xA3B JUMP JUMPDEST SWAP4 POP PUSH2 0xA8D DUP2 DUP6 PUSH1 0x20 DUP7 ADD PUSH2 0xA4B JUMP JUMPDEST PUSH2 0xA96 DUP2 PUSH2 0xA59 JUMP JUMPDEST DUP5 ADD SWAP2 POP POP SWAP3 SWAP2 POP POP JUMP JUMPDEST PUSH0 PUSH1 0x20 DUP3 ADD SWAP1 POP DUP2 DUP2 SUB PUSH0 DUP4 ADD MSTORE PUSH2 0xAB9 DUP2 DUP5 PUSH2 0xA69 JUMP JUMPDEST SWAP1 POP SWAP3 SWAP2 POP POP JUMP JUMPDEST PUSH0 PUSH0 REVERT JUMPDEST PUSH0 PUSH20 0xFFFFFFFFFFFFFFFFFFFFFFFFFFFFFFFFFFFFFFFF DUP3 AND SWAP1 POP SWAP2 SWAP1 POP JUMP JUMPDEST PUSH0 PUSH2 0xAEE DUP3 PUSH2 0xAC5 JUMP JUMPDEST SWAP1 POP SWAP2 SWAP1 POP JUMP JUMPDEST PUSH2 0xAFE DUP2 PUSH2 0xAE4 JUMP JUMPDEST DUP2 EQ PUSH2 0xB08 JUMPI PUSH0 PUSH0 REVERT JUMPDEST POP JUMP JUMPDEST PUSH0 DUP2 CALLDATALOAD SWAP1 POP PUSH2 0xB19 DUP2 PUSH2 0xAF5 JUMP JUMPDEST SWAP3 SWAP2 POP POP JUMP JUMPDEST PUSH0 DUP2 SWAP1 POP SWAP2 SWAP1 POP JUMP JUMPDEST PUSH2 0xB31 DUP2 PUSH2 0xB1F JUMP JUMPDEST DUP2 EQ PUSH2 0xB3B JUMPI PUSH0 PUSH0 REVERT JUMPDEST POP JUMP JUMPDEST PUSH0 DUP2 CALLDATALOAD SWAP1 POP PUSH2 0xB4C DUP2 PUSH2 0xB28 JUMP JUMPDEST SWAP3 SWAP2 POP POP JUMP JUMPDEST PUSH0 PUSH0 PUSH1 0x40 DUP4 DUP6 SUB SLT ISZERO PUSH2 0xB68 JUMPI PUSH2 0xB67 PUSH2 0xAC1 JUMP JUMPDEST JUMPDEST PUSH0 PUSH2 0xB75 DUP6 DUP3 DUP7 ADD PUSH2 0xB0B JUMP JUMPDEST SWAP3 POP POP PUSH1 0x20 PUSH2 0xB86 DUP6 DUP3 DUP7 ADD PUSH2 0xB3E JUMP JUMPDEST SWAP2 POP POP SWAP3 POP SWAP3 SWAP1 POP JUMP JUMPDEST PUSH0 DUP2 ISZERO ISZERO SWAP1 POP SWAP2 SWAP1 POP JUMP JUMPDEST PUSH2 0xBA4 DUP2 PUSH2 0xB90 JUMP JUMPDEST DUP3 MSTORE POP POP JUMP JUMPDEST PUSH0 PUSH1 0x20 DUP3 ADD SWAP1 POP PUSH2 0xBBD PUSH0 DUP4 ADD DUP5 PUSH2 0xB9B JUMP JUMPDEST SWAP3 SWAP2 POP POP JUMP JUMPDEST PUSH2 0xBCC DUP2 PUSH2 0xB1F JUMP JUMPDEST DUP3 MSTORE POP POP JUMP JUMPDEST PUSH0 PUSH1 0x20 DUP3 ADD SWAP1 POP PUSH2 0xBE5 PUSH0 DUP4 ADD DUP5 PUSH2 0xBC3 JUMP JUMPDEST SWAP3 SWAP2 POP POP JUMP JUMPDEST PUSH0 PUSH0 PUSH0 PUSH1 0x60 DUP5 DUP7 SUB SLT ISZERO PUSH2 0xC02 JUMPI PUSH2 0xC01 PUSH2 0xAC1 JUMP JUMPDEST JUMPDEST PUSH0 PUSH2 0xC0F DUP7 DUP3 DUP8 ADD PUSH2 0xB0B JUMP JUMPDEST SWAP4 POP POP PUSH1 0x20 PUSH2 0xC20 DUP7 DUP3 DUP8 ADD PUSH2 0xB0B JUMP JUMPDEST SWAP3 POP POP PUSH1 0x40 PUSH2 0xC31 DUP7 DUP3 DUP8 ADD PUSH2 0xB3E JUMP JUMPDEST SWAP2 POP POP SWAP3 POP SWAP3 POP SWAP3 JUMP JUMPDEST PUSH0 PUSH1 0xFF DUP3 AND SWAP1 POP SWAP2 SWAP1 POP JUMP JUMPDEST PUSH2 0xC50 DUP2 PUSH2 0xC3B JUMP JUMPDEST DUP3 MSTORE POP POP JUMP JUMPDEST PUSH0 PUSH1 0x20 DUP3 ADD SWAP1 POP PUSH2 0xC69 PUSH0 DUP4 ADD DUP5 PUSH2 0xC47 JUMP JUMPDEST SWAP3 SWAP2 POP POP JUMP JUMPDEST PUSH0 PUSH1 0x20 DUP3 DUP5 SUB SLT ISZERO PUSH2 0xC84 JUMPI PUSH2 0xC83 PUSH2 0xAC1 JUMP JUMPDEST JUMPDEST PUSH0 PUSH2 0xC91 DUP5 DUP3 DUP6 ADD PUSH2 0xB0B JUMP JUMPDEST SWAP2 POP POP SWAP3 SWAP2 POP POP JUMP JUMPDEST PUSH0 PUSH0 PUSH1 0x40 DUP4 DUP6 SUB SLT ISZERO PUSH2 0xCB0 JUMPI PUSH2 0xCAF PUSH2 0xAC1 JUMP JUMPDEST JUMPDEST PUSH0 PUSH2 0xCBD DUP6 DUP3 DUP7 ADD PUSH2 0xB0B JUMP JUMPDEST SWAP3 POP POP PUSH1 0x20 PUSH2 0xCCE DUP6 DUP3 DUP7 ADD PUSH2 0xB0B JUMP JUMPDEST SWAP2 POP POP SWAP3 POP SWAP3 SWAP1 POP JUMP JUMPDEST PUSH32 0x4E487B7100000000000000000000000000000000000000000000000000000000 PUSH0 MSTORE PUSH1 0x22 PUSH1 0x4 MSTORE PUSH1 0x24 PUSH0 REVERT JUMPDEST PUSH0 PUSH1 0x2 DUP3 DIV SWAP1 POP PUSH1 0x1 DUP3 AND DUP1 PUSH2 0xD1C JUMPI PUSH1 0x7F DUP3 AND SWAP2 POP JUMPDEST PUSH1 0x20 DUP3 LT DUP2 SUB PUSH2 0xD2F JUMPI PUSH2 0xD2E PUSH2 0xCD8 JUMP JUMPDEST JUMPDEST POP SWAP2 SWAP1 POP JUMP JUMPDEST PUSH32 0x4E6F7420656E6F75676820746F6B656E73000000000000000000000000000000 PUSH0 DUP3 ADD MSTORE POP JUMP JUMPDEST PUSH0 PUSH2 0xD69 PUSH1 0x11 DUP4 PUSH2 0xA3B JUMP JUMPDEST SWAP2 POP PUSH2 0xD74 DUP3 PUSH2 0xD35 JUMP JUMPDEST PUSH1 0x20 DUP3 ADD SWAP1 POP SWAP2 SWAP1 POP JUMP JUMPDEST PUSH0 PUSH1 0x20 DUP3 ADD SWAP1 POP DUP2 DUP2 SUB PUSH0 DUP4 ADD MSTORE PUSH2 0xD96 DUP2 PUSH2 0xD5D JUMP JUMPDEST SWAP1 POP SWAP2 SWAP1 POP JUMP JUMPDEST PUSH32 0x4E487B7100000000000000000000000000000000000000000000000000000000 PUSH0 MSTORE PUSH1 0x11 PUSH1 0x4 MSTORE PUSH1 0x24 PUSH0 REVERT JUMPDEST PUSH0 PUSH2 0xDD4 DUP3 PUSH2 0xB1F JUMP JUMPDEST SWAP2 POP PUSH2 0xDDF DUP4 PUSH2 0xB1F JUMP JUMPDEST SWAP3 POP DUP3 DUP3 SUB SWAP1 POP DUP2 DUP2 GT ISZERO PUSH2 0xDF7 JUMPI PUSH2 0xDF6 PUSH2 0xD9D JUMP JUMPDEST JUMPDEST SWAP3 SWAP2 POP POP JUMP JUMPDEST PUSH0 PUSH2 0xE07 DUP3 PUSH2 0xB1F JUMP JUMPDEST SWAP2 POP PUSH2 0xE12 DUP4 PUSH2 0xB1F JUMP JUMPDEST SWAP3 POP DUP3 DUP3 ADD SWAP1 POP DUP1 DUP3 GT ISZERO PUSH2 0xE2A JUMPI PUSH2 0xE29 PUSH2 0xD9D JUMP JUMPDEST JUMPDEST SWAP3 SWAP2 POP POP JUMP JUMPDEST PUSH32 0x4E487B7100000000000000000000000000000000000000000000000000000000 PUSH0 MSTORE PUSH1 0x12 PUSH1 0x4 MSTORE PUSH1 0x24 PUSH0 REVERT JUMPDEST PUSH0 PUSH2 0xE67 DUP3 PUSH2 0xB1F JUMP JUMPDEST SWAP2 POP PUSH2 0xE72 DUP4 PUSH2 0xB1F JUMP JUMPDEST SWAP3 POP DUP3 PUSH2 0xE82 JUMPI PUSH2 0xE81 PUSH2 0xE30 JUMP JUMPDEST JUMPDEST DUP3 DUP3 DIV SWAP1 POP SWAP3 SWAP2 POP POP JUMP INVALID LOG2 PUSH5 0x6970667358 0x22 SLT KECCAK256 PUSH19 0xC9F02F33E8D3A56480D7FF85F58BA8CE293A85 PUSH28 0xA4F0BC347E09542BA5B4E64736F6C634300081C0033000000000000 "
				},
				"gasEstimates": {
					"creation": {
						"codeDepositCost": "755800",
						"executionCost": "infinite",
						"totalCost": "infinite"
					},
					"external": {
						"allowance(address,address)": "infinite",
						"approve(address,uint256)": "infinite",
						"balanceOf(address)": "2802",
						"buy()": "infinite",
						"decimals()": "2555",
						"mint(address,uint256)": "infinite",
						"name()": "infinite",
						"price()": "2469",
						"symbol()": "infinite",
						"totalSupply()": "2470",
						"transfer(address,uint256)": "infinite",
						"transferFrom(address,address,uint256)": "infinite"
					}
				},
				"methodIdentifiers": {
					"allowance(address,address)": "dd62ed3e",
					"approve(address,uint256)": "095ea7b3",
					"balanceOf(address)": "70a08231",
					"buy()": "a6f2ae3a",
					"decimals()": "313ce567",
					"mint(address,uint256)": "40c10f19",
					"name()": "06fdde03",
					"price()": "a035b1fe",
					"symbol()": "95d89b41",
					"totalSupply()": "18160ddd",
					"transfer(address,uint256)": "a9059cbb",
					"transferFrom(address,address,uint256)": "23b872dd"
				}
			},
			"storageLayout": {
				"storage": [
					{
						"astId": 3,
						"contract": "contracts/ERC20.sol:ERC20",
						"label": "name",
						"offset": 0,
						"slot": "0",
						"type": "t_string_storage"
					},
					{
						"astId": 5,
						"contract": "contracts/ERC20.sol:ERC20",
						"label": "symbol",
						"offset": 0,
						"slot": "1",
						"type": "t_string_storage"
					},
					{
						"astId": 7,
						"contract": "contracts/ERC20.sol:ERC20",
						"label": "totalSupply",
						"offset": 0,
						"slot": "2",
						"type": "t_uint256"
					},
					{
						"astId": 9,
						"contract": "contracts/ERC20.sol:ERC20",
						"label": "decimals",
						"offset": 0,
						"slot": "3",
						"type": "t_uint8"
					},
					{
						"astId": 11,
						"contract": "contracts/ERC20.sol:ERC20",
						"label": "price",
						"offset": 0,
						"slot": "4",
						"type": "t_uint256"
					},
					{
						"astId": 15,
						"contract": "contracts/ERC20.sol:ERC20",
						"label": "balanceOf",
						"offset": 0,
						"slot": "5",
						"type": "t_mapping(t_address,t_uint256)"
					},
					{
						"astId": 21,
						"contract": "contracts/ERC20.sol:ERC20",
						"label": "allowance",
						"offset": 0,
						"slot": "6",
						"type": "t_mapping(t_address,t_mapping(t_address,t_uint256))"
					}
				],
				"types": {
					"t_address": {
						"encoding": "inplace",
						"label": "address",
						"numberOfBytes": "20"
					},
					"t_mapping(t_address,t_mapping(t_address,t_uint256))": {
						"encoding": "mapping",
						"key": "t_address",
						"label": "mapping(address => mapping(address => uint256))",
						"numberOfBytes": "32",
						"value": "t_mapping(t_address,t_uint256)"
					},
					"t_mapping(t_address,t_uint256)": {
						"encoding": "mapping",
						"key": "t_address",
						"label": "mapping(address => uint256)",
						"numberOfBytes": "32",
						"value": "t_uint256"
					},
					"t_string_storage": {
						"encoding": "bytes",
						"label": "string",
						"numberOfBytes": "32"
					},
					"t_uint256": {
						"encoding": "inplace",
						"label": "uint256",
						"numberOfBytes": "32"
					},
					"t_uint8": {
						"encoding": "inplace",
						"label": "uint8",
						"numberOfBytes": "1"
					}
				}
			},
			"userdoc": {
				"kind": "user",
				"methods": {},
				"version": 1
			}
		}
	}
}