{
	"contracts/Pool.sol": {
		"Pool": {
			"abi": [
				{
					"inputs": [
						{
							"internalType": "address",
							"name": "_firstToken",
							"type": "address"
						},
						{
							"internalType": "address",
							"name": "_secondToken",
							"type": "address"
						},
						{
							"internalType": "address",
							"name": "_lpToken",
							"type": "address"
						},
						{
							"internalType": "uint256",
							"name": "_firstTokenETHInitAmount",
							"type": "uint256"
						},
						{
							"internalType": "uint256",
							"name": "_secondTokenETHInitAmount",
							"type": "uint256"
						}
					],
					"stateMutability": "nonpayable",
					"type": "constructor"
				},
				{
					"inputs": [
						{
							"internalType": "uint256",
							"name": "_firstTokenAmount",
							"type": "uint256"
						},
						{
							"internalType": "uint256",
							"name": "_secondTokenAmount",
							"type": "uint256"
						}
					],
					"name": "addLiquidity",
					"outputs": [],
					"stateMutability": "nonpayable",
					"type": "function"
				},
				{
					"inputs": [],
					"name": "getInfo",
					"outputs": [
						{
							"internalType": "address",
							"name": "firstTokenAddress",
							"type": "address"
						},
						{
							"internalType": "string",
							"name": "firstTokenSymbol",
							"type": "string"
						},
						{
							"internalType": "uint256",
							"name": "firstTokenWeiPrice",
							"type": "uint256"
						},
						{
							"internalType": "address",
							"name": "secondTokenAddress",
							"type": "address"
						},
						{
							"internalType": "string",
							"name": "secondTokenSymbol",
							"type": "string"
						},
						{
							"internalType": "uint256",
							"name": "secondTokenWeiPrice",
							"type": "uint256"
						},
						{
							"internalType": "uint256",
							"name": "firstTokenReserve",
							"type": "uint256"
						},
						{
							"internalType": "uint256",
							"name": "secondTokenReserve",
							"type": "uint256"
						}
					],
					"stateMutability": "view",
					"type": "function"
				},
				{
					"inputs": [
						{
							"internalType": "bool",
							"name": "_isSwapFirstTokenToSecond",
							"type": "bool"
						},
						{
							"internalType": "uint256",
							"name": "_amount",
							"type": "uint256"
						}
					],
					"name": "swap",
					"outputs": [],
					"stateMutability": "nonpayable",
					"type": "function"
				}
			],
			"devdoc": {
				"kind": "dev",
				"methods": {},
				"version": 1
			},
			"evm": {
				"assembly": "    /* \"contracts/Pool.sol\":81:2492  contract Pool {... */\n  mstore(0x40, 0x80)\n    /* \"contracts/Pool.sol\":166:677  constructor(... */\n  callvalue\n  dup1\n  iszero\n  tag_1\n  jumpi\n  revert(0x00, 0x00)\ntag_1:\n  pop\n  mload(0x40)\n  sub(codesize, bytecodeSize)\n  dup1\n  bytecodeSize\n  dup4\n  codecopy\n  dup2\n  dup2\n  add\n  0x40\n  mstore\n  dup2\n  add\n  swap1\n  tag_2\n  swap2\n  swap1\n  tag_3\n  jump\t// in\ntag_2:\n    /* \"contracts/Pool.sol\":383:394  _firstToken */\n  dup5\n    /* \"contracts/Pool.sol\":364:374  firstToken */\n  0x00\n  0x00\n    /* \"contracts/Pool.sol\":364:395  firstToken = ERC20(_firstToken) */\n  0x0100\n  exp\n  dup2\n  sload\n  dup2\n  0xffffffffffffffffffffffffffffffffffffffff\n  mul\n  not\n  and\n  swap1\n  dup4\n  0xffffffffffffffffffffffffffffffffffffffff\n  and\n  mul\n  or\n  swap1\n  sstore\n  pop\n    /* \"contracts/Pool.sol\":425:437  _secondToken */\n  dup4\n    /* \"contracts/Pool.sol\":405:416  secondToken */\n  0x01\n  0x00\n    /* \"contracts/Pool.sol\":405:438  secondToken = ERC20(_secondToken) */\n  0x0100\n  exp\n  dup2\n  sload\n  dup2\n  0xffffffffffffffffffffffffffffffffffffffff\n  mul\n  not\n  and\n  swap1\n  dup4\n  0xffffffffffffffffffffffffffffffffffffffff\n  and\n  mul\n  or\n  swap1\n  sstore\n  pop\n    /* \"contracts/Pool.sol\":464:472  _lpToken */\n  dup3\n    /* \"contracts/Pool.sol\":448:455  lpToken */\n  0x02\n  0x00\n    /* \"contracts/Pool.sol\":448:473  lpToken = ERC20(_lpToken) */\n  0x0100\n  exp\n  dup2\n  sload\n  dup2\n  0xffffffffffffffffffffffffffffffffffffffff\n  mul\n  not\n  and\n  swap1\n  dup4\n  0xffffffffffffffffffffffffffffffffffffffff\n  and\n  mul\n  or\n  swap1\n  sstore\n  pop\n    /* \"contracts/Pool.sol\":483:493  firstToken */\n  0x00\n  0x00\n  swap1\n  sload\n  swap1\n  0x0100\n  exp\n  swap1\n  div\n  0xffffffffffffffffffffffffffffffffffffffff\n  and\n    /* \"contracts/Pool.sol\":483:498  firstToken.mint */\n  0xffffffffffffffffffffffffffffffffffffffff\n  and\n  0x40c10f19\n    /* \"contracts/Pool.sol\":507:511  this */\n  address\n    /* \"contracts/Pool.sol\":551:561  firstToken */\n  0x00\n  0x00\n  swap1\n  sload\n  swap1\n  0x0100\n  exp\n  swap1\n  div\n  0xffffffffffffffffffffffffffffffffffffffff\n  and\n    /* \"contracts/Pool.sol\":551:567  firstToken.price */\n  0xffffffffffffffffffffffffffffffffffffffff\n  and\n  0xa035b1fe\n    /* \"contracts/Pool.sol\":551:569  firstToken.price() */\n  mload(0x40)\n  dup2\n  0xffffffff\n  and\n  0xe0\n  shl\n  dup2\n  mstore\n  0x04\n  add\n  0x20\n  mload(0x40)\n  dup1\n  dup4\n  sub\n  dup2\n  dup7\n  gas\n  staticcall\n  iszero\n  dup1\n  iszero\n  tag_7\n  jumpi\n  returndatacopy(0x00, 0x00, returndatasize)\n  revert(0x00, returndatasize)\ntag_7:\n  pop\n  pop\n  pop\n  pop\n  mload(0x40)\n  returndatasize\n  not(0x1f)\n  0x1f\n  dup3\n  add\n  and\n  dup3\n  add\n  dup1\n  0x40\n  mstore\n  pop\n  dup2\n  add\n  swap1\n  tag_8\n  swap2\n  swap1\n  tag_9\n  jump\t// in\ntag_8:\n    /* \"contracts/Pool.sol\":541:548  1 ether */\n  0x0de0b6b3a7640000\n    /* \"contracts/Pool.sol\":514:538  _firstTokenETHInitAmount */\n  dup7\n    /* \"contracts/Pool.sol\":514:548  _firstTokenETHInitAmount * 1 ether */\n  tag_10\n  swap2\n  swap1\n  tag_11\n  jump\t// in\ntag_10:\n    /* \"contracts/Pool.sol\":514:569  _firstTokenETHInitAmount * 1 ether / firstToken.price() */\n  tag_12\n  swap2\n  swap1\n  tag_13\n  jump\t// in\ntag_12:\n    /* \"contracts/Pool.sol\":483:570  firstToken.mint(address(this), _firstTokenETHInitAmount * 1 ether / firstToken.price()) */\n  mload(0x40)\n  dup4\n  0xffffffff\n  and\n  0xe0\n  shl\n  dup2\n  mstore\n  0x04\n  add\n  tag_14\n  swap3\n  swap2\n  swap1\n  tag_15\n  jump\t// in\ntag_14:\n  0x00\n  mload(0x40)\n  dup1\n  dup4\n  sub\n  dup2\n  0x00\n  dup8\n  dup1\n  extcodesize\n  iszero\n  dup1\n  iszero\n  tag_16\n  jumpi\n  revert(0x00, 0x00)\ntag_16:\n  pop\n  gas\n  call\n  iszero\n  dup1\n  iszero\n  tag_18\n  jumpi\n  returndatacopy(0x00, 0x00, returndatasize)\n  revert(0x00, returndatasize)\ntag_18:\n  pop\n  pop\n  pop\n  pop\n    /* \"contracts/Pool.sol\":580:591  secondToken */\n  0x01\n  0x00\n  swap1\n  sload\n  swap1\n  0x0100\n  exp\n  swap1\n  div\n  0xffffffffffffffffffffffffffffffffffffffff\n  and\n    /* \"contracts/Pool.sol\":580:596  secondToken.mint */\n  0xffffffffffffffffffffffffffffffffffffffff\n  and\n  0x40c10f19\n    /* \"contracts/Pool.sol\":605:609  this */\n  address\n    /* \"contracts/Pool.sol\":650:661  secondToken */\n  0x01\n  0x00\n  swap1\n  sload\n  swap1\n  0x0100\n  exp\n  swap1\n  div\n  0xffffffffffffffffffffffffffffffffffffffff\n  and\n    /* \"contracts/Pool.sol\":650:667  secondToken.price */\n  0xffffffffffffffffffffffffffffffffffffffff\n  and\n  0xa035b1fe\n    /* \"contracts/Pool.sol\":650:669  secondToken.price() */\n  mload(0x40)\n  dup2\n  0xffffffff\n  and\n  0xe0\n  shl\n  dup2\n  mstore\n  0x04\n  add\n  0x20\n  mload(0x40)\n  dup1\n  dup4\n  sub\n  dup2\n  dup7\n  gas\n  staticcall\n  iszero\n  dup1\n  iszero\n  tag_20\n  jumpi\n  returndatacopy(0x00, 0x00, returndatasize)\n  revert(0x00, returndatasize)\ntag_20:\n  pop\n  pop\n  pop\n  pop\n  mload(0x40)\n  returndatasize\n  not(0x1f)\n  0x1f\n  dup3\n  add\n  and\n  dup3\n  add\n  dup1\n  0x40\n  mstore\n  pop\n  dup2\n  add\n  swap1\n  tag_21\n  swap2\n  swap1\n  tag_9\n  jump\t// in\ntag_21:\n    /* \"contracts/Pool.sol\":640:647  1 ether */\n  0x0de0b6b3a7640000\n    /* \"contracts/Pool.sol\":612:637  _secondTokenETHInitAmount */\n  dup6\n    /* \"contracts/Pool.sol\":612:647  _secondTokenETHInitAmount * 1 ether */\n  tag_22\n  swap2\n  swap1\n  tag_11\n  jump\t// in\ntag_22:\n    /* \"contracts/Pool.sol\":612:669  _secondTokenETHInitAmount * 1 ether / secondToken.price() */\n  tag_23\n  swap2\n  swap1\n  tag_13\n  jump\t// in\ntag_23:\n    /* \"contracts/Pool.sol\":580:670  secondToken.mint(address(this), _secondTokenETHInitAmount * 1 ether / secondToken.price()) */\n  mload(0x40)\n  dup4\n  0xffffffff\n  and\n  0xe0\n  shl\n  dup2\n  mstore\n  0x04\n  add\n  tag_24\n  swap3\n  swap2\n  swap1\n  tag_15\n  jump\t// in\ntag_24:\n  0x00\n  mload(0x40)\n  dup1\n  dup4\n  sub\n  dup2\n  0x00\n  dup8\n  dup1\n  extcodesize\n  iszero\n  dup1\n  iszero\n  tag_25\n  jumpi\n  revert(0x00, 0x00)\ntag_25:\n  pop\n  gas\n  call\n  iszero\n  dup1\n  iszero\n  tag_27\n  jumpi\n  returndatacopy(0x00, 0x00, returndatasize)\n  revert(0x00, returndatasize)\ntag_27:\n  pop\n  pop\n  pop\n  pop\n    /* \"contracts/Pool.sol\":166:677  constructor(... */\n  pop\n  pop\n  pop\n  pop\n  pop\n    /* \"contracts/Pool.sol\":81:2492  contract Pool {... */\n  jump(tag_28)\n    /* \"#utility.yul\":88:205   */\ntag_30:\n    /* \"#utility.yul\":197:198   */\n  0x00\n    /* \"#utility.yul\":194:195   */\n  0x00\n    /* \"#utility.yul\":187:199   */\n  revert\n    /* \"#utility.yul\":334:460   */\ntag_32:\n    /* \"#utility.yul\":371:378   */\n  0x00\n    /* \"#utility.yul\":411:453   */\n  0xffffffffffffffffffffffffffffffffffffffff\n    /* \"#utility.yul\":404:409   */\n  dup3\n    /* \"#utility.yul\":400:454   */\n  and\n    /* \"#utility.yul\":389:454   */\n  swap1\n  pop\n    /* \"#utility.yul\":334:460   */\n  swap2\n  swap1\n  pop\n  jump\t// out\n    /* \"#utility.yul\":466:562   */\ntag_33:\n    /* \"#utility.yul\":503:510   */\n  0x00\n    /* \"#utility.yul\":532:556   */\n  tag_49\n    /* \"#utility.yul\":550:555   */\n  dup3\n    /* \"#utility.yul\":532:556   */\n  tag_32\n  jump\t// in\ntag_49:\n    /* \"#utility.yul\":521:556   */\n  swap1\n  pop\n    /* \"#utility.yul\":466:562   */\n  swap2\n  swap1\n  pop\n  jump\t// out\n    /* \"#utility.yul\":568:690   */\ntag_34:\n    /* \"#utility.yul\":641:665   */\n  tag_51\n    /* \"#utility.yul\":659:664   */\n  dup2\n    /* \"#utility.yul\":641:665   */\n  tag_33\n  jump\t// in\ntag_51:\n    /* \"#utility.yul\":634:639   */\n  dup2\n    /* \"#utility.yul\":631:666   */\n  eq\n    /* \"#utility.yul\":621:684   */\n  tag_52\n  jumpi\n    /* \"#utility.yul\":680:681   */\n  0x00\n    /* \"#utility.yul\":677:678   */\n  0x00\n    /* \"#utility.yul\":670:682   */\n  revert\n    /* \"#utility.yul\":621:684   */\ntag_52:\n    /* \"#utility.yul\":568:690   */\n  pop\n  jump\t// out\n    /* \"#utility.yul\":696:839   */\ntag_35:\n    /* \"#utility.yul\":753:758   */\n  0x00\n    /* \"#utility.yul\":784:790   */\n  dup2\n    /* \"#utility.yul\":778:791   */\n  mload\n    /* \"#utility.yul\":769:791   */\n  swap1\n  pop\n    /* \"#utility.yul\":800:833   */\n  tag_54\n    /* \"#utility.yul\":827:832   */\n  dup2\n    /* \"#utility.yul\":800:833   */\n  tag_34\n  jump\t// in\ntag_54:\n    /* \"#utility.yul\":696:839   */\n  swap3\n  swap2\n  pop\n  pop\n  jump\t// out\n    /* \"#utility.yul\":845:922   */\ntag_36:\n    /* \"#utility.yul\":882:889   */\n  0x00\n    /* \"#utility.yul\":911:916   */\n  dup2\n    /* \"#utility.yul\":900:916   */\n  swap1\n  pop\n    /* \"#utility.yul\":845:922   */\n  swap2\n  swap1\n  pop\n  jump\t// out\n    /* \"#utility.yul\":928:1050   */\ntag_37:\n    /* \"#utility.yul\":1001:1025   */\n  tag_57\n    /* \"#utility.yul\":1019:1024   */\n  dup2\n    /* \"#utility.yul\":1001:1025   */\n  tag_36\n  jump\t// in\ntag_57:\n    /* \"#utility.yul\":994:999   */\n  dup2\n    /* \"#utility.yul\":991:1026   */\n  eq\n    /* \"#utility.yul\":981:1044   */\n  tag_58\n  jumpi\n    /* \"#utility.yul\":1040:1041   */\n  0x00\n    /* \"#utility.yul\":1037:1038   */\n  0x00\n    /* \"#utility.yul\":1030:1042   */\n  revert\n    /* \"#utility.yul\":981:1044   */\ntag_58:\n    /* \"#utility.yul\":928:1050   */\n  pop\n  jump\t// out\n    /* \"#utility.yul\":1056:1199   */\ntag_38:\n    /* \"#utility.yul\":1113:1118   */\n  0x00\n    /* \"#utility.yul\":1144:1150   */\n  dup2\n    /* \"#utility.yul\":1138:1151   */\n  mload\n    /* \"#utility.yul\":1129:1151   */\n  swap1\n  pop\n    /* \"#utility.yul\":1160:1193   */\n  tag_60\n    /* \"#utility.yul\":1187:1192   */\n  dup2\n    /* \"#utility.yul\":1160:1193   */\n  tag_37\n  jump\t// in\ntag_60:\n    /* \"#utility.yul\":1056:1199   */\n  swap3\n  swap2\n  pop\n  pop\n  jump\t// out\n    /* \"#utility.yul\":1205:2182   */\ntag_3:\n    /* \"#utility.yul\":1311:1317   */\n  0x00\n    /* \"#utility.yul\":1319:1325   */\n  0x00\n    /* \"#utility.yul\":1327:1333   */\n  0x00\n    /* \"#utility.yul\":1335:1341   */\n  0x00\n    /* \"#utility.yul\":1343:1349   */\n  0x00\n    /* \"#utility.yul\":1392:1395   */\n  0xa0\n    /* \"#utility.yul\":1380:1389   */\n  dup7\n    /* \"#utility.yul\":1371:1378   */\n  dup9\n    /* \"#utility.yul\":1367:1390   */\n  sub\n    /* \"#utility.yul\":1363:1396   */\n  slt\n    /* \"#utility.yul\":1360:1480   */\n  iszero\n  tag_62\n  jumpi\n    /* \"#utility.yul\":1399:1478   */\n  tag_63\n  tag_30\n  jump\t// in\ntag_63:\n    /* \"#utility.yul\":1360:1480   */\ntag_62:\n    /* \"#utility.yul\":1519:1520   */\n  0x00\n    /* \"#utility.yul\":1544:1608   */\n  tag_64\n    /* \"#utility.yul\":1600:1607   */\n  dup9\n    /* \"#utility.yul\":1591:1597   */\n  dup3\n    /* \"#utility.yul\":1580:1589   */\n  dup10\n    /* \"#utility.yul\":1576:1598   */\n  add\n    /* \"#utility.yul\":1544:1608   */\n  tag_35\n  jump\t// in\ntag_64:\n    /* \"#utility.yul\":1534:1608   */\n  swap6\n  pop\n    /* \"#utility.yul\":1490:1618   */\n  pop\n    /* \"#utility.yul\":1657:1659   */\n  0x20\n    /* \"#utility.yul\":1683:1747   */\n  tag_65\n    /* \"#utility.yul\":1739:1746   */\n  dup9\n    /* \"#utility.yul\":1730:1736   */\n  dup3\n    /* \"#utility.yul\":1719:1728   */\n  dup10\n    /* \"#utility.yul\":1715:1737   */\n  add\n    /* \"#utility.yul\":1683:1747   */\n  tag_35\n  jump\t// in\ntag_65:\n    /* \"#utility.yul\":1673:1747   */\n  swap5\n  pop\n    /* \"#utility.yul\":1628:1757   */\n  pop\n    /* \"#utility.yul\":1796:1798   */\n  0x40\n    /* \"#utility.yul\":1822:1886   */\n  tag_66\n    /* \"#utility.yul\":1878:1885   */\n  dup9\n    /* \"#utility.yul\":1869:1875   */\n  dup3\n    /* \"#utility.yul\":1858:1867   */\n  dup10\n    /* \"#utility.yul\":1854:1876   */\n  add\n    /* \"#utility.yul\":1822:1886   */\n  tag_35\n  jump\t// in\ntag_66:\n    /* \"#utility.yul\":1812:1886   */\n  swap4\n  pop\n    /* \"#utility.yul\":1767:1896   */\n  pop\n    /* \"#utility.yul\":1935:1937   */\n  0x60\n    /* \"#utility.yul\":1961:2025   */\n  tag_67\n    /* \"#utility.yul\":2017:2024   */\n  dup9\n    /* \"#utility.yul\":2008:2014   */\n  dup3\n    /* \"#utility.yul\":1997:2006   */\n  dup10\n    /* \"#utility.yul\":1993:2015   */\n  add\n    /* \"#utility.yul\":1961:2025   */\n  tag_38\n  jump\t// in\ntag_67:\n    /* \"#utility.yul\":1951:2025   */\n  swap3\n  pop\n    /* \"#utility.yul\":1906:2035   */\n  pop\n    /* \"#utility.yul\":2074:2077   */\n  0x80\n    /* \"#utility.yul\":2101:2165   */\n  tag_68\n    /* \"#utility.yul\":2157:2164   */\n  dup9\n    /* \"#utility.yul\":2148:2154   */\n  dup3\n    /* \"#utility.yul\":2137:2146   */\n  dup10\n    /* \"#utility.yul\":2133:2155   */\n  add\n    /* \"#utility.yul\":2101:2165   */\n  tag_38\n  jump\t// in\ntag_68:\n    /* \"#utility.yul\":2091:2165   */\n  swap2\n  pop\n    /* \"#utility.yul\":2045:2175   */\n  pop\n    /* \"#utility.yul\":1205:2182   */\n  swap3\n  swap6\n  pop\n  swap3\n  swap6\n  swap1\n  swap4\n  pop\n  jump\t// out\n    /* \"#utility.yul\":2188:2539   */\ntag_9:\n    /* \"#utility.yul\":2258:2264   */\n  0x00\n    /* \"#utility.yul\":2307:2309   */\n  0x20\n    /* \"#utility.yul\":2295:2304   */\n  dup3\n    /* \"#utility.yul\":2286:2293   */\n  dup5\n    /* \"#utility.yul\":2282:2305   */\n  sub\n    /* \"#utility.yul\":2278:2310   */\n  slt\n    /* \"#utility.yul\":2275:2394   */\n  iszero\n  tag_70\n  jumpi\n    /* \"#utility.yul\":2313:2392   */\n  tag_71\n  tag_30\n  jump\t// in\ntag_71:\n    /* \"#utility.yul\":2275:2394   */\ntag_70:\n    /* \"#utility.yul\":2433:2434   */\n  0x00\n    /* \"#utility.yul\":2458:2522   */\n  tag_72\n    /* \"#utility.yul\":2514:2521   */\n  dup5\n    /* \"#utility.yul\":2505:2511   */\n  dup3\n    /* \"#utility.yul\":2494:2503   */\n  dup6\n    /* \"#utility.yul\":2490:2512   */\n  add\n    /* \"#utility.yul\":2458:2522   */\n  tag_38\n  jump\t// in\ntag_72:\n    /* \"#utility.yul\":2448:2522   */\n  swap2\n  pop\n    /* \"#utility.yul\":2404:2532   */\n  pop\n    /* \"#utility.yul\":2188:2539   */\n  swap3\n  swap2\n  pop\n  pop\n  jump\t// out\n    /* \"#utility.yul\":2545:2725   */\ntag_39:\n    /* \"#utility.yul\":2593:2670   */\n  0x4e487b7100000000000000000000000000000000000000000000000000000000\n    /* \"#utility.yul\":2590:2591   */\n  0x00\n    /* \"#utility.yul\":2583:2671   */\n  mstore\n    /* \"#utility.yul\":2690:2694   */\n  0x11\n    /* \"#utility.yul\":2687:2688   */\n  0x04\n    /* \"#utility.yul\":2680:2695   */\n  mstore\n    /* \"#utility.yul\":2714:2718   */\n  0x24\n    /* \"#utility.yul\":2711:2712   */\n  0x00\n    /* \"#utility.yul\":2704:2719   */\n  revert\n    /* \"#utility.yul\":2731:3141   */\ntag_11:\n    /* \"#utility.yul\":2771:2778   */\n  0x00\n    /* \"#utility.yul\":2794:2814   */\n  tag_75\n    /* \"#utility.yul\":2812:2813   */\n  dup3\n    /* \"#utility.yul\":2794:2814   */\n  tag_36\n  jump\t// in\ntag_75:\n    /* \"#utility.yul\":2789:2814   */\n  swap2\n  pop\n    /* \"#utility.yul\":2828:2848   */\n  tag_76\n    /* \"#utility.yul\":2846:2847   */\n  dup4\n    /* \"#utility.yul\":2828:2848   */\n  tag_36\n  jump\t// in\ntag_76:\n    /* \"#utility.yul\":2823:2848   */\n  swap3\n  pop\n    /* \"#utility.yul\":2883:2884   */\n  dup3\n    /* \"#utility.yul\":2880:2881   */\n  dup3\n    /* \"#utility.yul\":2876:2885   */\n  mul\n    /* \"#utility.yul\":2905:2935   */\n  tag_77\n    /* \"#utility.yul\":2923:2934   */\n  dup2\n    /* \"#utility.yul\":2905:2935   */\n  tag_36\n  jump\t// in\ntag_77:\n    /* \"#utility.yul\":2894:2935   */\n  swap2\n  pop\n    /* \"#utility.yul\":3084:3085   */\n  dup3\n    /* \"#utility.yul\":3075:3082   */\n  dup3\n    /* \"#utility.yul\":3071:3086   */\n  div\n    /* \"#utility.yul\":3068:3069   */\n  dup5\n    /* \"#utility.yul\":3065:3087   */\n  eq\n    /* \"#utility.yul\":3045:3046   */\n  dup4\n    /* \"#utility.yul\":3038:3047   */\n  iszero\n    /* \"#utility.yul\":3018:3101   */\n  or\n    /* \"#utility.yul\":2995:3134   */\n  tag_78\n  jumpi\n    /* \"#utility.yul\":3114:3132   */\n  tag_79\n  tag_39\n  jump\t// in\ntag_79:\n    /* \"#utility.yul\":2995:3134   */\ntag_78:\n    /* \"#utility.yul\":2779:3141   */\n  pop\n    /* \"#utility.yul\":2731:3141   */\n  swap3\n  swap2\n  pop\n  pop\n  jump\t// out\n    /* \"#utility.yul\":3147:3327   */\ntag_40:\n    /* \"#utility.yul\":3195:3272   */\n  0x4e487b7100000000000000000000000000000000000000000000000000000000\n    /* \"#utility.yul\":3192:3193   */\n  0x00\n    /* \"#utility.yul\":3185:3273   */\n  mstore\n    /* \"#utility.yul\":3292:3296   */\n  0x12\n    /* \"#utility.yul\":3289:3290   */\n  0x04\n    /* \"#utility.yul\":3282:3297   */\n  mstore\n    /* \"#utility.yul\":3316:3320   */\n  0x24\n    /* \"#utility.yul\":3313:3314   */\n  0x00\n    /* \"#utility.yul\":3306:3321   */\n  revert\n    /* \"#utility.yul\":3333:3518   */\ntag_13:\n    /* \"#utility.yul\":3373:3374   */\n  0x00\n    /* \"#utility.yul\":3390:3410   */\n  tag_82\n    /* \"#utility.yul\":3408:3409   */\n  dup3\n    /* \"#utility.yul\":3390:3410   */\n  tag_36\n  jump\t// in\ntag_82:\n    /* \"#utility.yul\":3385:3410   */\n  swap2\n  pop\n    /* \"#utility.yul\":3424:3444   */\n  tag_83\n    /* \"#utility.yul\":3442:3443   */\n  dup4\n    /* \"#utility.yul\":3424:3444   */\n  tag_36\n  jump\t// in\ntag_83:\n    /* \"#utility.yul\":3419:3444   */\n  swap3\n  pop\n    /* \"#utility.yul\":3463:3464   */\n  dup3\n    /* \"#utility.yul\":3453:3488   */\n  tag_84\n  jumpi\n    /* \"#utility.yul\":3468:3486   */\n  tag_85\n  tag_40\n  jump\t// in\ntag_85:\n    /* \"#utility.yul\":3453:3488   */\ntag_84:\n    /* \"#utility.yul\":3510:3511   */\n  dup3\n    /* \"#utility.yul\":3507:3508   */\n  dup3\n    /* \"#utility.yul\":3503:3512   */\n  div\n    /* \"#utility.yul\":3498:3512   */\n  swap1\n  pop\n    /* \"#utility.yul\":3333:3518   */\n  swap3\n  swap2\n  pop\n  pop\n  jump\t// out\n    /* \"#utility.yul\":3524:3642   */\ntag_41:\n    /* \"#utility.yul\":3611:3635   */\n  tag_87\n    /* \"#utility.yul\":3629:3634   */\n  dup2\n    /* \"#utility.yul\":3611:3635   */\n  tag_33\n  jump\t// in\ntag_87:\n    /* \"#utility.yul\":3606:3609   */\n  dup3\n    /* \"#utility.yul\":3599:3636   */\n  mstore\n    /* \"#utility.yul\":3524:3642   */\n  pop\n  pop\n  jump\t// out\n    /* \"#utility.yul\":3648:3766   */\ntag_42:\n    /* \"#utility.yul\":3735:3759   */\n  tag_89\n    /* \"#utility.yul\":3753:3758   */\n  dup2\n    /* \"#utility.yul\":3735:3759   */\n  tag_36\n  jump\t// in\ntag_89:\n    /* \"#utility.yul\":3730:3733   */\n  dup3\n    /* \"#utility.yul\":3723:3760   */\n  mstore\n    /* \"#utility.yul\":3648:3766   */\n  pop\n  pop\n  jump\t// out\n    /* \"#utility.yul\":3772:4104   */\ntag_15:\n    /* \"#utility.yul\":3893:3897   */\n  0x00\n    /* \"#utility.yul\":3931:3933   */\n  0x40\n    /* \"#utility.yul\":3920:3929   */\n  dup3\n    /* \"#utility.yul\":3916:3934   */\n  add\n    /* \"#utility.yul\":3908:3934   */\n  swap1\n  pop\n    /* \"#utility.yul\":3944:4015   */\n  tag_91\n    /* \"#utility.yul\":4012:4013   */\n  0x00\n    /* \"#utility.yul\":4001:4010   */\n  dup4\n    /* \"#utility.yul\":3997:4014   */\n  add\n    /* \"#utility.yul\":3988:3994   */\n  dup6\n    /* \"#utility.yul\":3944:4015   */\n  tag_41\n  jump\t// in\ntag_91:\n    /* \"#utility.yul\":4025:4097   */\n  tag_92\n    /* \"#utility.yul\":4093:4095   */\n  0x20\n    /* \"#utility.yul\":4082:4091   */\n  dup4\n    /* \"#utility.yul\":4078:4096   */\n  add\n    /* \"#utility.yul\":4069:4075   */\n  dup5\n    /* \"#utility.yul\":4025:4097   */\n  tag_42\n  jump\t// in\ntag_92:\n    /* \"#utility.yul\":3772:4104   */\n  swap4\n  swap3\n  pop\n  pop\n  pop\n  jump\t// out\n    /* \"contracts/Pool.sol\":81:2492  contract Pool {... */\ntag_28:\n  dataSize(sub_0)\n  dup1\n  dataOffset(sub_0)\n  0x00\n  codecopy\n  0x00\n  return\nstop\n\nsub_0: assembly {\n        /* \"contracts/Pool.sol\":81:2492  contract Pool {... */\n      mstore(0x40, 0x80)\n      callvalue\n      dup1\n      iszero\n      tag_1\n      jumpi\n      revert(0x00, 0x00)\n    tag_1:\n      pop\n      jumpi(tag_2, lt(calldatasize, 0x04))\n      shr(0xe0, calldataload(0x00))\n      dup1\n      0x5a9b0b89\n      eq\n      tag_3\n      jumpi\n      dup1\n      0x9cd441da\n      eq\n      tag_4\n      jumpi\n      dup1\n      0xc037646a\n      eq\n      tag_5\n      jumpi\n    tag_2:\n      revert(0x00, 0x00)\n        /* \"contracts/Pool.sol\":1645:2490  function getInfo()... */\n    tag_3:\n      tag_6\n      tag_7\n      jump\t// in\n    tag_6:\n      mload(0x40)\n      tag_8\n      swap9\n      swap8\n      swap7\n      swap6\n      swap5\n      swap4\n      swap3\n      swap2\n      swap1\n      tag_9\n      jump\t// in\n    tag_8:\n      mload(0x40)\n      dup1\n      swap2\n      sub\n      swap1\n      return\n        /* \"contracts/Pool.sol\":683:1139  function addLiquidity(uint256 _firstTokenAmount, uint256 _secondTokenAmount)... */\n    tag_4:\n      tag_10\n      0x04\n      dup1\n      calldatasize\n      sub\n      dup2\n      add\n      swap1\n      tag_11\n      swap2\n      swap1\n      tag_12\n      jump\t// in\n    tag_11:\n      tag_13\n      jump\t// in\n    tag_10:\n      stop\n        /* \"contracts/Pool.sol\":1145:1639  function swap(bool _isSwapFirstTokenToSecond, uint256 _amount)... */\n    tag_5:\n      tag_14\n      0x04\n      dup1\n      calldatasize\n      sub\n      dup2\n      add\n      swap1\n      tag_15\n      swap2\n      swap1\n      tag_16\n      jump\t// in\n    tag_15:\n      tag_17\n      jump\t// in\n    tag_14:\n      stop\n        /* \"contracts/Pool.sol\":1645:2490  function getInfo()... */\n    tag_7:\n        /* \"contracts/Pool.sol\":1724:1749  address firstTokenAddress */\n      0x00\n        /* \"contracts/Pool.sol\":1763:1793  string memory firstTokenSymbol */\n      0x60\n        /* \"contracts/Pool.sol\":1807:1833  uint256 firstTokenWeiPrice */\n      0x00\n        /* \"contracts/Pool.sol\":1847:1873  address secondTokenAddress */\n      0x00\n        /* \"contracts/Pool.sol\":1887:1918  string memory secondTokenSymbol */\n      0x60\n        /* \"contracts/Pool.sol\":1932:1959  uint256 secondTokenWeiPrice */\n      0x00\n        /* \"contracts/Pool.sol\":1973:1998  uint256 firstTokenReserve */\n      0x00\n        /* \"contracts/Pool.sol\":2012:2038  uint256 secondTokenReserve */\n      0x00\n        /* \"contracts/Pool.sol\":2091:2101  firstToken */\n      0x00\n      0x00\n      swap1\n      sload\n      swap1\n      0x0100\n      exp\n      swap1\n      div\n      0xffffffffffffffffffffffffffffffffffffffff\n      and\n        /* \"contracts/Pool.sol\":2063:2102  firstTokenAddress = address(firstToken) */\n      swap8\n      pop\n        /* \"contracts/Pool.sol\":2131:2141  firstToken */\n      0x00\n      0x00\n      swap1\n      sload\n      swap1\n      0x0100\n      exp\n      swap1\n      div\n      0xffffffffffffffffffffffffffffffffffffffff\n      and\n        /* \"contracts/Pool.sol\":2131:2148  firstToken.symbol */\n      0xffffffffffffffffffffffffffffffffffffffff\n      and\n      0x95d89b41\n        /* \"contracts/Pool.sol\":2131:2150  firstToken.symbol() */\n      mload(0x40)\n      dup2\n      0xffffffff\n      and\n      0xe0\n      shl\n      dup2\n      mstore\n      0x04\n      add\n      0x00\n      mload(0x40)\n      dup1\n      dup4\n      sub\n      dup2\n      dup7\n      gas\n      staticcall\n      iszero\n      dup1\n      iszero\n      tag_20\n      jumpi\n      returndatacopy(0x00, 0x00, returndatasize)\n      revert(0x00, returndatasize)\n    tag_20:\n      pop\n      pop\n      pop\n      pop\n      mload(0x40)\n      returndatasize\n      0x00\n      dup3\n      returndatacopy\n      returndatasize\n      not(0x1f)\n      0x1f\n      dup3\n      add\n      and\n      dup3\n      add\n      dup1\n      0x40\n      mstore\n      pop\n      dup2\n      add\n      swap1\n      tag_21\n      swap2\n      swap1\n      tag_22\n      jump\t// in\n    tag_21:\n        /* \"contracts/Pool.sol\":2112:2150  firstTokenSymbol = firstToken.symbol() */\n      swap7\n      pop\n        /* \"contracts/Pool.sol\":2181:2191  firstToken */\n      0x00\n      0x00\n      swap1\n      sload\n      swap1\n      0x0100\n      exp\n      swap1\n      div\n      0xffffffffffffffffffffffffffffffffffffffff\n      and\n        /* \"contracts/Pool.sol\":2181:2197  firstToken.price */\n      0xffffffffffffffffffffffffffffffffffffffff\n      and\n      0xa035b1fe\n        /* \"contracts/Pool.sol\":2181:2199  firstToken.price() */\n      mload(0x40)\n      dup2\n      0xffffffff\n      and\n      0xe0\n      shl\n      dup2\n      mstore\n      0x04\n      add\n      0x20\n      mload(0x40)\n      dup1\n      dup4\n      sub\n      dup2\n      dup7\n      gas\n      staticcall\n      iszero\n      dup1\n      iszero\n      tag_24\n      jumpi\n      returndatacopy(0x00, 0x00, returndatasize)\n      revert(0x00, returndatasize)\n    tag_24:\n      pop\n      pop\n      pop\n      pop\n      mload(0x40)\n      returndatasize\n      not(0x1f)\n      0x1f\n      dup3\n      add\n      and\n      dup3\n      add\n      dup1\n      0x40\n      mstore\n      pop\n      dup2\n      add\n      swap1\n      tag_25\n      swap2\n      swap1\n      tag_26\n      jump\t// in\n    tag_25:\n        /* \"contracts/Pool.sol\":2160:2199  firstTokenWeiPrice = firstToken.price() */\n      swap6\n      pop\n        /* \"contracts/Pool.sol\":2238:2249  secondToken */\n      0x01\n      0x00\n      swap1\n      sload\n      swap1\n      0x0100\n      exp\n      swap1\n      div\n      0xffffffffffffffffffffffffffffffffffffffff\n      and\n        /* \"contracts/Pool.sol\":2209:2250  secondTokenAddress = address(secondToken) */\n      swap5\n      pop\n        /* \"contracts/Pool.sol\":2280:2291  secondToken */\n      0x01\n      0x00\n      swap1\n      sload\n      swap1\n      0x0100\n      exp\n      swap1\n      div\n      0xffffffffffffffffffffffffffffffffffffffff\n      and\n        /* \"contracts/Pool.sol\":2280:2298  secondToken.symbol */\n      0xffffffffffffffffffffffffffffffffffffffff\n      and\n      0x95d89b41\n        /* \"contracts/Pool.sol\":2280:2300  secondToken.symbol() */\n      mload(0x40)\n      dup2\n      0xffffffff\n      and\n      0xe0\n      shl\n      dup2\n      mstore\n      0x04\n      add\n      0x00\n      mload(0x40)\n      dup1\n      dup4\n      sub\n      dup2\n      dup7\n      gas\n      staticcall\n      iszero\n      dup1\n      iszero\n      tag_28\n      jumpi\n      returndatacopy(0x00, 0x00, returndatasize)\n      revert(0x00, returndatasize)\n    tag_28:\n      pop\n      pop\n      pop\n      pop\n      mload(0x40)\n      returndatasize\n      0x00\n      dup3\n      returndatacopy\n      returndatasize\n      not(0x1f)\n      0x1f\n      dup3\n      add\n      and\n      dup3\n      add\n      dup1\n      0x40\n      mstore\n      pop\n      dup2\n      add\n      swap1\n      tag_29\n      swap2\n      swap1\n      tag_22\n      jump\t// in\n    tag_29:\n        /* \"contracts/Pool.sol\":2260:2300  secondTokenSymbol = secondToken.symbol() */\n      swap4\n      pop\n        /* \"contracts/Pool.sol\":2332:2343  secondToken */\n      0x01\n      0x00\n      swap1\n      sload\n      swap1\n      0x0100\n      exp\n      swap1\n      div\n      0xffffffffffffffffffffffffffffffffffffffff\n      and\n        /* \"contracts/Pool.sol\":2332:2349  secondToken.price */\n      0xffffffffffffffffffffffffffffffffffffffff\n      and\n      0xa035b1fe\n        /* \"contracts/Pool.sol\":2332:2351  secondToken.price() */\n      mload(0x40)\n      dup2\n      0xffffffff\n      and\n      0xe0\n      shl\n      dup2\n      mstore\n      0x04\n      add\n      0x20\n      mload(0x40)\n      dup1\n      dup4\n      sub\n      dup2\n      dup7\n      gas\n      staticcall\n      iszero\n      dup1\n      iszero\n      tag_31\n      jumpi\n      returndatacopy(0x00, 0x00, returndatasize)\n      revert(0x00, returndatasize)\n    tag_31:\n      pop\n      pop\n      pop\n      pop\n      mload(0x40)\n      returndatasize\n      not(0x1f)\n      0x1f\n      dup3\n      add\n      and\n      dup3\n      add\n      dup1\n      0x40\n      mstore\n      pop\n      dup2\n      add\n      swap1\n      tag_32\n      swap2\n      swap1\n      tag_26\n      jump\t// in\n    tag_32:\n        /* \"contracts/Pool.sol\":2310:2351  secondTokenWeiPrice = secondToken.price() */\n      swap3\n      pop\n        /* \"contracts/Pool.sol\":2381:2391  firstToken */\n      0x00\n      0x00\n      swap1\n      sload\n      swap1\n      0x0100\n      exp\n      swap1\n      div\n      0xffffffffffffffffffffffffffffffffffffffff\n      and\n        /* \"contracts/Pool.sol\":2381:2401  firstToken.balanceOf */\n      0xffffffffffffffffffffffffffffffffffffffff\n      and\n      0x70a08231\n        /* \"contracts/Pool.sol\":2410:2414  this */\n      address\n        /* \"contracts/Pool.sol\":2381:2416  firstToken.balanceOf(address(this)) */\n      mload(0x40)\n      dup3\n      0xffffffff\n      and\n      0xe0\n      shl\n      dup2\n      mstore\n      0x04\n      add\n      tag_33\n      swap2\n      swap1\n      tag_34\n      jump\t// in\n    tag_33:\n      0x20\n      mload(0x40)\n      dup1\n      dup4\n      sub\n      dup2\n      dup7\n      gas\n      staticcall\n      iszero\n      dup1\n      iszero\n      tag_36\n      jumpi\n      returndatacopy(0x00, 0x00, returndatasize)\n      revert(0x00, returndatasize)\n    tag_36:\n      pop\n      pop\n      pop\n      pop\n      mload(0x40)\n      returndatasize\n      not(0x1f)\n      0x1f\n      dup3\n      add\n      and\n      dup3\n      add\n      dup1\n      0x40\n      mstore\n      pop\n      dup2\n      add\n      swap1\n      tag_37\n      swap2\n      swap1\n      tag_26\n      jump\t// in\n    tag_37:\n        /* \"contracts/Pool.sol\":2361:2416  firstTokenReserve = firstToken.balanceOf(address(this)) */\n      swap2\n      pop\n        /* \"contracts/Pool.sol\":2447:2458  secondToken */\n      0x01\n      0x00\n      swap1\n      sload\n      swap1\n      0x0100\n      exp\n      swap1\n      div\n      0xffffffffffffffffffffffffffffffffffffffff\n      and\n        /* \"contracts/Pool.sol\":2447:2468  secondToken.balanceOf */\n      0xffffffffffffffffffffffffffffffffffffffff\n      and\n      0x70a08231\n        /* \"contracts/Pool.sol\":2477:2481  this */\n      address\n        /* \"contracts/Pool.sol\":2447:2483  secondToken.balanceOf(address(this)) */\n      mload(0x40)\n      dup3\n      0xffffffff\n      and\n      0xe0\n      shl\n      dup2\n      mstore\n      0x04\n      add\n      tag_38\n      swap2\n      swap1\n      tag_34\n      jump\t// in\n    tag_38:\n      0x20\n      mload(0x40)\n      dup1\n      dup4\n      sub\n      dup2\n      dup7\n      gas\n      staticcall\n      iszero\n      dup1\n      iszero\n      tag_40\n      jumpi\n      returndatacopy(0x00, 0x00, returndatasize)\n      revert(0x00, returndatasize)\n    tag_40:\n      pop\n      pop\n      pop\n      pop\n      mload(0x40)\n      returndatasize\n      not(0x1f)\n      0x1f\n      dup3\n      add\n      and\n      dup3\n      add\n      dup1\n      0x40\n      mstore\n      pop\n      dup2\n      add\n      swap1\n      tag_41\n      swap2\n      swap1\n      tag_26\n      jump\t// in\n    tag_41:\n        /* \"contracts/Pool.sol\":2426:2483  secondTokenReserve = secondToken.balanceOf(address(this)) */\n      swap1\n      pop\n        /* \"contracts/Pool.sol\":1645:2490  function getInfo()... */\n      swap1\n      swap2\n      swap3\n      swap4\n      swap5\n      swap6\n      swap7\n      swap8\n      jump\t// out\n        /* \"contracts/Pool.sol\":683:1139  function addLiquidity(uint256 _firstTokenAmount, uint256 _secondTokenAmount)... */\n    tag_13:\n        /* \"contracts/Pool.sol\":791:801  firstToken */\n      0x00\n      0x00\n      swap1\n      sload\n      swap1\n      0x0100\n      exp\n      swap1\n      div\n      0xffffffffffffffffffffffffffffffffffffffff\n      and\n        /* \"contracts/Pool.sol\":791:814  firstToken.transferFrom */\n      0xffffffffffffffffffffffffffffffffffffffff\n      and\n      0x23b872dd\n        /* \"contracts/Pool.sol\":815:825  msg.sender */\n      caller\n        /* \"contracts/Pool.sol\":835:839  this */\n      address\n        /* \"contracts/Pool.sol\":842:859  _firstTokenAmount */\n      dup6\n        /* \"contracts/Pool.sol\":791:860  firstToken.transferFrom(msg.sender, address(this), _firstTokenAmount) */\n      mload(0x40)\n      dup5\n      0xffffffff\n      and\n      0xe0\n      shl\n      dup2\n      mstore\n      0x04\n      add\n      tag_43\n      swap4\n      swap3\n      swap2\n      swap1\n      tag_44\n      jump\t// in\n    tag_43:\n      0x20\n      mload(0x40)\n      dup1\n      dup4\n      sub\n      dup2\n      0x00\n      dup8\n      gas\n      call\n      iszero\n      dup1\n      iszero\n      tag_46\n      jumpi\n      returndatacopy(0x00, 0x00, returndatasize)\n      revert(0x00, returndatasize)\n    tag_46:\n      pop\n      pop\n      pop\n      pop\n      mload(0x40)\n      returndatasize\n      not(0x1f)\n      0x1f\n      dup3\n      add\n      and\n      dup3\n      add\n      dup1\n      0x40\n      mstore\n      pop\n      dup2\n      add\n      swap1\n      tag_47\n      swap2\n      swap1\n      tag_48\n      jump\t// in\n    tag_47:\n      pop\n        /* \"contracts/Pool.sol\":870:881  secondToken */\n      0x01\n      0x00\n      swap1\n      sload\n      swap1\n      0x0100\n      exp\n      swap1\n      div\n      0xffffffffffffffffffffffffffffffffffffffff\n      and\n        /* \"contracts/Pool.sol\":870:894  secondToken.transferFrom */\n      0xffffffffffffffffffffffffffffffffffffffff\n      and\n      0x23b872dd\n        /* \"contracts/Pool.sol\":895:905  msg.sender */\n      caller\n        /* \"contracts/Pool.sol\":915:919  this */\n      address\n        /* \"contracts/Pool.sol\":922:940  _secondTokenAmount */\n      dup5\n        /* \"contracts/Pool.sol\":870:941  secondToken.transferFrom(msg.sender, address(this), _secondTokenAmount) */\n      mload(0x40)\n      dup5\n      0xffffffff\n      and\n      0xe0\n      shl\n      dup2\n      mstore\n      0x04\n      add\n      tag_49\n      swap4\n      swap3\n      swap2\n      swap1\n      tag_44\n      jump\t// in\n    tag_49:\n      0x20\n      mload(0x40)\n      dup1\n      dup4\n      sub\n      dup2\n      0x00\n      dup8\n      gas\n      call\n      iszero\n      dup1\n      iszero\n      tag_51\n      jumpi\n      returndatacopy(0x00, 0x00, returndatasize)\n      revert(0x00, returndatasize)\n    tag_51:\n      pop\n      pop\n      pop\n      pop\n      mload(0x40)\n      returndatasize\n      not(0x1f)\n      0x1f\n      dup3\n      add\n      and\n      dup3\n      add\n      dup1\n      0x40\n      mstore\n      pop\n      dup2\n      add\n      swap1\n      tag_52\n      swap2\n      swap1\n      tag_48\n      jump\t// in\n    tag_52:\n      pop\n        /* \"contracts/Pool.sol\":952:968  uint256 lpAmount */\n      0x00\n        /* \"contracts/Pool.sol\":1073:1080  lpToken */\n      0x02\n      0x00\n      swap1\n      sload\n      swap1\n      0x0100\n      exp\n      swap1\n      div\n      0xffffffffffffffffffffffffffffffffffffffff\n      and\n        /* \"contracts/Pool.sol\":1073:1086  lpToken.price */\n      0xffffffffffffffffffffffffffffffffffffffff\n      and\n      0xa035b1fe\n        /* \"contracts/Pool.sol\":1073:1088  lpToken.price() */\n      mload(0x40)\n      dup2\n      0xffffffff\n      and\n      0xe0\n      shl\n      dup2\n      mstore\n      0x04\n      add\n      0x20\n      mload(0x40)\n      dup1\n      dup4\n      sub\n      dup2\n      dup7\n      gas\n      staticcall\n      iszero\n      dup1\n      iszero\n      tag_54\n      jumpi\n      returndatacopy(0x00, 0x00, returndatasize)\n      revert(0x00, returndatasize)\n    tag_54:\n      pop\n      pop\n      pop\n      pop\n      mload(0x40)\n      returndatasize\n      not(0x1f)\n      0x1f\n      dup3\n      add\n      and\n      dup3\n      add\n      dup1\n      0x40\n      mstore\n      pop\n      dup2\n      add\n      swap1\n      tag_55\n      swap2\n      swap1\n      tag_26\n      jump\t// in\n    tag_55:\n        /* \"contracts/Pool.sol\":1050:1068  _secondTokenAmount */\n      dup3\n        /* \"contracts/Pool.sol\":1028:1039  secondToken */\n      0x01\n      0x00\n      swap1\n      sload\n      swap1\n      0x0100\n      exp\n      swap1\n      div\n      0xffffffffffffffffffffffffffffffffffffffff\n      and\n        /* \"contracts/Pool.sol\":1028:1045  secondToken.price */\n      0xffffffffffffffffffffffffffffffffffffffff\n      and\n      0xa035b1fe\n        /* \"contracts/Pool.sol\":1028:1047  secondToken.price() */\n      mload(0x40)\n      dup2\n      0xffffffff\n      and\n      0xe0\n      shl\n      dup2\n      mstore\n      0x04\n      add\n      0x20\n      mload(0x40)\n      dup1\n      dup4\n      sub\n      dup2\n      dup7\n      gas\n      staticcall\n      iszero\n      dup1\n      iszero\n      tag_57\n      jumpi\n      returndatacopy(0x00, 0x00, returndatasize)\n      revert(0x00, returndatasize)\n    tag_57:\n      pop\n      pop\n      pop\n      pop\n      mload(0x40)\n      returndatasize\n      not(0x1f)\n      0x1f\n      dup3\n      add\n      and\n      dup3\n      add\n      dup1\n      0x40\n      mstore\n      pop\n      dup2\n      add\n      swap1\n      tag_58\n      swap2\n      swap1\n      tag_26\n      jump\t// in\n    tag_58:\n        /* \"contracts/Pool.sol\":1028:1068  secondToken.price() * _secondTokenAmount */\n      tag_59\n      swap2\n      swap1\n      tag_60\n      jump\t// in\n    tag_59:\n        /* \"contracts/Pool.sol\":994:1011  _firstTokenAmount */\n      dup5\n        /* \"contracts/Pool.sol\":973:983  firstToken */\n      0x00\n      0x00\n      swap1\n      sload\n      swap1\n      0x0100\n      exp\n      swap1\n      div\n      0xffffffffffffffffffffffffffffffffffffffff\n      and\n        /* \"contracts/Pool.sol\":973:989  firstToken.price */\n      0xffffffffffffffffffffffffffffffffffffffff\n      and\n      0xa035b1fe\n        /* \"contracts/Pool.sol\":973:991  firstToken.price() */\n      mload(0x40)\n      dup2\n      0xffffffff\n      and\n      0xe0\n      shl\n      dup2\n      mstore\n      0x04\n      add\n      0x20\n      mload(0x40)\n      dup1\n      dup4\n      sub\n      dup2\n      dup7\n      gas\n      staticcall\n      iszero\n      dup1\n      iszero\n      tag_62\n      jumpi\n      returndatacopy(0x00, 0x00, returndatasize)\n      revert(0x00, returndatasize)\n    tag_62:\n      pop\n      pop\n      pop\n      pop\n      mload(0x40)\n      returndatasize\n      not(0x1f)\n      0x1f\n      dup3\n      add\n      and\n      dup3\n      add\n      dup1\n      0x40\n      mstore\n      pop\n      dup2\n      add\n      swap1\n      tag_63\n      swap2\n      swap1\n      tag_26\n      jump\t// in\n    tag_63:\n        /* \"contracts/Pool.sol\":973:1011  firstToken.price() * _firstTokenAmount */\n      tag_64\n      swap2\n      swap1\n      tag_60\n      jump\t// in\n    tag_64:\n        /* \"contracts/Pool.sol\":972:1069  (firstToken.price() * _firstTokenAmount) +... */\n      tag_65\n      swap2\n      swap1\n      tag_66\n      jump\t// in\n    tag_65:\n        /* \"contracts/Pool.sol\":971:1088  ((firstToken.price() * _firstTokenAmount) +... */\n      tag_67\n      swap2\n      swap1\n      tag_68\n      jump\t// in\n    tag_67:\n        /* \"contracts/Pool.sol\":952:1088  uint256 lpAmount = ((firstToken.price() * _firstTokenAmount) +... */\n      swap1\n      pop\n        /* \"contracts/Pool.sol\":1098:1105  lpToken */\n      0x02\n      0x00\n      swap1\n      sload\n      swap1\n      0x0100\n      exp\n      swap1\n      div\n      0xffffffffffffffffffffffffffffffffffffffff\n      and\n        /* \"contracts/Pool.sol\":1098:1110  lpToken.mint */\n      0xffffffffffffffffffffffffffffffffffffffff\n      and\n      0x40c10f19\n        /* \"contracts/Pool.sol\":1111:1121  msg.sender */\n      caller\n        /* \"contracts/Pool.sol\":1123:1131  lpAmount */\n      dup4\n        /* \"contracts/Pool.sol\":1098:1132  lpToken.mint(msg.sender, lpAmount) */\n      mload(0x40)\n      dup4\n      0xffffffff\n      and\n      0xe0\n      shl\n      dup2\n      mstore\n      0x04\n      add\n      tag_69\n      swap3\n      swap2\n      swap1\n      tag_70\n      jump\t// in\n    tag_69:\n      0x00\n      mload(0x40)\n      dup1\n      dup4\n      sub\n      dup2\n      0x00\n      dup8\n      dup1\n      extcodesize\n      iszero\n      dup1\n      iszero\n      tag_71\n      jumpi\n      revert(0x00, 0x00)\n    tag_71:\n      pop\n      gas\n      call\n      iszero\n      dup1\n      iszero\n      tag_73\n      jumpi\n      returndatacopy(0x00, 0x00, returndatasize)\n      revert(0x00, returndatasize)\n    tag_73:\n      pop\n      pop\n      pop\n      pop\n        /* \"contracts/Pool.sol\":781:1139  {... */\n      pop\n        /* \"contracts/Pool.sol\":683:1139  function addLiquidity(uint256 _firstTokenAmount, uint256 _secondTokenAmount)... */\n      pop\n      pop\n      jump\t// out\n        /* \"contracts/Pool.sol\":1145:1639  function swap(bool _isSwapFirstTokenToSecond, uint256 _amount)... */\n    tag_17:\n        /* \"contracts/Pool.sol\":1239:1252  ERC20 tokenIn */\n      0x00\n        /* \"contracts/Pool.sol\":1255:1280  _isSwapFirstTokenToSecond */\n      dup3\n        /* \"contracts/Pool.sol\":1255:1307  _isSwapFirstTokenToSecond ? firstToken : secondToken */\n      tag_75\n      jumpi\n        /* \"contracts/Pool.sol\":1296:1307  secondToken */\n      0x01\n      0x00\n      swap1\n      sload\n      swap1\n      0x0100\n      exp\n      swap1\n      div\n      0xffffffffffffffffffffffffffffffffffffffff\n      and\n        /* \"contracts/Pool.sol\":1255:1307  _isSwapFirstTokenToSecond ? firstToken : secondToken */\n      jump(tag_76)\n    tag_75:\n        /* \"contracts/Pool.sol\":1283:1293  firstToken */\n      0x00\n      0x00\n      swap1\n      sload\n      swap1\n      0x0100\n      exp\n      swap1\n      div\n      0xffffffffffffffffffffffffffffffffffffffff\n      and\n        /* \"contracts/Pool.sol\":1255:1307  _isSwapFirstTokenToSecond ? firstToken : secondToken */\n    tag_76:\n        /* \"contracts/Pool.sol\":1239:1307  ERC20 tokenIn = _isSwapFirstTokenToSecond ? firstToken : secondToken */\n      swap1\n      pop\n        /* \"contracts/Pool.sol\":1317:1331  ERC20 tokenOut */\n      0x00\n        /* \"contracts/Pool.sol\":1334:1359  _isSwapFirstTokenToSecond */\n      dup4\n        /* \"contracts/Pool.sol\":1334:1386  _isSwapFirstTokenToSecond ? secondToken : firstToken */\n      tag_77\n      jumpi\n        /* \"contracts/Pool.sol\":1376:1386  firstToken */\n      0x00\n      0x00\n      swap1\n      sload\n      swap1\n      0x0100\n      exp\n      swap1\n      div\n      0xffffffffffffffffffffffffffffffffffffffff\n      and\n        /* \"contracts/Pool.sol\":1334:1386  _isSwapFirstTokenToSecond ? secondToken : firstToken */\n      jump(tag_78)\n    tag_77:\n        /* \"contracts/Pool.sol\":1362:1373  secondToken */\n      0x01\n      0x00\n      swap1\n      sload\n      swap1\n      0x0100\n      exp\n      swap1\n      div\n      0xffffffffffffffffffffffffffffffffffffffff\n      and\n        /* \"contracts/Pool.sol\":1334:1386  _isSwapFirstTokenToSecond ? secondToken : firstToken */\n    tag_78:\n        /* \"contracts/Pool.sol\":1317:1386  ERC20 tokenOut = _isSwapFirstTokenToSecond ? secondToken : firstToken */\n      swap1\n      pop\n        /* \"contracts/Pool.sol\":1397:1414  uint256 amountOut */\n      0x00\n        /* \"contracts/Pool.sol\":1465:1472  tokenIn */\n      dup3\n        /* \"contracts/Pool.sol\":1465:1482  tokenIn.balanceOf */\n      0xffffffffffffffffffffffffffffffffffffffff\n      and\n      0x70a08231\n        /* \"contracts/Pool.sol\":1491:1495  this */\n      address\n        /* \"contracts/Pool.sol\":1465:1497  tokenIn.balanceOf(address(this)) */\n      mload(0x40)\n      dup3\n      0xffffffff\n      and\n      0xe0\n      shl\n      dup2\n      mstore\n      0x04\n      add\n      tag_79\n      swap2\n      swap1\n      tag_34\n      jump\t// in\n    tag_79:\n      0x20\n      mload(0x40)\n      dup1\n      dup4\n      sub\n      dup2\n      dup7\n      gas\n      staticcall\n      iszero\n      dup1\n      iszero\n      tag_81\n      jumpi\n      returndatacopy(0x00, 0x00, returndatasize)\n      revert(0x00, returndatasize)\n    tag_81:\n      pop\n      pop\n      pop\n      pop\n      mload(0x40)\n      returndatasize\n      not(0x1f)\n      0x1f\n      dup3\n      add\n      and\n      dup3\n      add\n      dup1\n      0x40\n      mstore\n      pop\n      dup2\n      add\n      swap1\n      tag_82\n      swap2\n      swap1\n      tag_26\n      jump\t// in\n    tag_82:\n        /* \"contracts/Pool.sol\":1428:1436  tokenOut */\n      dup3\n        /* \"contracts/Pool.sol\":1428:1446  tokenOut.balanceOf */\n      0xffffffffffffffffffffffffffffffffffffffff\n      and\n      0x70a08231\n        /* \"contracts/Pool.sol\":1455:1459  this */\n      address\n        /* \"contracts/Pool.sol\":1428:1461  tokenOut.balanceOf(address(this)) */\n      mload(0x40)\n      dup3\n      0xffffffff\n      and\n      0xe0\n      shl\n      dup2\n      mstore\n      0x04\n      add\n      tag_83\n      swap2\n      swap1\n      tag_34\n      jump\t// in\n    tag_83:\n      0x20\n      mload(0x40)\n      dup1\n      dup4\n      sub\n      dup2\n      dup7\n      gas\n      staticcall\n      iszero\n      dup1\n      iszero\n      tag_85\n      jumpi\n      returndatacopy(0x00, 0x00, returndatasize)\n      revert(0x00, returndatasize)\n    tag_85:\n      pop\n      pop\n      pop\n      pop\n      mload(0x40)\n      returndatasize\n      not(0x1f)\n      0x1f\n      dup3\n      add\n      and\n      dup3\n      add\n      dup1\n      0x40\n      mstore\n      pop\n      dup2\n      add\n      swap1\n      tag_86\n      swap2\n      swap1\n      tag_26\n      jump\t// in\n    tag_86:\n        /* \"contracts/Pool.sol\":1418:1425  _amount */\n      dup6\n        /* \"contracts/Pool.sol\":1418:1461  _amount * tokenOut.balanceOf(address(this)) */\n      tag_87\n      swap2\n      swap1\n      tag_60\n      jump\t// in\n    tag_87:\n        /* \"contracts/Pool.sol\":1417:1497  (_amount * tokenOut.balanceOf(address(this))) / tokenIn.balanceOf(address(this)) */\n      tag_88\n      swap2\n      swap1\n      tag_68\n      jump\t// in\n    tag_88:\n        /* \"contracts/Pool.sol\":1397:1497  uint256 amountOut = (_amount * tokenOut.balanceOf(address(this))) / tokenIn.balanceOf(address(this)) */\n      swap1\n      pop\n        /* \"contracts/Pool.sol\":1507:1514  tokenIn */\n      dup3\n        /* \"contracts/Pool.sol\":1507:1527  tokenIn.transferFrom */\n      0xffffffffffffffffffffffffffffffffffffffff\n      and\n      0x23b872dd\n        /* \"contracts/Pool.sol\":1528:1538  msg.sender */\n      caller\n        /* \"contracts/Pool.sol\":1548:1552  this */\n      address\n        /* \"contracts/Pool.sol\":1555:1562  _amount */\n      dup8\n        /* \"contracts/Pool.sol\":1507:1563  tokenIn.transferFrom(msg.sender, address(this), _amount) */\n      mload(0x40)\n      dup5\n      0xffffffff\n      and\n      0xe0\n      shl\n      dup2\n      mstore\n      0x04\n      add\n      tag_89\n      swap4\n      swap3\n      swap2\n      swap1\n      tag_44\n      jump\t// in\n    tag_89:\n      0x20\n      mload(0x40)\n      dup1\n      dup4\n      sub\n      dup2\n      0x00\n      dup8\n      gas\n      call\n      iszero\n      dup1\n      iszero\n      tag_91\n      jumpi\n      returndatacopy(0x00, 0x00, returndatasize)\n      revert(0x00, returndatasize)\n    tag_91:\n      pop\n      pop\n      pop\n      pop\n      mload(0x40)\n      returndatasize\n      not(0x1f)\n      0x1f\n      dup3\n      add\n      and\n      dup3\n      add\n      dup1\n      0x40\n      mstore\n      pop\n      dup2\n      add\n      swap1\n      tag_92\n      swap2\n      swap1\n      tag_48\n      jump\t// in\n    tag_92:\n      pop\n        /* \"contracts/Pool.sol\":1573:1581  tokenOut */\n      dup2\n        /* \"contracts/Pool.sol\":1573:1594  tokenOut.transferFrom */\n      0xffffffffffffffffffffffffffffffffffffffff\n      and\n      0x23b872dd\n        /* \"contracts/Pool.sol\":1603:1607  this */\n      address\n        /* \"contracts/Pool.sol\":1610:1620  msg.sender */\n      caller\n        /* \"contracts/Pool.sol\":1622:1631  amountOut */\n      dup5\n        /* \"contracts/Pool.sol\":1573:1632  tokenOut.transferFrom(address(this), msg.sender, amountOut) */\n      mload(0x40)\n      dup5\n      0xffffffff\n      and\n      0xe0\n      shl\n      dup2\n      mstore\n      0x04\n      add\n      tag_93\n      swap4\n      swap3\n      swap2\n      swap1\n      tag_44\n      jump\t// in\n    tag_93:\n      0x20\n      mload(0x40)\n      dup1\n      dup4\n      sub\n      dup2\n      0x00\n      dup8\n      gas\n      call\n      iszero\n      dup1\n      iszero\n      tag_95\n      jumpi\n      returndatacopy(0x00, 0x00, returndatasize)\n      revert(0x00, returndatasize)\n    tag_95:\n      pop\n      pop\n      pop\n      pop\n      mload(0x40)\n      returndatasize\n      not(0x1f)\n      0x1f\n      dup3\n      add\n      and\n      dup3\n      add\n      dup1\n      0x40\n      mstore\n      pop\n      dup2\n      add\n      swap1\n      tag_96\n      swap2\n      swap1\n      tag_48\n      jump\t// in\n    tag_96:\n      pop\n        /* \"contracts/Pool.sol\":1229:1639  {... */\n      pop\n      pop\n      pop\n        /* \"contracts/Pool.sol\":1145:1639  function swap(bool _isSwapFirstTokenToSecond, uint256 _amount)... */\n      pop\n      pop\n      jump\t// out\n        /* \"#utility.yul\":7:133   */\n    tag_97:\n        /* \"#utility.yul\":44:51   */\n      0x00\n        /* \"#utility.yul\":84:126   */\n      0xffffffffffffffffffffffffffffffffffffffff\n        /* \"#utility.yul\":77:82   */\n      dup3\n        /* \"#utility.yul\":73:127   */\n      and\n        /* \"#utility.yul\":62:127   */\n      swap1\n      pop\n        /* \"#utility.yul\":7:133   */\n      swap2\n      swap1\n      pop\n      jump\t// out\n        /* \"#utility.yul\":139:235   */\n    tag_98:\n        /* \"#utility.yul\":176:183   */\n      0x00\n        /* \"#utility.yul\":205:229   */\n      tag_130\n        /* \"#utility.yul\":223:228   */\n      dup3\n        /* \"#utility.yul\":205:229   */\n      tag_97\n      jump\t// in\n    tag_130:\n        /* \"#utility.yul\":194:229   */\n      swap1\n      pop\n        /* \"#utility.yul\":139:235   */\n      swap2\n      swap1\n      pop\n      jump\t// out\n        /* \"#utility.yul\":241:359   */\n    tag_99:\n        /* \"#utility.yul\":328:352   */\n      tag_132\n        /* \"#utility.yul\":346:351   */\n      dup2\n        /* \"#utility.yul\":328:352   */\n      tag_98\n      jump\t// in\n    tag_132:\n        /* \"#utility.yul\":323:326   */\n      dup3\n        /* \"#utility.yul\":316:353   */\n      mstore\n        /* \"#utility.yul\":241:359   */\n      pop\n      pop\n      jump\t// out\n        /* \"#utility.yul\":365:464   */\n    tag_100:\n        /* \"#utility.yul\":417:423   */\n      0x00\n        /* \"#utility.yul\":451:456   */\n      dup2\n        /* \"#utility.yul\":445:457   */\n      mload\n        /* \"#utility.yul\":435:457   */\n      swap1\n      pop\n        /* \"#utility.yul\":365:464   */\n      swap2\n      swap1\n      pop\n      jump\t// out\n        /* \"#utility.yul\":470:639   */\n    tag_101:\n        /* \"#utility.yul\":554:565   */\n      0x00\n        /* \"#utility.yul\":588:594   */\n      dup3\n        /* \"#utility.yul\":583:586   */\n      dup3\n        /* \"#utility.yul\":576:595   */\n      mstore\n        /* \"#utility.yul\":628:632   */\n      0x20\n        /* \"#utility.yul\":623:626   */\n      dup3\n        /* \"#utility.yul\":619:633   */\n      add\n        /* \"#utility.yul\":604:633   */\n      swap1\n      pop\n        /* \"#utility.yul\":470:639   */\n      swap3\n      swap2\n      pop\n      pop\n      jump\t// out\n        /* \"#utility.yul\":645:784   */\n    tag_102:\n        /* \"#utility.yul\":734:740   */\n      dup3\n        /* \"#utility.yul\":729:732   */\n      dup2\n        /* \"#utility.yul\":724:727   */\n      dup4\n        /* \"#utility.yul\":718:741   */\n      mcopy\n        /* \"#utility.yul\":775:776   */\n      0x00\n        /* \"#utility.yul\":766:772   */\n      dup4\n        /* \"#utility.yul\":761:764   */\n      dup4\n        /* \"#utility.yul\":757:773   */\n      add\n        /* \"#utility.yul\":750:777   */\n      mstore\n        /* \"#utility.yul\":645:784   */\n      pop\n      pop\n      pop\n      jump\t// out\n        /* \"#utility.yul\":790:892   */\n    tag_103:\n        /* \"#utility.yul\":831:837   */\n      0x00\n        /* \"#utility.yul\":882:884   */\n      0x1f\n        /* \"#utility.yul\":878:885   */\n      not\n        /* \"#utility.yul\":873:875   */\n      0x1f\n        /* \"#utility.yul\":866:871   */\n      dup4\n        /* \"#utility.yul\":862:876   */\n      add\n        /* \"#utility.yul\":858:886   */\n      and\n        /* \"#utility.yul\":848:886   */\n      swap1\n      pop\n        /* \"#utility.yul\":790:892   */\n      swap2\n      swap1\n      pop\n      jump\t// out\n        /* \"#utility.yul\":898:1275   */\n    tag_104:\n        /* \"#utility.yul\":986:989   */\n      0x00\n        /* \"#utility.yul\":1014:1053   */\n      tag_138\n        /* \"#utility.yul\":1047:1052   */\n      dup3\n        /* \"#utility.yul\":1014:1053   */\n      tag_100\n      jump\t// in\n    tag_138:\n        /* \"#utility.yul\":1069:1140   */\n      tag_139\n        /* \"#utility.yul\":1133:1139   */\n      dup2\n        /* \"#utility.yul\":1128:1131   */\n      dup6\n        /* \"#utility.yul\":1069:1140   */\n      tag_101\n      jump\t// in\n    tag_139:\n        /* \"#utility.yul\":1062:1140   */\n      swap4\n      pop\n        /* \"#utility.yul\":1149:1214   */\n      tag_140\n        /* \"#utility.yul\":1207:1213   */\n      dup2\n        /* \"#utility.yul\":1202:1205   */\n      dup6\n        /* \"#utility.yul\":1195:1199   */\n      0x20\n        /* \"#utility.yul\":1188:1193   */\n      dup7\n        /* \"#utility.yul\":1184:1200   */\n      add\n        /* \"#utility.yul\":1149:1214   */\n      tag_102\n      jump\t// in\n    tag_140:\n        /* \"#utility.yul\":1239:1268   */\n      tag_141\n        /* \"#utility.yul\":1261:1267   */\n      dup2\n        /* \"#utility.yul\":1239:1268   */\n      tag_103\n      jump\t// in\n    tag_141:\n        /* \"#utility.yul\":1234:1237   */\n      dup5\n        /* \"#utility.yul\":1230:1269   */\n      add\n        /* \"#utility.yul\":1223:1269   */\n      swap2\n      pop\n        /* \"#utility.yul\":990:1275   */\n      pop\n        /* \"#utility.yul\":898:1275   */\n      swap3\n      swap2\n      pop\n      pop\n      jump\t// out\n        /* \"#utility.yul\":1281:1358   */\n    tag_105:\n        /* \"#utility.yul\":1318:1325   */\n      0x00\n        /* \"#utility.yul\":1347:1352   */\n      dup2\n        /* \"#utility.yul\":1336:1352   */\n      swap1\n      pop\n        /* \"#utility.yul\":1281:1358   */\n      swap2\n      swap1\n      pop\n      jump\t// out\n        /* \"#utility.yul\":1364:1482   */\n    tag_106:\n        /* \"#utility.yul\":1451:1475   */\n      tag_144\n        /* \"#utility.yul\":1469:1474   */\n      dup2\n        /* \"#utility.yul\":1451:1475   */\n      tag_105\n      jump\t// in\n    tag_144:\n        /* \"#utility.yul\":1446:1449   */\n      dup3\n        /* \"#utility.yul\":1439:1476   */\n      mstore\n        /* \"#utility.yul\":1364:1482   */\n      pop\n      pop\n      jump\t// out\n        /* \"#utility.yul\":1488:2667   */\n    tag_9:\n        /* \"#utility.yul\":1817:1821   */\n      0x00\n        /* \"#utility.yul\":1855:1858   */\n      0x0100\n        /* \"#utility.yul\":1844:1853   */\n      dup3\n        /* \"#utility.yul\":1840:1859   */\n      add\n        /* \"#utility.yul\":1832:1859   */\n      swap1\n      pop\n        /* \"#utility.yul\":1869:1940   */\n      tag_146\n        /* \"#utility.yul\":1937:1938   */\n      0x00\n        /* \"#utility.yul\":1926:1935   */\n      dup4\n        /* \"#utility.yul\":1922:1939   */\n      add\n        /* \"#utility.yul\":1913:1919   */\n      dup12\n        /* \"#utility.yul\":1869:1940   */\n      tag_99\n      jump\t// in\n    tag_146:\n        /* \"#utility.yul\":1987:1996   */\n      dup2\n        /* \"#utility.yul\":1981:1985   */\n      dup2\n        /* \"#utility.yul\":1977:1997   */\n      sub\n        /* \"#utility.yul\":1972:1974   */\n      0x20\n        /* \"#utility.yul\":1961:1970   */\n      dup4\n        /* \"#utility.yul\":1957:1975   */\n      add\n        /* \"#utility.yul\":1950:1998   */\n      mstore\n        /* \"#utility.yul\":2015:2093   */\n      tag_147\n        /* \"#utility.yul\":2088:2092   */\n      dup2\n        /* \"#utility.yul\":2079:2085   */\n      dup11\n        /* \"#utility.yul\":2015:2093   */\n      tag_104\n      jump\t// in\n    tag_147:\n        /* \"#utility.yul\":2007:2093   */\n      swap1\n      pop\n        /* \"#utility.yul\":2103:2175   */\n      tag_148\n        /* \"#utility.yul\":2171:2173   */\n      0x40\n        /* \"#utility.yul\":2160:2169   */\n      dup4\n        /* \"#utility.yul\":2156:2174   */\n      add\n        /* \"#utility.yul\":2147:2153   */\n      dup10\n        /* \"#utility.yul\":2103:2175   */\n      tag_106\n      jump\t// in\n    tag_148:\n        /* \"#utility.yul\":2185:2257   */\n      tag_149\n        /* \"#utility.yul\":2253:2255   */\n      0x60\n        /* \"#utility.yul\":2242:2251   */\n      dup4\n        /* \"#utility.yul\":2238:2256   */\n      add\n        /* \"#utility.yul\":2229:2235   */\n      dup9\n        /* \"#utility.yul\":2185:2257   */\n      tag_99\n      jump\t// in\n    tag_149:\n        /* \"#utility.yul\":2305:2314   */\n      dup2\n        /* \"#utility.yul\":2299:2303   */\n      dup2\n        /* \"#utility.yul\":2295:2315   */\n      sub\n        /* \"#utility.yul\":2289:2292   */\n      0x80\n        /* \"#utility.yul\":2278:2287   */\n      dup4\n        /* \"#utility.yul\":2274:2293   */\n      add\n        /* \"#utility.yul\":2267:2316   */\n      mstore\n        /* \"#utility.yul\":2333:2411   */\n      tag_150\n        /* \"#utility.yul\":2406:2410   */\n      dup2\n        /* \"#utility.yul\":2397:2403   */\n      dup8\n        /* \"#utility.yul\":2333:2411   */\n      tag_104\n      jump\t// in\n    tag_150:\n        /* \"#utility.yul\":2325:2411   */\n      swap1\n      pop\n        /* \"#utility.yul\":2421:2494   */\n      tag_151\n        /* \"#utility.yul\":2489:2492   */\n      0xa0\n        /* \"#utility.yul\":2478:2487   */\n      dup4\n        /* \"#utility.yul\":2474:2493   */\n      add\n        /* \"#utility.yul\":2465:2471   */\n      dup7\n        /* \"#utility.yul\":2421:2494   */\n      tag_106\n      jump\t// in\n    tag_151:\n        /* \"#utility.yul\":2504:2577   */\n      tag_152\n        /* \"#utility.yul\":2572:2575   */\n      0xc0\n        /* \"#utility.yul\":2561:2570   */\n      dup4\n        /* \"#utility.yul\":2557:2576   */\n      add\n        /* \"#utility.yul\":2548:2554   */\n      dup6\n        /* \"#utility.yul\":2504:2577   */\n      tag_106\n      jump\t// in\n    tag_152:\n        /* \"#utility.yul\":2587:2660   */\n      tag_153\n        /* \"#utility.yul\":2655:2658   */\n      0xe0\n        /* \"#utility.yul\":2644:2653   */\n      dup4\n        /* \"#utility.yul\":2640:2659   */\n      add\n        /* \"#utility.yul\":2631:2637   */\n      dup5\n        /* \"#utility.yul\":2587:2660   */\n      tag_106\n      jump\t// in\n    tag_153:\n        /* \"#utility.yul\":1488:2667   */\n      swap10\n      swap9\n      pop\n      pop\n      pop\n      pop\n      pop\n      pop\n      pop\n      pop\n      pop\n      jump\t// out\n        /* \"#utility.yul\":2673:2748   */\n    tag_107:\n        /* \"#utility.yul\":2706:2712   */\n      0x00\n        /* \"#utility.yul\":2739:2741   */\n      0x40\n        /* \"#utility.yul\":2733:2742   */\n      mload\n        /* \"#utility.yul\":2723:2742   */\n      swap1\n      pop\n        /* \"#utility.yul\":2673:2748   */\n      swap1\n      jump\t// out\n        /* \"#utility.yul\":2754:2871   */\n    tag_108:\n        /* \"#utility.yul\":2863:2864   */\n      0x00\n        /* \"#utility.yul\":2860:2861   */\n      0x00\n        /* \"#utility.yul\":2853:2865   */\n      revert\n        /* \"#utility.yul\":2877:2994   */\n    tag_109:\n        /* \"#utility.yul\":2986:2987   */\n      0x00\n        /* \"#utility.yul\":2983:2984   */\n      0x00\n        /* \"#utility.yul\":2976:2988   */\n      revert\n        /* \"#utility.yul\":3000:3122   */\n    tag_110:\n        /* \"#utility.yul\":3073:3097   */\n      tag_158\n        /* \"#utility.yul\":3091:3096   */\n      dup2\n        /* \"#utility.yul\":3073:3097   */\n      tag_105\n      jump\t// in\n    tag_158:\n        /* \"#utility.yul\":3066:3071   */\n      dup2\n        /* \"#utility.yul\":3063:3098   */\n      eq\n        /* \"#utility.yul\":3053:3116   */\n      tag_159\n      jumpi\n        /* \"#utility.yul\":3112:3113   */\n      0x00\n        /* \"#utility.yul\":3109:3110   */\n      0x00\n        /* \"#utility.yul\":3102:3114   */\n      revert\n        /* \"#utility.yul\":3053:3116   */\n    tag_159:\n        /* \"#utility.yul\":3000:3122   */\n      pop\n      jump\t// out\n        /* \"#utility.yul\":3128:3267   */\n    tag_111:\n        /* \"#utility.yul\":3174:3179   */\n      0x00\n        /* \"#utility.yul\":3212:3218   */\n      dup2\n        /* \"#utility.yul\":3199:3219   */\n      calldataload\n        /* \"#utility.yul\":3190:3219   */\n      swap1\n      pop\n        /* \"#utility.yul\":3228:3261   */\n      tag_161\n        /* \"#utility.yul\":3255:3260   */\n      dup2\n        /* \"#utility.yul\":3228:3261   */\n      tag_110\n      jump\t// in\n    tag_161:\n        /* \"#utility.yul\":3128:3267   */\n      swap3\n      swap2\n      pop\n      pop\n      jump\t// out\n        /* \"#utility.yul\":3273:3747   */\n    tag_12:\n        /* \"#utility.yul\":3341:3347   */\n      0x00\n        /* \"#utility.yul\":3349:3355   */\n      0x00\n        /* \"#utility.yul\":3398:3400   */\n      0x40\n        /* \"#utility.yul\":3386:3395   */\n      dup4\n        /* \"#utility.yul\":3377:3384   */\n      dup6\n        /* \"#utility.yul\":3373:3396   */\n      sub\n        /* \"#utility.yul\":3369:3401   */\n      slt\n        /* \"#utility.yul\":3366:3485   */\n      iszero\n      tag_163\n      jumpi\n        /* \"#utility.yul\":3404:3483   */\n      tag_164\n      tag_108\n      jump\t// in\n    tag_164:\n        /* \"#utility.yul\":3366:3485   */\n    tag_163:\n        /* \"#utility.yul\":3524:3525   */\n      0x00\n        /* \"#utility.yul\":3549:3602   */\n      tag_165\n        /* \"#utility.yul\":3594:3601   */\n      dup6\n        /* \"#utility.yul\":3585:3591   */\n      dup3\n        /* \"#utility.yul\":3574:3583   */\n      dup7\n        /* \"#utility.yul\":3570:3592   */\n      add\n        /* \"#utility.yul\":3549:3602   */\n      tag_111\n      jump\t// in\n    tag_165:\n        /* \"#utility.yul\":3539:3602   */\n      swap3\n      pop\n        /* \"#utility.yul\":3495:3612   */\n      pop\n        /* \"#utility.yul\":3651:3653   */\n      0x20\n        /* \"#utility.yul\":3677:3730   */\n      tag_166\n        /* \"#utility.yul\":3722:3729   */\n      dup6\n        /* \"#utility.yul\":3713:3719   */\n      dup3\n        /* \"#utility.yul\":3702:3711   */\n      dup7\n        /* \"#utility.yul\":3698:3720   */\n      add\n        /* \"#utility.yul\":3677:3730   */\n      tag_111\n      jump\t// in\n    tag_166:\n        /* \"#utility.yul\":3667:3730   */\n      swap2\n      pop\n        /* \"#utility.yul\":3622:3740   */\n      pop\n        /* \"#utility.yul\":3273:3747   */\n      swap3\n      pop\n      swap3\n      swap1\n      pop\n      jump\t// out\n        /* \"#utility.yul\":3753:3843   */\n    tag_112:\n        /* \"#utility.yul\":3787:3794   */\n      0x00\n        /* \"#utility.yul\":3830:3835   */\n      dup2\n        /* \"#utility.yul\":3823:3836   */\n      iszero\n        /* \"#utility.yul\":3816:3837   */\n      iszero\n        /* \"#utility.yul\":3805:3837   */\n      swap1\n      pop\n        /* \"#utility.yul\":3753:3843   */\n      swap2\n      swap1\n      pop\n      jump\t// out\n        /* \"#utility.yul\":3849:3965   */\n    tag_113:\n        /* \"#utility.yul\":3919:3940   */\n      tag_169\n        /* \"#utility.yul\":3934:3939   */\n      dup2\n        /* \"#utility.yul\":3919:3940   */\n      tag_112\n      jump\t// in\n    tag_169:\n        /* \"#utility.yul\":3912:3917   */\n      dup2\n        /* \"#utility.yul\":3909:3941   */\n      eq\n        /* \"#utility.yul\":3899:3959   */\n      tag_170\n      jumpi\n        /* \"#utility.yul\":3955:3956   */\n      0x00\n        /* \"#utility.yul\":3952:3953   */\n      0x00\n        /* \"#utility.yul\":3945:3957   */\n      revert\n        /* \"#utility.yul\":3899:3959   */\n    tag_170:\n        /* \"#utility.yul\":3849:3965   */\n      pop\n      jump\t// out\n        /* \"#utility.yul\":3971:4104   */\n    tag_114:\n        /* \"#utility.yul\":4014:4019   */\n      0x00\n        /* \"#utility.yul\":4052:4058   */\n      dup2\n        /* \"#utility.yul\":4039:4059   */\n      calldataload\n        /* \"#utility.yul\":4030:4059   */\n      swap1\n      pop\n        /* \"#utility.yul\":4068:4098   */\n      tag_172\n        /* \"#utility.yul\":4092:4097   */\n      dup2\n        /* \"#utility.yul\":4068:4098   */\n      tag_113\n      jump\t// in\n    tag_172:\n        /* \"#utility.yul\":3971:4104   */\n      swap3\n      swap2\n      pop\n      pop\n      jump\t// out\n        /* \"#utility.yul\":4110:4578   */\n    tag_16:\n        /* \"#utility.yul\":4175:4181   */\n      0x00\n        /* \"#utility.yul\":4183:4189   */\n      0x00\n        /* \"#utility.yul\":4232:4234   */\n      0x40\n        /* \"#utility.yul\":4220:4229   */\n      dup4\n        /* \"#utility.yul\":4211:4218   */\n      dup6\n        /* \"#utility.yul\":4207:4230   */\n      sub\n        /* \"#utility.yul\":4203:4235   */\n      slt\n        /* \"#utility.yul\":4200:4319   */\n      iszero\n      tag_174\n      jumpi\n        /* \"#utility.yul\":4238:4317   */\n      tag_175\n      tag_108\n      jump\t// in\n    tag_175:\n        /* \"#utility.yul\":4200:4319   */\n    tag_174:\n        /* \"#utility.yul\":4358:4359   */\n      0x00\n        /* \"#utility.yul\":4383:4433   */\n      tag_176\n        /* \"#utility.yul\":4425:4432   */\n      dup6\n        /* \"#utility.yul\":4416:4422   */\n      dup3\n        /* \"#utility.yul\":4405:4414   */\n      dup7\n        /* \"#utility.yul\":4401:4423   */\n      add\n        /* \"#utility.yul\":4383:4433   */\n      tag_114\n      jump\t// in\n    tag_176:\n        /* \"#utility.yul\":4373:4433   */\n      swap3\n      pop\n        /* \"#utility.yul\":4329:4443   */\n      pop\n        /* \"#utility.yul\":4482:4484   */\n      0x20\n        /* \"#utility.yul\":4508:4561   */\n      tag_177\n        /* \"#utility.yul\":4553:4560   */\n      dup6\n        /* \"#utility.yul\":4544:4550   */\n      dup3\n        /* \"#utility.yul\":4533:4542   */\n      dup7\n        /* \"#utility.yul\":4529:4551   */\n      add\n        /* \"#utility.yul\":4508:4561   */\n      tag_111\n      jump\t// in\n    tag_177:\n        /* \"#utility.yul\":4498:4561   */\n      swap2\n      pop\n        /* \"#utility.yul\":4453:4571   */\n      pop\n        /* \"#utility.yul\":4110:4578   */\n      swap3\n      pop\n      swap3\n      swap1\n      pop\n      jump\t// out\n        /* \"#utility.yul\":4584:4701   */\n    tag_115:\n        /* \"#utility.yul\":4693:4694   */\n      0x00\n        /* \"#utility.yul\":4690:4691   */\n      0x00\n        /* \"#utility.yul\":4683:4695   */\n      revert\n        /* \"#utility.yul\":4707:4824   */\n    tag_116:\n        /* \"#utility.yul\":4816:4817   */\n      0x00\n        /* \"#utility.yul\":4813:4814   */\n      0x00\n        /* \"#utility.yul\":4806:4818   */\n      revert\n        /* \"#utility.yul\":4830:5010   */\n    tag_117:\n        /* \"#utility.yul\":4878:4955   */\n      0x4e487b7100000000000000000000000000000000000000000000000000000000\n        /* \"#utility.yul\":4875:4876   */\n      0x00\n        /* \"#utility.yul\":4868:4956   */\n      mstore\n        /* \"#utility.yul\":4975:4979   */\n      0x41\n        /* \"#utility.yul\":4972:4973   */\n      0x04\n        /* \"#utility.yul\":4965:4980   */\n      mstore\n        /* \"#utility.yul\":4999:5003   */\n      0x24\n        /* \"#utility.yul\":4996:4997   */\n      0x00\n        /* \"#utility.yul\":4989:5004   */\n      revert\n        /* \"#utility.yul\":5016:5297   */\n    tag_118:\n        /* \"#utility.yul\":5099:5126   */\n      tag_182\n        /* \"#utility.yul\":5121:5125   */\n      dup3\n        /* \"#utility.yul\":5099:5126   */\n      tag_103\n      jump\t// in\n    tag_182:\n        /* \"#utility.yul\":5091:5097   */\n      dup2\n        /* \"#utility.yul\":5087:5127   */\n      add\n        /* \"#utility.yul\":5229:5235   */\n      dup2\n        /* \"#utility.yul\":5217:5227   */\n      dup2\n        /* \"#utility.yul\":5214:5236   */\n      lt\n        /* \"#utility.yul\":5193:5211   */\n      0xffffffffffffffff\n        /* \"#utility.yul\":5181:5191   */\n      dup3\n        /* \"#utility.yul\":5178:5212   */\n      gt\n        /* \"#utility.yul\":5175:5237   */\n      or\n        /* \"#utility.yul\":5172:5260   */\n      iszero\n      tag_183\n      jumpi\n        /* \"#utility.yul\":5240:5258   */\n      tag_184\n      tag_117\n      jump\t// in\n    tag_184:\n        /* \"#utility.yul\":5172:5260   */\n    tag_183:\n        /* \"#utility.yul\":5280:5290   */\n      dup1\n        /* \"#utility.yul\":5276:5278   */\n      0x40\n        /* \"#utility.yul\":5269:5291   */\n      mstore\n        /* \"#utility.yul\":5059:5297   */\n      pop\n        /* \"#utility.yul\":5016:5297   */\n      pop\n      pop\n      jump\t// out\n        /* \"#utility.yul\":5303:5432   */\n    tag_119:\n        /* \"#utility.yul\":5337:5343   */\n      0x00\n        /* \"#utility.yul\":5364:5384   */\n      tag_186\n      tag_107\n      jump\t// in\n    tag_186:\n        /* \"#utility.yul\":5354:5384   */\n      swap1\n      pop\n        /* \"#utility.yul\":5393:5426   */\n      tag_187\n        /* \"#utility.yul\":5421:5425   */\n      dup3\n        /* \"#utility.yul\":5413:5419   */\n      dup3\n        /* \"#utility.yul\":5393:5426   */\n      tag_118\n      jump\t// in\n    tag_187:\n        /* \"#utility.yul\":5303:5432   */\n      swap2\n      swap1\n      pop\n      jump\t// out\n        /* \"#utility.yul\":5438:5746   */\n    tag_120:\n        /* \"#utility.yul\":5500:5504   */\n      0x00\n        /* \"#utility.yul\":5590:5608   */\n      0xffffffffffffffff\n        /* \"#utility.yul\":5582:5588   */\n      dup3\n        /* \"#utility.yul\":5579:5609   */\n      gt\n        /* \"#utility.yul\":5576:5632   */\n      iszero\n      tag_189\n      jumpi\n        /* \"#utility.yul\":5612:5630   */\n      tag_190\n      tag_117\n      jump\t// in\n    tag_190:\n        /* \"#utility.yul\":5576:5632   */\n    tag_189:\n        /* \"#utility.yul\":5650:5679   */\n      tag_191\n        /* \"#utility.yul\":5672:5678   */\n      dup3\n        /* \"#utility.yul\":5650:5679   */\n      tag_103\n      jump\t// in\n    tag_191:\n        /* \"#utility.yul\":5642:5679   */\n      swap1\n      pop\n        /* \"#utility.yul\":5734:5738   */\n      0x20\n        /* \"#utility.yul\":5728:5732   */\n      dup2\n        /* \"#utility.yul\":5724:5739   */\n      add\n        /* \"#utility.yul\":5716:5739   */\n      swap1\n      pop\n        /* \"#utility.yul\":5438:5746   */\n      swap2\n      swap1\n      pop\n      jump\t// out\n        /* \"#utility.yul\":5752:6186   */\n    tag_121:\n        /* \"#utility.yul\":5841:5846   */\n      0x00\n        /* \"#utility.yul\":5866:5932   */\n      tag_193\n        /* \"#utility.yul\":5882:5931   */\n      tag_194\n        /* \"#utility.yul\":5924:5930   */\n      dup5\n        /* \"#utility.yul\":5882:5931   */\n      tag_120\n      jump\t// in\n    tag_194:\n        /* \"#utility.yul\":5866:5932   */\n      tag_119\n      jump\t// in\n    tag_193:\n        /* \"#utility.yul\":5857:5932   */\n      swap1\n      pop\n        /* \"#utility.yul\":5955:5961   */\n      dup3\n        /* \"#utility.yul\":5948:5953   */\n      dup2\n        /* \"#utility.yul\":5941:5962   */\n      mstore\n        /* \"#utility.yul\":5993:5997   */\n      0x20\n        /* \"#utility.yul\":5986:5991   */\n      dup2\n        /* \"#utility.yul\":5982:5998   */\n      add\n        /* \"#utility.yul\":6031:6034   */\n      dup5\n        /* \"#utility.yul\":6022:6028   */\n      dup5\n        /* \"#utility.yul\":6017:6020   */\n      dup5\n        /* \"#utility.yul\":6013:6029   */\n      add\n        /* \"#utility.yul\":6010:6035   */\n      gt\n        /* \"#utility.yul\":6007:6119   */\n      iszero\n      tag_195\n      jumpi\n        /* \"#utility.yul\":6038:6117   */\n      tag_196\n      tag_116\n      jump\t// in\n    tag_196:\n        /* \"#utility.yul\":6007:6119   */\n    tag_195:\n        /* \"#utility.yul\":6128:6180   */\n      tag_197\n        /* \"#utility.yul\":6173:6179   */\n      dup5\n        /* \"#utility.yul\":6168:6171   */\n      dup3\n        /* \"#utility.yul\":6163:6166   */\n      dup6\n        /* \"#utility.yul\":6128:6180   */\n      tag_102\n      jump\t// in\n    tag_197:\n        /* \"#utility.yul\":5847:6186   */\n      pop\n        /* \"#utility.yul\":5752:6186   */\n      swap4\n      swap3\n      pop\n      pop\n      pop\n      jump\t// out\n        /* \"#utility.yul\":6206:6561   */\n    tag_122:\n        /* \"#utility.yul\":6273:6278   */\n      0x00\n        /* \"#utility.yul\":6322:6325   */\n      dup3\n        /* \"#utility.yul\":6315:6319   */\n      0x1f\n        /* \"#utility.yul\":6307:6313   */\n      dup4\n        /* \"#utility.yul\":6303:6320   */\n      add\n        /* \"#utility.yul\":6299:6326   */\n      slt\n        /* \"#utility.yul\":6289:6411   */\n      tag_199\n      jumpi\n        /* \"#utility.yul\":6330:6409   */\n      tag_200\n      tag_115\n      jump\t// in\n    tag_200:\n        /* \"#utility.yul\":6289:6411   */\n    tag_199:\n        /* \"#utility.yul\":6440:6446   */\n      dup2\n        /* \"#utility.yul\":6434:6447   */\n      mload\n        /* \"#utility.yul\":6465:6555   */\n      tag_201\n        /* \"#utility.yul\":6551:6554   */\n      dup5\n        /* \"#utility.yul\":6543:6549   */\n      dup3\n        /* \"#utility.yul\":6536:6540   */\n      0x20\n        /* \"#utility.yul\":6528:6534   */\n      dup7\n        /* \"#utility.yul\":6524:6541   */\n      add\n        /* \"#utility.yul\":6465:6555   */\n      tag_121\n      jump\t// in\n    tag_201:\n        /* \"#utility.yul\":6456:6555   */\n      swap2\n      pop\n        /* \"#utility.yul\":6279:6561   */\n      pop\n        /* \"#utility.yul\":6206:6561   */\n      swap3\n      swap2\n      pop\n      pop\n      jump\t// out\n        /* \"#utility.yul\":6567:7091   */\n    tag_22:\n        /* \"#utility.yul\":6647:6653   */\n      0x00\n        /* \"#utility.yul\":6696:6698   */\n      0x20\n        /* \"#utility.yul\":6684:6693   */\n      dup3\n        /* \"#utility.yul\":6675:6682   */\n      dup5\n        /* \"#utility.yul\":6671:6694   */\n      sub\n        /* \"#utility.yul\":6667:6699   */\n      slt\n        /* \"#utility.yul\":6664:6783   */\n      iszero\n      tag_203\n      jumpi\n        /* \"#utility.yul\":6702:6781   */\n      tag_204\n      tag_108\n      jump\t// in\n    tag_204:\n        /* \"#utility.yul\":6664:6783   */\n    tag_203:\n        /* \"#utility.yul\":6843:6844   */\n      0x00\n        /* \"#utility.yul\":6832:6841   */\n      dup3\n        /* \"#utility.yul\":6828:6845   */\n      add\n        /* \"#utility.yul\":6822:6846   */\n      mload\n        /* \"#utility.yul\":6873:6891   */\n      0xffffffffffffffff\n        /* \"#utility.yul\":6865:6871   */\n      dup2\n        /* \"#utility.yul\":6862:6892   */\n      gt\n        /* \"#utility.yul\":6859:6976   */\n      iszero\n      tag_205\n      jumpi\n        /* \"#utility.yul\":6895:6974   */\n      tag_206\n      tag_109\n      jump\t// in\n    tag_206:\n        /* \"#utility.yul\":6859:6976   */\n    tag_205:\n        /* \"#utility.yul\":7000:7074   */\n      tag_207\n        /* \"#utility.yul\":7066:7073   */\n      dup5\n        /* \"#utility.yul\":7057:7063   */\n      dup3\n        /* \"#utility.yul\":7046:7055   */\n      dup6\n        /* \"#utility.yul\":7042:7064   */\n      add\n        /* \"#utility.yul\":7000:7074   */\n      tag_122\n      jump\t// in\n    tag_207:\n        /* \"#utility.yul\":6990:7074   */\n      swap2\n      pop\n        /* \"#utility.yul\":6793:7084   */\n      pop\n        /* \"#utility.yul\":6567:7091   */\n      swap3\n      swap2\n      pop\n      pop\n      jump\t// out\n        /* \"#utility.yul\":7097:7240   */\n    tag_123:\n        /* \"#utility.yul\":7154:7159   */\n      0x00\n        /* \"#utility.yul\":7185:7191   */\n      dup2\n        /* \"#utility.yul\":7179:7192   */\n      mload\n        /* \"#utility.yul\":7170:7192   */\n      swap1\n      pop\n        /* \"#utility.yul\":7201:7234   */\n      tag_209\n        /* \"#utility.yul\":7228:7233   */\n      dup2\n        /* \"#utility.yul\":7201:7234   */\n      tag_110\n      jump\t// in\n    tag_209:\n        /* \"#utility.yul\":7097:7240   */\n      swap3\n      swap2\n      pop\n      pop\n      jump\t// out\n        /* \"#utility.yul\":7246:7597   */\n    tag_26:\n        /* \"#utility.yul\":7316:7322   */\n      0x00\n        /* \"#utility.yul\":7365:7367   */\n      0x20\n        /* \"#utility.yul\":7353:7362   */\n      dup3\n        /* \"#utility.yul\":7344:7351   */\n      dup5\n        /* \"#utility.yul\":7340:7363   */\n      sub\n        /* \"#utility.yul\":7336:7368   */\n      slt\n        /* \"#utility.yul\":7333:7452   */\n      iszero\n      tag_211\n      jumpi\n        /* \"#utility.yul\":7371:7450   */\n      tag_212\n      tag_108\n      jump\t// in\n    tag_212:\n        /* \"#utility.yul\":7333:7452   */\n    tag_211:\n        /* \"#utility.yul\":7491:7492   */\n      0x00\n        /* \"#utility.yul\":7516:7580   */\n      tag_213\n        /* \"#utility.yul\":7572:7579   */\n      dup5\n        /* \"#utility.yul\":7563:7569   */\n      dup3\n        /* \"#utility.yul\":7552:7561   */\n      dup6\n        /* \"#utility.yul\":7548:7570   */\n      add\n        /* \"#utility.yul\":7516:7580   */\n      tag_123\n      jump\t// in\n    tag_213:\n        /* \"#utility.yul\":7506:7580   */\n      swap2\n      pop\n        /* \"#utility.yul\":7462:7590   */\n      pop\n        /* \"#utility.yul\":7246:7597   */\n      swap3\n      swap2\n      pop\n      pop\n      jump\t// out\n        /* \"#utility.yul\":7603:7825   */\n    tag_34:\n        /* \"#utility.yul\":7696:7700   */\n      0x00\n        /* \"#utility.yul\":7734:7736   */\n      0x20\n        /* \"#utility.yul\":7723:7732   */\n      dup3\n        /* \"#utility.yul\":7719:7737   */\n      add\n        /* \"#utility.yul\":7711:7737   */\n      swap1\n      pop\n        /* \"#utility.yul\":7747:7818   */\n      tag_215\n        /* \"#utility.yul\":7815:7816   */\n      0x00\n        /* \"#utility.yul\":7804:7813   */\n      dup4\n        /* \"#utility.yul\":7800:7817   */\n      add\n        /* \"#utility.yul\":7791:7797   */\n      dup5\n        /* \"#utility.yul\":7747:7818   */\n      tag_99\n      jump\t// in\n    tag_215:\n        /* \"#utility.yul\":7603:7825   */\n      swap3\n      swap2\n      pop\n      pop\n      jump\t// out\n        /* \"#utility.yul\":7831:8273   */\n    tag_44:\n        /* \"#utility.yul\":7980:7984   */\n      0x00\n        /* \"#utility.yul\":8018:8020   */\n      0x60\n        /* \"#utility.yul\":8007:8016   */\n      dup3\n        /* \"#utility.yul\":8003:8021   */\n      add\n        /* \"#utility.yul\":7995:8021   */\n      swap1\n      pop\n        /* \"#utility.yul\":8031:8102   */\n      tag_217\n        /* \"#utility.yul\":8099:8100   */\n      0x00\n        /* \"#utility.yul\":8088:8097   */\n      dup4\n        /* \"#utility.yul\":8084:8101   */\n      add\n        /* \"#utility.yul\":8075:8081   */\n      dup7\n        /* \"#utility.yul\":8031:8102   */\n      tag_99\n      jump\t// in\n    tag_217:\n        /* \"#utility.yul\":8112:8184   */\n      tag_218\n        /* \"#utility.yul\":8180:8182   */\n      0x20\n        /* \"#utility.yul\":8169:8178   */\n      dup4\n        /* \"#utility.yul\":8165:8183   */\n      add\n        /* \"#utility.yul\":8156:8162   */\n      dup6\n        /* \"#utility.yul\":8112:8184   */\n      tag_99\n      jump\t// in\n    tag_218:\n        /* \"#utility.yul\":8194:8266   */\n      tag_219\n        /* \"#utility.yul\":8262:8264   */\n      0x40\n        /* \"#utility.yul\":8251:8260   */\n      dup4\n        /* \"#utility.yul\":8247:8265   */\n      add\n        /* \"#utility.yul\":8238:8244   */\n      dup5\n        /* \"#utility.yul\":8194:8266   */\n      tag_106\n      jump\t// in\n    tag_219:\n        /* \"#utility.yul\":7831:8273   */\n      swap5\n      swap4\n      pop\n      pop\n      pop\n      pop\n      jump\t// out\n        /* \"#utility.yul\":8279:8416   */\n    tag_124:\n        /* \"#utility.yul\":8333:8338   */\n      0x00\n        /* \"#utility.yul\":8364:8370   */\n      dup2\n        /* \"#utility.yul\":8358:8371   */\n      mload\n        /* \"#utility.yul\":8349:8371   */\n      swap1\n      pop\n        /* \"#utility.yul\":8380:8410   */\n      tag_221\n        /* \"#utility.yul\":8404:8409   */\n      dup2\n        /* \"#utility.yul\":8380:8410   */\n      tag_113\n      jump\t// in\n    tag_221:\n        /* \"#utility.yul\":8279:8416   */\n      swap3\n      swap2\n      pop\n      pop\n      jump\t// out\n        /* \"#utility.yul\":8422:8767   */\n    tag_48:\n        /* \"#utility.yul\":8489:8495   */\n      0x00\n        /* \"#utility.yul\":8538:8540   */\n      0x20\n        /* \"#utility.yul\":8526:8535   */\n      dup3\n        /* \"#utility.yul\":8517:8524   */\n      dup5\n        /* \"#utility.yul\":8513:8536   */\n      sub\n        /* \"#utility.yul\":8509:8541   */\n      slt\n        /* \"#utility.yul\":8506:8625   */\n      iszero\n      tag_223\n      jumpi\n        /* \"#utility.yul\":8544:8623   */\n      tag_224\n      tag_108\n      jump\t// in\n    tag_224:\n        /* \"#utility.yul\":8506:8625   */\n    tag_223:\n        /* \"#utility.yul\":8664:8665   */\n      0x00\n        /* \"#utility.yul\":8689:8750   */\n      tag_225\n        /* \"#utility.yul\":8742:8749   */\n      dup5\n        /* \"#utility.yul\":8733:8739   */\n      dup3\n        /* \"#utility.yul\":8722:8731   */\n      dup6\n        /* \"#utility.yul\":8718:8740   */\n      add\n        /* \"#utility.yul\":8689:8750   */\n      tag_124\n      jump\t// in\n    tag_225:\n        /* \"#utility.yul\":8679:8750   */\n      swap2\n      pop\n        /* \"#utility.yul\":8635:8760   */\n      pop\n        /* \"#utility.yul\":8422:8767   */\n      swap3\n      swap2\n      pop\n      pop\n      jump\t// out\n        /* \"#utility.yul\":8773:8953   */\n    tag_125:\n        /* \"#utility.yul\":8821:8898   */\n      0x4e487b7100000000000000000000000000000000000000000000000000000000\n        /* \"#utility.yul\":8818:8819   */\n      0x00\n        /* \"#utility.yul\":8811:8899   */\n      mstore\n        /* \"#utility.yul\":8918:8922   */\n      0x11\n        /* \"#utility.yul\":8915:8916   */\n      0x04\n        /* \"#utility.yul\":8908:8923   */\n      mstore\n        /* \"#utility.yul\":8942:8946   */\n      0x24\n        /* \"#utility.yul\":8939:8940   */\n      0x00\n        /* \"#utility.yul\":8932:8947   */\n      revert\n        /* \"#utility.yul\":8959:9369   */\n    tag_60:\n        /* \"#utility.yul\":8999:9006   */\n      0x00\n        /* \"#utility.yul\":9022:9042   */\n      tag_228\n        /* \"#utility.yul\":9040:9041   */\n      dup3\n        /* \"#utility.yul\":9022:9042   */\n      tag_105\n      jump\t// in\n    tag_228:\n        /* \"#utility.yul\":9017:9042   */\n      swap2\n      pop\n        /* \"#utility.yul\":9056:9076   */\n      tag_229\n        /* \"#utility.yul\":9074:9075   */\n      dup4\n        /* \"#utility.yul\":9056:9076   */\n      tag_105\n      jump\t// in\n    tag_229:\n        /* \"#utility.yul\":9051:9076   */\n      swap3\n      pop\n        /* \"#utility.yul\":9111:9112   */\n      dup3\n        /* \"#utility.yul\":9108:9109   */\n      dup3\n        /* \"#utility.yul\":9104:9113   */\n      mul\n        /* \"#utility.yul\":9133:9163   */\n      tag_230\n        /* \"#utility.yul\":9151:9162   */\n      dup2\n        /* \"#utility.yul\":9133:9163   */\n      tag_105\n      jump\t// in\n    tag_230:\n        /* \"#utility.yul\":9122:9163   */\n      swap2\n      pop\n        /* \"#utility.yul\":9312:9313   */\n      dup3\n        /* \"#utility.yul\":9303:9310   */\n      dup3\n        /* \"#utility.yul\":9299:9314   */\n      div\n        /* \"#utility.yul\":9296:9297   */\n      dup5\n        /* \"#utility.yul\":9293:9315   */\n      eq\n        /* \"#utility.yul\":9273:9274   */\n      dup4\n        /* \"#utility.yul\":9266:9275   */\n      iszero\n        /* \"#utility.yul\":9246:9329   */\n      or\n        /* \"#utility.yul\":9223:9362   */\n      tag_231\n      jumpi\n        /* \"#utility.yul\":9342:9360   */\n      tag_232\n      tag_125\n      jump\t// in\n    tag_232:\n        /* \"#utility.yul\":9223:9362   */\n    tag_231:\n        /* \"#utility.yul\":9007:9369   */\n      pop\n        /* \"#utility.yul\":8959:9369   */\n      swap3\n      swap2\n      pop\n      pop\n      jump\t// out\n        /* \"#utility.yul\":9375:9566   */\n    tag_66:\n        /* \"#utility.yul\":9415:9418   */\n      0x00\n        /* \"#utility.yul\":9434:9454   */\n      tag_234\n        /* \"#utility.yul\":9452:9453   */\n      dup3\n        /* \"#utility.yul\":9434:9454   */\n      tag_105\n      jump\t// in\n    tag_234:\n        /* \"#utility.yul\":9429:9454   */\n      swap2\n      pop\n        /* \"#utility.yul\":9468:9488   */\n      tag_235\n        /* \"#utility.yul\":9486:9487   */\n      dup4\n        /* \"#utility.yul\":9468:9488   */\n      tag_105\n      jump\t// in\n    tag_235:\n        /* \"#utility.yul\":9463:9488   */\n      swap3\n      pop\n        /* \"#utility.yul\":9511:9512   */\n      dup3\n        /* \"#utility.yul\":9508:9509   */\n      dup3\n        /* \"#utility.yul\":9504:9513   */\n      add\n        /* \"#utility.yul\":9497:9513   */\n      swap1\n      pop\n        /* \"#utility.yul\":9532:9535   */\n      dup1\n        /* \"#utility.yul\":9529:9530   */\n      dup3\n        /* \"#utility.yul\":9526:9536   */\n      gt\n        /* \"#utility.yul\":9523:9559   */\n      iszero\n      tag_236\n      jumpi\n        /* \"#utility.yul\":9539:9557   */\n      tag_237\n      tag_125\n      jump\t// in\n    tag_237:\n        /* \"#utility.yul\":9523:9559   */\n    tag_236:\n        /* \"#utility.yul\":9375:9566   */\n      swap3\n      swap2\n      pop\n      pop\n      jump\t// out\n        /* \"#utility.yul\":9572:9752   */\n    tag_126:\n        /* \"#utility.yul\":9620:9697   */\n      0x4e487b7100000000000000000000000000000000000000000000000000000000\n        /* \"#utility.yul\":9617:9618   */\n      0x00\n        /* \"#utility.yul\":9610:9698   */\n      mstore\n        /* \"#utility.yul\":9717:9721   */\n      0x12\n        /* \"#utility.yul\":9714:9715   */\n      0x04\n        /* \"#utility.yul\":9707:9722   */\n      mstore\n        /* \"#utility.yul\":9741:9745   */\n      0x24\n        /* \"#utility.yul\":9738:9739   */\n      0x00\n        /* \"#utility.yul\":9731:9746   */\n      revert\n        /* \"#utility.yul\":9758:9943   */\n    tag_68:\n        /* \"#utility.yul\":9798:9799   */\n      0x00\n        /* \"#utility.yul\":9815:9835   */\n      tag_240\n        /* \"#utility.yul\":9833:9834   */\n      dup3\n        /* \"#utility.yul\":9815:9835   */\n      tag_105\n      jump\t// in\n    tag_240:\n        /* \"#utility.yul\":9810:9835   */\n      swap2\n      pop\n        /* \"#utility.yul\":9849:9869   */\n      tag_241\n        /* \"#utility.yul\":9867:9868   */\n      dup4\n        /* \"#utility.yul\":9849:9869   */\n      tag_105\n      jump\t// in\n    tag_241:\n        /* \"#utility.yul\":9844:9869   */\n      swap3\n      pop\n        /* \"#utility.yul\":9888:9889   */\n      dup3\n        /* \"#utility.yul\":9878:9913   */\n      tag_242\n      jumpi\n        /* \"#utility.yul\":9893:9911   */\n      tag_243\n      tag_126\n      jump\t// in\n    tag_243:\n        /* \"#utility.yul\":9878:9913   */\n    tag_242:\n        /* \"#utility.yul\":9935:9936   */\n      dup3\n        /* \"#utility.yul\":9932:9933   */\n      dup3\n        /* \"#utility.yul\":9928:9937   */\n      div\n        /* \"#utility.yul\":9923:9937   */\n      swap1\n      pop\n        /* \"#utility.yul\":9758:9943   */\n      swap3\n      swap2\n      pop\n      pop\n      jump\t// out\n        /* \"#utility.yul\":9949:10281   */\n    tag_70:\n        /* \"#utility.yul\":10070:10074   */\n      0x00\n        /* \"#utility.yul\":10108:10110   */\n      0x40\n        /* \"#utility.yul\":10097:10106   */\n      dup3\n        /* \"#utility.yul\":10093:10111   */\n      add\n        /* \"#utility.yul\":10085:10111   */\n      swap1\n      pop\n        /* \"#utility.yul\":10121:10192   */\n      tag_245\n        /* \"#utility.yul\":10189:10190   */\n      0x00\n        /* \"#utility.yul\":10178:10187   */\n      dup4\n        /* \"#utility.yul\":10174:10191   */\n      add\n        /* \"#utility.yul\":10165:10171   */\n      dup6\n        /* \"#utility.yul\":10121:10192   */\n      tag_99\n      jump\t// in\n    tag_245:\n        /* \"#utility.yul\":10202:10274   */\n      tag_246\n        /* \"#utility.yul\":10270:10272   */\n      0x20\n        /* \"#utility.yul\":10259:10268   */\n      dup4\n        /* \"#utility.yul\":10255:10273   */\n      add\n        /* \"#utility.yul\":10246:10252   */\n      dup5\n        /* \"#utility.yul\":10202:10274   */\n      tag_106\n      jump\t// in\n    tag_246:\n        /* \"#utility.yul\":9949:10281   */\n      swap4\n      swap3\n      pop\n      pop\n      pop\n      jump\t// out\n\n    auxdata: 0xa26469706673582212205fec2aa92dd310800ab0c868dbed0f6ab3bd1711e341448424850d2e36b0251464736f6c634300081c0033\n}\n",
				"bytecode": {
					"linkReferences": {},
					"object": "608060405234801561000f575f5ffd5b5060405161163b38038061163b833981810160405281019061003191906103f1565b845f5f6101000a81548173ffffffffffffffffffffffffffffffffffffffff021916908373ffffffffffffffffffffffffffffffffffffffff1602179055508360015f6101000a81548173ffffffffffffffffffffffffffffffffffffffff021916908373ffffffffffffffffffffffffffffffffffffffff1602179055508260025f6101000a81548173ffffffffffffffffffffffffffffffffffffffff021916908373ffffffffffffffffffffffffffffffffffffffff1602179055505f5f9054906101000a900473ffffffffffffffffffffffffffffffffffffffff1673ffffffffffffffffffffffffffffffffffffffff166340c10f19305f5f9054906101000a900473ffffffffffffffffffffffffffffffffffffffff1673ffffffffffffffffffffffffffffffffffffffff1663a035b1fe6040518163ffffffff1660e01b8152600401602060405180830381865afa158015610196573d5f5f3e3d5ffd5b505050506040513d601f19601f820116820180604052508101906101ba9190610468565b670de0b6b3a7640000866101ce91906104c0565b6101d8919061052e565b6040518363ffffffff1660e01b81526004016101f592919061057c565b5f604051808303815f87803b15801561020c575f5ffd5b505af115801561021e573d5f5f3e3d5ffd5b5050505060015f9054906101000a900473ffffffffffffffffffffffffffffffffffffffff1673ffffffffffffffffffffffffffffffffffffffff166340c10f193060015f9054906101000a900473ffffffffffffffffffffffffffffffffffffffff1673ffffffffffffffffffffffffffffffffffffffff1663a035b1fe6040518163ffffffff1660e01b8152600401602060405180830381865afa1580156102ca573d5f5f3e3d5ffd5b505050506040513d601f19601f820116820180604052508101906102ee9190610468565b670de0b6b3a76400008561030291906104c0565b61030c919061052e565b6040518363ffffffff1660e01b815260040161032992919061057c565b5f604051808303815f87803b158015610340575f5ffd5b505af1158015610352573d5f5f3e3d5ffd5b5050505050505050506105a3565b5f5ffd5b5f73ffffffffffffffffffffffffffffffffffffffff82169050919050565b5f61038d82610364565b9050919050565b61039d81610383565b81146103a7575f5ffd5b50565b5f815190506103b881610394565b92915050565b5f819050919050565b6103d0816103be565b81146103da575f5ffd5b50565b5f815190506103eb816103c7565b92915050565b5f5f5f5f5f60a0868803121561040a57610409610360565b5b5f610417888289016103aa565b9550506020610428888289016103aa565b9450506040610439888289016103aa565b935050606061044a888289016103dd565b925050608061045b888289016103dd565b9150509295509295909350565b5f6020828403121561047d5761047c610360565b5b5f61048a848285016103dd565b91505092915050565b7f4e487b71000000000000000000000000000000000000000000000000000000005f52601160045260245ffd5b5f6104ca826103be565b91506104d5836103be565b92508282026104e3816103be565b915082820484148315176104fa576104f9610493565b5b5092915050565b7f4e487b71000000000000000000000000000000000000000000000000000000005f52601260045260245ffd5b5f610538826103be565b9150610543836103be565b92508261055357610552610501565b5b828204905092915050565b61056781610383565b82525050565b610576816103be565b82525050565b5f60408201905061058f5f83018561055e565b61059c602083018461056d565b9392505050565b61108b806105b05f395ff3fe608060405234801561000f575f5ffd5b506004361061003f575f3560e01c80635a9b0b89146100435780639cd441da14610068578063c037646a14610084575b5f5ffd5b61004b6100a0565b60405161005f989796959493929190610b89565b60405180910390f35b610082600480360381019061007d9190610c4e565b610474565b005b61009e60048036038101906100999190610cc1565b610815565b005b5f60605f5f60605f5f5f5f5f9054906101000a900473ffffffffffffffffffffffffffffffffffffffff1697505f5f9054906101000a900473ffffffffffffffffffffffffffffffffffffffff1673ffffffffffffffffffffffffffffffffffffffff166395d89b416040518163ffffffff1660e01b81526004015f60405180830381865afa158015610135573d5f5f3e3d5ffd5b505050506040513d5f823e3d601f19601f8201168201806040525081019061015d9190610e1d565b96505f5f9054906101000a900473ffffffffffffffffffffffffffffffffffffffff1673ffffffffffffffffffffffffffffffffffffffff1663a035b1fe6040518163ffffffff1660e01b8152600401602060405180830381865afa1580156101c8573d5f5f3e3d5ffd5b505050506040513d601f19601f820116820180604052508101906101ec9190610e78565b955060015f9054906101000a900473ffffffffffffffffffffffffffffffffffffffff16945060015f9054906101000a900473ffffffffffffffffffffffffffffffffffffffff1673ffffffffffffffffffffffffffffffffffffffff166395d89b416040518163ffffffff1660e01b81526004015f60405180830381865afa15801561027b573d5f5f3e3d5ffd5b505050506040513d5f823e3d601f19601f820116820180604052508101906102a39190610e1d565b935060015f9054906101000a900473ffffffffffffffffffffffffffffffffffffffff1673ffffffffffffffffffffffffffffffffffffffff1663a035b1fe6040518163ffffffff1660e01b8152600401602060405180830381865afa15801561030f573d5f5f3e3d5ffd5b505050506040513d601f19601f820116820180604052508101906103339190610e78565b92505f5f9054906101000a900473ffffffffffffffffffffffffffffffffffffffff1673ffffffffffffffffffffffffffffffffffffffff166370a08231306040518263ffffffff1660e01b815260040161038e9190610ea3565b602060405180830381865afa1580156103a9573d5f5f3e3d5ffd5b505050506040513d601f19601f820116820180604052508101906103cd9190610e78565b915060015f9054906101000a900473ffffffffffffffffffffffffffffffffffffffff1673ffffffffffffffffffffffffffffffffffffffff166370a08231306040518263ffffffff1660e01b81526004016104299190610ea3565b602060405180830381865afa158015610444573d5f5f3e3d5ffd5b505050506040513d601f19601f820116820180604052508101906104689190610e78565b90509091929394959697565b5f5f9054906101000a900473ffffffffffffffffffffffffffffffffffffffff1673ffffffffffffffffffffffffffffffffffffffff166323b872dd3330856040518463ffffffff1660e01b81526004016104d193929190610ebc565b6020604051808303815f875af11580156104ed573d5f5f3e3d5ffd5b505050506040513d601f19601f820116820180604052508101906105119190610f05565b5060015f9054906101000a900473ffffffffffffffffffffffffffffffffffffffff1673ffffffffffffffffffffffffffffffffffffffff166323b872dd3330846040518463ffffffff1660e01b815260040161057093929190610ebc565b6020604051808303815f875af115801561058c573d5f5f3e3d5ffd5b505050506040513d601f19601f820116820180604052508101906105b09190610f05565b505f60025f9054906101000a900473ffffffffffffffffffffffffffffffffffffffff1673ffffffffffffffffffffffffffffffffffffffff1663a035b1fe6040518163ffffffff1660e01b8152600401602060405180830381865afa15801561061c573d5f5f3e3d5ffd5b505050506040513d601f19601f820116820180604052508101906106409190610e78565b8260015f9054906101000a900473ffffffffffffffffffffffffffffffffffffffff1673ffffffffffffffffffffffffffffffffffffffff1663a035b1fe6040518163ffffffff1660e01b8152600401602060405180830381865afa1580156106ab573d5f5f3e3d5ffd5b505050506040513d601f19601f820116820180604052508101906106cf9190610e78565b6106d99190610f5d565b845f5f9054906101000a900473ffffffffffffffffffffffffffffffffffffffff1673ffffffffffffffffffffffffffffffffffffffff1663a035b1fe6040518163ffffffff1660e01b8152600401602060405180830381865afa158015610743573d5f5f3e3d5ffd5b505050506040513d601f19601f820116820180604052508101906107679190610e78565b6107719190610f5d565b61077b9190610f9e565b6107859190610ffe565b905060025f9054906101000a900473ffffffffffffffffffffffffffffffffffffffff1673ffffffffffffffffffffffffffffffffffffffff166340c10f1933836040518363ffffffff1660e01b81526004016107e392919061102e565b5f604051808303815f87803b1580156107fa575f5ffd5b505af115801561080c573d5f5f3e3d5ffd5b50505050505050565b5f826108425760015f9054906101000a900473ffffffffffffffffffffffffffffffffffffffff16610864565b5f5f9054906101000a900473ffffffffffffffffffffffffffffffffffffffff165b90505f83610892575f5f9054906101000a900473ffffffffffffffffffffffffffffffffffffffff166108b5565b60015f9054906101000a900473ffffffffffffffffffffffffffffffffffffffff165b90505f8273ffffffffffffffffffffffffffffffffffffffff166370a08231306040518263ffffffff1660e01b81526004016108f19190610ea3565b602060405180830381865afa15801561090c573d5f5f3e3d5ffd5b505050506040513d601f19601f820116820180604052508101906109309190610e78565b8273ffffffffffffffffffffffffffffffffffffffff166370a08231306040518263ffffffff1660e01b81526004016109699190610ea3565b602060405180830381865afa158015610984573d5f5f3e3d5ffd5b505050506040513d601f19601f820116820180604052508101906109a89190610e78565b856109b39190610f5d565b6109bd9190610ffe565b90508273ffffffffffffffffffffffffffffffffffffffff166323b872dd3330876040518463ffffffff1660e01b81526004016109fc93929190610ebc565b6020604051808303815f875af1158015610a18573d5f5f3e3d5ffd5b505050506040513d601f19601f82011682018060405250810190610a3c9190610f05565b508173ffffffffffffffffffffffffffffffffffffffff166323b872dd3033846040518463ffffffff1660e01b8152600401610a7a93929190610ebc565b6020604051808303815f875af1158015610a96573d5f5f3e3d5ffd5b505050506040513d601f19601f82011682018060405250810190610aba9190610f05565b505050505050565b5f73ffffffffffffffffffffffffffffffffffffffff82169050919050565b5f610aeb82610ac2565b9050919050565b610afb81610ae1565b82525050565b5f81519050919050565b5f82825260208201905092915050565b8281835e5f83830152505050565b5f601f19601f8301169050919050565b5f610b4382610b01565b610b4d8185610b0b565b9350610b5d818560208601610b1b565b610b6681610b29565b840191505092915050565b5f819050919050565b610b8381610b71565b82525050565b5f61010082019050610b9d5f83018b610af2565b8181036020830152610baf818a610b39565b9050610bbe6040830189610b7a565b610bcb6060830188610af2565b8181036080830152610bdd8187610b39565b9050610bec60a0830186610b7a565b610bf960c0830185610b7a565b610c0660e0830184610b7a565b9998505050505050505050565b5f604051905090565b5f5ffd5b5f5ffd5b610c2d81610b71565b8114610c37575f5ffd5b50565b5f81359050610c4881610c24565b92915050565b5f5f60408385031215610c6457610c63610c1c565b5b5f610c7185828601610c3a565b9250506020610c8285828601610c3a565b9150509250929050565b5f8115159050919050565b610ca081610c8c565b8114610caa575f5ffd5b50565b5f81359050610cbb81610c97565b92915050565b5f5f60408385031215610cd757610cd6610c1c565b5b5f610ce485828601610cad565b9250506020610cf585828601610c3a565b9150509250929050565b5f5ffd5b5f5ffd5b7f4e487b71000000000000000000000000000000000000000000000000000000005f52604160045260245ffd5b610d3d82610b29565b810181811067ffffffffffffffff82111715610d5c57610d5b610d07565b5b80604052505050565b5f610d6e610c13565b9050610d7a8282610d34565b919050565b5f67ffffffffffffffff821115610d9957610d98610d07565b5b610da282610b29565b9050602081019050919050565b5f610dc1610dbc84610d7f565b610d65565b905082815260208101848484011115610ddd57610ddc610d03565b5b610de8848285610b1b565b509392505050565b5f82601f830112610e0457610e03610cff565b5b8151610e14848260208601610daf565b91505092915050565b5f60208284031215610e3257610e31610c1c565b5b5f82015167ffffffffffffffff811115610e4f57610e4e610c20565b5b610e5b84828501610df0565b91505092915050565b5f81519050610e7281610c24565b92915050565b5f60208284031215610e8d57610e8c610c1c565b5b5f610e9a84828501610e64565b91505092915050565b5f602082019050610eb65f830184610af2565b92915050565b5f606082019050610ecf5f830186610af2565b610edc6020830185610af2565b610ee96040830184610b7a565b949350505050565b5f81519050610eff81610c97565b92915050565b5f60208284031215610f1a57610f19610c1c565b5b5f610f2784828501610ef1565b91505092915050565b7f4e487b71000000000000000000000000000000000000000000000000000000005f52601160045260245ffd5b5f610f6782610b71565b9150610f7283610b71565b9250828202610f8081610b71565b91508282048414831517610f9757610f96610f30565b5b5092915050565b5f610fa882610b71565b9150610fb383610b71565b9250828201905080821115610fcb57610fca610f30565b5b92915050565b7f4e487b71000000000000000000000000000000000000000000000000000000005f52601260045260245ffd5b5f61100882610b71565b915061101383610b71565b92508261102357611022610fd1565b5b828204905092915050565b5f6040820190506110415f830185610af2565b61104e6020830184610b7a565b939250505056fea26469706673582212205fec2aa92dd310800ab0c868dbed0f6ab3bd1711e341448424850d2e36b0251464736f6c634300081c0033",
					"opcodes": "PUSH1 0x80 PUSH1 0x40 MSTORE CALLVALUE DUP1 ISZERO PUSH2 0xF JUMPI PUSH0 PUSH0 REVERT JUMPDEST POP PUSH1 0x40 MLOAD PUSH2 0x163B CODESIZE SUB DUP1 PUSH2 0x163B DUP4 CODECOPY DUP2 DUP2 ADD PUSH1 0x40 MSTORE DUP2 ADD SWAP1 PUSH2 0x31 SWAP2 SWAP1 PUSH2 0x3F1 JUMP JUMPDEST DUP5 PUSH0 PUSH0 PUSH2 0x100 EXP DUP2 SLOAD DUP2 PUSH20 0xFFFFFFFFFFFFFFFFFFFFFFFFFFFFFFFFFFFFFFFF MUL NOT AND SWAP1 DUP4 PUSH20 0xFFFFFFFFFFFFFFFFFFFFFFFFFFFFFFFFFFFFFFFF AND MUL OR SWAP1 SSTORE POP DUP4 PUSH1 0x1 PUSH0 PUSH2 0x100 EXP DUP2 SLOAD DUP2 PUSH20 0xFFFFFFFFFFFFFFFFFFFFFFFFFFFFFFFFFFFFFFFF MUL NOT AND SWAP1 DUP4 PUSH20 0xFFFFFFFFFFFFFFFFFFFFFFFFFFFFFFFFFFFFFFFF AND MUL OR SWAP1 SSTORE POP DUP3 PUSH1 0x2 PUSH0 PUSH2 0x100 EXP DUP2 SLOAD DUP2 PUSH20 0xFFFFFFFFFFFFFFFFFFFFFFFFFFFFFFFFFFFFFFFF MUL NOT AND SWAP1 DUP4 PUSH20 0xFFFFFFFFFFFFFFFFFFFFFFFFFFFFFFFFFFFFFFFF AND MUL OR SWAP1 SSTORE POP PUSH0 PUSH0 SWAP1 SLOAD SWAP1 PUSH2 0x100 EXP SWAP1 DIV PUSH20 0xFFFFFFFFFFFFFFFFFFFFFFFFFFFFFFFFFFFFFFFF AND PUSH20 0xFFFFFFFFFFFFFFFFFFFFFFFFFFFFFFFFFFFFFFFF AND PUSH4 0x40C10F19 ADDRESS PUSH0 PUSH0 SWAP1 SLOAD SWAP1 PUSH2 0x100 EXP SWAP1 DIV PUSH20 0xFFFFFFFFFFFFFFFFFFFFFFFFFFFFFFFFFFFFFFFF AND PUSH20 0xFFFFFFFFFFFFFFFFFFFFFFFFFFFFFFFFFFFFFFFF AND PUSH4 0xA035B1FE PUSH1 0x40 MLOAD DUP2 PUSH4 0xFFFFFFFF AND PUSH1 0xE0 SHL DUP2 MSTORE PUSH1 0x4 ADD PUSH1 0x20 PUSH1 0x40 MLOAD DUP1 DUP4 SUB DUP2 DUP7 GAS STATICCALL ISZERO DUP1 ISZERO PUSH2 0x196 JUMPI RETURNDATASIZE PUSH0 PUSH0 RETURNDATACOPY RETURNDATASIZE PUSH0 REVERT JUMPDEST POP POP POP POP PUSH1 0x40 MLOAD RETURNDATASIZE PUSH1 0x1F NOT PUSH1 0x1F DUP3 ADD AND DUP3 ADD DUP1 PUSH1 0x40 MSTORE POP DUP2 ADD SWAP1 PUSH2 0x1BA SWAP2 SWAP1 PUSH2 0x468 JUMP JUMPDEST PUSH8 0xDE0B6B3A7640000 DUP7 PUSH2 0x1CE SWAP2 SWAP1 PUSH2 0x4C0 JUMP JUMPDEST PUSH2 0x1D8 SWAP2 SWAP1 PUSH2 0x52E JUMP JUMPDEST PUSH1 0x40 MLOAD DUP4 PUSH4 0xFFFFFFFF AND PUSH1 0xE0 SHL DUP2 MSTORE PUSH1 0x4 ADD PUSH2 0x1F5 SWAP3 SWAP2 SWAP1 PUSH2 0x57C JUMP JUMPDEST PUSH0 PUSH1 0x40 MLOAD DUP1 DUP4 SUB DUP2 PUSH0 DUP8 DUP1 EXTCODESIZE ISZERO DUP1 ISZERO PUSH2 0x20C JUMPI PUSH0 PUSH0 REVERT JUMPDEST POP GAS CALL ISZERO DUP1 ISZERO PUSH2 0x21E JUMPI RETURNDATASIZE PUSH0 PUSH0 RETURNDATACOPY RETURNDATASIZE PUSH0 REVERT JUMPDEST POP POP POP POP PUSH1 0x1 PUSH0 SWAP1 SLOAD SWAP1 PUSH2 0x100 EXP SWAP1 DIV PUSH20 0xFFFFFFFFFFFFFFFFFFFFFFFFFFFFFFFFFFFFFFFF AND PUSH20 0xFFFFFFFFFFFFFFFFFFFFFFFFFFFFFFFFFFFFFFFF AND PUSH4 0x40C10F19 ADDRESS PUSH1 0x1 PUSH0 SWAP1 SLOAD SWAP1 PUSH2 0x100 EXP SWAP1 DIV PUSH20 0xFFFFFFFFFFFFFFFFFFFFFFFFFFFFFFFFFFFFFFFF AND PUSH20 0xFFFFFFFFFFFFFFFFFFFFFFFFFFFFFFFFFFFFFFFF AND PUSH4 0xA035B1FE PUSH1 0x40 MLOAD DUP2 PUSH4 0xFFFFFFFF AND PUSH1 0xE0 SHL DUP2 MSTORE PUSH1 0x4 ADD PUSH1 0x20 PUSH1 0x40 MLOAD DUP1 DUP4 SUB DUP2 DUP7 GAS STATICCALL ISZERO DUP1 ISZERO PUSH2 0x2CA JUMPI RETURNDATASIZE PUSH0 PUSH0 RETURNDATACOPY RETURNDATASIZE PUSH0 REVERT JUMPDEST POP POP POP POP PUSH1 0x40 MLOAD RETURNDATASIZE PUSH1 0x1F NOT PUSH1 0x1F DUP3 ADD AND DUP3 ADD DUP1 PUSH1 0x40 MSTORE POP DUP2 ADD SWAP1 PUSH2 0x2EE SWAP2 SWAP1 PUSH2 0x468 JUMP JUMPDEST PUSH8 0xDE0B6B3A7640000 DUP6 PUSH2 0x302 SWAP2 SWAP1 PUSH2 0x4C0 JUMP JUMPDEST PUSH2 0x30C SWAP2 SWAP1 PUSH2 0x52E JUMP JUMPDEST PUSH1 0x40 MLOAD DUP4 PUSH4 0xFFFFFFFF AND PUSH1 0xE0 SHL DUP2 MSTORE PUSH1 0x4 ADD PUSH2 0x329 SWAP3 SWAP2 SWAP1 PUSH2 0x57C JUMP JUMPDEST PUSH0 PUSH1 0x40 MLOAD DUP1 DUP4 SUB DUP2 PUSH0 DUP8 DUP1 EXTCODESIZE ISZERO DUP1 ISZERO PUSH2 0x340 JUMPI PUSH0 PUSH0 REVERT JUMPDEST POP GAS CALL ISZERO DUP1 ISZERO PUSH2 0x352 JUMPI RETURNDATASIZE PUSH0 PUSH0 RETURNDATACOPY RETURNDATASIZE PUSH0 REVERT JUMPDEST POP POP POP POP POP POP POP POP POP PUSH2 0x5A3 JUMP JUMPDEST PUSH0 PUSH0 REVERT JUMPDEST PUSH0 PUSH20 0xFFFFFFFFFFFFFFFFFFFFFFFFFFFFFFFFFFFFFFFF DUP3 AND SWAP1 POP SWAP2 SWAP1 POP JUMP JUMPDEST PUSH0 PUSH2 0x38D DUP3 PUSH2 0x364 JUMP JUMPDEST SWAP1 POP SWAP2 SWAP1 POP JUMP JUMPDEST PUSH2 0x39D DUP2 PUSH2 0x383 JUMP JUMPDEST DUP2 EQ PUSH2 0x3A7 JUMPI PUSH0 PUSH0 REVERT JUMPDEST POP JUMP JUMPDEST PUSH0 DUP2 MLOAD SWAP1 POP PUSH2 0x3B8 DUP2 PUSH2 0x394 JUMP JUMPDEST SWAP3 SWAP2 POP POP JUMP JUMPDEST PUSH0 DUP2 SWAP1 POP SWAP2 SWAP1 POP JUMP JUMPDEST PUSH2 0x3D0 DUP2 PUSH2 0x3BE JUMP JUMPDEST DUP2 EQ PUSH2 0x3DA JUMPI PUSH0 PUSH0 REVERT JUMPDEST POP JUMP JUMPDEST PUSH0 DUP2 MLOAD SWAP1 POP PUSH2 0x3EB DUP2 PUSH2 0x3C7 JUMP JUMPDEST SWAP3 SWAP2 POP POP JUMP JUMPDEST PUSH0 PUSH0 PUSH0 PUSH0 PUSH0 PUSH1 0xA0 DUP7 DUP9 SUB SLT ISZERO PUSH2 0x40A JUMPI PUSH2 0x409 PUSH2 0x360 JUMP JUMPDEST JUMPDEST PUSH0 PUSH2 0x417 DUP9 DUP3 DUP10 ADD PUSH2 0x3AA JUMP JUMPDEST SWAP6 POP POP PUSH1 0x20 PUSH2 0x428 DUP9 DUP3 DUP10 ADD PUSH2 0x3AA JUMP JUMPDEST SWAP5 POP POP PUSH1 0x40 PUSH2 0x439 DUP9 DUP3 DUP10 ADD PUSH2 0x3AA JUMP JUMPDEST SWAP4 POP POP PUSH1 0x60 PUSH2 0x44A DUP9 DUP3 DUP10 ADD PUSH2 0x3DD JUMP JUMPDEST SWAP3 POP POP PUSH1 0x80 PUSH2 0x45B DUP9 DUP3 DUP10 ADD PUSH2 0x3DD JUMP JUMPDEST SWAP2 POP POP SWAP3 SWAP6 POP SWAP3 SWAP6 SWAP1 SWAP4 POP JUMP JUMPDEST PUSH0 PUSH1 0x20 DUP3 DUP5 SUB SLT ISZERO PUSH2 0x47D JUMPI PUSH2 0x47C PUSH2 0x360 JUMP JUMPDEST JUMPDEST PUSH0 PUSH2 0x48A DUP5 DUP3 DUP6 ADD PUSH2 0x3DD JUMP JUMPDEST SWAP2 POP POP SWAP3 SWAP2 POP POP JUMP JUMPDEST PUSH32 0x4E487B7100000000000000000000000000000000000000000000000000000000 PUSH0 MSTORE PUSH1 0x11 PUSH1 0x4 MSTORE PUSH1 0x24 PUSH0 REVERT JUMPDEST PUSH0 PUSH2 0x4CA DUP3 PUSH2 0x3BE JUMP JUMPDEST SWAP2 POP PUSH2 0x4D5 DUP4 PUSH2 0x3BE JUMP JUMPDEST SWAP3 POP DUP3 DUP3 MUL PUSH2 0x4E3 DUP2 PUSH2 0x3BE JUMP JUMPDEST SWAP2 POP DUP3 DUP3 DIV DUP5 EQ DUP4 ISZERO OR PUSH2 0x4FA JUMPI PUSH2 0x4F9 PUSH2 0x493 JUMP JUMPDEST JUMPDEST POP SWAP3 SWAP2 POP POP JUMP JUMPDEST PUSH32 0x4E487B7100000000000000000000000000000000000000000000000000000000 PUSH0 MSTORE PUSH1 0x12 PUSH1 0x4 MSTORE PUSH1 0x24 PUSH0 REVERT JUMPDEST PUSH0 PUSH2 0x538 DUP3 PUSH2 0x3BE JUMP JUMPDEST SWAP2 POP PUSH2 0x543 DUP4 PUSH2 0x3BE JUMP JUMPDEST SWAP3 POP DUP3 PUSH2 0x553 JUMPI PUSH2 0x552 PUSH2 0x501 JUMP JUMPDEST JUMPDEST DUP3 DUP3 DIV SWAP1 POP SWAP3 SWAP2 POP POP JUMP JUMPDEST PUSH2 0x567 DUP2 PUSH2 0x383 JUMP JUMPDEST DUP3 MSTORE POP POP JUMP JUMPDEST PUSH2 0x576 DUP2 PUSH2 0x3BE JUMP JUMPDEST DUP3 MSTORE POP POP JUMP JUMPDEST PUSH0 PUSH1 0x40 DUP3 ADD SWAP1 POP PUSH2 0x58F PUSH0 DUP4 ADD DUP6 PUSH2 0x55E JUMP JUMPDEST PUSH2 0x59C PUSH1 0x20 DUP4 ADD DUP5 PUSH2 0x56D JUMP JUMPDEST SWAP4 SWAP3 POP POP POP JUMP JUMPDEST PUSH2 0x108B DUP1 PUSH2 0x5B0 PUSH0 CODECOPY PUSH0 RETURN INVALID PUSH1 0x80 PUSH1 0x40 MSTORE CALLVALUE DUP1 ISZERO PUSH2 0xF JUMPI PUSH0 PUSH0 REVERT JUMPDEST POP PUSH1 0x4 CALLDATASIZE LT PUSH2 0x3F JUMPI PUSH0 CALLDATALOAD PUSH1 0xE0 SHR DUP1 PUSH4 0x5A9B0B89 EQ PUSH2 0x43 JUMPI DUP1 PUSH4 0x9CD441DA EQ PUSH2 0x68 JUMPI DUP1 PUSH4 0xC037646A EQ PUSH2 0x84 JUMPI JUMPDEST PUSH0 PUSH0 REVERT JUMPDEST PUSH2 0x4B PUSH2 0xA0 JUMP JUMPDEST PUSH1 0x40 MLOAD PUSH2 0x5F SWAP9 SWAP8 SWAP7 SWAP6 SWAP5 SWAP4 SWAP3 SWAP2 SWAP1 PUSH2 0xB89 JUMP JUMPDEST PUSH1 0x40 MLOAD DUP1 SWAP2 SUB SWAP1 RETURN JUMPDEST PUSH2 0x82 PUSH1 0x4 DUP1 CALLDATASIZE SUB DUP2 ADD SWAP1 PUSH2 0x7D SWAP2 SWAP1 PUSH2 0xC4E JUMP JUMPDEST PUSH2 0x474 JUMP JUMPDEST STOP JUMPDEST PUSH2 0x9E PUSH1 0x4 DUP1 CALLDATASIZE SUB DUP2 ADD SWAP1 PUSH2 0x99 SWAP2 SWAP1 PUSH2 0xCC1 JUMP JUMPDEST PUSH2 0x815 JUMP JUMPDEST STOP JUMPDEST PUSH0 PUSH1 0x60 PUSH0 PUSH0 PUSH1 0x60 PUSH0 PUSH0 PUSH0 PUSH0 PUSH0 SWAP1 SLOAD SWAP1 PUSH2 0x100 EXP SWAP1 DIV PUSH20 0xFFFFFFFFFFFFFFFFFFFFFFFFFFFFFFFFFFFFFFFF AND SWAP8 POP PUSH0 PUSH0 SWAP1 SLOAD SWAP1 PUSH2 0x100 EXP SWAP1 DIV PUSH20 0xFFFFFFFFFFFFFFFFFFFFFFFFFFFFFFFFFFFFFFFF AND PUSH20 0xFFFFFFFFFFFFFFFFFFFFFFFFFFFFFFFFFFFFFFFF AND PUSH4 0x95D89B41 PUSH1 0x40 MLOAD DUP2 PUSH4 0xFFFFFFFF AND PUSH1 0xE0 SHL DUP2 MSTORE PUSH1 0x4 ADD PUSH0 PUSH1 0x40 MLOAD DUP1 DUP4 SUB DUP2 DUP7 GAS STATICCALL ISZERO DUP1 ISZERO PUSH2 0x135 JUMPI RETURNDATASIZE PUSH0 PUSH0 RETURNDATACOPY RETURNDATASIZE PUSH0 REVERT JUMPDEST POP POP POP POP PUSH1 0x40 MLOAD RETURNDATASIZE PUSH0 DUP3 RETURNDATACOPY RETURNDATASIZE PUSH1 0x1F NOT PUSH1 0x1F DUP3 ADD AND DUP3 ADD DUP1 PUSH1 0x40 MSTORE POP DUP2 ADD SWAP1 PUSH2 0x15D SWAP2 SWAP1 PUSH2 0xE1D JUMP JUMPDEST SWAP7 POP PUSH0 PUSH0 SWAP1 SLOAD SWAP1 PUSH2 0x100 EXP SWAP1 DIV PUSH20 0xFFFFFFFFFFFFFFFFFFFFFFFFFFFFFFFFFFFFFFFF AND PUSH20 0xFFFFFFFFFFFFFFFFFFFFFFFFFFFFFFFFFFFFFFFF AND PUSH4 0xA035B1FE PUSH1 0x40 MLOAD DUP2 PUSH4 0xFFFFFFFF AND PUSH1 0xE0 SHL DUP2 MSTORE PUSH1 0x4 ADD PUSH1 0x20 PUSH1 0x40 MLOAD DUP1 DUP4 SUB DUP2 DUP7 GAS STATICCALL ISZERO DUP1 ISZERO PUSH2 0x1C8 JUMPI RETURNDATASIZE PUSH0 PUSH0 RETURNDATACOPY RETURNDATASIZE PUSH0 REVERT JUMPDEST POP POP POP POP PUSH1 0x40 MLOAD RETURNDATASIZE PUSH1 0x1F NOT PUSH1 0x1F DUP3 ADD AND DUP3 ADD DUP1 PUSH1 0x40 MSTORE POP DUP2 ADD SWAP1 PUSH2 0x1EC SWAP2 SWAP1 PUSH2 0xE78 JUMP JUMPDEST SWAP6 POP PUSH1 0x1 PUSH0 SWAP1 SLOAD SWAP1 PUSH2 0x100 EXP SWAP1 DIV PUSH20 0xFFFFFFFFFFFFFFFFFFFFFFFFFFFFFFFFFFFFFFFF AND SWAP5 POP PUSH1 0x1 PUSH0 SWAP1 SLOAD SWAP1 PUSH2 0x100 EXP SWAP1 DIV PUSH20 0xFFFFFFFFFFFFFFFFFFFFFFFFFFFFFFFFFFFFFFFF AND PUSH20 0xFFFFFFFFFFFFFFFFFFFFFFFFFFFFFFFFFFFFFFFF AND PUSH4 0x95D89B41 PUSH1 0x40 MLOAD DUP2 PUSH4 0xFFFFFFFF AND PUSH1 0xE0 SHL DUP2 MSTORE PUSH1 0x4 ADD PUSH0 PUSH1 0x40 MLOAD DUP1 DUP4 SUB DUP2 DUP7 GAS STATICCALL ISZERO DUP1 ISZERO PUSH2 0x27B JUMPI RETURNDATASIZE PUSH0 PUSH0 RETURNDATACOPY RETURNDATASIZE PUSH0 REVERT JUMPDEST POP POP POP POP PUSH1 0x40 MLOAD RETURNDATASIZE PUSH0 DUP3 RETURNDATACOPY RETURNDATASIZE PUSH1 0x1F NOT PUSH1 0x1F DUP3 ADD AND DUP3 ADD DUP1 PUSH1 0x40 MSTORE POP DUP2 ADD SWAP1 PUSH2 0x2A3 SWAP2 SWAP1 PUSH2 0xE1D JUMP JUMPDEST SWAP4 POP PUSH1 0x1 PUSH0 SWAP1 SLOAD SWAP1 PUSH2 0x100 EXP SWAP1 DIV PUSH20 0xFFFFFFFFFFFFFFFFFFFFFFFFFFFFFFFFFFFFFFFF AND PUSH20 0xFFFFFFFFFFFFFFFFFFFFFFFFFFFFFFFFFFFFFFFF AND PUSH4 0xA035B1FE PUSH1 0x40 MLOAD DUP2 PUSH4 0xFFFFFFFF AND PUSH1 0xE0 SHL DUP2 MSTORE PUSH1 0x4 ADD PUSH1 0x20 PUSH1 0x40 MLOAD DUP1 DUP4 SUB DUP2 DUP7 GAS STATICCALL ISZERO DUP1 ISZERO PUSH2 0x30F JUMPI RETURNDATASIZE PUSH0 PUSH0 RETURNDATACOPY RETURNDATASIZE PUSH0 REVERT JUMPDEST POP POP POP POP PUSH1 0x40 MLOAD RETURNDATASIZE PUSH1 0x1F NOT PUSH1 0x1F DUP3 ADD AND DUP3 ADD DUP1 PUSH1 0x40 MSTORE POP DUP2 ADD SWAP1 PUSH2 0x333 SWAP2 SWAP1 PUSH2 0xE78 JUMP JUMPDEST SWAP3 POP PUSH0 PUSH0 SWAP1 SLOAD SWAP1 PUSH2 0x100 EXP SWAP1 DIV PUSH20 0xFFFFFFFFFFFFFFFFFFFFFFFFFFFFFFFFFFFFFFFF AND PUSH20 0xFFFFFFFFFFFFFFFFFFFFFFFFFFFFFFFFFFFFFFFF AND PUSH4 0x70A08231 ADDRESS PUSH1 0x40 MLOAD DUP3 PUSH4 0xFFFFFFFF AND PUSH1 0xE0 SHL DUP2 MSTORE PUSH1 0x4 ADD PUSH2 0x38E SWAP2 SWAP1 PUSH2 0xEA3 JUMP JUMPDEST PUSH1 0x20 PUSH1 0x40 MLOAD DUP1 DUP4 SUB DUP2 DUP7 GAS STATICCALL ISZERO DUP1 ISZERO PUSH2 0x3A9 JUMPI RETURNDATASIZE PUSH0 PUSH0 RETURNDATACOPY RETURNDATASIZE PUSH0 REVERT JUMPDEST POP POP POP POP PUSH1 0x40 MLOAD RETURNDATASIZE PUSH1 0x1F NOT PUSH1 0x1F DUP3 ADD AND DUP3 ADD DUP1 PUSH1 0x40 MSTORE POP DUP2 ADD SWAP1 PUSH2 0x3CD SWAP2 SWAP1 PUSH2 0xE78 JUMP JUMPDEST SWAP2 POP PUSH1 0x1 PUSH0 SWAP1 SLOAD SWAP1 PUSH2 0x100 EXP SWAP1 DIV PUSH20 0xFFFFFFFFFFFFFFFFFFFFFFFFFFFFFFFFFFFFFFFF AND PUSH20 0xFFFFFFFFFFFFFFFFFFFFFFFFFFFFFFFFFFFFFFFF AND PUSH4 0x70A08231 ADDRESS PUSH1 0x40 MLOAD DUP3 PUSH4 0xFFFFFFFF AND PUSH1 0xE0 SHL DUP2 MSTORE PUSH1 0x4 ADD PUSH2 0x429 SWAP2 SWAP1 PUSH2 0xEA3 JUMP JUMPDEST PUSH1 0x20 PUSH1 0x40 MLOAD DUP1 DUP4 SUB DUP2 DUP7 GAS STATICCALL ISZERO DUP1 ISZERO PUSH2 0x444 JUMPI RETURNDATASIZE PUSH0 PUSH0 RETURNDATACOPY RETURNDATASIZE PUSH0 REVERT JUMPDEST POP POP POP POP PUSH1 0x40 MLOAD RETURNDATASIZE PUSH1 0x1F NOT PUSH1 0x1F DUP3 ADD AND DUP3 ADD DUP1 PUSH1 0x40 MSTORE POP DUP2 ADD SWAP1 PUSH2 0x468 SWAP2 SWAP1 PUSH2 0xE78 JUMP JUMPDEST SWAP1 POP SWAP1 SWAP2 SWAP3 SWAP4 SWAP5 SWAP6 SWAP7 SWAP8 JUMP JUMPDEST PUSH0 PUSH0 SWAP1 SLOAD SWAP1 PUSH2 0x100 EXP SWAP1 DIV PUSH20 0xFFFFFFFFFFFFFFFFFFFFFFFFFFFFFFFFFFFFFFFF AND PUSH20 0xFFFFFFFFFFFFFFFFFFFFFFFFFFFFFFFFFFFFFFFF AND PUSH4 0x23B872DD CALLER ADDRESS DUP6 PUSH1 0x40 MLOAD DUP5 PUSH4 0xFFFFFFFF AND PUSH1 0xE0 SHL DUP2 MSTORE PUSH1 0x4 ADD PUSH2 0x4D1 SWAP4 SWAP3 SWAP2 SWAP1 PUSH2 0xEBC JUMP JUMPDEST PUSH1 0x20 PUSH1 0x40 MLOAD DUP1 DUP4 SUB DUP2 PUSH0 DUP8 GAS CALL ISZERO DUP1 ISZERO PUSH2 0x4ED JUMPI RETURNDATASIZE PUSH0 PUSH0 RETURNDATACOPY RETURNDATASIZE PUSH0 REVERT JUMPDEST POP POP POP POP PUSH1 0x40 MLOAD RETURNDATASIZE PUSH1 0x1F NOT PUSH1 0x1F DUP3 ADD AND DUP3 ADD DUP1 PUSH1 0x40 MSTORE POP DUP2 ADD SWAP1 PUSH2 0x511 SWAP2 SWAP1 PUSH2 0xF05 JUMP JUMPDEST POP PUSH1 0x1 PUSH0 SWAP1 SLOAD SWAP1 PUSH2 0x100 EXP SWAP1 DIV PUSH20 0xFFFFFFFFFFFFFFFFFFFFFFFFFFFFFFFFFFFFFFFF AND PUSH20 0xFFFFFFFFFFFFFFFFFFFFFFFFFFFFFFFFFFFFFFFF AND PUSH4 0x23B872DD CALLER ADDRESS DUP5 PUSH1 0x40 MLOAD DUP5 PUSH4 0xFFFFFFFF AND PUSH1 0xE0 SHL DUP2 MSTORE PUSH1 0x4 ADD PUSH2 0x570 SWAP4 SWAP3 SWAP2 SWAP1 PUSH2 0xEBC JUMP JUMPDEST PUSH1 0x20 PUSH1 0x40 MLOAD DUP1 DUP4 SUB DUP2 PUSH0 DUP8 GAS CALL ISZERO DUP1 ISZERO PUSH2 0x58C JUMPI RETURNDATASIZE PUSH0 PUSH0 RETURNDATACOPY RETURNDATASIZE PUSH0 REVERT JUMPDEST POP POP POP POP PUSH1 0x40 MLOAD RETURNDATASIZE PUSH1 0x1F NOT PUSH1 0x1F DUP3 ADD AND DUP3 ADD DUP1 PUSH1 0x40 MSTORE POP DUP2 ADD SWAP1 PUSH2 0x5B0 SWAP2 SWAP1 PUSH2 0xF05 JUMP JUMPDEST POP PUSH0 PUSH1 0x2 PUSH0 SWAP1 SLOAD SWAP1 PUSH2 0x100 EXP SWAP1 DIV PUSH20 0xFFFFFFFFFFFFFFFFFFFFFFFFFFFFFFFFFFFFFFFF AND PUSH20 0xFFFFFFFFFFFFFFFFFFFFFFFFFFFFFFFFFFFFFFFF AND PUSH4 0xA035B1FE PUSH1 0x40 MLOAD DUP2 PUSH4 0xFFFFFFFF AND PUSH1 0xE0 SHL DUP2 MSTORE PUSH1 0x4 ADD PUSH1 0x20 PUSH1 0x40 MLOAD DUP1 DUP4 SUB DUP2 DUP7 GAS STATICCALL ISZERO DUP1 ISZERO PUSH2 0x61C JUMPI RETURNDATASIZE PUSH0 PUSH0 RETURNDATACOPY RETURNDATASIZE PUSH0 REVERT JUMPDEST POP POP POP POP PUSH1 0x40 MLOAD RETURNDATASIZE PUSH1 0x1F NOT PUSH1 0x1F DUP3 ADD AND DUP3 ADD DUP1 PUSH1 0x40 MSTORE POP DUP2 ADD SWAP1 PUSH2 0x640 SWAP2 SWAP1 PUSH2 0xE78 JUMP JUMPDEST DUP3 PUSH1 0x1 PUSH0 SWAP1 SLOAD SWAP1 PUSH2 0x100 EXP SWAP1 DIV PUSH20 0xFFFFFFFFFFFFFFFFFFFFFFFFFFFFFFFFFFFFFFFF AND PUSH20 0xFFFFFFFFFFFFFFFFFFFFFFFFFFFFFFFFFFFFFFFF AND PUSH4 0xA035B1FE PUSH1 0x40 MLOAD DUP2 PUSH4 0xFFFFFFFF AND PUSH1 0xE0 SHL DUP2 MSTORE PUSH1 0x4 ADD PUSH1 0x20 PUSH1 0x40 MLOAD DUP1 DUP4 SUB DUP2 DUP7 GAS STATICCALL ISZERO DUP1 ISZERO PUSH2 0x6AB JUMPI RETURNDATASIZE PUSH0 PUSH0 RETURNDATACOPY RETURNDATASIZE PUSH0 REVERT JUMPDEST POP POP POP POP PUSH1 0x40 MLOAD RETURNDATASIZE PUSH1 0x1F NOT PUSH1 0x1F DUP3 ADD AND DUP3 ADD DUP1 PUSH1 0x40 MSTORE POP DUP2 ADD SWAP1 PUSH2 0x6CF SWAP2 SWAP1 PUSH2 0xE78 JUMP JUMPDEST PUSH2 0x6D9 SWAP2 SWAP1 PUSH2 0xF5D JUMP JUMPDEST DUP5 PUSH0 PUSH0 SWAP1 SLOAD SWAP1 PUSH2 0x100 EXP SWAP1 DIV PUSH20 0xFFFFFFFFFFFFFFFFFFFFFFFFFFFFFFFFFFFFFFFF AND PUSH20 0xFFFFFFFFFFFFFFFFFFFFFFFFFFFFFFFFFFFFFFFF AND PUSH4 0xA035B1FE PUSH1 0x40 MLOAD DUP2 PUSH4 0xFFFFFFFF AND PUSH1 0xE0 SHL DUP2 MSTORE PUSH1 0x4 ADD PUSH1 0x20 PUSH1 0x40 MLOAD DUP1 DUP4 SUB DUP2 DUP7 GAS STATICCALL ISZERO DUP1 ISZERO PUSH2 0x743 JUMPI RETURNDATASIZE PUSH0 PUSH0 RETURNDATACOPY RETURNDATASIZE PUSH0 REVERT JUMPDEST POP POP POP POP PUSH1 0x40 MLOAD RETURNDATASIZE PUSH1 0x1F NOT PUSH1 0x1F DUP3 ADD AND DUP3 ADD DUP1 PUSH1 0x40 MSTORE POP DUP2 ADD SWAP1 PUSH2 0x767 SWAP2 SWAP1 PUSH2 0xE78 JUMP JUMPDEST PUSH2 0x771 SWAP2 SWAP1 PUSH2 0xF5D JUMP JUMPDEST PUSH2 0x77B SWAP2 SWAP1 PUSH2 0xF9E JUMP JUMPDEST PUSH2 0x785 SWAP2 SWAP1 PUSH2 0xFFE JUMP JUMPDEST SWAP1 POP PUSH1 0x2 PUSH0 SWAP1 SLOAD SWAP1 PUSH2 0x100 EXP SWAP1 DIV PUSH20 0xFFFFFFFFFFFFFFFFFFFFFFFFFFFFFFFFFFFFFFFF AND PUSH20 0xFFFFFFFFFFFFFFFFFFFFFFFFFFFFFFFFFFFFFFFF AND PUSH4 0x40C10F19 CALLER DUP4 PUSH1 0x40 MLOAD DUP4 PUSH4 0xFFFFFFFF AND PUSH1 0xE0 SHL DUP2 MSTORE PUSH1 0x4 ADD PUSH2 0x7E3 SWAP3 SWAP2 SWAP1 PUSH2 0x102E JUMP JUMPDEST PUSH0 PUSH1 0x40 MLOAD DUP1 DUP4 SUB DUP2 PUSH0 DUP8 DUP1 EXTCODESIZE ISZERO DUP1 ISZERO PUSH2 0x7FA JUMPI PUSH0 PUSH0 REVERT JUMPDEST POP GAS CALL ISZERO DUP1 ISZERO PUSH2 0x80C JUMPI RETURNDATASIZE PUSH0 PUSH0 RETURNDATACOPY RETURNDATASIZE PUSH0 REVERT JUMPDEST POP POP POP POP POP POP POP JUMP JUMPDEST PUSH0 DUP3 PUSH2 0x842 JUMPI PUSH1 0x1 PUSH0 SWAP1 SLOAD SWAP1 PUSH2 0x100 EXP SWAP1 DIV PUSH20 0xFFFFFFFFFFFFFFFFFFFFFFFFFFFFFFFFFFFFFFFF AND PUSH2 0x864 JUMP JUMPDEST PUSH0 PUSH0 SWAP1 SLOAD SWAP1 PUSH2 0x100 EXP SWAP1 DIV PUSH20 0xFFFFFFFFFFFFFFFFFFFFFFFFFFFFFFFFFFFFFFFF AND JUMPDEST SWAP1 POP PUSH0 DUP4 PUSH2 0x892 JUMPI PUSH0 PUSH0 SWAP1 SLOAD SWAP1 PUSH2 0x100 EXP SWAP1 DIV PUSH20 0xFFFFFFFFFFFFFFFFFFFFFFFFFFFFFFFFFFFFFFFF AND PUSH2 0x8B5 JUMP JUMPDEST PUSH1 0x1 PUSH0 SWAP1 SLOAD SWAP1 PUSH2 0x100 EXP SWAP1 DIV PUSH20 0xFFFFFFFFFFFFFFFFFFFFFFFFFFFFFFFFFFFFFFFF AND JUMPDEST SWAP1 POP PUSH0 DUP3 PUSH20 0xFFFFFFFFFFFFFFFFFFFFFFFFFFFFFFFFFFFFFFFF AND PUSH4 0x70A08231 ADDRESS PUSH1 0x40 MLOAD DUP3 PUSH4 0xFFFFFFFF AND PUSH1 0xE0 SHL DUP2 MSTORE PUSH1 0x4 ADD PUSH2 0x8F1 SWAP2 SWAP1 PUSH2 0xEA3 JUMP JUMPDEST PUSH1 0x20 PUSH1 0x40 MLOAD DUP1 DUP4 SUB DUP2 DUP7 GAS STATICCALL ISZERO DUP1 ISZERO PUSH2 0x90C JUMPI RETURNDATASIZE PUSH0 PUSH0 RETURNDATACOPY RETURNDATASIZE PUSH0 REVERT JUMPDEST POP POP POP POP PUSH1 0x40 MLOAD RETURNDATASIZE PUSH1 0x1F NOT PUSH1 0x1F DUP3 ADD AND DUP3 ADD DUP1 PUSH1 0x40 MSTORE POP DUP2 ADD SWAP1 PUSH2 0x930 SWAP2 SWAP1 PUSH2 0xE78 JUMP JUMPDEST DUP3 PUSH20 0xFFFFFFFFFFFFFFFFFFFFFFFFFFFFFFFFFFFFFFFF AND PUSH4 0x70A08231 ADDRESS PUSH1 0x40 MLOAD DUP3 PUSH4 0xFFFFFFFF AND PUSH1 0xE0 SHL DUP2 MSTORE PUSH1 0x4 ADD PUSH2 0x969 SWAP2 SWAP1 PUSH2 0xEA3 JUMP JUMPDEST PUSH1 0x20 PUSH1 0x40 MLOAD DUP1 DUP4 SUB DUP2 DUP7 GAS STATICCALL ISZERO DUP1 ISZERO PUSH2 0x984 JUMPI RETURNDATASIZE PUSH0 PUSH0 RETURNDATACOPY RETURNDATASIZE PUSH0 REVERT JUMPDEST POP POP POP POP PUSH1 0x40 MLOAD RETURNDATASIZE PUSH1 0x1F NOT PUSH1 0x1F DUP3 ADD AND DUP3 ADD DUP1 PUSH1 0x40 MSTORE POP DUP2 ADD SWAP1 PUSH2 0x9A8 SWAP2 SWAP1 PUSH2 0xE78 JUMP JUMPDEST DUP6 PUSH2 0x9B3 SWAP2 SWAP1 PUSH2 0xF5D JUMP JUMPDEST PUSH2 0x9BD SWAP2 SWAP1 PUSH2 0xFFE JUMP JUMPDEST SWAP1 POP DUP3 PUSH20 0xFFFFFFFFFFFFFFFFFFFFFFFFFFFFFFFFFFFFFFFF AND PUSH4 0x23B872DD CALLER ADDRESS DUP8 PUSH1 0x40 MLOAD DUP5 PUSH4 0xFFFFFFFF AND PUSH1 0xE0 SHL DUP2 MSTORE PUSH1 0x4 ADD PUSH2 0x9FC SWAP4 SWAP3 SWAP2 SWAP1 PUSH2 0xEBC JUMP JUMPDEST PUSH1 0x20 PUSH1 0x40 MLOAD DUP1 DUP4 SUB DUP2 PUSH0 DUP8 GAS CALL ISZERO DUP1 ISZERO PUSH2 0xA18 JUMPI RETURNDATASIZE PUSH0 PUSH0 RETURNDATACOPY RETURNDATASIZE PUSH0 REVERT JUMPDEST POP POP POP POP PUSH1 0x40 MLOAD RETURNDATASIZE PUSH1 0x1F NOT PUSH1 0x1F DUP3 ADD AND DUP3 ADD DUP1 PUSH1 0x40 MSTORE POP DUP2 ADD SWAP1 PUSH2 0xA3C SWAP2 SWAP1 PUSH2 0xF05 JUMP JUMPDEST POP DUP2 PUSH20 0xFFFFFFFFFFFFFFFFFFFFFFFFFFFFFFFFFFFFFFFF AND PUSH4 0x23B872DD ADDRESS CALLER DUP5 PUSH1 0x40 MLOAD DUP5 PUSH4 0xFFFFFFFF AND PUSH1 0xE0 SHL DUP2 MSTORE PUSH1 0x4 ADD PUSH2 0xA7A SWAP4 SWAP3 SWAP2 SWAP1 PUSH2 0xEBC JUMP JUMPDEST PUSH1 0x20 PUSH1 0x40 MLOAD DUP1 DUP4 SUB DUP2 PUSH0 DUP8 GAS CALL ISZERO DUP1 ISZERO PUSH2 0xA96 JUMPI RETURNDATASIZE PUSH0 PUSH0 RETURNDATACOPY RETURNDATASIZE PUSH0 REVERT JUMPDEST POP POP POP POP PUSH1 0x40 MLOAD RETURNDATASIZE PUSH1 0x1F NOT PUSH1 0x1F DUP3 ADD AND DUP3 ADD DUP1 PUSH1 0x40 MSTORE POP DUP2 ADD SWAP1 PUSH2 0xABA SWAP2 SWAP1 PUSH2 0xF05 JUMP JUMPDEST POP POP POP POP POP POP JUMP JUMPDEST PUSH0 PUSH20 0xFFFFFFFFFFFFFFFFFFFFFFFFFFFFFFFFFFFFFFFF DUP3 AND SWAP1 POP SWAP2 SWAP1 POP JUMP JUMPDEST PUSH0 PUSH2 0xAEB DUP3 PUSH2 0xAC2 JUMP JUMPDEST SWAP1 POP SWAP2 SWAP1 POP JUMP JUMPDEST PUSH2 0xAFB DUP2 PUSH2 0xAE1 JUMP JUMPDEST DUP3 MSTORE POP POP JUMP JUMPDEST PUSH0 DUP2 MLOAD SWAP1 POP SWAP2 SWAP1 POP JUMP JUMPDEST PUSH0 DUP3 DUP3 MSTORE PUSH1 0x20 DUP3 ADD SWAP1 POP SWAP3 SWAP2 POP POP JUMP JUMPDEST DUP3 DUP2 DUP4 MCOPY PUSH0 DUP4 DUP4 ADD MSTORE POP POP POP JUMP JUMPDEST PUSH0 PUSH1 0x1F NOT PUSH1 0x1F DUP4 ADD AND SWAP1 POP SWAP2 SWAP1 POP JUMP JUMPDEST PUSH0 PUSH2 0xB43 DUP3 PUSH2 0xB01 JUMP JUMPDEST PUSH2 0xB4D DUP2 DUP6 PUSH2 0xB0B JUMP JUMPDEST SWAP4 POP PUSH2 0xB5D DUP2 DUP6 PUSH1 0x20 DUP7 ADD PUSH2 0xB1B JUMP JUMPDEST PUSH2 0xB66 DUP2 PUSH2 0xB29 JUMP JUMPDEST DUP5 ADD SWAP2 POP POP SWAP3 SWAP2 POP POP JUMP JUMPDEST PUSH0 DUP2 SWAP1 POP SWAP2 SWAP1 POP JUMP JUMPDEST PUSH2 0xB83 DUP2 PUSH2 0xB71 JUMP JUMPDEST DUP3 MSTORE POP POP JUMP JUMPDEST PUSH0 PUSH2 0x100 DUP3 ADD SWAP1 POP PUSH2 0xB9D PUSH0 DUP4 ADD DUP12 PUSH2 0xAF2 JUMP JUMPDEST DUP2 DUP2 SUB PUSH1 0x20 DUP4 ADD MSTORE PUSH2 0xBAF DUP2 DUP11 PUSH2 0xB39 JUMP JUMPDEST SWAP1 POP PUSH2 0xBBE PUSH1 0x40 DUP4 ADD DUP10 PUSH2 0xB7A JUMP JUMPDEST PUSH2 0xBCB PUSH1 0x60 DUP4 ADD DUP9 PUSH2 0xAF2 JUMP JUMPDEST DUP2 DUP2 SUB PUSH1 0x80 DUP4 ADD MSTORE PUSH2 0xBDD DUP2 DUP8 PUSH2 0xB39 JUMP JUMPDEST SWAP1 POP PUSH2 0xBEC PUSH1 0xA0 DUP4 ADD DUP7 PUSH2 0xB7A JUMP JUMPDEST PUSH2 0xBF9 PUSH1 0xC0 DUP4 ADD DUP6 PUSH2 0xB7A JUMP JUMPDEST PUSH2 0xC06 PUSH1 0xE0 DUP4 ADD DUP5 PUSH2 0xB7A JUMP JUMPDEST SWAP10 SWAP9 POP POP POP POP POP POP POP POP POP JUMP JUMPDEST PUSH0 PUSH1 0x40 MLOAD SWAP1 POP SWAP1 JUMP JUMPDEST PUSH0 PUSH0 REVERT JUMPDEST PUSH0 PUSH0 REVERT JUMPDEST PUSH2 0xC2D DUP2 PUSH2 0xB71 JUMP JUMPDEST DUP2 EQ PUSH2 0xC37 JUMPI PUSH0 PUSH0 REVERT JUMPDEST POP JUMP JUMPDEST PUSH0 DUP2 CALLDATALOAD SWAP1 POP PUSH2 0xC48 DUP2 PUSH2 0xC24 JUMP JUMPDEST SWAP3 SWAP2 POP POP JUMP JUMPDEST PUSH0 PUSH0 PUSH1 0x40 DUP4 DUP6 SUB SLT ISZERO PUSH2 0xC64 JUMPI PUSH2 0xC63 PUSH2 0xC1C JUMP JUMPDEST JUMPDEST PUSH0 PUSH2 0xC71 DUP6 DUP3 DUP7 ADD PUSH2 0xC3A JUMP JUMPDEST SWAP3 POP POP PUSH1 0x20 PUSH2 0xC82 DUP6 DUP3 DUP7 ADD PUSH2 0xC3A JUMP JUMPDEST SWAP2 POP POP SWAP3 POP SWAP3 SWAP1 POP JUMP JUMPDEST PUSH0 DUP2 ISZERO ISZERO SWAP1 POP SWAP2 SWAP1 POP JUMP JUMPDEST PUSH2 0xCA0 DUP2 PUSH2 0xC8C JUMP JUMPDEST DUP2 EQ PUSH2 0xCAA JUMPI PUSH0 PUSH0 REVERT JUMPDEST POP JUMP JUMPDEST PUSH0 DUP2 CALLDATALOAD SWAP1 POP PUSH2 0xCBB DUP2 PUSH2 0xC97 JUMP JUMPDEST SWAP3 SWAP2 POP POP JUMP JUMPDEST PUSH0 PUSH0 PUSH1 0x40 DUP4 DUP6 SUB SLT ISZERO PUSH2 0xCD7 JUMPI PUSH2 0xCD6 PUSH2 0xC1C JUMP JUMPDEST JUMPDEST PUSH0 PUSH2 0xCE4 DUP6 DUP3 DUP7 ADD PUSH2 0xCAD JUMP JUMPDEST SWAP3 POP POP PUSH1 0x20 PUSH2 0xCF5 DUP6 DUP3 DUP7 ADD PUSH2 0xC3A JUMP JUMPDEST SWAP2 POP POP SWAP3 POP SWAP3 SWAP1 POP JUMP JUMPDEST PUSH0 PUSH0 REVERT JUMPDEST PUSH0 PUSH0 REVERT JUMPDEST PUSH32 0x4E487B7100000000000000000000000000000000000000000000000000000000 PUSH0 MSTORE PUSH1 0x41 PUSH1 0x4 MSTORE PUSH1 0x24 PUSH0 REVERT JUMPDEST PUSH2 0xD3D DUP3 PUSH2 0xB29 JUMP JUMPDEST DUP2 ADD DUP2 DUP2 LT PUSH8 0xFFFFFFFFFFFFFFFF DUP3 GT OR ISZERO PUSH2 0xD5C JUMPI PUSH2 0xD5B PUSH2 0xD07 JUMP JUMPDEST JUMPDEST DUP1 PUSH1 0x40 MSTORE POP POP POP JUMP JUMPDEST PUSH0 PUSH2 0xD6E PUSH2 0xC13 JUMP JUMPDEST SWAP1 POP PUSH2 0xD7A DUP3 DUP3 PUSH2 0xD34 JUMP JUMPDEST SWAP2 SWAP1 POP JUMP JUMPDEST PUSH0 PUSH8 0xFFFFFFFFFFFFFFFF DUP3 GT ISZERO PUSH2 0xD99 JUMPI PUSH2 0xD98 PUSH2 0xD07 JUMP JUMPDEST JUMPDEST PUSH2 0xDA2 DUP3 PUSH2 0xB29 JUMP JUMPDEST SWAP1 POP PUSH1 0x20 DUP2 ADD SWAP1 POP SWAP2 SWAP1 POP JUMP JUMPDEST PUSH0 PUSH2 0xDC1 PUSH2 0xDBC DUP5 PUSH2 0xD7F JUMP JUMPDEST PUSH2 0xD65 JUMP JUMPDEST SWAP1 POP DUP3 DUP2 MSTORE PUSH1 0x20 DUP2 ADD DUP5 DUP5 DUP5 ADD GT ISZERO PUSH2 0xDDD JUMPI PUSH2 0xDDC PUSH2 0xD03 JUMP JUMPDEST JUMPDEST PUSH2 0xDE8 DUP5 DUP3 DUP6 PUSH2 0xB1B JUMP JUMPDEST POP SWAP4 SWAP3 POP POP POP JUMP JUMPDEST PUSH0 DUP3 PUSH1 0x1F DUP4 ADD SLT PUSH2 0xE04 JUMPI PUSH2 0xE03 PUSH2 0xCFF JUMP JUMPDEST JUMPDEST DUP2 MLOAD PUSH2 0xE14 DUP5 DUP3 PUSH1 0x20 DUP7 ADD PUSH2 0xDAF JUMP JUMPDEST SWAP2 POP POP SWAP3 SWAP2 POP POP JUMP JUMPDEST PUSH0 PUSH1 0x20 DUP3 DUP5 SUB SLT ISZERO PUSH2 0xE32 JUMPI PUSH2 0xE31 PUSH2 0xC1C JUMP JUMPDEST JUMPDEST PUSH0 DUP3 ADD MLOAD PUSH8 0xFFFFFFFFFFFFFFFF DUP2 GT ISZERO PUSH2 0xE4F JUMPI PUSH2 0xE4E PUSH2 0xC20 JUMP JUMPDEST JUMPDEST PUSH2 0xE5B DUP5 DUP3 DUP6 ADD PUSH2 0xDF0 JUMP JUMPDEST SWAP2 POP POP SWAP3 SWAP2 POP POP JUMP JUMPDEST PUSH0 DUP2 MLOAD SWAP1 POP PUSH2 0xE72 DUP2 PUSH2 0xC24 JUMP JUMPDEST SWAP3 SWAP2 POP POP JUMP JUMPDEST PUSH0 PUSH1 0x20 DUP3 DUP5 SUB SLT ISZERO PUSH2 0xE8D JUMPI PUSH2 0xE8C PUSH2 0xC1C JUMP JUMPDEST JUMPDEST PUSH0 PUSH2 0xE9A DUP5 DUP3 DUP6 ADD PUSH2 0xE64 JUMP JUMPDEST SWAP2 POP POP SWAP3 SWAP2 POP POP JUMP JUMPDEST PUSH0 PUSH1 0x20 DUP3 ADD SWAP1 POP PUSH2 0xEB6 PUSH0 DUP4 ADD DUP5 PUSH2 0xAF2 JUMP JUMPDEST SWAP3 SWAP2 POP POP JUMP JUMPDEST PUSH0 PUSH1 0x60 DUP3 ADD SWAP1 POP PUSH2 0xECF PUSH0 DUP4 ADD DUP7 PUSH2 0xAF2 JUMP JUMPDEST PUSH2 0xEDC PUSH1 0x20 DUP4 ADD DUP6 PUSH2 0xAF2 JUMP JUMPDEST PUSH2 0xEE9 PUSH1 0x40 DUP4 ADD DUP5 PUSH2 0xB7A JUMP JUMPDEST SWAP5 SWAP4 POP POP POP POP JUMP JUMPDEST PUSH0 DUP2 MLOAD SWAP1 POP PUSH2 0xEFF DUP2 PUSH2 0xC97 JUMP JUMPDEST SWAP3 SWAP2 POP POP JUMP JUMPDEST PUSH0 PUSH1 0x20 DUP3 DUP5 SUB SLT ISZERO PUSH2 0xF1A JUMPI PUSH2 0xF19 PUSH2 0xC1C JUMP JUMPDEST JUMPDEST PUSH0 PUSH2 0xF27 DUP5 DUP3 DUP6 ADD PUSH2 0xEF1 JUMP JUMPDEST SWAP2 POP POP SWAP3 SWAP2 POP POP JUMP JUMPDEST PUSH32 0x4E487B7100000000000000000000000000000000000000000000000000000000 PUSH0 MSTORE PUSH1 0x11 PUSH1 0x4 MSTORE PUSH1 0x24 PUSH0 REVERT JUMPDEST PUSH0 PUSH2 0xF67 DUP3 PUSH2 0xB71 JUMP JUMPDEST SWAP2 POP PUSH2 0xF72 DUP4 PUSH2 0xB71 JUMP JUMPDEST SWAP3 POP DUP3 DUP3 MUL PUSH2 0xF80 DUP2 PUSH2 0xB71 JUMP JUMPDEST SWAP2 POP DUP3 DUP3 DIV DUP5 EQ DUP4 ISZERO OR PUSH2 0xF97 JUMPI PUSH2 0xF96 PUSH2 0xF30 JUMP JUMPDEST JUMPDEST POP SWAP3 SWAP2 POP POP JUMP JUMPDEST PUSH0 PUSH2 0xFA8 DUP3 PUSH2 0xB71 JUMP JUMPDEST SWAP2 POP PUSH2 0xFB3 DUP4 PUSH2 0xB71 JUMP JUMPDEST SWAP3 POP DUP3 DUP3 ADD SWAP1 POP DUP1 DUP3 GT ISZERO PUSH2 0xFCB JUMPI PUSH2 0xFCA PUSH2 0xF30 JUMP JUMPDEST JUMPDEST SWAP3 SWAP2 POP POP JUMP JUMPDEST PUSH32 0x4E487B7100000000000000000000000000000000000000000000000000000000 PUSH0 MSTORE PUSH1 0x12 PUSH1 0x4 MSTORE PUSH1 0x24 PUSH0 REVERT JUMPDEST PUSH0 PUSH2 0x1008 DUP3 PUSH2 0xB71 JUMP JUMPDEST SWAP2 POP PUSH2 0x1013 DUP4 PUSH2 0xB71 JUMP JUMPDEST SWAP3 POP DUP3 PUSH2 0x1023 JUMPI PUSH2 0x1022 PUSH2 0xFD1 JUMP JUMPDEST JUMPDEST DUP3 DUP3 DIV SWAP1 POP SWAP3 SWAP2 POP POP JUMP JUMPDEST PUSH0 PUSH1 0x40 DUP3 ADD SWAP1 POP PUSH2 0x1041 PUSH0 DUP4 ADD DUP6 PUSH2 0xAF2 JUMP JUMPDEST PUSH2 0x104E PUSH1 0x20 DUP4 ADD DUP5 PUSH2 0xB7A JUMP JUMPDEST SWAP4 SWAP3 POP POP POP JUMP INVALID LOG2 PUSH5 0x6970667358 0x22 SLT KECCAK256 PUSH0 0xEC 0x2A 0xA9 0x2D 0xD3 LT DUP1 EXP 0xB0 0xC8 PUSH9 0xDBED0F6AB3BD1711E3 COINBASE PREVRANDAO DUP5 0x24 DUP6 0xD 0x2E CALLDATASIZE 0xB0 0x25 EQ PUSH5 0x736F6C6343 STOP ADDMOD SHR STOP CALLER "
				},
				"gasEstimates": {
					"creation": {
						"codeDepositCost": "847000",
						"executionCost": "infinite",
						"totalCost": "infinite"
					},
					"external": {
						"addLiquidity(uint256,uint256)": "infinite",
						"getInfo()": "infinite",
						"swap(bool,uint256)": "infinite"
					}
				},
				"methodIdentifiers": {
					"addLiquidity(uint256,uint256)": "9cd441da",
					"getInfo()": "5a9b0b89",
					"swap(bool,uint256)": "c037646a"
				}
			},
			"storageLayout": {
				"storage": [
					{
						"astId": 286,
						"contract": "contracts/Pool.sol:Pool",
						"label": "firstToken",
						"offset": 0,
						"slot": "0",
						"type": "t_contract(ERC20)280"
					},
					{
						"astId": 289,
						"contract": "contracts/Pool.sol:Pool",
						"label": "secondToken",
						"offset": 0,
						"slot": "1",
						"type": "t_contract(ERC20)280"
					},
					{
						"astId": 292,
						"contract": "contracts/Pool.sol:Pool",
						"label": "lpToken",
						"offset": 0,
						"slot": "2",
						"type": "t_contract(ERC20)280"
					}
				],
				"types": {
					"t_contract(ERC20)280": {
						"encoding": "inplace",
						"label": "contract ERC20",
						"numberOfBytes": "20"
					}
				}
			},
			"userdoc": {
				"kind": "user",
				"methods": {},
				"version": 1
			}
		}
	}
}