{
	"data": {
		"bytecode": {
			"linkReferences": {},
			"object": "608060405234801561000f575f5ffd5b5060405161163b38038061163b833981810160405281019061003191906103f1565b845f5f6101000a81548173ffffffffffffffffffffffffffffffffffffffff021916908373ffffffffffffffffffffffffffffffffffffffff1602179055508360015f6101000a81548173ffffffffffffffffffffffffffffffffffffffff021916908373ffffffffffffffffffffffffffffffffffffffff1602179055508260025f6101000a81548173ffffffffffffffffffffffffffffffffffffffff021916908373ffffffffffffffffffffffffffffffffffffffff1602179055505f5f9054906101000a900473ffffffffffffffffffffffffffffffffffffffff1673ffffffffffffffffffffffffffffffffffffffff166340c10f19305f5f9054906101000a900473ffffffffffffffffffffffffffffffffffffffff1673ffffffffffffffffffffffffffffffffffffffff1663a035b1fe6040518163ffffffff1660e01b8152600401602060405180830381865afa158015610196573d5f5f3e3d5ffd5b505050506040513d601f19601f820116820180604052508101906101ba9190610468565b670de0b6b3a7640000866101ce91906104c0565b6101d8919061052e565b6040518363ffffffff1660e01b81526004016101f592919061057c565b5f604051808303815f87803b15801561020c575f5ffd5b505af115801561021e573d5f5f3e3d5ffd5b5050505060015f9054906101000a900473ffffffffffffffffffffffffffffffffffffffff1673ffffffffffffffffffffffffffffffffffffffff166340c10f193060015f9054906101000a900473ffffffffffffffffffffffffffffffffffffffff1673ffffffffffffffffffffffffffffffffffffffff1663a035b1fe6040518163ffffffff1660e01b8152600401602060405180830381865afa1580156102ca573d5f5f3e3d5ffd5b505050506040513d601f19601f820116820180604052508101906102ee9190610468565b670de0b6b3a76400008561030291906104c0565b61030c919061052e565b6040518363ffffffff1660e01b815260040161032992919061057c565b5f604051808303815f87803b158015610340575f5ffd5b505af1158015610352573d5f5f3e3d5ffd5b5050505050505050506105a3565b5f5ffd5b5f73ffffffffffffffffffffffffffffffffffffffff82169050919050565b5f61038d82610364565b9050919050565b61039d81610383565b81146103a7575f5ffd5b50565b5f815190506103b881610394565b92915050565b5f819050919050565b6103d0816103be565b81146103da575f5ffd5b50565b5f815190506103eb816103c7565b92915050565b5f5f5f5f5f60a0868803121561040a57610409610360565b5b5f610417888289016103aa565b9550506020610428888289016103aa565b9450506040610439888289016103aa565b935050606061044a888289016103dd565b925050608061045b888289016103dd565b9150509295509295909350565b5f6020828403121561047d5761047c610360565b5b5f61048a848285016103dd565b91505092915050565b7f4e487b71000000000000000000000000000000000000000000000000000000005f52601160045260245ffd5b5f6104ca826103be565b91506104d5836103be565b92508282026104e3816103be565b915082820484148315176104fa576104f9610493565b5b5092915050565b7f4e487b71000000000000000000000000000000000000000000000000000000005f52601260045260245ffd5b5f610538826103be565b9150610543836103be565b92508261055357610552610501565b5b828204905092915050565b61056781610383565b82525050565b610576816103be565b82525050565b5f60408201905061058f5f83018561055e565b61059c602083018461056d565b9392505050565b61108b806105b05f395ff3fe608060405234801561000f575f5ffd5b506004361061003f575f3560e01c80635a9b0b89146100435780639cd441da14610068578063c037646a14610084575b5f5ffd5b61004b6100a0565b60405161005f989796959493929190610b89565b60405180910390f35b610082600480360381019061007d9190610c4e565b610474565b005b61009e60048036038101906100999190610cc1565b610815565b005b5f60605f5f60605f5f5f5f5f9054906101000a900473ffffffffffffffffffffffffffffffffffffffff1697505f5f9054906101000a900473ffffffffffffffffffffffffffffffffffffffff1673ffffffffffffffffffffffffffffffffffffffff166395d89b416040518163ffffffff1660e01b81526004015f60405180830381865afa158015610135573d5f5f3e3d5ffd5b505050506040513d5f823e3d601f19601f8201168201806040525081019061015d9190610e1d565b96505f5f9054906101000a900473ffffffffffffffffffffffffffffffffffffffff1673ffffffffffffffffffffffffffffffffffffffff1663a035b1fe6040518163ffffffff1660e01b8152600401602060405180830381865afa1580156101c8573d5f5f3e3d5ffd5b505050506040513d601f19601f820116820180604052508101906101ec9190610e78565b955060015f9054906101000a900473ffffffffffffffffffffffffffffffffffffffff16945060015f9054906101000a900473ffffffffffffffffffffffffffffffffffffffff1673ffffffffffffffffffffffffffffffffffffffff166395d89b416040518163ffffffff1660e01b81526004015f60405180830381865afa15801561027b573d5f5f3e3d5ffd5b505050506040513d5f823e3d601f19601f820116820180604052508101906102a39190610e1d565b935060015f9054906101000a900473ffffffffffffffffffffffffffffffffffffffff1673ffffffffffffffffffffffffffffffffffffffff1663a035b1fe6040518163ffffffff1660e01b8152600401602060405180830381865afa15801561030f573d5f5f3e3d5ffd5b505050506040513d601f19601f820116820180604052508101906103339190610e78565b92505f5f9054906101000a900473ffffffffffffffffffffffffffffffffffffffff1673ffffffffffffffffffffffffffffffffffffffff166370a08231306040518263ffffffff1660e01b815260040161038e9190610ea3565b602060405180830381865afa1580156103a9573d5f5f3e3d5ffd5b505050506040513d601f19601f820116820180604052508101906103cd9190610e78565b915060015f9054906101000a900473ffffffffffffffffffffffffffffffffffffffff1673ffffffffffffffffffffffffffffffffffffffff166370a08231306040518263ffffffff1660e01b81526004016104299190610ea3565b602060405180830381865afa158015610444573d5f5f3e3d5ffd5b505050506040513d601f19601f820116820180604052508101906104689190610e78565b90509091929394959697565b5f5f9054906101000a900473ffffffffffffffffffffffffffffffffffffffff1673ffffffffffffffffffffffffffffffffffffffff166323b872dd3330856040518463ffffffff1660e01b81526004016104d193929190610ebc565b6020604051808303815f875af11580156104ed573d5f5f3e3d5ffd5b505050506040513d601f19601f820116820180604052508101906105119190610f05565b5060015f9054906101000a900473ffffffffffffffffffffffffffffffffffffffff1673ffffffffffffffffffffffffffffffffffffffff166323b872dd3330846040518463ffffffff1660e01b815260040161057093929190610ebc565b6020604051808303815f875af115801561058c573d5f5f3e3d5ffd5b505050506040513d601f19601f820116820180604052508101906105b09190610f05565b505f60025f9054906101000a900473ffffffffffffffffffffffffffffffffffffffff1673ffffffffffffffffffffffffffffffffffffffff1663a035b1fe6040518163ffffffff1660e01b8152600401602060405180830381865afa15801561061c573d5f5f3e3d5ffd5b505050506040513d601f19601f820116820180604052508101906106409190610e78565b8260015f9054906101000a900473ffffffffffffffffffffffffffffffffffffffff1673ffffffffffffffffffffffffffffffffffffffff1663a035b1fe6040518163ffffffff1660e01b8152600401602060405180830381865afa1580156106ab573d5f5f3e3d5ffd5b505050506040513d601f19601f820116820180604052508101906106cf9190610e78565b6106d99190610f5d565b845f5f9054906101000a900473ffffffffffffffffffffffffffffffffffffffff1673ffffffffffffffffffffffffffffffffffffffff1663a035b1fe6040518163ffffffff1660e01b8152600401602060405180830381865afa158015610743573d5f5f3e3d5ffd5b505050506040513d601f19601f820116820180604052508101906107679190610e78565b6107719190610f5d565b61077b9190610f9e565b6107859190610ffe565b905060025f9054906101000a900473ffffffffffffffffffffffffffffffffffffffff1673ffffffffffffffffffffffffffffffffffffffff166340c10f1933836040518363ffffffff1660e01b81526004016107e392919061102e565b5f604051808303815f87803b1580156107fa575f5ffd5b505af115801561080c573d5f5f3e3d5ffd5b50505050505050565b5f826108425760015f9054906101000a900473ffffffffffffffffffffffffffffffffffffffff16610864565b5f5f9054906101000a900473ffffffffffffffffffffffffffffffffffffffff165b90505f83610892575f5f9054906101000a900473ffffffffffffffffffffffffffffffffffffffff166108b5565b60015f9054906101000a900473ffffffffffffffffffffffffffffffffffffffff165b90505f8273ffffffffffffffffffffffffffffffffffffffff166370a08231306040518263ffffffff1660e01b81526004016108f19190610ea3565b602060405180830381865afa15801561090c573d5f5f3e3d5ffd5b505050506040513d601f19601f820116820180604052508101906109309190610e78565b8273ffffffffffffffffffffffffffffffffffffffff166370a08231306040518263ffffffff1660e01b81526004016109699190610ea3565b602060405180830381865afa158015610984573d5f5f3e3d5ffd5b505050506040513d601f19601f820116820180604052508101906109a89190610e78565b856109b39190610f5d565b6109bd9190610ffe565b90508273ffffffffffffffffffffffffffffffffffffffff166323b872dd3330876040518463ffffffff1660e01b81526004016109fc93929190610ebc565b6020604051808303815f875af1158015610a18573d5f5f3e3d5ffd5b505050506040513d601f19601f82011682018060405250810190610a3c9190610f05565b508173ffffffffffffffffffffffffffffffffffffffff166323b872dd3033846040518463ffffffff1660e01b8152600401610a7a93929190610ebc565b6020604051808303815f875af1158015610a96573d5f5f3e3d5ffd5b505050506040513d601f19601f82011682018060405250810190610aba9190610f05565b505050505050565b5f73ffffffffffffffffffffffffffffffffffffffff82169050919050565b5f610aeb82610ac2565b9050919050565b610afb81610ae1565b82525050565b5f81519050919050565b5f82825260208201905092915050565b8281835e5f83830152505050565b5f601f19601f8301169050919050565b5f610b4382610b01565b610b4d8185610b0b565b9350610b5d818560208601610b1b565b610b6681610b29565b840191505092915050565b5f819050919050565b610b8381610b71565b82525050565b5f61010082019050610b9d5f83018b610af2565b8181036020830152610baf818a610b39565b9050610bbe6040830189610b7a565b610bcb6060830188610af2565b8181036080830152610bdd8187610b39565b9050610bec60a0830186610b7a565b610bf960c0830185610b7a565b610c0660e0830184610b7a565b9998505050505050505050565b5f604051905090565b5f5ffd5b5f5ffd5b610c2d81610b71565b8114610c37575f5ffd5b50565b5f81359050610c4881610c24565b92915050565b5f5f60408385031215610c6457610c63610c1c565b5b5f610c7185828601610c3a565b9250506020610c8285828601610c3a565b9150509250929050565b5f8115159050919050565b610ca081610c8c565b8114610caa575f5ffd5b50565b5f81359050610cbb81610c97565b92915050565b5f5f60408385031215610cd757610cd6610c1c565b5b5f610ce485828601610cad565b9250506020610cf585828601610c3a565b9150509250929050565b5f5ffd5b5f5ffd5b7f4e487b71000000000000000000000000000000000000000000000000000000005f52604160045260245ffd5b610d3d82610b29565b810181811067ffffffffffffffff82111715610d5c57610d5b610d07565b5b80604052505050565b5f610d6e610c13565b9050610d7a8282610d34565b919050565b5f67ffffffffffffffff821115610d9957610d98610d07565b5b610da282610b29565b9050602081019050919050565b5f610dc1610dbc84610d7f565b610d65565b905082815260208101848484011115610ddd57610ddc610d03565b5b610de8848285610b1b565b509392505050565b5f82601f830112610e0457610e03610cff565b5b8151610e14848260208601610daf565b91505092915050565b5f60208284031215610e3257610e31610c1c565b5b5f82015167ffffffffffffffff811115610e4f57610e4e610c20565b5b610e5b84828501610df0565b91505092915050565b5f81519050610e7281610c24565b92915050565b5f60208284031215610e8d57610e8c610c1c565b5b5f610e9a84828501610e64565b91505092915050565b5f602082019050610eb65f830184610af2565b92915050565b5f606082019050610ecf5f830186610af2565b610edc6020830185610af2565b610ee96040830184610b7a565b949350505050565b5f81519050610eff81610c97565b92915050565b5f60208284031215610f1a57610f19610c1c565b5b5f610f2784828501610ef1565b91505092915050565b7f4e487b71000000000000000000000000000000000000000000000000000000005f52601160045260245ffd5b5f610f6782610b71565b9150610f7283610b71565b9250828202610f8081610b71565b91508282048414831517610f9757610f96610f30565b5b5092915050565b5f610fa882610b71565b9150610fb383610b71565b9250828201905080821115610fcb57610fca610f30565b5b92915050565b7f4e487b71000000000000000000000000000000000000000000000000000000005f52601260045260245ffd5b5f61100882610b71565b915061101383610b71565b92508261102357611022610fd1565b5b828204905092915050565b5f6040820190506110415f830185610af2565b61104e6020830184610b7a565b939250505056fea26469706673582212205fec2aa92dd310800ab0c868dbed0f6ab3bd1711e341448424850d2e36b0251464736f6c634300081c0033",
			"opcodes": "PUSH1 0x80 PUSH1 0x40 MSTORE CALLVALUE DUP1 ISZERO PUSH2 0xF JUMPI PUSH0 PUSH0 REVERT JUMPDEST POP PUSH1 0x40 MLOAD PUSH2 0x163B CODESIZE SUB DUP1 PUSH2 0x163B DUP4 CODECOPY DUP2 DUP2 ADD PUSH1 0x40 MSTORE DUP2 ADD SWAP1 PUSH2 0x31 SWAP2 SWAP1 PUSH2 0x3F1 JUMP JUMPDEST DUP5 PUSH0 PUSH0 PUSH2 0x100 EXP DUP2 SLOAD DUP2 PUSH20 0xFFFFFFFFFFFFFFFFFFFFFFFFFFFFFFFFFFFFFFFF MUL NOT AND SWAP1 DUP4 PUSH20 0xFFFFFFFFFFFFFFFFFFFFFFFFFFFFFFFFFFFFFFFF AND MUL OR SWAP1 SSTORE POP DUP4 PUSH1 0x1 PUSH0 PUSH2 0x100 EXP DUP2 SLOAD DUP2 PUSH20 0xFFFFFFFFFFFFFFFFFFFFFFFFFFFFFFFFFFFFFFFF MUL NOT AND SWAP1 DUP4 PUSH20 0xFFFFFFFFFFFFFFFFFFFFFFFFFFFFFFFFFFFFFFFF AND MUL OR SWAP1 SSTORE POP DUP3 PUSH1 0x2 PUSH0 PUSH2 0x100 EXP DUP2 SLOAD DUP2 PUSH20 0xFFFFFFFFFFFFFFFFFFFFFFFFFFFFFFFFFFFFFFFF MUL NOT AND SWAP1 DUP4 PUSH20 0xFFFFFFFFFFFFFFFFFFFFFFFFFFFFFFFFFFFFFFFF AND MUL OR SWAP1 SSTORE POP PUSH0 PUSH0 SWAP1 SLOAD SWAP1 PUSH2 0x100 EXP SWAP1 DIV PUSH20 0xFFFFFFFFFFFFFFFFFFFFFFFFFFFFFFFFFFFFFFFF AND PUSH20 0xFFFFFFFFFFFFFFFFFFFFFFFFFFFFFFFFFFFFFFFF AND PUSH4 0x40C10F19 ADDRESS PUSH0 PUSH0 SWAP1 SLOAD SWAP1 PUSH2 0x100 EXP SWAP1 DIV PUSH20 0xFFFFFFFFFFFFFFFFFFFFFFFFFFFFFFFFFFFFFFFF AND PUSH20 0xFFFFFFFFFFFFFFFFFFFFFFFFFFFFFFFFFFFFFFFF AND PUSH4 0xA035B1FE PUSH1 0x40 MLOAD DUP2 PUSH4 0xFFFFFFFF AND PUSH1 0xE0 SHL DUP2 MSTORE PUSH1 0x4 ADD PUSH1 0x20 PUSH1 0x40 MLOAD DUP1 DUP4 SUB DUP2 DUP7 GAS STATICCALL ISZERO DUP1 ISZERO PUSH2 0x196 JUMPI RETURNDATASIZE PUSH0 PUSH0 RETURNDATACOPY RETURNDATASIZE PUSH0 REVERT JUMPDEST POP POP POP POP PUSH1 0x40 MLOAD RETURNDATASIZE PUSH1 0x1F NOT PUSH1 0x1F DUP3 ADD AND DUP3 ADD DUP1 PUSH1 0x40 MSTORE POP DUP2 ADD SWAP1 PUSH2 0x1BA SWAP2 SWAP1 PUSH2 0x468 JUMP JUMPDEST PUSH8 0xDE0B6B3A7640000 DUP7 PUSH2 0x1CE SWAP2 SWAP1 PUSH2 0x4C0 JUMP JUMPDEST PUSH2 0x1D8 SWAP2 SWAP1 PUSH2 0x52E JUMP JUMPDEST PUSH1 0x40 MLOAD DUP4 PUSH4 0xFFFFFFFF AND PUSH1 0xE0 SHL DUP2 MSTORE PUSH1 0x4 ADD PUSH2 0x1F5 SWAP3 SWAP2 SWAP1 PUSH2 0x57C JUMP JUMPDEST PUSH0 PUSH1 0x40 MLOAD DUP1 DUP4 SUB DUP2 PUSH0 DUP8 DUP1 EXTCODESIZE ISZERO DUP1 ISZERO PUSH2 0x20C JUMPI PUSH0 PUSH0 REVERT JUMPDEST POP GAS CALL ISZERO DUP1 ISZERO PUSH2 0x21E JUMPI RETURNDATASIZE PUSH0 PUSH0 RETURNDATACOPY RETURNDATASIZE PUSH0 REVERT JUMPDEST POP POP POP POP PUSH1 0x1 PUSH0 SWAP1 SLOAD SWAP1 PUSH2 0x100 EXP SWAP1 DIV PUSH20 0xFFFFFFFFFFFFFFFFFFFFFFFFFFFFFFFFFFFFFFFF AND PUSH20 0xFFFFFFFFFFFFFFFFFFFFFFFFFFFFFFFFFFFFFFFF AND PUSH4 0x40C10F19 ADDRESS PUSH1 0x1 PUSH0 SWAP1 SLOAD SWAP1 PUSH2 0x100 EXP SWAP1 DIV PUSH20 0xFFFFFFFFFFFFFFFFFFFFFFFFFFFFFFFFFFFFFFFF AND PUSH20 0xFFFFFFFFFFFFFFFFFFFFFFFFFFFFFFFFFFFFFFFF AND PUSH4 0xA035B1FE PUSH1 0x40 MLOAD DUP2 PUSH4 0xFFFFFFFF AND PUSH1 0xE0 SHL DUP2 MSTORE PUSH1 0x4 ADD PUSH1 0x20 PUSH1 0x40 MLOAD DUP1 DUP4 SUB DUP2 DUP7 GAS STATICCALL ISZERO DUP1 ISZERO PUSH2 0x2CA JUMPI RETURNDATASIZE PUSH0 PUSH0 RETURNDATACOPY RETURNDATASIZE PUSH0 REVERT JUMPDEST POP POP POP POP PUSH1 0x40 MLOAD RETURNDATASIZE PUSH1 0x1F NOT PUSH1 0x1F DUP3 ADD AND DUP3 ADD DUP1 PUSH1 0x40 MSTORE POP DUP2 ADD SWAP1 PUSH2 0x2EE SWAP2 SWAP1 PUSH2 0x468 JUMP JUMPDEST PUSH8 0xDE0B6B3A7640000 DUP6 PUSH2 0x302 SWAP2 SWAP1 PUSH2 0x4C0 JUMP JUMPDEST PUSH2 0x30C SWAP2 SWAP1 PUSH2 0x52E JUMP JUMPDEST PUSH1 0x40 MLOAD DUP4 PUSH4 0xFFFFFFFF AND PUSH1 0xE0 SHL DUP2 MSTORE PUSH1 0x4 ADD PUSH2 0x329 SWAP3 SWAP2 SWAP1 PUSH2 0x57C JUMP JUMPDEST PUSH0 PUSH1 0x40 MLOAD DUP1 DUP4 SUB DUP2 PUSH0 DUP8 DUP1 EXTCODESIZE ISZERO DUP1 ISZERO PUSH2 0x340 JUMPI PUSH0 PUSH0 REVERT JUMPDEST POP GAS CALL ISZERO DUP1 ISZERO PUSH2 0x352 JUMPI RETURNDATASIZE PUSH0 PUSH0 RETURNDATACOPY RETURNDATASIZE PUSH0 REVERT JUMPDEST POP POP POP POP POP POP POP POP POP PUSH2 0x5A3 JUMP JUMPDEST PUSH0 PUSH0 REVERT JUMPDEST PUSH0 PUSH20 0xFFFFFFFFFFFFFFFFFFFFFFFFFFFFFFFFFFFFFFFF DUP3 AND SWAP1 POP SWAP2 SWAP1 POP JUMP JUMPDEST PUSH0 PUSH2 0x38D DUP3 PUSH2 0x364 JUMP JUMPDEST SWAP1 POP SWAP2 SWAP1 POP JUMP JUMPDEST PUSH2 0x39D DUP2 PUSH2 0x383 JUMP JUMPDEST DUP2 EQ PUSH2 0x3A7 JUMPI PUSH0 PUSH0 REVERT JUMPDEST POP JUMP JUMPDEST PUSH0 DUP2 MLOAD SWAP1 POP PUSH2 0x3B8 DUP2 PUSH2 0x394 JUMP JUMPDEST SWAP3 SWAP2 POP POP JUMP JUMPDEST PUSH0 DUP2 SWAP1 POP SWAP2 SWAP1 POP JUMP JUMPDEST PUSH2 0x3D0 DUP2 PUSH2 0x3BE JUMP JUMPDEST DUP2 EQ PUSH2 0x3DA JUMPI PUSH0 PUSH0 REVERT JUMPDEST POP JUMP JUMPDEST PUSH0 DUP2 MLOAD SWAP1 POP PUSH2 0x3EB DUP2 PUSH2 0x3C7 JUMP JUMPDEST SWAP3 SWAP2 POP POP JUMP JUMPDEST PUSH0 PUSH0 PUSH0 PUSH0 PUSH0 PUSH1 0xA0 DUP7 DUP9 SUB SLT ISZERO PUSH2 0x40A JUMPI PUSH2 0x409 PUSH2 0x360 JUMP JUMPDEST JUMPDEST PUSH0 PUSH2 0x417 DUP9 DUP3 DUP10 ADD PUSH2 0x3AA JUMP JUMPDEST SWAP6 POP POP PUSH1 0x20 PUSH2 0x428 DUP9 DUP3 DUP10 ADD PUSH2 0x3AA JUMP JUMPDEST SWAP5 POP POP PUSH1 0x40 PUSH2 0x439 DUP9 DUP3 DUP10 ADD PUSH2 0x3AA JUMP JUMPDEST SWAP4 POP POP PUSH1 0x60 PUSH2 0x44A DUP9 DUP3 DUP10 ADD PUSH2 0x3DD JUMP JUMPDEST SWAP3 POP POP PUSH1 0x80 PUSH2 0x45B DUP9 DUP3 DUP10 ADD PUSH2 0x3DD JUMP JUMPDEST SWAP2 POP POP SWAP3 SWAP6 POP SWAP3 SWAP6 SWAP1 SWAP4 POP JUMP JUMPDEST PUSH0 PUSH1 0x20 DUP3 DUP5 SUB SLT ISZERO PUSH2 0x47D JUMPI PUSH2 0x47C PUSH2 0x360 JUMP JUMPDEST JUMPDEST PUSH0 PUSH2 0x48A DUP5 DUP3 DUP6 ADD PUSH2 0x3DD JUMP JUMPDEST SWAP2 POP POP SWAP3 SWAP2 POP POP JUMP JUMPDEST PUSH32 0x4E487B7100000000000000000000000000000000000000000000000000000000 PUSH0 MSTORE PUSH1 0x11 PUSH1 0x4 MSTORE PUSH1 0x24 PUSH0 REVERT JUMPDEST PUSH0 PUSH2 0x4CA DUP3 PUSH2 0x3BE JUMP JUMPDEST SWAP2 POP PUSH2 0x4D5 DUP4 PUSH2 0x3BE JUMP JUMPDEST SWAP3 POP DUP3 DUP3 MUL PUSH2 0x4E3 DUP2 PUSH2 0x3BE JUMP JUMPDEST SWAP2 POP DUP3 DUP3 DIV DUP5 EQ DUP4 ISZERO OR PUSH2 0x4FA JUMPI PUSH2 0x4F9 PUSH2 0x493 JUMP JUMPDEST JUMPDEST POP SWAP3 SWAP2 POP POP JUMP JUMPDEST PUSH32 0x4E487B7100000000000000000000000000000000000000000000000000000000 PUSH0 MSTORE PUSH1 0x12 PUSH1 0x4 MSTORE PUSH1 0x24 PUSH0 REVERT JUMPDEST PUSH0 PUSH2 0x538 DUP3 PUSH2 0x3BE JUMP JUMPDEST SWAP2 POP PUSH2 0x543 DUP4 PUSH2 0x3BE JUMP JUMPDEST SWAP3 POP DUP3 PUSH2 0x553 JUMPI PUSH2 0x552 PUSH2 0x501 JUMP JUMPDEST JUMPDEST DUP3 DUP3 DIV SWAP1 POP SWAP3 SWAP2 POP POP JUMP JUMPDEST PUSH2 0x567 DUP2 PUSH2 0x383 JUMP JUMPDEST DUP3 MSTORE POP POP JUMP JUMPDEST PUSH2 0x576 DUP2 PUSH2 0x3BE JUMP JUMPDEST DUP3 MSTORE POP POP JUMP JUMPDEST PUSH0 PUSH1 0x40 DUP3 ADD SWAP1 POP PUSH2 0x58F PUSH0 DUP4 ADD DUP6 PUSH2 0x55E JUMP JUMPDEST PUSH2 0x59C PUSH1 0x20 DUP4 ADD DUP5 PUSH2 0x56D JUMP JUMPDEST SWAP4 SWAP3 POP POP POP JUMP JUMPDEST PUSH2 0x108B DUP1 PUSH2 0x5B0 PUSH0 CODECOPY PUSH0 RETURN INVALID PUSH1 0x80 PUSH1 0x40 MSTORE CALLVALUE DUP1 ISZERO PUSH2 0xF JUMPI PUSH0 PUSH0 REVERT JUMPDEST POP PUSH1 0x4 CALLDATASIZE LT PUSH2 0x3F JUMPI PUSH0 CALLDATALOAD PUSH1 0xE0 SHR DUP1 PUSH4 0x5A9B0B89 EQ PUSH2 0x43 JUMPI DUP1 PUSH4 0x9CD441DA EQ PUSH2 0x68 JUMPI DUP1 PUSH4 0xC037646A EQ PUSH2 0x84 JUMPI JUMPDEST PUSH0 PUSH0 REVERT JUMPDEST PUSH2 0x4B PUSH2 0xA0 JUMP JUMPDEST PUSH1 0x40 MLOAD PUSH2 0x5F SWAP9 SWAP8 SWAP7 SWAP6 SWAP5 SWAP4 SWAP3 SWAP2 SWAP1 PUSH2 0xB89 JUMP JUMPDEST PUSH1 0x40 MLOAD DUP1 SWAP2 SUB SWAP1 RETURN JUMPDEST PUSH2 0x82 PUSH1 0x4 DUP1 CALLDATASIZE SUB DUP2 ADD SWAP1 PUSH2 0x7D SWAP2 SWAP1 PUSH2 0xC4E JUMP JUMPDEST PUSH2 0x474 JUMP JUMPDEST STOP JUMPDEST PUSH2 0x9E PUSH1 0x4 DUP1 CALLDATASIZE SUB DUP2 ADD SWAP1 PUSH2 0x99 SWAP2 SWAP1 PUSH2 0xCC1 JUMP JUMPDEST PUSH2 0x815 JUMP JUMPDEST STOP JUMPDEST PUSH0 PUSH1 0x60 PUSH0 PUSH0 PUSH1 0x60 PUSH0 PUSH0 PUSH0 PUSH0 PUSH0 SWAP1 SLOAD SWAP1 PUSH2 0x100 EXP SWAP1 DIV PUSH20 0xFFFFFFFFFFFFFFFFFFFFFFFFFFFFFFFFFFFFFFFF AND SWAP8 POP PUSH0 PUSH0 SWAP1 SLOAD SWAP1 PUSH2 0x100 EXP SWAP1 DIV PUSH20 0xFFFFFFFFFFFFFFFFFFFFFFFFFFFFFFFFFFFFFFFF AND PUSH20 0xFFFFFFFFFFFFFFFFFFFFFFFFFFFFFFFFFFFFFFFF AND PUSH4 0x95D89B41 PUSH1 0x40 MLOAD DUP2 PUSH4 0xFFFFFFFF AND PUSH1 0xE0 SHL DUP2 MSTORE PUSH1 0x4 ADD PUSH0 PUSH1 0x40 MLOAD DUP1 DUP4 SUB DUP2 DUP7 GAS STATICCALL ISZERO DUP1 ISZERO PUSH2 0x135 JUMPI RETURNDATASIZE PUSH0 PUSH0 RETURNDATACOPY RETURNDATASIZE PUSH0 REVERT JUMPDEST POP POP POP POP PUSH1 0x40 MLOAD RETURNDATASIZE PUSH0 DUP3 RETURNDATACOPY RETURNDATASIZE PUSH1 0x1F NOT PUSH1 0x1F DUP3 ADD AND DUP3 ADD DUP1 PUSH1 0x40 MSTORE POP DUP2 ADD SWAP1 PUSH2 0x15D SWAP2 SWAP1 PUSH2 0xE1D JUMP JUMPDEST SWAP7 POP PUSH0 PUSH0 SWAP1 SLOAD SWAP1 PUSH2 0x100 EXP SWAP1 DIV PUSH20 0xFFFFFFFFFFFFFFFFFFFFFFFFFFFFFFFFFFFFFFFF AND PUSH20 0xFFFFFFFFFFFFFFFFFFFFFFFFFFFFFFFFFFFFFFFF AND PUSH4 0xA035B1FE PUSH1 0x40 MLOAD DUP2 PUSH4 0xFFFFFFFF AND PUSH1 0xE0 SHL DUP2 MSTORE PUSH1 0x4 ADD PUSH1 0x20 PUSH1 0x40 MLOAD DUP1 DUP4 SUB DUP2 DUP7 GAS STATICCALL ISZERO DUP1 ISZERO PUSH2 0x1C8 JUMPI RETURNDATASIZE PUSH0 PUSH0 RETURNDATACOPY RETURNDATASIZE PUSH0 REVERT JUMPDEST POP POP POP POP PUSH1 0x40 MLOAD RETURNDATASIZE PUSH1 0x1F NOT PUSH1 0x1F DUP3 ADD AND DUP3 ADD DUP1 PUSH1 0x40 MSTORE POP DUP2 ADD SWAP1 PUSH2 0x1EC SWAP2 SWAP1 PUSH2 0xE78 JUMP JUMPDEST SWAP6 POP PUSH1 0x1 PUSH0 SWAP1 SLOAD SWAP1 PUSH2 0x100 EXP SWAP1 DIV PUSH20 0xFFFFFFFFFFFFFFFFFFFFFFFFFFFFFFFFFFFFFFFF AND SWAP5 POP PUSH1 0x1 PUSH0 SWAP1 SLOAD SWAP1 PUSH2 0x100 EXP SWAP1 DIV PUSH20 0xFFFFFFFFFFFFFFFFFFFFFFFFFFFFFFFFFFFFFFFF AND PUSH20 0xFFFFFFFFFFFFFFFFFFFFFFFFFFFFFFFFFFFFFFFF AND PUSH4 0x95D89B41 PUSH1 0x40 MLOAD DUP2 PUSH4 0xFFFFFFFF AND PUSH1 0xE0 SHL DUP2 MSTORE PUSH1 0x4 ADD PUSH0 PUSH1 0x40 MLOAD DUP1 DUP4 SUB DUP2 DUP7 GAS STATICCALL ISZERO DUP1 ISZERO PUSH2 0x27B JUMPI RETURNDATASIZE PUSH0 PUSH0 RETURNDATACOPY RETURNDATASIZE PUSH0 REVERT JUMPDEST POP POP POP POP PUSH1 0x40 MLOAD RETURNDATASIZE PUSH0 DUP3 RETURNDATACOPY RETURNDATASIZE PUSH1 0x1F NOT PUSH1 0x1F DUP3 ADD AND DUP3 ADD DUP1 PUSH1 0x40 MSTORE POP DUP2 ADD SWAP1 PUSH2 0x2A3 SWAP2 SWAP1 PUSH2 0xE1D JUMP JUMPDEST SWAP4 POP PUSH1 0x1 PUSH0 SWAP1 SLOAD SWAP1 PUSH2 0x100 EXP SWAP1 DIV PUSH20 0xFFFFFFFFFFFFFFFFFFFFFFFFFFFFFFFFFFFFFFFF AND PUSH20 0xFFFFFFFFFFFFFFFFFFFFFFFFFFFFFFFFFFFFFFFF AND PUSH4 0xA035B1FE PUSH1 0x40 MLOAD DUP2 PUSH4 0xFFFFFFFF AND PUSH1 0xE0 SHL DUP2 MSTORE PUSH1 0x4 ADD PUSH1 0x20 PUSH1 0x40 MLOAD DUP1 DUP4 SUB DUP2 DUP7 GAS STATICCALL ISZERO DUP1 ISZERO PUSH2 0x30F JUMPI RETURNDATASIZE PUSH0 PUSH0 RETURNDATACOPY RETURNDATASIZE PUSH0 REVERT JUMPDEST POP POP POP POP PUSH1 0x40 MLOAD RETURNDATASIZE PUSH1 0x1F NOT PUSH1 0x1F DUP3 ADD AND DUP3 ADD DUP1 PUSH1 0x40 MSTORE POP DUP2 ADD SWAP1 PUSH2 0x333 SWAP2 SWAP1 PUSH2 0xE78 JUMP JUMPDEST SWAP3 POP PUSH0 PUSH0 SWAP1 SLOAD SWAP1 PUSH2 0x100 EXP SWAP1 DIV PUSH20 0xFFFFFFFFFFFFFFFFFFFFFFFFFFFFFFFFFFFFFFFF AND PUSH20 0xFFFFFFFFFFFFFFFFFFFFFFFFFFFFFFFFFFFFFFFF AND PUSH4 0x70A08231 ADDRESS PUSH1 0x40 MLOAD DUP3 PUSH4 0xFFFFFFFF AND PUSH1 0xE0 SHL DUP2 MSTORE PUSH1 0x4 ADD PUSH2 0x38E SWAP2 SWAP1 PUSH2 0xEA3 JUMP JUMPDEST PUSH1 0x20 PUSH1 0x40 MLOAD DUP1 DUP4 SUB DUP2 DUP7 GAS STATICCALL ISZERO DUP1 ISZERO PUSH2 0x3A9 JUMPI RETURNDATASIZE PUSH0 PUSH0 RETURNDATACOPY RETURNDATASIZE PUSH0 REVERT JUMPDEST POP POP POP POP PUSH1 0x40 MLOAD RETURNDATASIZE PUSH1 0x1F NOT PUSH1 0x1F DUP3 ADD AND DUP3 ADD DUP1 PUSH1 0x40 MSTORE POP DUP2 ADD SWAP1 PUSH2 0x3CD SWAP2 SWAP1 PUSH2 0xE78 JUMP JUMPDEST SWAP2 POP PUSH1 0x1 PUSH0 SWAP1 SLOAD SWAP1 PUSH2 0x100 EXP SWAP1 DIV PUSH20 0xFFFFFFFFFFFFFFFFFFFFFFFFFFFFFFFFFFFFFFFF AND PUSH20 0xFFFFFFFFFFFFFFFFFFFFFFFFFFFFFFFFFFFFFFFF AND PUSH4 0x70A08231 ADDRESS PUSH1 0x40 MLOAD DUP3 PUSH4 0xFFFFFFFF AND PUSH1 0xE0 SHL DUP2 MSTORE PUSH1 0x4 ADD PUSH2 0x429 SWAP2 SWAP1 PUSH2 0xEA3 JUMP JUMPDEST PUSH1 0x20 PUSH1 0x40 MLOAD DUP1 DUP4 SUB DUP2 DUP7 GAS STATICCALL ISZERO DUP1 ISZERO PUSH2 0x444 JUMPI RETURNDATASIZE PUSH0 PUSH0 RETURNDATACOPY RETURNDATASIZE PUSH0 REVERT JUMPDEST POP POP POP POP PUSH1 0x40 MLOAD RETURNDATASIZE PUSH1 0x1F NOT PUSH1 0x1F DUP3 ADD AND DUP3 ADD DUP1 PUSH1 0x40 MSTORE POP DUP2 ADD SWAP1 PUSH2 0x468 SWAP2 SWAP1 PUSH2 0xE78 JUMP JUMPDEST SWAP1 POP SWAP1 SWAP2 SWAP3 SWAP4 SWAP5 SWAP6 SWAP7 SWAP8 JUMP JUMPDEST PUSH0 PUSH0 SWAP1 SLOAD SWAP1 PUSH2 0x100 EXP SWAP1 DIV PUSH20 0xFFFFFFFFFFFFFFFFFFFFFFFFFFFFFFFFFFFFFFFF AND PUSH20 0xFFFFFFFFFFFFFFFFFFFFFFFFFFFFFFFFFFFFFFFF AND PUSH4 0x23B872DD CALLER ADDRESS DUP6 PUSH1 0x40 MLOAD DUP5 PUSH4 0xFFFFFFFF AND PUSH1 0xE0 SHL DUP2 MSTORE PUSH1 0x4 ADD PUSH2 0x4D1 SWAP4 SWAP3 SWAP2 SWAP1 PUSH2 0xEBC JUMP JUMPDEST PUSH1 0x20 PUSH1 0x40 MLOAD DUP1 DUP4 SUB DUP2 PUSH0 DUP8 GAS CALL ISZERO DUP1 ISZERO PUSH2 0x4ED JUMPI RETURNDATASIZE PUSH0 PUSH0 RETURNDATACOPY RETURNDATASIZE PUSH0 REVERT JUMPDEST POP POP POP POP PUSH1 0x40 MLOAD RETURNDATASIZE PUSH1 0x1F NOT PUSH1 0x1F DUP3 ADD AND DUP3 ADD DUP1 PUSH1 0x40 MSTORE POP DUP2 ADD SWAP1 PUSH2 0x511 SWAP2 SWAP1 PUSH2 0xF05 JUMP JUMPDEST POP PUSH1 0x1 PUSH0 SWAP1 SLOAD SWAP1 PUSH2 0x100 EXP SWAP1 DIV PUSH20 0xFFFFFFFFFFFFFFFFFFFFFFFFFFFFFFFFFFFFFFFF AND PUSH20 0xFFFFFFFFFFFFFFFFFFFFFFFFFFFFFFFFFFFFFFFF AND PUSH4 0x23B872DD CALLER ADDRESS DUP5 PUSH1 0x40 MLOAD DUP5 PUSH4 0xFFFFFFFF AND PUSH1 0xE0 SHL DUP2 MSTORE PUSH1 0x4 ADD PUSH2 0x570 SWAP4 SWAP3 SWAP2 SWAP1 PUSH2 0xEBC JUMP JUMPDEST PUSH1 0x20 PUSH1 0x40 MLOAD DUP1 DUP4 SUB DUP2 PUSH0 DUP8 GAS CALL ISZERO DUP1 ISZERO PUSH2 0x58C JUMPI RETURNDATASIZE PUSH0 PUSH0 RETURNDATACOPY RETURNDATASIZE PUSH0 REVERT JUMPDEST POP POP POP POP PUSH1 0x40 MLOAD RETURNDATASIZE PUSH1 0x1F NOT PUSH1 0x1F DUP3 ADD AND DUP3 ADD DUP1 PUSH1 0x40 MSTORE POP DUP2 ADD SWAP1 PUSH2 0x5B0 SWAP2 SWAP1 PUSH2 0xF05 JUMP JUMPDEST POP PUSH0 PUSH1 0x2 PUSH0 SWAP1 SLOAD SWAP1 PUSH2 0x100 EXP SWAP1 DIV PUSH20 0xFFFFFFFFFFFFFFFFFFFFFFFFFFFFFFFFFFFFFFFF AND PUSH20 0xFFFFFFFFFFFFFFFFFFFFFFFFFFFFFFFFFFFFFFFF AND PUSH4 0xA035B1FE PUSH1 0x40 MLOAD DUP2 PUSH4 0xFFFFFFFF AND PUSH1 0xE0 SHL DUP2 MSTORE PUSH1 0x4 ADD PUSH1 0x20 PUSH1 0x40 MLOAD DUP1 DUP4 SUB DUP2 DUP7 GAS STATICCALL ISZERO DUP1 ISZERO PUSH2 0x61C JUMPI RETURNDATASIZE PUSH0 PUSH0 RETURNDATACOPY RETURNDATASIZE PUSH0 REVERT JUMPDEST POP POP POP POP PUSH1 0x40 MLOAD RETURNDATASIZE PUSH1 0x1F NOT PUSH1 0x1F DUP3 ADD AND DUP3 ADD DUP1 PUSH1 0x40 MSTORE POP DUP2 ADD SWAP1 PUSH2 0x640 SWAP2 SWAP1 PUSH2 0xE78 JUMP JUMPDEST DUP3 PUSH1 0x1 PUSH0 SWAP1 SLOAD SWAP1 PUSH2 0x100 EXP SWAP1 DIV PUSH20 0xFFFFFFFFFFFFFFFFFFFFFFFFFFFFFFFFFFFFFFFF AND PUSH20 0xFFFFFFFFFFFFFFFFFFFFFFFFFFFFFFFFFFFFFFFF AND PUSH4 0xA035B1FE PUSH1 0x40 MLOAD DUP2 PUSH4 0xFFFFFFFF AND PUSH1 0xE0 SHL DUP2 MSTORE PUSH1 0x4 ADD PUSH1 0x20 PUSH1 0x40 MLOAD DUP1 DUP4 SUB DUP2 DUP7 GAS STATICCALL ISZERO DUP1 ISZERO PUSH2 0x6AB JUMPI RETURNDATASIZE PUSH0 PUSH0 RETURNDATACOPY RETURNDATASIZE PUSH0 REVERT JUMPDEST POP POP POP POP PUSH1 0x40 MLOAD RETURNDATASIZE PUSH1 0x1F NOT PUSH1 0x1F DUP3 ADD AND DUP3 ADD DUP1 PUSH1 0x40 MSTORE POP DUP2 ADD SWAP1 PUSH2 0x6CF SWAP2 SWAP1 PUSH2 0xE78 JUMP JUMPDEST PUSH2 0x6D9 SWAP2 SWAP1 PUSH2 0xF5D JUMP JUMPDEST DUP5 PUSH0 PUSH0 SWAP1 SLOAD SWAP1 PUSH2 0x100 EXP SWAP1 DIV PUSH20 0xFFFFFFFFFFFFFFFFFFFFFFFFFFFFFFFFFFFFFFFF AND PUSH20 0xFFFFFFFFFFFFFFFFFFFFFFFFFFFFFFFFFFFFFFFF AND PUSH4 0xA035B1FE PUSH1 0x40 MLOAD DUP2 PUSH4 0xFFFFFFFF AND PUSH1 0xE0 SHL DUP2 MSTORE PUSH1 0x4 ADD PUSH1 0x20 PUSH1 0x40 MLOAD DUP1 DUP4 SUB DUP2 DUP7 GAS STATICCALL ISZERO DUP1 ISZERO PUSH2 0x743 JUMPI RETURNDATASIZE PUSH0 PUSH0 RETURNDATACOPY RETURNDATASIZE PUSH0 REVERT JUMPDEST POP POP POP POP PUSH1 0x40 MLOAD RETURNDATASIZE PUSH1 0x1F NOT PUSH1 0x1F DUP3 ADD AND DUP3 ADD DUP1 PUSH1 0x40 MSTORE POP DUP2 ADD SWAP1 PUSH2 0x767 SWAP2 SWAP1 PUSH2 0xE78 JUMP JUMPDEST PUSH2 0x771 SWAP2 SWAP1 PUSH2 0xF5D JUMP JUMPDEST PUSH2 0x77B SWAP2 SWAP1 PUSH2 0xF9E JUMP JUMPDEST PUSH2 0x785 SWAP2 SWAP1 PUSH2 0xFFE JUMP JUMPDEST SWAP1 POP PUSH1 0x2 PUSH0 SWAP1 SLOAD SWAP1 PUSH2 0x100 EXP SWAP1 DIV PUSH20 0xFFFFFFFFFFFFFFFFFFFFFFFFFFFFFFFFFFFFFFFF AND PUSH20 0xFFFFFFFFFFFFFFFFFFFFFFFFFFFFFFFFFFFFFFFF AND PUSH4 0x40C10F19 CALLER DUP4 PUSH1 0x40 MLOAD DUP4 PUSH4 0xFFFFFFFF AND PUSH1 0xE0 SHL DUP2 MSTORE PUSH1 0x4 ADD PUSH2 0x7E3 SWAP3 SWAP2 SWAP1 PUSH2 0x102E JUMP JUMPDEST PUSH0 PUSH1 0x40 MLOAD DUP1 DUP4 SUB DUP2 PUSH0 DUP8 DUP1 EXTCODESIZE ISZERO DUP1 ISZERO PUSH2 0x7FA JUMPI PUSH0 PUSH0 REVERT JUMPDEST POP GAS CALL ISZERO DUP1 ISZERO PUSH2 0x80C JUMPI RETURNDATASIZE PUSH0 PUSH0 RETURNDATACOPY RETURNDATASIZE PUSH0 REVERT JUMPDEST POP POP POP POP POP POP POP JUMP JUMPDEST PUSH0 DUP3 PUSH2 0x842 JUMPI PUSH1 0x1 PUSH0 SWAP1 SLOAD SWAP1 PUSH2 0x100 EXP SWAP1 DIV PUSH20 0xFFFFFFFFFFFFFFFFFFFFFFFFFFFFFFFFFFFFFFFF AND PUSH2 0x864 JUMP JUMPDEST PUSH0 PUSH0 SWAP1 SLOAD SWAP1 PUSH2 0x100 EXP SWAP1 DIV PUSH20 0xFFFFFFFFFFFFFFFFFFFFFFFFFFFFFFFFFFFFFFFF AND JUMPDEST SWAP1 POP PUSH0 DUP4 PUSH2 0x892 JUMPI PUSH0 PUSH0 SWAP1 SLOAD SWAP1 PUSH2 0x100 EXP SWAP1 DIV PUSH20 0xFFFFFFFFFFFFFFFFFFFFFFFFFFFFFFFFFFFFFFFF AND PUSH2 0x8B5 JUMP JUMPDEST PUSH1 0x1 PUSH0 SWAP1 SLOAD SWAP1 PUSH2 0x100 EXP SWAP1 DIV PUSH20 0xFFFFFFFFFFFFFFFFFFFFFFFFFFFFFFFFFFFFFFFF AND JUMPDEST SWAP1 POP PUSH0 DUP3 PUSH20 0xFFFFFFFFFFFFFFFFFFFFFFFFFFFFFFFFFFFFFFFF AND PUSH4 0x70A08231 ADDRESS PUSH1 0x40 MLOAD DUP3 PUSH4 0xFFFFFFFF AND PUSH1 0xE0 SHL DUP2 MSTORE PUSH1 0x4 ADD PUSH2 0x8F1 SWAP2 SWAP1 PUSH2 0xEA3 JUMP JUMPDEST PUSH1 0x20 PUSH1 0x40 MLOAD DUP1 DUP4 SUB DUP2 DUP7 GAS STATICCALL ISZERO DUP1 ISZERO PUSH2 0x90C JUMPI RETURNDATASIZE PUSH0 PUSH0 RETURNDATACOPY RETURNDATASIZE PUSH0 REVERT JUMPDEST POP POP POP POP PUSH1 0x40 MLOAD RETURNDATASIZE PUSH1 0x1F NOT PUSH1 0x1F DUP3 ADD AND DUP3 ADD DUP1 PUSH1 0x40 MSTORE POP DUP2 ADD SWAP1 PUSH2 0x930 SWAP2 SWAP1 PUSH2 0xE78 JUMP JUMPDEST DUP3 PUSH20 0xFFFFFFFFFFFFFFFFFFFFFFFFFFFFFFFFFFFFFFFF AND PUSH4 0x70A08231 ADDRESS PUSH1 0x40 MLOAD DUP3 PUSH4 0xFFFFFFFF AND PUSH1 0xE0 SHL DUP2 MSTORE PUSH1 0x4 ADD PUSH2 0x969 SWAP2 SWAP1 PUSH2 0xEA3 JUMP JUMPDEST PUSH1 0x20 PUSH1 0x40 MLOAD DUP1 DUP4 SUB DUP2 DUP7 GAS STATICCALL ISZERO DUP1 ISZERO PUSH2 0x984 JUMPI RETURNDATASIZE PUSH0 PUSH0 RETURNDATACOPY RETURNDATASIZE PUSH0 REVERT JUMPDEST POP POP POP POP PUSH1 0x40 MLOAD RETURNDATASIZE PUSH1 0x1F NOT PUSH1 0x1F DUP3 ADD AND DUP3 ADD DUP1 PUSH1 0x40 MSTORE POP DUP2 ADD SWAP1 PUSH2 0x9A8 SWAP2 SWAP1 PUSH2 0xE78 JUMP JUMPDEST DUP6 PUSH2 0x9B3 SWAP2 SWAP1 PUSH2 0xF5D JUMP JUMPDEST PUSH2 0x9BD SWAP2 SWAP1 PUSH2 0xFFE JUMP JUMPDEST SWAP1 POP DUP3 PUSH20 0xFFFFFFFFFFFFFFFFFFFFFFFFFFFFFFFFFFFFFFFF AND PUSH4 0x23B872DD CALLER ADDRESS DUP8 PUSH1 0x40 MLOAD DUP5 PUSH4 0xFFFFFFFF AND PUSH1 0xE0 SHL DUP2 MSTORE PUSH1 0x4 ADD PUSH2 0x9FC SWAP4 SWAP3 SWAP2 SWAP1 PUSH2 0xEBC JUMP JUMPDEST PUSH1 0x20 PUSH1 0x40 MLOAD DUP1 DUP4 SUB DUP2 PUSH0 DUP8 GAS CALL ISZERO DUP1 ISZERO PUSH2 0xA18 JUMPI RETURNDATASIZE PUSH0 PUSH0 RETURNDATACOPY RETURNDATASIZE PUSH0 REVERT JUMPDEST POP POP POP POP PUSH1 0x40 MLOAD RETURNDATASIZE PUSH1 0x1F NOT PUSH1 0x1F DUP3 ADD AND DUP3 ADD DUP1 PUSH1 0x40 MSTORE POP DUP2 ADD SWAP1 PUSH2 0xA3C SWAP2 SWAP1 PUSH2 0xF05 JUMP JUMPDEST POP DUP2 PUSH20 0xFFFFFFFFFFFFFFFFFFFFFFFFFFFFFFFFFFFFFFFF AND PUSH4 0x23B872DD ADDRESS CALLER DUP5 PUSH1 0x40 MLOAD DUP5 PUSH4 0xFFFFFFFF AND PUSH1 0xE0 SHL DUP2 MSTORE PUSH1 0x4 ADD PUSH2 0xA7A SWAP4 SWAP3 SWAP2 SWAP1 PUSH2 0xEBC JUMP JUMPDEST PUSH1 0x20 PUSH1 0x40 MLOAD DUP1 DUP4 SUB DUP2 PUSH0 DUP8 GAS CALL ISZERO DUP1 ISZERO PUSH2 0xA96 JUMPI RETURNDATASIZE PUSH0 PUSH0 RETURNDATACOPY RETURNDATASIZE PUSH0 REVERT JUMPDEST POP POP POP POP PUSH1 0x40 MLOAD RETURNDATASIZE PUSH1 0x1F NOT PUSH1 0x1F DUP3 ADD AND DUP3 ADD DUP1 PUSH1 0x40 MSTORE POP DUP2 ADD SWAP1 PUSH2 0xABA SWAP2 SWAP1 PUSH2 0xF05 JUMP JUMPDEST POP POP POP POP POP POP JUMP JUMPDEST PUSH0 PUSH20 0xFFFFFFFFFFFFFFFFFFFFFFFFFFFFFFFFFFFFFFFF DUP3 AND SWAP1 POP SWAP2 SWAP1 POP JUMP JUMPDEST PUSH0 PUSH2 0xAEB DUP3 PUSH2 0xAC2 JUMP JUMPDEST SWAP1 POP SWAP2 SWAP1 POP JUMP JUMPDEST PUSH2 0xAFB DUP2 PUSH2 0xAE1 JUMP JUMPDEST DUP3 MSTORE POP POP JUMP JUMPDEST PUSH0 DUP2 MLOAD SWAP1 POP SWAP2 SWAP1 POP JUMP JUMPDEST PUSH0 DUP3 DUP3 MSTORE PUSH1 0x20 DUP3 ADD SWAP1 POP SWAP3 SWAP2 POP POP JUMP JUMPDEST DUP3 DUP2 DUP4 MCOPY PUSH0 DUP4 DUP4 ADD MSTORE POP POP POP JUMP JUMPDEST PUSH0 PUSH1 0x1F NOT PUSH1 0x1F DUP4 ADD AND SWAP1 POP SWAP2 SWAP1 POP JUMP JUMPDEST PUSH0 PUSH2 0xB43 DUP3 PUSH2 0xB01 JUMP JUMPDEST PUSH2 0xB4D DUP2 DUP6 PUSH2 0xB0B JUMP JUMPDEST SWAP4 POP PUSH2 0xB5D DUP2 DUP6 PUSH1 0x20 DUP7 ADD PUSH2 0xB1B JUMP JUMPDEST PUSH2 0xB66 DUP2 PUSH2 0xB29 JUMP JUMPDEST DUP5 ADD SWAP2 POP POP SWAP3 SWAP2 POP POP JUMP JUMPDEST PUSH0 DUP2 SWAP1 POP SWAP2 SWAP1 POP JUMP JUMPDEST PUSH2 0xB83 DUP2 PUSH2 0xB71 JUMP JUMPDEST DUP3 MSTORE POP POP JUMP JUMPDEST PUSH0 PUSH2 0x100 DUP3 ADD SWAP1 POP PUSH2 0xB9D PUSH0 DUP4 ADD DUP12 PUSH2 0xAF2 JUMP JUMPDEST DUP2 DUP2 SUB PUSH1 0x20 DUP4 ADD MSTORE PUSH2 0xBAF DUP2 DUP11 PUSH2 0xB39 JUMP JUMPDEST SWAP1 POP PUSH2 0xBBE PUSH1 0x40 DUP4 ADD DUP10 PUSH2 0xB7A JUMP JUMPDEST PUSH2 0xBCB PUSH1 0x60 DUP4 ADD DUP9 PUSH2 0xAF2 JUMP JUMPDEST DUP2 DUP2 SUB PUSH1 0x80 DUP4 ADD MSTORE PUSH2 0xBDD DUP2 DUP8 PUSH2 0xB39 JUMP JUMPDEST SWAP1 POP PUSH2 0xBEC PUSH1 0xA0 DUP4 ADD DUP7 PUSH2 0xB7A JUMP JUMPDEST PUSH2 0xBF9 PUSH1 0xC0 DUP4 ADD DUP6 PUSH2 0xB7A JUMP JUMPDEST PUSH2 0xC06 PUSH1 0xE0 DUP4 ADD DUP5 PUSH2 0xB7A JUMP JUMPDEST SWAP10 SWAP9 POP POP POP POP POP POP POP POP POP JUMP JUMPDEST PUSH0 PUSH1 0x40 MLOAD SWAP1 POP SWAP1 JUMP JUMPDEST PUSH0 PUSH0 REVERT JUMPDEST PUSH0 PUSH0 REVERT JUMPDEST PUSH2 0xC2D DUP2 PUSH2 0xB71 JUMP JUMPDEST DUP2 EQ PUSH2 0xC37 JUMPI PUSH0 PUSH0 REVERT JUMPDEST POP JUMP JUMPDEST PUSH0 DUP2 CALLDATALOAD SWAP1 POP PUSH2 0xC48 DUP2 PUSH2 0xC24 JUMP JUMPDEST SWAP3 SWAP2 POP POP JUMP JUMPDEST PUSH0 PUSH0 PUSH1 0x40 DUP4 DUP6 SUB SLT ISZERO PUSH2 0xC64 JUMPI PUSH2 0xC63 PUSH2 0xC1C JUMP JUMPDEST JUMPDEST PUSH0 PUSH2 0xC71 DUP6 DUP3 DUP7 ADD PUSH2 0xC3A JUMP JUMPDEST SWAP3 POP POP PUSH1 0x20 PUSH2 0xC82 DUP6 DUP3 DUP7 ADD PUSH2 0xC3A JUMP JUMPDEST SWAP2 POP POP SWAP3 POP SWAP3 SWAP1 POP JUMP JUMPDEST PUSH0 DUP2 ISZERO ISZERO SWAP1 POP SWAP2 SWAP1 POP JUMP JUMPDEST PUSH2 0xCA0 DUP2 PUSH2 0xC8C JUMP JUMPDEST DUP2 EQ PUSH2 0xCAA JUMPI PUSH0 PUSH0 REVERT JUMPDEST POP JUMP JUMPDEST PUSH0 DUP2 CALLDATALOAD SWAP1 POP PUSH2 0xCBB DUP2 PUSH2 0xC97 JUMP JUMPDEST SWAP3 SWAP2 POP POP JUMP JUMPDEST PUSH0 PUSH0 PUSH1 0x40 DUP4 DUP6 SUB SLT ISZERO PUSH2 0xCD7 JUMPI PUSH2 0xCD6 PUSH2 0xC1C JUMP JUMPDEST JUMPDEST PUSH0 PUSH2 0xCE4 DUP6 DUP3 DUP7 ADD PUSH2 0xCAD JUMP JUMPDEST SWAP3 POP POP PUSH1 0x20 PUSH2 0xCF5 DUP6 DUP3 DUP7 ADD PUSH2 0xC3A JUMP JUMPDEST SWAP2 POP POP SWAP3 POP SWAP3 SWAP1 POP JUMP JUMPDEST PUSH0 PUSH0 REVERT JUMPDEST PUSH0 PUSH0 REVERT JUMPDEST PUSH32 0x4E487B7100000000000000000000000000000000000000000000000000000000 PUSH0 MSTORE PUSH1 0x41 PUSH1 0x4 MSTORE PUSH1 0x24 PUSH0 REVERT JUMPDEST PUSH2 0xD3D DUP3 PUSH2 0xB29 JUMP JUMPDEST DUP2 ADD DUP2 DUP2 LT PUSH8 0xFFFFFFFFFFFFFFFF DUP3 GT OR ISZERO PUSH2 0xD5C JUMPI PUSH2 0xD5B PUSH2 0xD07 JUMP JUMPDEST JUMPDEST DUP1 PUSH1 0x40 MSTORE POP POP POP JUMP JUMPDEST PUSH0 PUSH2 0xD6E PUSH2 0xC13 JUMP JUMPDEST SWAP1 POP PUSH2 0xD7A DUP3 DUP3 PUSH2 0xD34 JUMP JUMPDEST SWAP2 SWAP1 POP JUMP JUMPDEST PUSH0 PUSH8 0xFFFFFFFFFFFFFFFF DUP3 GT ISZERO PUSH2 0xD99 JUMPI PUSH2 0xD98 PUSH2 0xD07 JUMP JUMPDEST JUMPDEST PUSH2 0xDA2 DUP3 PUSH2 0xB29 JUMP JUMPDEST SWAP1 POP PUSH1 0x20 DUP2 ADD SWAP1 POP SWAP2 SWAP1 POP JUMP JUMPDEST PUSH0 PUSH2 0xDC1 PUSH2 0xDBC DUP5 PUSH2 0xD7F JUMP JUMPDEST PUSH2 0xD65 JUMP JUMPDEST SWAP1 POP DUP3 DUP2 MSTORE PUSH1 0x20 DUP2 ADD DUP5 DUP5 DUP5 ADD GT ISZERO PUSH2 0xDDD JUMPI PUSH2 0xDDC PUSH2 0xD03 JUMP JUMPDEST JUMPDEST PUSH2 0xDE8 DUP5 DUP3 DUP6 PUSH2 0xB1B JUMP JUMPDEST POP SWAP4 SWAP3 POP POP POP JUMP JUMPDEST PUSH0 DUP3 PUSH1 0x1F DUP4 ADD SLT PUSH2 0xE04 JUMPI PUSH2 0xE03 PUSH2 0xCFF JUMP JUMPDEST JUMPDEST DUP2 MLOAD PUSH2 0xE14 DUP5 DUP3 PUSH1 0x20 DUP7 ADD PUSH2 0xDAF JUMP JUMPDEST SWAP2 POP POP SWAP3 SWAP2 POP POP JUMP JUMPDEST PUSH0 PUSH1 0x20 DUP3 DUP5 SUB SLT ISZERO PUSH2 0xE32 JUMPI PUSH2 0xE31 PUSH2 0xC1C JUMP JUMPDEST JUMPDEST PUSH0 DUP3 ADD MLOAD PUSH8 0xFFFFFFFFFFFFFFFF DUP2 GT ISZERO PUSH2 0xE4F JUMPI PUSH2 0xE4E PUSH2 0xC20 JUMP JUMPDEST JUMPDEST PUSH2 0xE5B DUP5 DUP3 DUP6 ADD PUSH2 0xDF0 JUMP JUMPDEST SWAP2 POP POP SWAP3 SWAP2 POP POP JUMP JUMPDEST PUSH0 DUP2 MLOAD SWAP1 POP PUSH2 0xE72 DUP2 PUSH2 0xC24 JUMP JUMPDEST SWAP3 SWAP2 POP POP JUMP JUMPDEST PUSH0 PUSH1 0x20 DUP3 DUP5 SUB SLT ISZERO PUSH2 0xE8D JUMPI PUSH2 0xE8C PUSH2 0xC1C JUMP JUMPDEST JUMPDEST PUSH0 PUSH2 0xE9A DUP5 DUP3 DUP6 ADD PUSH2 0xE64 JUMP JUMPDEST SWAP2 POP POP SWAP3 SWAP2 POP POP JUMP JUMPDEST PUSH0 PUSH1 0x20 DUP3 ADD SWAP1 POP PUSH2 0xEB6 PUSH0 DUP4 ADD DUP5 PUSH2 0xAF2 JUMP JUMPDEST SWAP3 SWAP2 POP POP JUMP JUMPDEST PUSH0 PUSH1 0x60 DUP3 ADD SWAP1 POP PUSH2 0xECF PUSH0 DUP4 ADD DUP7 PUSH2 0xAF2 JUMP JUMPDEST PUSH2 0xEDC PUSH1 0x20 DUP4 ADD DUP6 PUSH2 0xAF2 JUMP JUMPDEST PUSH2 0xEE9 PUSH1 0x40 DUP4 ADD DUP5 PUSH2 0xB7A JUMP JUMPDEST SWAP5 SWAP4 POP POP POP POP JUMP JUMPDEST PUSH0 DUP2 MLOAD SWAP1 POP PUSH2 0xEFF DUP2 PUSH2 0xC97 JUMP JUMPDEST SWAP3 SWAP2 POP POP JUMP JUMPDEST PUSH0 PUSH1 0x20 DUP3 DUP5 SUB SLT ISZERO PUSH2 0xF1A JUMPI PUSH2 0xF19 PUSH2 0xC1C JUMP JUMPDEST JUMPDEST PUSH0 PUSH2 0xF27 DUP5 DUP3 DUP6 ADD PUSH2 0xEF1 JUMP JUMPDEST SWAP2 POP POP SWAP3 SWAP2 POP POP JUMP JUMPDEST PUSH32 0x4E487B7100000000000000000000000000000000000000000000000000000000 PUSH0 MSTORE PUSH1 0x11 PUSH1 0x4 MSTORE PUSH1 0x24 PUSH0 REVERT JUMPDEST PUSH0 PUSH2 0xF67 DUP3 PUSH2 0xB71 JUMP JUMPDEST SWAP2 POP PUSH2 0xF72 DUP4 PUSH2 0xB71 JUMP JUMPDEST SWAP3 POP DUP3 DUP3 MUL PUSH2 0xF80 DUP2 PUSH2 0xB71 JUMP JUMPDEST SWAP2 POP DUP3 DUP3 DIV DUP5 EQ DUP4 ISZERO OR PUSH2 0xF97 JUMPI PUSH2 0xF96 PUSH2 0xF30 JUMP JUMPDEST JUMPDEST POP SWAP3 SWAP2 POP POP JUMP JUMPDEST PUSH0 PUSH2 0xFA8 DUP3 PUSH2 0xB71 JUMP JUMPDEST SWAP2 POP PUSH2 0xFB3 DUP4 PUSH2 0xB71 JUMP JUMPDEST SWAP3 POP DUP3 DUP3 ADD SWAP1 POP DUP1 DUP3 GT ISZERO PUSH2 0xFCB JUMPI PUSH2 0xFCA PUSH2 0xF30 JUMP JUMPDEST JUMPDEST SWAP3 SWAP2 POP POP JUMP JUMPDEST PUSH32 0x4E487B7100000000000000000000000000000000000000000000000000000000 PUSH0 MSTORE PUSH1 0x12 PUSH1 0x4 MSTORE PUSH1 0x24 PUSH0 REVERT JUMPDEST PUSH0 PUSH2 0x1008 DUP3 PUSH2 0xB71 JUMP JUMPDEST SWAP2 POP PUSH2 0x1013 DUP4 PUSH2 0xB71 JUMP JUMPDEST SWAP3 POP DUP3 PUSH2 0x1023 JUMPI PUSH2 0x1022 PUSH2 0xFD1 JUMP JUMPDEST JUMPDEST DUP3 DUP3 DIV SWAP1 POP SWAP3 SWAP2 POP POP JUMP JUMPDEST PUSH0 PUSH1 0x40 DUP3 ADD SWAP1 POP PUSH2 0x1041 PUSH0 DUP4 ADD DUP6 PUSH2 0xAF2 JUMP JUMPDEST PUSH2 0x104E PUSH1 0x20 DUP4 ADD DUP5 PUSH2 0xB7A JUMP JUMPDEST SWAP4 SWAP3 POP POP POP JUMP INVALID LOG2 PUSH5 0x6970667358 0x22 SLT KECCAK256 PUSH0 0xEC 0x2A 0xA9 0x2D 0xD3 LT DUP1 EXP 0xB0 0xC8 PUSH9 0xDBED0F6AB3BD1711E3 COINBASE PREVRANDAO DUP5 0x24 DUP6 0xD 0x2E CALLDATASIZE 0xB0 0x25 EQ PUSH5 0x736F6C6343 STOP ADDMOD SHR STOP CALLER "
		},
		"gasEstimates": {
			"creation": {
				"codeDepositCost": "847000",
				"executionCost": "infinite",
				"totalCost": "infinite"
			},
			"external": {
				"addLiquidity(uint256,uint256)": "infinite",
				"getInfo()": "infinite",
				"swap(bool,uint256)": "infinite"
			}
		},
		"methodIdentifiers": {
			"addLiquidity(uint256,uint256)": "9cd441da",
			"getInfo()": "5a9b0b89",
			"swap(bool,uint256)": "c037646a"
		}
	},
	"abi": [
		{
			"inputs": [
				{
					"internalType": "address",
					"name": "_firstToken",
					"type": "address"
				},
				{
					"internalType": "address",
					"name": "_secondToken",
					"type": "address"
				},
				{
					"internalType": "address",
					"name": "_lpToken",
					"type": "address"
				},
				{
					"internalType": "uint256",
					"name": "_firstTokenETHInitAmount",
					"type": "uint256"
				},
				{
					"internalType": "uint256",
					"name": "_secondTokenETHInitAmount",
					"type": "uint256"
				}
			],
			"stateMutability": "nonpayable",
			"type": "constructor"
		},
		{
			"inputs": [
				{
					"internalType": "uint256",
					"name": "_firstTokenAmount",
					"type": "uint256"
				},
				{
					"internalType": "uint256",
					"name": "_secondTokenAmount",
					"type": "uint256"
				}
			],
			"name": "addLiquidity",
			"outputs": [],
			"stateMutability": "nonpayable",
			"type": "function"
		},
		{
			"inputs": [],
			"name": "getInfo",
			"outputs": [
				{
					"internalType": "address",
					"name": "firstTokenAddress",
					"type": "address"
				},
				{
					"internalType": "string",
					"name": "firstTokenSymbol",
					"type": "string"
				},
				{
					"internalType": "uint256",
					"name": "firstTokenWeiPrice",
					"type": "uint256"
				},
				{
					"internalType": "address",
					"name": "secondTokenAddress",
					"type": "address"
				},
				{
					"internalType": "string",
					"name": "secondTokenSymbol",
					"type": "string"
				},
				{
					"internalType": "uint256",
					"name": "secondTokenWeiPrice",
					"type": "uint256"
				},
				{
					"internalType": "uint256",
					"name": "firstTokenReserve",
					"type": "uint256"
				},
				{
					"internalType": "uint256",
					"name": "secondTokenReserve",
					"type": "uint256"
				}
			],
			"stateMutability": "view",
			"type": "function"
		},
		{
			"inputs": [
				{
					"internalType": "bool",
					"name": "_isSwapFirstTokenToSecond",
					"type": "bool"
				},
				{
					"internalType": "uint256",
					"name": "_amount",
					"type": "uint256"
				}
			],
			"name": "swap",
			"outputs": [],
			"stateMutability": "nonpayable",
			"type": "function"
		}
	]
}